{
  "_format": "hh-sol-artifact-1",
  "contractName": "MockEwmNftAllowance",
  "sourceName": "contracts/MockEwmNftAllowance.sol",
  "abi": [
    {
      "inputs": [
        {
          "internalType": "uint256",
          "name": "price",
          "type": "uint256"
        }
      ],
      "name": "setStakePrice",
      "outputs": [],
      "stateMutability": "nonpayable",
      "type": "function"
    },
    {
      "inputs": [
        {
          "internalType": "address",
          "name": "user",
          "type": "address"
        },
        {
          "internalType": "uint256",
          "name": "amount",
          "type": "uint256"
        }
      ],
      "name": "setTotalNftToMint",
      "outputs": [],
      "stateMutability": "nonpayable",
      "type": "function"
    },
    {
      "inputs": [
        {
          "internalType": "uint256",
          "name": "amount",
          "type": "uint256"
        }
      ],
      "name": "setTotalStakeReceived",
      "outputs": [],
      "stateMutability": "nonpayable",
      "type": "function"
    },
    {
      "inputs": [],
      "name": "stakePrice",
      "outputs": [
        {
          "internalType": "uint256",
          "name": "",
          "type": "uint256"
        }
      ],
      "stateMutability": "view",
      "type": "function"
    },
    {
      "inputs": [
        {
          "internalType": "address",
          "name": "",
          "type": "address"
        }
      ],
      "name": "totalNftToMint",
      "outputs": [
        {
          "internalType": "uint256",
          "name": "",
          "type": "uint256"
        }
      ],
      "stateMutability": "view",
      "type": "function"
    },
    {
      "inputs": [],
      "name": "totalStakeReceived",
      "outputs": [
        {
          "internalType": "uint256",
          "name": "",
          "type": "uint256"
        }
      ],
      "stateMutability": "view",
      "type": "function"
    }
  ],
  "bytecode": "0x6080604052348015600f57600080fd5b506103398061001f6000396000f3fe608060405234801561001057600080fd5b50600436106100625760003560e01c806319a95d0a14610067578063209df0fa146100855780633762723d146100a1578063a023cf69146100d1578063a4ac7272146100ef578063fada8ba91461010b575b600080fd5b61006f610127565b60405161007c91906101bf565b60405180910390f35b61009f600480360381019061009a919061020b565b61012d565b005b6100bb60048036038101906100b69190610296565b610137565b6040516100c891906101bf565b60405180910390f35b6100d961014f565b6040516100e691906101bf565b60405180910390f35b6101096004803603810190610104919061020b565b610155565b005b610125600480360381019061012091906102c3565b61015f565b005b60015481565b8060028190555050565b60006020528060005260406000206000915090505481565b60025481565b8060018190555050565b806000808473ffffffffffffffffffffffffffffffffffffffff1673ffffffffffffffffffffffffffffffffffffffff168152602001908152602001600020819055505050565b6000819050919050565b6101b9816101a6565b82525050565b60006020820190506101d460008301846101b0565b92915050565b600080fd5b6101e8816101a6565b81146101f357600080fd5b50565b600081359050610205816101df565b92915050565b600060208284031215610221576102206101da565b5b600061022f848285016101f6565b91505092915050565b600073ffffffffffffffffffffffffffffffffffffffff82169050919050565b600061026382610238565b9050919050565b61027381610258565b811461027e57600080fd5b50565b6000813590506102908161026a565b92915050565b6000602082840312156102ac576102ab6101da565b5b60006102ba84828501610281565b91505092915050565b600080604083850312156102da576102d96101da565b5b60006102e885828601610281565b92505060206102f9858286016101f6565b915050925092905056fea2646970667358221220f45b92df65a641469d95cb87f6e58fd52a0048c2f41377473bd70e315f8e8c6364736f6c634300081c0033",
  "linkReferences": {},
  "deployedLinkReferences": {}
}