{
  "_format": "hh-sol-artifact-1",
  "contractName": "EwmNftClaim",
  "sourceName": "contracts/EwmNftClaim.sol",
  "abi": [
    {
      "inputs": [
        {
          "internalType": "address",
          "name": "lightClientNFT",
          "type": "address"
        },
        {
          "internalType": "address",
          "name": "claimAdmin",
          "type": "address"
        }
      ],
      "stateMutability": "nonpayable",
      "type": "constructor"
    },
    {
      "anonymous": false,
      "inputs": [
        {
          "indexed": false,
          "internalType": "address[]",
          "name": "contracts",
          "type": "address[]"
        }
      ],
      "name": "EventAllowanceContractsUpdated",
      "type": "event"
    },
    {
      "anonymous": false,
      "inputs": [
        {
          "indexed": true,
          "internalType": "address",
          "name": "user",
          "type": "address"
        },
        {
          "indexed": false,
          "internalType": "bool",
          "name": "status",
          "type": "bool"
        }
      ],
      "name": "EventBlacklistUpdated",
      "type": "event"
    },
    {
      "anonymous": false,
      "inputs": [
        {
          "indexed": false,
          "internalType": "address",
          "name": "user",
          "type": "address"
        },
        {
          "indexed": false,
          "internalType": "uint256",
          "name": "amount",
          "type": "uint256"
        }
      ],
      "name": "EventClaim",
      "type": "event"
    },
    {
      "anonymous": false,
      "inputs": [
        {
          "indexed": false,
          "internalType": "address",
          "name": "newAdmin",
          "type": "address"
        }
      ],
      "name": "EventClaimAdminUpdated",
      "type": "event"
    },
    {
      "anonymous": false,
      "inputs": [
        {
          "indexed": true,
          "internalType": "address",
          "name": "previousOwner",
          "type": "address"
        },
        {
          "indexed": true,
          "internalType": "address",
          "name": "newOwner",
          "type": "address"
        }
      ],
      "name": "OwnershipTransferStarted",
      "type": "event"
    },
    {
      "anonymous": false,
      "inputs": [
        {
          "indexed": true,
          "internalType": "address",
          "name": "previousOwner",
          "type": "address"
        },
        {
          "indexed": true,
          "internalType": "address",
          "name": "newOwner",
          "type": "address"
        }
      ],
      "name": "OwnershipTransferred",
      "type": "event"
    },
    {
      "anonymous": false,
      "inputs": [
        {
          "indexed": false,
          "internalType": "address",
          "name": "account",
          "type": "address"
        }
      ],
      "name": "Paused",
      "type": "event"
    },
    {
      "anonymous": false,
      "inputs": [
        {
          "indexed": false,
          "internalType": "address",
          "name": "account",
          "type": "address"
        }
      ],
      "name": "Unpaused",
      "type": "event"
    },
    {
      "inputs": [],
      "name": "acceptOwnership",
      "outputs": [],
      "stateMutability": "nonpayable",
      "type": "function"
    },
    {
      "inputs": [
        {
          "internalType": "address[]",
          "name": "userArray",
          "type": "address[]"
        },
        {
          "internalType": "uint256[]",
          "name": "amountArray",
          "type": "uint256[]"
        }
      ],
      "name": "adminBatchClaim",
      "outputs": [],
      "stateMutability": "nonpayable",
      "type": "function"
    },
    {
      "inputs": [
        {
          "internalType": "address[]",
          "name": "userArray",
          "type": "address[]"
        }
      ],
      "name": "adminBatchClaimAll",
      "outputs": [],
      "stateMutability": "nonpayable",
      "type": "function"
    },
    {
      "inputs": [
        {
          "internalType": "address",
          "name": "user",
          "type": "address"
        },
        {
          "internalType": "uint256",
          "name": "amount",
          "type": "uint256"
        }
      ],
      "name": "adminClaim",
      "outputs": [],
      "stateMutability": "nonpayable",
      "type": "function"
    },
    {
      "inputs": [
        {
          "internalType": "address[]",
          "name": "userArray",
          "type": "address[]"
        }
      ],
      "name": "batchClaimedNftCount",
      "outputs": [
        {
          "internalType": "uint256[]",
          "name": "",
          "type": "uint256[]"
        }
      ],
      "stateMutability": "view",
      "type": "function"
    },
    {
      "inputs": [
        {
          "internalType": "address[]",
          "name": "userArray",
          "type": "address[]"
        }
      ],
      "name": "batchUnClaimedNftCount",
      "outputs": [
        {
          "internalType": "uint256[]",
          "name": "",
          "type": "uint256[]"
        }
      ],
      "stateMutability": "view",
      "type": "function"
    },
    {
      "inputs": [
        {
          "internalType": "uint256",
          "name": "amount",
          "type": "uint256"
        }
      ],
      "name": "claim",
      "outputs": [],
      "stateMutability": "nonpayable",
      "type": "function"
    },
    {
      "inputs": [],
      "name": "claimAdminAddress",
      "outputs": [
        {
          "internalType": "address",
          "name": "",
          "type": "address"
        }
      ],
      "stateMutability": "view",
      "type": "function"
    },
    {
      "inputs": [],
      "name": "claimAll",
      "outputs": [],
      "stateMutability": "nonpayable",
      "type": "function"
    },
    {
      "inputs": [],
      "name": "getAllowanceContractsArray",
      "outputs": [
        {
          "internalType": "address[]",
          "name": "",
          "type": "address[]"
        }
      ],
      "stateMutability": "view",
      "type": "function"
    },
    {
      "inputs": [],
      "name": "getMetadata",
      "outputs": [
        {
          "internalType": "address",
          "name": "_nftClaim",
          "type": "address"
        },
        {
          "internalType": "address",
          "name": "_nftController",
          "type": "address"
        },
        {
          "internalType": "address",
          "name": "_claimAdmin",
          "type": "address"
        },
        {
          "internalType": "address[]",
          "name": "_allowanceContracts",
          "type": "address[]"
        },
        {
          "internalType": "uint256",
          "name": "_totalNftClaimed",
          "type": "uint256"
        },
        {
          "internalType": "bool",
          "name": "_paused",
          "type": "bool"
        }
      ],
      "stateMutability": "view",
      "type": "function"
    },
    {
      "inputs": [
        {
          "internalType": "address",
          "name": "user",
          "type": "address"
        }
      ],
      "name": "inBlacklist",
      "outputs": [
        {
          "internalType": "bool",
          "name": "",
          "type": "bool"
        }
      ],
      "stateMutability": "view",
      "type": "function"
    },
    {
      "inputs": [],
      "name": "nftControllerAddress",
      "outputs": [
        {
          "internalType": "address",
          "name": "",
          "type": "address"
        }
      ],
      "stateMutability": "view",
      "type": "function"
    },
    {
      "inputs": [],
      "name": "owner",
      "outputs": [
        {
          "internalType": "address",
          "name": "",
          "type": "address"
        }
      ],
      "stateMutability": "view",
      "type": "function"
    },
    {
      "inputs": [],
      "name": "pause",
      "outputs": [],
      "stateMutability": "nonpayable",
      "type": "function"
    },
    {
      "inputs": [],
      "name": "paused",
      "outputs": [
        {
          "internalType": "bool",
          "name": "",
          "type": "bool"
        }
      ],
      "stateMutability": "view",
      "type": "function"
    },
    {
      "inputs": [],
      "name": "pendingOwner",
      "outputs": [
        {
          "internalType": "address",
          "name": "",
          "type": "address"
        }
      ],
      "stateMutability": "view",
      "type": "function"
    },
    {
      "inputs": [],
      "name": "renounceOwnership",
      "outputs": [],
      "stateMutability": "nonpayable",
      "type": "function"
    },
    {
      "inputs": [
        {
          "internalType": "address",
          "name": "",
          "type": "address"
        }
      ],
      "name": "totalNftClaimed",
      "outputs": [
        {
          "internalType": "uint256",
          "name": "",
          "type": "uint256"
        }
      ],
      "stateMutability": "view",
      "type": "function"
    },
    {
      "inputs": [
        {
          "internalType": "address",
          "name": "user",
          "type": "address"
        }
      ],
      "name": "totalNftPurchased",
      "outputs": [
        {
          "internalType": "uint256",
          "name": "",
          "type": "uint256"
        }
      ],
      "stateMutability": "view",
      "type": "function"
    },
    {
      "inputs": [],
      "name": "totalNftTokensStaked",
      "outputs": [
        {
          "internalType": "uint256",
          "name": "",
          "type": "uint256"
        }
      ],
      "stateMutability": "view",
      "type": "function"
    },
    {
      "inputs": [
        {
          "internalType": "address",
          "name": "newOwner",
          "type": "address"
        }
      ],
      "name": "transferOwnership",
      "outputs": [],
      "stateMutability": "nonpayable",
      "type": "function"
    },
    {
      "inputs": [
        {
          "internalType": "address",
          "name": "user",
          "type": "address"
        }
      ],
      "name": "unClaimedNftCount",
      "outputs": [
        {
          "internalType": "uint256",
          "name": "",
          "type": "uint256"
        }
      ],
      "stateMutability": "view",
      "type": "function"
    },
    {
      "inputs": [],
      "name": "unpause",
      "outputs": [],
      "stateMutability": "nonpayable",
      "type": "function"
    },
    {
      "inputs": [
        {
          "internalType": "address[]",
          "name": "allowanceContracts",
          "type": "address[]"
        }
      ],
      "name": "updateAllowanceContractsArray",
      "outputs": [],
      "stateMutability": "nonpayable",
      "type": "function"
    },
    {
      "inputs": [
        {
          "internalType": "address",
          "name": "user",
          "type": "address"
        },
        {
          "internalType": "bool",
          "name": "val",
          "type": "bool"
        }
      ],
      "name": "updateBlacklist",
      "outputs": [],
      "stateMutability": "nonpayable",
      "type": "function"
    },
    {
      "inputs": [
        {
          "internalType": "address",
          "name": "newClaimAdmin",
          "type": "address"
        }
      ],
      "name": "updateClaimAdmin",
      "outputs": [],
      "stateMutability": "nonpayable",
      "type": "function"
    }
  ],
  "bytecode": "0x608060405234801561001057600080fd5b5060405161495c38038061495c83398181016040528101906100329190610576565b61004e61004361033860201b60201c565b61034060201b60201c565b6000600160146101000a81548160ff021916908315150217905550600160028190555061008b67adf8e5158034806860c01b61037760201b60201c565b6100a567eabc982e3fdf36f460c01b61037760201b60201c565b6100bf6780f03f65cb9220f460c01b61037760201b60201c565b6100d967873b5c141bcbc41d60c01b61037760201b60201c565b600073ffffffffffffffffffffffffffffffffffffffff168273ffffffffffffffffffffffffffffffffffffffff1603610148576040517f08c379a000000000000000000000000000000000000000000000000000000000815260040161013f90610639565b60405180910390fd5b61016267bcd88e6c8293e08f60c01b61037760201b60201c565b61017c67be74f119c84caf4d60c01b61037760201b60201c565b6101966746629be6034a8da060c01b61037760201b60201c565b6101b0674bcd3422b1e1657760c01b61037760201b60201c565b600073ffffffffffffffffffffffffffffffffffffffff168173ffffffffffffffffffffffffffffffffffffffff160361021f576040517f08c379a0000000000000000000000000000000000000000000000000000000008152600401610216906106cb565b60405180910390fd5b61023967bf60999ef09772f860c01b61037760201b60201c565b61025367908ba5a4c409098860c01b61037760201b60201c565b81600460006101000a81548173ffffffffffffffffffffffffffffffffffffffff021916908373ffffffffffffffffffffffffffffffffffffffff1602179055506102ae6701b0818d37fb781560c01b61037760201b60201c565b80600360006101000a81548173ffffffffffffffffffffffffffffffffffffffff021916908373ffffffffffffffffffffffffffffffffffffffff1602179055506103096777ed759f132f2ad760c01b61037760201b60201c565b6103236777a7dcdfeca2d96860c01b61037760201b60201c565b61033161037a60201b60201c565b5050610781565b600033905090565b600160006101000a81549073ffffffffffffffffffffffffffffffffffffffff0219169055610374816103e860201b60201c565b50565b50565b6103886104ac60201b60201c565b60018060146101000a81548160ff0219169083151502179055507f62e78cea01bee320cd4e420270b5ea74000d11b0c9f74754ebdbfc544b05a2586103d161033860201b60201c565b6040516103de91906106fa565b60405180910390a1565b60008060009054906101000a900473ffffffffffffffffffffffffffffffffffffffff169050816000806101000a81548173ffffffffffffffffffffffffffffffffffffffff021916908373ffffffffffffffffffffffffffffffffffffffff1602179055508173ffffffffffffffffffffffffffffffffffffffff168173ffffffffffffffffffffffffffffffffffffffff167f8be0079c531659141344cd1fd0a4f28419497f9722a3daafe3b4186f6b6457e060405160405180910390a35050565b6104ba6104fc60201b60201c565b156104fa576040517f08c379a00000000000000000000000000000000000000000000000000000000081526004016104f190610761565b60405180910390fd5b565b6000600160149054906101000a900460ff16905090565b600080fd5b600073ffffffffffffffffffffffffffffffffffffffff82169050919050565b600061054382610518565b9050919050565b61055381610538565b811461055e57600080fd5b50565b6000815190506105708161054a565b92915050565b6000806040838503121561058d5761058c610513565b5b600061059b85828601610561565b92505060206105ac85828601610561565b9150509250929050565b600082825260208201905092915050565b7f5a65726f2061646472657373206e6f7420616c6c6f77656420666f72204e465460008201527f20636f6e74726f6c6c6572000000000000000000000000000000000000000000602082015250565b6000610623602b836105b6565b915061062e826105c7565b604082019050919050565b6000602082019050818103600083015261065281610616565b9050919050565b7f5a65726f2061646472657373206e6f7420616c6c6f77656420666f7220636c6160008201527f696d2061646d696e000000000000000000000000000000000000000000000000602082015250565b60006106b56028836105b6565b91506106c082610659565b604082019050919050565b600060208201905081810360008301526106e4816106a8565b9050919050565b6106f481610538565b82525050565b600060208201905061070f60008301846106eb565b92915050565b7f5061757361626c653a2070617573656400000000000000000000000000000000600082015250565b600061074b6010836105b6565b915061075682610715565b602082019050919050565b6000602082019050818103600083015261077a8161073e565b9050919050565b6141cc806107906000396000f3fe608060405234801561001057600080fd5b50600436106101485760003560e01c806286786e1461014d5780630f9298041461017d578063349d1a8a146101995780633659c7f9146101b5578063379607f5146101e557806339368cd5146102015780633f4ba83a14610231578063401919d31461023b5780635c975abb14610259578063715018a614610277578063720c0f8f1461028157806379ba50971461029f5780637a5b4f59146102a95780638456cb59146102cc5780638da5cb5b146102d65780639155e083146102f457806393ff24941461031057806395986df71461032c578063a43c29fa1461035c578063af9df6321461038c578063be48a9a2146103a8578063bfc82972146103c6578063c06d6840146103e2578063d1058e5914610400578063e30c39781461040a578063e8932a9c14610428578063f2fde38b14610458575b600080fd5b610167600480360381019061016291906130d9565b610474565b6040516101749190613121565b60405180910390f35b610197600480360381019061019291906131f7565b610506565b005b6101b360048036038101906101ae9190613278565b6108d2565b005b6101cf60048036038101906101ca9190613278565b610bea565b6040516101dc919061338d565b60405180910390f35b6101ff60048036038101906101fa91906133db565b610d88565b005b61021b600480360381019061021691906130d9565b610f16565b6040516102289190613417565b60405180910390f35b610239610fae565b005b610243611024565b6040516102509190613417565b60405180910390f35b610261611398565b60405161026e9190613121565b60405180910390f35b61027f6113af565b005b610289611455565b6040516102969190613441565b60405180910390f35b6102a761147b565b005b6102b1611508565b6040516102c39695949392919061351a565b60405180910390f35b6102d4611716565b005b6102de61178c565b6040516102eb9190613441565b60405180910390f35b61030e600480360381019061030991906135ae565b6117b5565b005b61032a6004803603810190610325919061373d565b6119de565b005b610346600480360381019061034191906130d9565b611d5e565b6040516103539190613417565b60405180910390f35b61037660048036038101906103719190613278565b611d76565b604051610383919061338d565b60405180910390f35b6103a660048036038101906103a191906130d9565b611edd565b005b6103b0612097565b6040516103bd9190613441565b60405180910390f35b6103e060048036038101906103db9190613786565b6120bd565b005b6103ea612344565b6040516103f791906137c6565b60405180910390f35b61040861240e565b005b61041261259a565b60405161041f9190613441565b60405180910390f35b610442600480360381019061043d91906130d9565b6125c4565b60405161044f9190613417565b60405180910390f35b610472600480360381019061046d91906130d9565b612754565b005b600061048a67eaba8157fc9fbe0f60c01b612801565b61049e67994b6b18daa5661360c01b612801565b6104b267ece65f34421bc2c460c01b612801565b600760008373ffffffffffffffffffffffffffffffffffffffff1673ffffffffffffffffffffffffffffffffffffffff16815260200190815260200160002060009054906101000a900460ff169050919050565b61051a672966b64a5385c33860c01b612801565b610522612804565b6105366791e581c77091b95960c01b612801565b61054a678db1d39c0da0389160c01b612801565b61055e67288ced3aac2df4d360c01b612801565b6105726735447ca09df7636160c01b612801565b61058667f76863b3bf4702ba60c01b612801565b61059a67dc4c20a0420b281560c01b612801565b600360009054906101000a900473ffffffffffffffffffffffffffffffffffffffff1673ffffffffffffffffffffffffffffffffffffffff163373ffffffffffffffffffffffffffffffffffffffff161461062a576040517f08c379a000000000000000000000000000000000000000000000000000000000815260040161062190613845565b60405180910390fd5b61063e671453bb3c9a4d22bd60c01b612801565b61065267599b49be02e30dc260c01b612801565b610666674f605c2d7c65d57260c01b612801565b61067a6795e34bf525da69f660c01b612801565b61068e67c5773a2744ea333360c01b612801565b6106a26750b73fc1f1c602a060c01b612801565b6106b6670d01e6f5075e5aee60c01b612801565b8181905084849050146106fe576040517f08c379a00000000000000000000000000000000000000000000000000000000081526004016106f5906138b1565b60405180910390fd5b61071267554ec181880923c160c01b612801565b6107266782f0c4c0da73222660c01b612801565b61073a67ee4a5d6f8b8a3b9c60c01b612801565b60005b848490508110156108cb5761075c678f97b47750604b7960c01b612801565b61077067c74bb877958c2f1660c01b612801565b610784679abeb6230447e4eb60c01b612801565b6007600086868481811061079b5761079a6138d1565b5b90506020020160208101906107b091906130d9565b73ffffffffffffffffffffffffffffffffffffffff1673ffffffffffffffffffffffffffffffffffffffff16815260200190815260200160002060009054906101000a900460ff1615610838576040517f08c379a000000000000000000000000000000000000000000000000000000000815260040161082f9061394c565b60405180910390fd5b61084c67ea7179c9452191c660c01b612801565b6108606724a4c76fb05468c060c01b612801565b610874676953b591687ff10c60c01b612801565b6108be85858381811061088a576108896138d1565b5b905060200201602081019061089f91906130d9565b8484848181106108b2576108b16138d1565b5b9050602002013561284e565b808060010191505061073d565b5050505050565b6108e667deb908bcdc4521b060c01b612801565b6108ee612804565b61090267c508e1a269ac752460c01b612801565b61091667e5403f8a6a7f1bd560c01b612801565b61092a67288ced3aac2df4d360c01b612801565b61093e6735447ca09df7636160c01b612801565b61095267f76863b3bf4702ba60c01b612801565b61096667dc4c20a0420b281560c01b612801565b600360009054906101000a900473ffffffffffffffffffffffffffffffffffffffff1673ffffffffffffffffffffffffffffffffffffffff163373ffffffffffffffffffffffffffffffffffffffff16146109f6576040517f08c379a00000000000000000000000000000000000000000000000000000000081526004016109ed90613845565b60405180910390fd5b610a0a671453bb3c9a4d22bd60c01b612801565b610a1e67599b49be02e30dc260c01b612801565b610a32676f21a7345bf206b360c01b612801565b610a46676b8fca5e6e92a08b60c01b612801565b610a5a67e9bea5ffa526fb3360c01b612801565b610a6e674b7ce3bf7485aad460c01b612801565b60005b82829050811015610be557610a906744f7c763eff22a4160c01b612801565b610aa467b1d31f6724af536660c01b612801565b610ab8674a8ba39570e1582760c01b612801565b60076000848484818110610acf57610ace6138d1565b5b9050602002016020810190610ae491906130d9565b73ffffffffffffffffffffffffffffffffffffffff1673ffffffffffffffffffffffffffffffffffffffff16815260200190815260200160002060009054906101000a900460ff1615610b6c576040517f08c379a0000000000000000000000000000000000000000000000000000000008152600401610b639061394c565b60405180910390fd5b610b8067b127bb6eadb417f960c01b612801565b610b9467263e0c6d339ec03060c01b612801565b610ba8677bd9d72814a8354c60c01b612801565b610bd8838383818110610bbe57610bbd6138d1565b5b9050602002016020810190610bd391906130d9565b612c02565b8080600101915050610a71565b505050565b6060610c00679e2b408ced4c2f2e60c01b612801565b610c14670d9fe21da30c104960c01b612801565b610c28679dd8916e60b70ad560c01b612801565b60008383905067ffffffffffffffff811115610c4757610c466135ff565b5b604051908082528060200260200182016040528015610c755781602001602082028036833780820191505090505b509050610c8c67afadd29548c4edc660c01b612801565b610ca0676054935e480c4d4b60c01b612801565b60005b84849050811015610d5557610cc267ace62512e2bd494860c01b612801565b60086000868684818110610cd957610cd86138d1565b5b9050602002016020810190610cee91906130d9565b73ffffffffffffffffffffffffffffffffffffffff1673ffffffffffffffffffffffffffffffffffffffff16815260200190815260200160002054828281518110610d3c57610d3b6138d1565b5b6020026020010181815250508080600101915050610ca3565b50610d6a67b73e268b487bedc560c01b612801565b610d7e672cb4e53082981f8060c01b612801565b8091505092915050565b610d9c6705130c1f04e4574560c01b612801565b610da4612804565b610db867100403e5e387db2560c01b612801565b610dcc6742be01f0f06bf97960c01b612801565b610dd4612ce0565b610de86749a80d36ed1f6aa760c01b612801565b610dfc67015830cd313cd35260c01b612801565b610e1067fdf5202a1d4a440a60c01b612801565b610e246734cdac0b0876c38360c01b612801565b610e38670d0651fec980648160c01b612801565b600760003373ffffffffffffffffffffffffffffffffffffffff1673ffffffffffffffffffffffffffffffffffffffff16815260200190815260200160002060009054906101000a900460ff1615610ec5576040517f08c379a0000000000000000000000000000000000000000000000000000000008152600401610ebc906139b8565b60405180910390fd5b610ed967cc77fdd706d52e8d60c01b612801565b610eed6723e6e3c765606f6b60c01b612801565b610f016717d9b2cc99902c9360c01b612801565b610f0b338261284e565b610f13612d2d565b50565b6000610f2c67150055facd02e5b060c01b612801565b610f40676ec01910a763f18b60c01b612801565b610f546765a35099757b555560c01b612801565b600860008373ffffffffffffffffffffffffffffffffffffffff1673ffffffffffffffffffffffffffffffffffffffff16815260200190815260200160002054610f9d836125c4565b610fa79190613a07565b9050919050565b610fc267accf4101eab5868c60c01b612801565b610fca612d37565b610fde672a2279e9fe3793da60c01b612801565b610ff2675390569ea8685ae360c01b612801565b61100667be7c4507396bffac60c01b612801565b61101a671ddaf3f98477959760c01b612801565b611022612db5565b565b600061103a677c024ab3eea8999e60c01b612801565b61104e67082de2a62b953b1560c01b612801565b61106267abfa53251c47881860c01b612801565b600061107867c5e77aa3522c71f660c01b612801565b61108c67841c910a2ec87a8a60c01b612801565b60005b600580549050811015611355576110b0674b952c6ec49525c360c01b612801565b6110c467881c32bf55ce0f5c60c01b612801565b6000600582815481106110da576110d96138d1565b5b9060005260206000200160009054906101000a900473ffffffffffffffffffffffffffffffffffffffff1673ffffffffffffffffffffffffffffffffffffffff1663a023cf696040518163ffffffff1660e01b8152600401602060405180830381865afa15801561114f573d6000803e3d6000fd5b505050506040513d601f19601f820116820180604052508101906111739190613a50565b90506111896725f37079a19b0e3e60c01b612801565b61119d67b4561d9c4f8910c560c01b612801565b6000600583815481106111b3576111b26138d1565b5b9060005260206000200160009054906101000a900473ffffffffffffffffffffffffffffffffffffffff1673ffffffffffffffffffffffffffffffffffffffff166319a95d0a6040518163ffffffff1660e01b8152600401602060405180830381865afa158015611228573d6000803e3d6000fd5b505050506040513d601f19601f8201168201806040525081019061124c9190613a50565b9050611262677bb8b5be6d0c755c60c01b612801565b611276671c7a77393dc8e65c60c01b612801565b600061128c6736d4754d201c925b60c01b612801565b6112a06769e2c7497ffb851660c01b612801565b600083036112d9576112bc671a2dad61a0e3e4c960c01b612801565b6112d067d32269bdff79780660c01b612801565b60009050611323565b6112ed679aabecf03e7936f160c01b612801565b6113016701559883da27f09060c01b612801565b82670de0b6b3a7640000836113169190613a7d565b6113209190613aee565b90505b61133767515a73a47f1ced2160c01b612801565b80856113439190613b1f565b9450505050808060010191505061108f565b5061136a67f7fbe5c4e91d472760c01b612801565b61137e67020e3d4859bc211460c01b612801565b670de0b6b3a7640000816113929190613aee565b91505090565b6000600160149054906101000a900460ff16905090565b6113c367ef78b4619172a20360c01b612801565b6113cb612d37565b6113de667695d5a946217960c01b612801565b6113f267925b4ecab127027560c01b612801565b6114066756ab59b6a51dbb5560c01b612801565b61141a6795245738711fa7eb60c01b612801565b6040517f08c379a000000000000000000000000000000000000000000000000000000000815260040161144c90613bc5565b60405180910390fd5b600360009054906101000a900473ffffffffffffffffffffffffffffffffffffffff1681565b6000611485612e18565b90508073ffffffffffffffffffffffffffffffffffffffff166114a661259a565b73ffffffffffffffffffffffffffffffffffffffff16146114fc576040517f08c379a00000000000000000000000000000000000000000000000000000000081526004016114f390613c57565b60405180910390fd5b61150581612e20565b50565b6000806000606060008061152667af52c4a9eeca8c2960c01b612801565b61153a6719df42b168d40d5360c01b612801565b61154e67c8ae5a6923b8d37e60c01b612801565b600060058054905067ffffffffffffffff81111561156f5761156e6135ff565b5b60405190808252806020026020018201604052801561159d5781602001602082028036833780820191505090505b5090506115b467418f77bc157851b260c01b612801565b6115c867f770519641af084860c01b612801565b60005b600580549050811015611685576115ec67365db51e60fd116660c01b612801565b60058181548110611600576115ff6138d1565b5b9060005260206000200160009054906101000a900473ffffffffffffffffffffffffffffffffffffffff1682828151811061163e5761163d6138d1565b5b602002602001019073ffffffffffffffffffffffffffffffffffffffff16908173ffffffffffffffffffffffffffffffffffffffff168152505080806001019150506115cb565b5061169a67e61acf7226b4061a60c01b612801565b6116ae673f6138a7f96e40cd60c01b612801565b30600460009054906101000a900473ffffffffffffffffffffffffffffffffffffffff16600360009054906101000a900473ffffffffffffffffffffffffffffffffffffffff1683600654611701611398565b96509650965096509650965050909192939495565b61172a6771fcf6a2306fa95060c01b612801565b611732612d37565b611746676ad87758b0032eaf60c01b612801565b61175a67bffd2c1dbfb4aace60c01b612801565b61176e67125d213cc8419f8e60c01b612801565b61178267170fab730caff59f60c01b612801565b61178a612e51565b565b60008060009054906101000a900473ffffffffffffffffffffffffffffffffffffffff16905090565b6117c967022fa71edb6478db60c01b612801565b6117dd67288ced3aac2df4d360c01b612801565b6117f16735447ca09df7636160c01b612801565b61180567f76863b3bf4702ba60c01b612801565b61181967dc4c20a0420b281560c01b612801565b600360009054906101000a900473ffffffffffffffffffffffffffffffffffffffff1673ffffffffffffffffffffffffffffffffffffffff163373ffffffffffffffffffffffffffffffffffffffff16146118a9576040517f08c379a00000000000000000000000000000000000000000000000000000000081526004016118a090613845565b60405180910390fd5b6118bd671453bb3c9a4d22bd60c01b612801565b6118d167599b49be02e30dc260c01b612801565b6118e567ea8a9a88b7126d8a60c01b612801565b6118f9672431fbaaebe2c09160c01b612801565b61190d67dbf7ac8196b1b5f360c01b612801565b80600760008473ffffffffffffffffffffffffffffffffffffffff1673ffffffffffffffffffffffffffffffffffffffff16815260200190815260200160002060006101000a81548160ff0219169083151502179055506119786746832c1f857209d360c01b612801565b61198c67dfd87cdaaf990a3c60c01b612801565b8173ffffffffffffffffffffffffffffffffffffffff167f645ccb8e099e93645a8de0c0478dd2840e612824af69cd5d0702e5ef9611a78d826040516119d29190613121565b60405180910390a25050565b6119f267db0e4316c78c7cc260c01b612801565b611a0667288ced3aac2df4d360c01b612801565b611a1a6735447ca09df7636160c01b612801565b611a2e67f76863b3bf4702ba60c01b612801565b611a4267dc4c20a0420b281560c01b612801565b600360009054906101000a900473ffffffffffffffffffffffffffffffffffffffff1673ffffffffffffffffffffffffffffffffffffffff163373ffffffffffffffffffffffffffffffffffffffff1614611ad2576040517f08c379a0000000000000000000000000000000000000000000000000000000008152600401611ac990613845565b60405180910390fd5b611ae6671453bb3c9a4d22bd60c01b612801565b611afa67599b49be02e30dc260c01b612801565b611b0e67536052b36058516b60c01b612801565b611b2267b1454b99ed46366c60c01b612801565b611b3667b80a30e8e1b05eb460c01b612801565b611b4a67191640f22df18de960c01b612801565b611b5e67ee2a88d173c046c360c01b612801565b6000815111611ba2576040517f08c379a0000000000000000000000000000000000000000000000000000000008152600401611b9990613ce9565b60405180910390fd5b611bb667da25c1997953c54660c01b612801565b611bca67bc4a0ce929509d0760c01b612801565b611bde67e3d179c8caad216060c01b612801565b60005b8151811015611cd057611bfe67ad5a66457732425260c01b612801565b611c12676abce59045ead66c60c01b612801565b611c2667666adb7f958589b060c01b612801565b600073ffffffffffffffffffffffffffffffffffffffff16828281518110611c5157611c506138d1565b5b602002602001015173ffffffffffffffffffffffffffffffffffffffff1603611caf576040517f08c379a0000000000000000000000000000000000000000000000000000000008152600401611ca690613d7b565b60405180910390fd5b611cc3675ec7f6d06bd9da5a60c01b612801565b8080600101915050611be1565b50611ce567ed984a2ff0ab217e60c01b612801565b8060059080519060200190611cfb929190612fc0565b50611d1067c75a535c1e58749460c01b612801565b611d2467d0f2e989a1fe061060c01b612801565b7f5397fbdd017c98236a9ebc69e0bb8e469fb85af21e088d898d435ce556288dec81604051611d5391906137c6565b60405180910390a150565b60086020528060005260406000206000915090505481565b6060611d8c6734f4dd2bbd6741c960c01b612801565b611da0675951d5508e0da8b660c01b612801565b611db467392153f36b44c09860c01b612801565b60008383905067ffffffffffffffff811115611dd357611dd26135ff565b5b604051908082528060200260200182016040528015611e015781602001602082028036833780820191505090505b509050611e1867f5664ec186ef155960c01b612801565b611e2c6787499b9f1e814e4b60c01b612801565b60005b84849050811015611eaa57611e4e67c6bf1542904b024960c01b612801565b611e7e858583818110611e6457611e636138d1565b5b9050602002016020810190611e7991906130d9565b610f16565b828281518110611e9157611e906138d1565b5b6020026020010181815250508080600101915050611e2f565b50611ebf67a4e3b337a4f6fbe360c01b612801565b611ed367c5f9835cf758f70860c01b612801565b8091505092915050565b611ef1679d1acdca23614c7660c01b612801565b611ef9612d37565b611f0d67431c3e3e4195773460c01b612801565b611f21670cc8060ec2e08f6260c01b612801565b611f3567f2006a02bc9eae1460c01b612801565b611f4967c41141beefe67d8f60c01b612801565b611f5d67c740b4037db06e1e60c01b612801565b600073ffffffffffffffffffffffffffffffffffffffff168173ffffffffffffffffffffffffffffffffffffffff1603611fcc576040517f08c379a0000000000000000000000000000000000000000000000000000000008152600401611fc390613e0d565b60405180910390fd5b611fe067a3276bbbf7cbb85160c01b612801565b611ff4671b3182efc1b7785860c01b612801565b80600360006101000a81548173ffffffffffffffffffffffffffffffffffffffff021916908373ffffffffffffffffffffffffffffffffffffffff16021790555061204967a034d54fcf39732060c01b612801565b61205d6732827563cb49d04160c01b612801565b7fc54e8274d29444116de955038a65bff2b5ae5d53edfc31dce239c126a1aef5c68160405161208c9190613441565b60405180910390a150565b600460009054906101000a900473ffffffffffffffffffffffffffffffffffffffff1681565b6120d1672c4472a04328aeb860c01b612801565b6120d9612804565b6120ed67bff5d091bd4330f160c01b612801565b61210167cb4ecbd83265de2460c01b612801565b61211567288ced3aac2df4d360c01b612801565b6121296735447ca09df7636160c01b612801565b61213d67f76863b3bf4702ba60c01b612801565b61215167dc4c20a0420b281560c01b612801565b600360009054906101000a900473ffffffffffffffffffffffffffffffffffffffff1673ffffffffffffffffffffffffffffffffffffffff163373ffffffffffffffffffffffffffffffffffffffff16146121e1576040517f08c379a00000000000000000000000000000000000000000000000000000000081526004016121d890613845565b60405180910390fd5b6121f5671453bb3c9a4d22bd60c01b612801565b61220967599b49be02e30dc260c01b612801565b61221d678e392359754227ca60c01b612801565b6122316773fa6c86e63d04e260c01b612801565b61224567d705fd3084044b3160c01b612801565b612259671d794d055c5315ef60c01b612801565b61226d67dcb2f812f82ef40b60c01b612801565b600760008373ffffffffffffffffffffffffffffffffffffffff1673ffffffffffffffffffffffffffffffffffffffff16815260200190815260200160002060009054906101000a900460ff16156122fa576040517f08c379a00000000000000000000000000000000000000000000000000000000081526004016122f1906139b8565b60405180910390fd5b61230e6777941e40f8c0f18360c01b612801565b61232267bb2a016abee48d9a60c01b612801565b612336676b4dfd2d5d0c822460c01b612801565b612340828261284e565b5050565b606061235a67b5e3fd1fc8f1759f60c01b612801565b61236e676c248b84c32ff1ee60c01b612801565b612382678e46577405d297f860c01b612801565b600580548060200260200160405190810160405280929190818152602001828054801561240457602002820191906000526020600020905b8160009054906101000a900473ffffffffffffffffffffffffffffffffffffffff1673ffffffffffffffffffffffffffffffffffffffff16815260200190600101908083116123ba575b5050505050905090565b61242267b7582cbfde085e1660c01b612801565b61242a612804565b61243e67841211ad14fdb09e60c01b612801565b6124526791a8f543b9e0e8fb60c01b612801565b61245a612ce0565b61246e679eb053cd55b3e40460c01b612801565b61248267165a331a3873d7c960c01b612801565b61249667ba49f7985b4e1b3b60c01b612801565b6124aa679581ad3ccc9afcbc60c01b612801565b6124be67a26bcc7a64a6f1cf60c01b612801565b600760003373ffffffffffffffffffffffffffffffffffffffff1673ffffffffffffffffffffffffffffffffffffffff16815260200190815260200160002060009054906101000a900460ff161561254b576040517f08c379a0000000000000000000000000000000000000000000000000000000008152600401612542906139b8565b60405180910390fd5b61255f67b96b5005bd23031760c01b612801565b612573676b435cab343e4ad660c01b612801565b612587670eb778b7ea33a06460c01b612801565b61259033612c02565b612598612d2d565b565b6000600160009054906101000a900473ffffffffffffffffffffffffffffffffffffffff16905090565b60006125da67ae273d7ed0457e4860c01b612801565b6125ee670ff68881ce35fdfa60c01b612801565b6126026730e599914031328260c01b612801565b600061261867fe9072e6b197f45460c01b612801565b61262c678b5bf28c550add0b60c01b612801565b60005b6005805490508110156127225761265067778517110699523e60c01b612801565b60058181548110612664576126636138d1565b5b9060005260206000200160009054906101000a900473ffffffffffffffffffffffffffffffffffffffff1673ffffffffffffffffffffffffffffffffffffffff16633762723d856040518263ffffffff1660e01b81526004016126c79190613441565b602060405180830381865afa1580156126e4573d6000803e3d6000fd5b505050506040513d601f19601f820116820180604052508101906127089190613a50565b826127139190613b1f565b9150808060010191505061262f565b506127376737e6b8b41b962fbe60c01b612801565b61274b67dd9f3d3398110ccb60c01b612801565b80915050919050565b61275c612d37565b80600160006101000a81548173ffffffffffffffffffffffffffffffffffffffff021916908373ffffffffffffffffffffffffffffffffffffffff1602179055508073ffffffffffffffffffffffffffffffffffffffff166127bc61178c565b73ffffffffffffffffffffffffffffffffffffffff167f38d16b8cac22d99fc7c124b9cd0de2d3fa1faef420bfe791d8c362d765e2270060405160405180910390a350565b50565b61280c611398565b1561284c576040517f08c379a000000000000000000000000000000000000000000000000000000000815260040161284390613e79565b60405180910390fd5b565b61286267f177f84c14d30e5f60c01b612801565b612876679d652a415eab35d260c01b612801565b61288a674f46dff0dabdec0f60c01b612801565b61289e67a3fbd72e48d0ad1860c01b612801565b600073ffffffffffffffffffffffffffffffffffffffff168273ffffffffffffffffffffffffffffffffffffffff160361290d576040517f08c379a000000000000000000000000000000000000000000000000000000000815260040161290490613f0b565b60405180910390fd5b61292167c5f629c06dfd2fc260c01b612801565b6129356709170c5b1af97df760c01b612801565b61294967a75be958924c520c60c01b612801565b61295d677fc353df85f6686460c01b612801565b600081116129a0576040517f08c379a000000000000000000000000000000000000000000000000000000000815260040161299790613f77565b60405180910390fd5b6129b467805206bf0ea341f460c01b612801565b6129c86791f5ed2967b54e6160c01b612801565b6129dc673862d29035774f4d60c01b612801565b6129f0674739df3ef68247e960c01b612801565b6129f982610f16565b811115612a3b576040517f08c379a0000000000000000000000000000000000000000000000000000000008152600401612a3290614009565b60405180910390fd5b612a4f67f540c92d4fc440a560c01b612801565b612a63676a98f5ddbdcae8d160c01b612801565b80600860008473ffffffffffffffffffffffffffffffffffffffff1673ffffffffffffffffffffffffffffffffffffffff1681526020019081526020016000206000828254612ab29190613b1f565b92505081905550612acd675371e051f1f43ab760c01b612801565b8060066000828254612adf9190613b1f565b92505081905550612afa67ea476166fd1884ea60c01b612801565b612b0e6723d6236feb3ce32260c01b612801565b600460009054906101000a900473ffffffffffffffffffffffffffffffffffffffff1673ffffffffffffffffffffffffffffffffffffffff166340c10f1983836040518363ffffffff1660e01b8152600401612b6b929190614029565b600060405180830381600087803b158015612b8557600080fd5b505af1158015612b99573d6000803e3d6000fd5b50505050612bb1672ff65dc5f0c4695f60c01b612801565b612bc5672cbe03b1c87a13fe60c01b612801565b7f0e9b0e6686c7b392d93ad3034a3e7e7256e63ec6bd4ddfcdfca44b0802cc184b8282604051612bf6929190614029565b60405180910390a15050565b612c1667e262bb8ef85b9f8760c01b612801565b612c2a67c09b5e62e8be03ad60c01b612801565b612c3e67f26ba31996edce7860c01b612801565b6000612c4982610f16565b9050612c5f6758aa8cef42b4db0660c01b612801565b612c7367f6b78b0446ffa76860c01b612801565b6000811115612cc757612c90674c48feff219184d460c01b612801565b612ca4679db5d29ae110390b60c01b612801565b612cb8673736e47ec336567660c01b612801565b612cc2828261284e565b612cdc565b612cdb67e402f09ad56b04c660c01b612801565b5b5050565b6002805403612d24576040517f08c379a0000000000000000000000000000000000000000000000000000000008152600401612d1b9061409e565b60405180910390fd5b60028081905550565b6001600281905550565b612d3f612e18565b73ffffffffffffffffffffffffffffffffffffffff16612d5d61178c565b73ffffffffffffffffffffffffffffffffffffffff1614612db3576040517f08c379a0000000000000000000000000000000000000000000000000000000008152600401612daa9061410a565b60405180910390fd5b565b612dbd612eb3565b6000600160146101000a81548160ff0219169083151502179055507f5db9ee0a495bf2e6ff9c91a7834c1ba4fdd244a5e8aa4e537bd38aeae4b073aa612e01612e18565b604051612e0e9190613441565b60405180910390a1565b600033905090565b600160006101000a81549073ffffffffffffffffffffffffffffffffffffffff0219169055612e4e81612efc565b50565b612e59612804565b60018060146101000a81548160ff0219169083151502179055507f62e78cea01bee320cd4e420270b5ea74000d11b0c9f74754ebdbfc544b05a258612e9c612e18565b604051612ea99190613441565b60405180910390a1565b612ebb611398565b612efa576040517f08c379a0000000000000000000000000000000000000000000000000000000008152600401612ef190614176565b60405180910390fd5b565b60008060009054906101000a900473ffffffffffffffffffffffffffffffffffffffff169050816000806101000a81548173ffffffffffffffffffffffffffffffffffffffff021916908373ffffffffffffffffffffffffffffffffffffffff1602179055508173ffffffffffffffffffffffffffffffffffffffff168173ffffffffffffffffffffffffffffffffffffffff167f8be0079c531659141344cd1fd0a4f28419497f9722a3daafe3b4186f6b6457e060405160405180910390a35050565b828054828255906000526020600020908101928215613039579160200282015b828111156130385782518260006101000a81548173ffffffffffffffffffffffffffffffffffffffff021916908373ffffffffffffffffffffffffffffffffffffffff16021790555091602001919060010190612fe0565b5b509050613046919061304a565b5090565b5b8082111561306357600081600090555060010161304b565b5090565b6000604051905090565b600080fd5b600080fd5b600073ffffffffffffffffffffffffffffffffffffffff82169050919050565b60006130a68261307b565b9050919050565b6130b68161309b565b81146130c157600080fd5b50565b6000813590506130d3816130ad565b92915050565b6000602082840312156130ef576130ee613071565b5b60006130fd848285016130c4565b91505092915050565b60008115159050919050565b61311b81613106565b82525050565b60006020820190506131366000830184613112565b92915050565b600080fd5b600080fd5b600080fd5b60008083601f8401126131615761316061313c565b5b8235905067ffffffffffffffff81111561317e5761317d613141565b5b60208301915083602082028301111561319a57613199613146565b5b9250929050565b60008083601f8401126131b7576131b661313c565b5b8235905067ffffffffffffffff8111156131d4576131d3613141565b5b6020830191508360208202830111156131f0576131ef613146565b5b9250929050565b6000806000806040858703121561321157613210613071565b5b600085013567ffffffffffffffff81111561322f5761322e613076565b5b61323b8782880161314b565b9450945050602085013567ffffffffffffffff81111561325e5761325d613076565b5b61326a878288016131a1565b925092505092959194509250565b6000806020838503121561328f5761328e613071565b5b600083013567ffffffffffffffff8111156132ad576132ac613076565b5b6132b98582860161314b565b92509250509250929050565b600081519050919050565b600082825260208201905092915050565b6000819050602082019050919050565b6000819050919050565b613304816132f1565b82525050565b600061331683836132fb565b60208301905092915050565b6000602082019050919050565b600061333a826132c5565b61334481856132d0565b935061334f836132e1565b8060005b83811015613380578151613367888261330a565b975061337283613322565b925050600181019050613353565b5085935050505092915050565b600060208201905081810360008301526133a7818461332f565b905092915050565b6133b8816132f1565b81146133c357600080fd5b50565b6000813590506133d5816133af565b92915050565b6000602082840312156133f1576133f0613071565b5b60006133ff848285016133c6565b91505092915050565b613411816132f1565b82525050565b600060208201905061342c6000830184613408565b92915050565b61343b8161309b565b82525050565b60006020820190506134566000830184613432565b92915050565b600081519050919050565b600082825260208201905092915050565b6000819050602082019050919050565b6134918161309b565b82525050565b60006134a38383613488565b60208301905092915050565b6000602082019050919050565b60006134c78261345c565b6134d18185613467565b93506134dc83613478565b8060005b8381101561350d5781516134f48882613497565b97506134ff836134af565b9250506001810190506134e0565b5085935050505092915050565b600060c08201905061352f6000830189613432565b61353c6020830188613432565b6135496040830187613432565b818103606083015261355b81866134bc565b905061356a6080830185613408565b61357760a0830184613112565b979650505050505050565b61358b81613106565b811461359657600080fd5b50565b6000813590506135a881613582565b92915050565b600080604083850312156135c5576135c4613071565b5b60006135d3858286016130c4565b92505060206135e485828601613599565b9150509250929050565b6000601f19601f8301169050919050565b7f4e487b7100000000000000000000000000000000000000000000000000000000600052604160045260246000fd5b613637826135ee565b810181811067ffffffffffffffff82111715613656576136556135ff565b5b80604052505050565b6000613669613067565b9050613675828261362e565b919050565b600067ffffffffffffffff821115613695576136946135ff565b5b602082029050602081019050919050565b60006136b96136b48461367a565b61365f565b905080838252602082019050602084028301858111156136dc576136db613146565b5b835b8181101561370557806136f188826130c4565b8452602084019350506020810190506136de565b5050509392505050565b600082601f8301126137245761372361313c565b5b81356137348482602086016136a6565b91505092915050565b60006020828403121561375357613752613071565b5b600082013567ffffffffffffffff81111561377157613770613076565b5b61377d8482850161370f565b91505092915050565b6000806040838503121561379d5761379c613071565b5b60006137ab858286016130c4565b92505060206137bc858286016133c6565b9150509250929050565b600060208201905081810360008301526137e081846134bc565b905092915050565b600082825260208201905092915050565b7f6f6e6c7920636c61696d2061646d696e00000000000000000000000000000000600082015250565b600061382f6010836137e8565b915061383a826137f9565b602082019050919050565b6000602082019050818103600083015261385e81613822565b9050919050565b7f6172726179206c656e6774682073686f756c642062652073616d650000000000600082015250565b600061389b601b836137e8565b91506138a682613865565b602082019050919050565b600060208201905081810360008301526138ca8161388e565b9050919050565b7f4e487b7100000000000000000000000000000000000000000000000000000000600052603260045260246000fd5b7f626c61636b6c6973746564207573657220696e20626174636800000000000000600082015250565b60006139366019836137e8565b915061394182613900565b602082019050919050565b6000602082019050818103600083015261396581613929565b9050919050565b7f626c61636b6c6973746564207573657200000000000000000000000000000000600082015250565b60006139a26010836137e8565b91506139ad8261396c565b602082019050919050565b600060208201905081810360008301526139d181613995565b9050919050565b7f4e487b7100000000000000000000000000000000000000000000000000000000600052601160045260246000fd5b6000613a12826132f1565b9150613a1d836132f1565b9250828203905081811115613a3557613a346139d8565b5b92915050565b600081519050613a4a816133af565b92915050565b600060208284031215613a6657613a65613071565b5b6000613a7484828501613a3b565b91505092915050565b6000613a88826132f1565b9150613a93836132f1565b9250828202613aa1816132f1565b91508282048414831517613ab857613ab76139d8565b5b5092915050565b7f4e487b7100000000000000000000000000000000000000000000000000000000600052601260045260246000fd5b6000613af9826132f1565b9150613b04836132f1565b925082613b1457613b13613abf565b5b828204905092915050565b6000613b2a826132f1565b9150613b35836132f1565b9250828201905080821115613b4d57613b4c6139d8565b5b92915050565b7f4f776e61626c6532537465703a2063616e206e6f742072656e6f756e6365206f60008201527f776e657273686970000000000000000000000000000000000000000000000000602082015250565b6000613baf6028836137e8565b9150613bba82613b53565b604082019050919050565b60006020820190508181036000830152613bde81613ba2565b9050919050565b7f4f776e61626c6532537465703a2063616c6c6572206973206e6f74207468652060008201527f6e6577206f776e65720000000000000000000000000000000000000000000000602082015250565b6000613c416029836137e8565b9150613c4c82613be5565b604082019050919050565b60006020820190508181036000830152613c7081613c34565b9050919050565b7f416c6c6f77616e636520636f6e7472616374732061727261792063616e6e6f7460008201527f20626520656d7074790000000000000000000000000000000000000000000000602082015250565b6000613cd36029836137e8565b9150613cde82613c77565b604082019050919050565b60006020820190508181036000830152613d0281613cc6565b9050919050565b7f496e76616c696420616c6c6f77616e636520636f6e747261637420616464726560008201527f7373000000000000000000000000000000000000000000000000000000000000602082015250565b6000613d656022836137e8565b9150613d7082613d09565b604082019050919050565b60006020820190508181036000830152613d9481613d58565b9050919050565b7f5a65726f2061646472657373206e6f7420616c6c6f77656420666f7220636c6160008201527f696d2061646d696e000000000000000000000000000000000000000000000000602082015250565b6000613df76028836137e8565b9150613e0282613d9b565b604082019050919050565b60006020820190508181036000830152613e2681613dea565b9050919050565b7f5061757361626c653a2070617573656400000000000000000000000000000000600082015250565b6000613e636010836137e8565b9150613e6e82613e2d565b602082019050919050565b60006020820190508181036000830152613e9281613e56565b9050919050565b7f5a65726f2061646472657373206e6f7420616c6c6f77656420666f7220636c6160008201527f696d20726563697069656e740000000000000000000000000000000000000000602082015250565b6000613ef5602c836137e8565b9150613f0082613e99565b604082019050919050565b60006020820190508181036000830152613f2481613ee8565b9050919050565b7f616d6f756e742073686f756c642062652067726561746572207468616e203000600082015250565b6000613f61601f836137e8565b9150613f6c82613f2b565b602082019050919050565b60006020820190508181036000830152613f9081613f54565b9050919050565b7f636c61696d20616d6f756e742073686f756c64206265206c657373207468616e60008201527f206f7220657175616c20746f20756e636c61696d6564206e667420636f756e74602082015250565b6000613ff36040836137e8565b9150613ffe82613f97565b604082019050919050565b6000602082019050818103600083015261402281613fe6565b9050919050565b600060408201905061403e6000830185613432565b61404b6020830184613408565b9392505050565b7f5265656e7472616e637947756172643a207265656e7472616e742063616c6c00600082015250565b6000614088601f836137e8565b915061409382614052565b602082019050919050565b600060208201905081810360008301526140b78161407b565b9050919050565b7f4f776e61626c653a2063616c6c6572206973206e6f7420746865206f776e6572600082015250565b60006140f46020836137e8565b91506140ff826140be565b602082019050919050565b60006020820190508181036000830152614123816140e7565b9050919050565b7f5061757361626c653a206e6f7420706175736564000000000000000000000000600082015250565b60006141606014836137e8565b915061416b8261412a565b602082019050919050565b6000602082019050818103600083015261418f81614153565b905091905056fea26469706673582212201b4afd4183b51e898992922f6444ebb46ed6ea7547c261a3305d91a737961e5a64736f6c634300081c0033",
  "linkReferences": {},
  "deployedLinkReferences": {}
}