{
  "_format": "hh-sol-artifact-1",
  "contractName": "CovalentXTokenFaucet",
  "sourceName": "contracts/CovalentXTokenFaucet.sol",
  "abi": [
    {
      "inputs": [
        {
          "internalType": "string",
          "name": "name",
          "type": "string"
        },
        {
          "internalType": "string",
          "name": "symbol",
          "type": "string"
        },
        {
          "internalType": "uint256",
          "name": "totalSupply",
          "type": "uint256"
        }
      ],
      "stateMutability": "nonpayable",
      "type": "constructor"
    },
    {
      "anonymous": false,
      "inputs": [
        {
          "indexed": true,
          "internalType": "address",
          "name": "owner",
          "type": "address"
        },
        {
          "indexed": true,
          "internalType": "address",
          "name": "spender",
          "type": "address"
        },
        {
          "indexed": false,
          "internalType": "uint256",
          "name": "value",
          "type": "uint256"
        }
      ],
      "name": "Approval",
      "type": "event"
    },
    {
      "anonymous": false,
      "inputs": [
        {
          "indexed": true,
          "internalType": "address",
          "name": "previousOwner",
          "type": "address"
        },
        {
          "indexed": true,
          "internalType": "address",
          "name": "newOwner",
          "type": "address"
        }
      ],
      "name": "OwnershipTransferred",
      "type": "event"
    },
    {
      "anonymous": false,
      "inputs": [
        {
          "indexed": true,
          "internalType": "address",
          "name": "from",
          "type": "address"
        },
        {
          "indexed": true,
          "internalType": "address",
          "name": "to",
          "type": "address"
        },
        {
          "indexed": false,
          "internalType": "uint256",
          "name": "value",
          "type": "uint256"
        }
      ],
      "name": "Transfer",
      "type": "event"
    },
    {
      "inputs": [],
      "name": "DOMAIN_SEPARATOR",
      "outputs": [
        {
          "internalType": "bytes32",
          "name": "",
          "type": "bytes32"
        }
      ],
      "stateMutability": "view",
      "type": "function"
    },
    {
      "inputs": [],
      "name": "PERMIT_TYPEHASH",
      "outputs": [
        {
          "internalType": "bytes32",
          "name": "",
          "type": "bytes32"
        }
      ],
      "stateMutability": "view",
      "type": "function"
    },
    {
      "inputs": [
        {
          "internalType": "address",
          "name": "owner",
          "type": "address"
        },
        {
          "internalType": "address",
          "name": "spender",
          "type": "address"
        }
      ],
      "name": "allowance",
      "outputs": [
        {
          "internalType": "uint256",
          "name": "",
          "type": "uint256"
        }
      ],
      "stateMutability": "view",
      "type": "function"
    },
    {
      "inputs": [
        {
          "internalType": "address",
          "name": "spender",
          "type": "address"
        },
        {
          "internalType": "uint256",
          "name": "amount",
          "type": "uint256"
        }
      ],
      "name": "approve",
      "outputs": [
        {
          "internalType": "bool",
          "name": "",
          "type": "bool"
        }
      ],
      "stateMutability": "nonpayable",
      "type": "function"
    },
    {
      "inputs": [
        {
          "internalType": "address",
          "name": "account",
          "type": "address"
        }
      ],
      "name": "balanceOf",
      "outputs": [
        {
          "internalType": "uint256",
          "name": "",
          "type": "uint256"
        }
      ],
      "stateMutability": "view",
      "type": "function"
    },
    {
      "inputs": [],
      "name": "decimals",
      "outputs": [
        {
          "internalType": "uint8",
          "name": "",
          "type": "uint8"
        }
      ],
      "stateMutability": "view",
      "type": "function"
    },
    {
      "inputs": [
        {
          "internalType": "address",
          "name": "spender",
          "type": "address"
        },
        {
          "internalType": "uint256",
          "name": "subtractedValue",
          "type": "uint256"
        }
      ],
      "name": "decreaseAllowance",
      "outputs": [
        {
          "internalType": "bool",
          "name": "",
          "type": "bool"
        }
      ],
      "stateMutability": "nonpayable",
      "type": "function"
    },
    {
      "inputs": [
        {
          "internalType": "address",
          "name": "recipient",
          "type": "address"
        },
        {
          "internalType": "uint256",
          "name": "amount",
          "type": "uint256"
        }
      ],
      "name": "faucet",
      "outputs": [],
      "stateMutability": "nonpayable",
      "type": "function"
    },
    {
      "inputs": [
        {
          "internalType": "address",
          "name": "spender",
          "type": "address"
        },
        {
          "internalType": "uint256",
          "name": "addedValue",
          "type": "uint256"
        }
      ],
      "name": "increaseAllowance",
      "outputs": [
        {
          "internalType": "bool",
          "name": "",
          "type": "bool"
        }
      ],
      "stateMutability": "nonpayable",
      "type": "function"
    },
    {
      "inputs": [],
      "name": "name",
      "outputs": [
        {
          "internalType": "string",
          "name": "",
          "type": "string"
        }
      ],
      "stateMutability": "view",
      "type": "function"
    },
    {
      "inputs": [
        {
          "internalType": "address",
          "name": "owner",
          "type": "address"
        }
      ],
      "name": "nonces",
      "outputs": [
        {
          "internalType": "uint256",
          "name": "",
          "type": "uint256"
        }
      ],
      "stateMutability": "view",
      "type": "function"
    },
    {
      "inputs": [],
      "name": "owner",
      "outputs": [
        {
          "internalType": "address",
          "name": "",
          "type": "address"
        }
      ],
      "stateMutability": "view",
      "type": "function"
    },
    {
      "inputs": [
        {
          "internalType": "address",
          "name": "owner",
          "type": "address"
        },
        {
          "internalType": "address",
          "name": "spender",
          "type": "address"
        },
        {
          "internalType": "uint256",
          "name": "amount",
          "type": "uint256"
        },
        {
          "internalType": "uint256",
          "name": "deadline",
          "type": "uint256"
        },
        {
          "internalType": "uint8",
          "name": "v",
          "type": "uint8"
        },
        {
          "internalType": "bytes32",
          "name": "r",
          "type": "bytes32"
        },
        {
          "internalType": "bytes32",
          "name": "s",
          "type": "bytes32"
        }
      ],
      "name": "permit",
      "outputs": [],
      "stateMutability": "nonpayable",
      "type": "function"
    },
    {
      "inputs": [],
      "name": "renounceOwnership",
      "outputs": [],
      "stateMutability": "nonpayable",
      "type": "function"
    },
    {
      "inputs": [
        {
          "internalType": "address",
          "name": "token",
          "type": "address"
        },
        {
          "internalType": "address",
          "name": "destination",
          "type": "address"
        },
        {
          "internalType": "uint256",
          "name": "amount",
          "type": "uint256"
        }
      ],
      "name": "rescueTokens",
      "outputs": [],
      "stateMutability": "nonpayable",
      "type": "function"
    },
    {
      "inputs": [],
      "name": "symbol",
      "outputs": [
        {
          "internalType": "string",
          "name": "",
          "type": "string"
        }
      ],
      "stateMutability": "view",
      "type": "function"
    },
    {
      "inputs": [],
      "name": "totalSupply",
      "outputs": [
        {
          "internalType": "uint256",
          "name": "",
          "type": "uint256"
        }
      ],
      "stateMutability": "view",
      "type": "function"
    },
    {
      "inputs": [
        {
          "internalType": "address",
          "name": "to",
          "type": "address"
        },
        {
          "internalType": "uint256",
          "name": "amount",
          "type": "uint256"
        }
      ],
      "name": "transfer",
      "outputs": [
        {
          "internalType": "bool",
          "name": "",
          "type": "bool"
        }
      ],
      "stateMutability": "nonpayable",
      "type": "function"
    },
    {
      "inputs": [
        {
          "internalType": "address",
          "name": "from",
          "type": "address"
        },
        {
          "internalType": "address",
          "name": "to",
          "type": "address"
        },
        {
          "internalType": "uint256",
          "name": "amount",
          "type": "uint256"
        }
      ],
      "name": "transferFrom",
      "outputs": [
        {
          "internalType": "bool",
          "name": "",
          "type": "bool"
        }
      ],
      "stateMutability": "nonpayable",
      "type": "function"
    },
    {
      "inputs": [
        {
          "internalType": "address",
          "name": "newOwner",
          "type": "address"
        }
      ],
      "name": "transferOwnership",
      "outputs": [],
      "stateMutability": "nonpayable",
      "type": "function"
    }
  ],
  "bytecode": "0x608060405234801561001057600080fd5b50604051612c7c380380612c7c833981810160405281019061003291906105ac565b82828160039081610043919061084e565b508060049081610053919061084e565b50505060004690507f8b73c3c69bb8fe3d512ecc4cf759cc79239f7b179b0ffacaa9a75d522b39400f61008a61013560201b60201c565b805190602001206040518060400160405280600181526020017f31000000000000000000000000000000000000000000000000000000000000008152508051906020012083306040516020016100e4959493929190610989565b604051602081830303815290604052805190602001206006819055505061011d6101126101c760201b60201c565b6101cf60201b60201c565b61012d338261029560201b60201c565b505050610ad7565b60606003805461014490610671565b80601f016020809104026020016040519081016040528092919081815260200182805461017090610671565b80156101bd5780601f10610192576101008083540402835291602001916101bd565b820191906000526020600020905b8154815290600101906020018083116101a057829003601f168201915b5050505050905090565b600033905090565b6000600760009054906101000a900473ffffffffffffffffffffffffffffffffffffffff16905081600760006101000a81548173ffffffffffffffffffffffffffffffffffffffff021916908373ffffffffffffffffffffffffffffffffffffffff1602179055508173ffffffffffffffffffffffffffffffffffffffff168173ffffffffffffffffffffffffffffffffffffffff167f8be0079c531659141344cd1fd0a4f28419497f9722a3daafe3b4186f6b6457e060405160405180910390a35050565b600073ffffffffffffffffffffffffffffffffffffffff168273ffffffffffffffffffffffffffffffffffffffff1603610304576040517f08c379a00000000000000000000000000000000000000000000000000000000081526004016102fb90610a39565b60405180910390fd5b610316600083836103f760201b60201c565b80600260008282546103289190610a88565b92505081905550806000808473ffffffffffffffffffffffffffffffffffffffff1673ffffffffffffffffffffffffffffffffffffffff168152602001908152602001600020600082825401925050819055508173ffffffffffffffffffffffffffffffffffffffff16600073ffffffffffffffffffffffffffffffffffffffff167fddf252ad1be2c89b69c2b068fc378daa952ba7f163c4a11628f55a4df523b3ef836040516103d99190610abc565b60405180910390a36103f3600083836103fc60201b60201c565b5050565b505050565b505050565b6000604051905090565b600080fd5b600080fd5b600080fd5b600080fd5b6000601f19601f8301169050919050565b7f4e487b7100000000000000000000000000000000000000000000000000000000600052604160045260246000fd5b6104688261041f565b810181811067ffffffffffffffff8211171561048757610486610430565b5b80604052505050565b600061049a610401565b90506104a6828261045f565b919050565b600067ffffffffffffffff8211156104c6576104c5610430565b5b6104cf8261041f565b9050602081019050919050565b60005b838110156104fa5780820151818401526020810190506104df565b60008484015250505050565b6000610519610514846104ab565b610490565b9050828152602081018484840111156105355761053461041a565b5b6105408482856104dc565b509392505050565b600082601f83011261055d5761055c610415565b5b815161056d848260208601610506565b91505092915050565b6000819050919050565b61058981610576565b811461059457600080fd5b50565b6000815190506105a681610580565b92915050565b6000806000606084860312156105c5576105c461040b565b5b600084015167ffffffffffffffff8111156105e3576105e2610410565b5b6105ef86828701610548565b935050602084015167ffffffffffffffff8111156106105761060f610410565b5b61061c86828701610548565b925050604061062d86828701610597565b9150509250925092565b600081519050919050565b7f4e487b7100000000000000000000000000000000000000000000000000000000600052602260045260246000fd5b6000600282049050600182168061068957607f821691505b60208210810361069c5761069b610642565b5b50919050565b60008190508160005260206000209050919050565b60006020601f8301049050919050565b600082821b905092915050565b6000600883026107047fffffffffffffffffffffffffffffffffffffffffffffffffffffffffffffffff826106c7565b61070e86836106c7565b95508019841693508086168417925050509392505050565b6000819050919050565b600061074b61074661074184610576565b610726565b610576565b9050919050565b6000819050919050565b61076583610730565b61077961077182610752565b8484546106d4565b825550505050565b600090565b61078e610781565b61079981848461075c565b505050565b5b818110156107bd576107b2600082610786565b60018101905061079f565b5050565b601f821115610802576107d3816106a2565b6107dc846106b7565b810160208510156107eb578190505b6107ff6107f7856106b7565b83018261079e565b50505b505050565b600082821c905092915050565b600061082560001984600802610807565b1980831691505092915050565b600061083e8383610814565b9150826002028217905092915050565b61085782610637565b67ffffffffffffffff8111156108705761086f610430565b5b61087a8254610671565b6108858282856107c1565b600060209050601f8311600181146108b857600084156108a6578287015190505b6108b08582610832565b865550610918565b601f1984166108c6866106a2565b60005b828110156108ee578489015182556001820191506020850194506020810190506108c9565b8683101561090b5784890151610907601f891682610814565b8355505b6001600288020188555050505b505050505050565b6000819050919050565b61093381610920565b82525050565b61094281610576565b82525050565b600073ffffffffffffffffffffffffffffffffffffffff82169050919050565b600061097382610948565b9050919050565b61098381610968565b82525050565b600060a08201905061099e600083018861092a565b6109ab602083018761092a565b6109b8604083018661092a565b6109c56060830185610939565b6109d2608083018461097a565b9695505050505050565b600082825260208201905092915050565b7f45524332303a206d696e7420746f20746865207a65726f206164647265737300600082015250565b6000610a23601f836109dc565b9150610a2e826109ed565b602082019050919050565b60006020820190508181036000830152610a5281610a16565b9050919050565b7f4e487b7100000000000000000000000000000000000000000000000000000000600052601160045260246000fd5b6000610a9382610576565b9150610a9e83610576565b9250828201905080821115610ab657610ab5610a59565b5b92915050565b6000602082019050610ad16000830184610939565b92915050565b61219680610ae66000396000f3fe608060405234801561001057600080fd5b50600436106100fc5760003560e01c806306fdde0314610101578063095ea7b31461011f57806318160ddd1461014f57806323b872dd1461016d57806330adf81f1461019d578063313ce567146101bb5780633644e515146101d957806339509351146101f757806370a0823114610227578063715018a6146102575780637b56c2b2146102615780637ecebe001461027d5780638da5cb5b146102ad57806395d89b41146102cb578063a457c2d7146102e9578063a9059cbb14610319578063cea9d26f14610349578063d505accf14610365578063dd62ed3e14610381578063f2fde38b146103b1575b600080fd5b6101096103cd565b6040516101169190611411565b60405180910390f35b610139600480360381019061013491906114cc565b61045f565b6040516101469190611527565b60405180910390f35b610157610482565b6040516101649190611551565b60405180910390f35b6101876004803603810190610182919061156c565b61048c565b6040516101949190611527565b60405180910390f35b6101a56104bb565b6040516101b291906115d8565b60405180910390f35b6101c36104e2565b6040516101d0919061160f565b60405180910390f35b6101e16104eb565b6040516101ee91906115d8565b60405180910390f35b610211600480360381019061020c91906114cc565b6104f1565b60405161021e9190611527565b60405180910390f35b610241600480360381019061023c919061162a565b610528565b60405161024e9190611551565b60405180910390f35b61025f610570565b005b61027b600480360381019061027691906114cc565b610584565b005b6102976004803603810190610292919061162a565b610592565b6040516102a49190611551565b60405180910390f35b6102b56105e2565b6040516102c29190611666565b60405180910390f35b6102d361060c565b6040516102e09190611411565b60405180910390f35b61030360048036038101906102fe91906114cc565b61069e565b6040516103109190611527565b60405180910390f35b610333600480360381019061032e91906114cc565b610715565b6040516103409190611527565b60405180910390f35b610363600480360381019061035e919061156c565b610738565b005b61037f600480360381019061037a91906116d9565b610870565b005b61039b6004803603810190610396919061177b565b610adc565b6040516103a89190611551565b60405180910390f35b6103cb60048036038101906103c6919061162a565b610b63565b005b6060600380546103dc906117ea565b80601f0160208091040260200160405190810160405280929190818152602001828054610408906117ea565b80156104555780601f1061042a57610100808354040283529160200191610455565b820191906000526020600020905b81548152906001019060200180831161043857829003601f168201915b5050505050905090565b60008061046a610be6565b9050610477818585610bee565b600191505092915050565b6000600254905090565b600080610497610be6565b90506104a4858285610db7565b6104af858585610e43565b60019150509392505050565b7f6e71edae12b1b97f4d1f60370fef10105fa2faae0126114a169c64845d6126c960001b81565b60006012905090565b60065481565b6000806104fc610be6565b905061051d81858561050e8589610adc565b610518919061184a565b610bee565b600191505092915050565b60008060008373ffffffffffffffffffffffffffffffffffffffff1673ffffffffffffffffffffffffffffffffffffffff168152602001908152602001600020549050919050565b6105786110b9565b6105826000611137565b565b61058e82826111fd565b5050565b60006105db600560008473ffffffffffffffffffffffffffffffffffffffff1673ffffffffffffffffffffffffffffffffffffffff168152602001908152602001600020611353565b9050919050565b6000600760009054906101000a900473ffffffffffffffffffffffffffffffffffffffff16905090565b60606004805461061b906117ea565b80601f0160208091040260200160405190810160405280929190818152602001828054610647906117ea565b80156106945780601f1061066957610100808354040283529160200191610694565b820191906000526020600020905b81548152906001019060200180831161067757829003601f168201915b5050505050905090565b6000806106a9610be6565b905060006106b78286610adc565b9050838110156106fc576040517f08c379a00000000000000000000000000000000000000000000000000000000081526004016106f3906118f0565b60405180910390fd5b6107098286868403610bee565b60019250505092915050565b600080610720610be6565b905061072d818585610e43565b600191505092915050565b6107406110b9565b8173ffffffffffffffffffffffffffffffffffffffff168373ffffffffffffffffffffffffffffffffffffffff16036107ae576040517f08c379a00000000000000000000000000000000000000000000000000000000081526004016107a59061195c565b60405180910390fd5b8273ffffffffffffffffffffffffffffffffffffffff1663a9059cbb83836040518363ffffffff1660e01b81526004016107e992919061197c565b6020604051808303816000875af1158015610808573d6000803e3d6000fd5b505050506040513d601f19601f8201168201806040525081019061082c91906119d1565b61086b576040517f08c379a000000000000000000000000000000000000000000000000000000000815260040161086290611a4a565b60405180910390fd5b505050565b834211156108b3576040517f08c379a00000000000000000000000000000000000000000000000000000000081526004016108aa90611ab6565b60405180910390fd5b60007f6e71edae12b1b97f4d1f60370fef10105fa2faae0126114a169c64845d6126c960001b888888610923600560008e73ffffffffffffffffffffffffffffffffffffffff1673ffffffffffffffffffffffffffffffffffffffff168152602001908152602001600020611353565b8960405160200161093996959493929190611ad6565b60405160208183030381529060405280519060200120905060006119016006548360405160200161096c93929190611b9c565b6040516020818303038152906040528051906020012090506000600182878787604051600081526020016040526040516109a99493929190611bd9565b6020604051602081039080840390855afa1580156109cb573d6000803e3d6000fd5b505050602060405103519050600073ffffffffffffffffffffffffffffffffffffffff168173ffffffffffffffffffffffffffffffffffffffff1614158015610a3f57508973ffffffffffffffffffffffffffffffffffffffff168173ffffffffffffffffffffffffffffffffffffffff16145b610a7e576040517f08c379a0000000000000000000000000000000000000000000000000000000008152600401610a7590611c90565b60405180910390fd5b610ac5600560008c73ffffffffffffffffffffffffffffffffffffffff1673ffffffffffffffffffffffffffffffffffffffff168152602001908152602001600020611361565b610ad08a8a8a610bee565b50505050505050505050565b6000600160008473ffffffffffffffffffffffffffffffffffffffff1673ffffffffffffffffffffffffffffffffffffffff16815260200190815260200160002060008373ffffffffffffffffffffffffffffffffffffffff1673ffffffffffffffffffffffffffffffffffffffff16815260200190815260200160002054905092915050565b610b6b6110b9565b600073ffffffffffffffffffffffffffffffffffffffff168173ffffffffffffffffffffffffffffffffffffffff1603610bda576040517f08c379a0000000000000000000000000000000000000000000000000000000008152600401610bd190611d22565b60405180910390fd5b610be381611137565b50565b600033905090565b600073ffffffffffffffffffffffffffffffffffffffff168373ffffffffffffffffffffffffffffffffffffffff1603610c5d576040517f08c379a0000000000000000000000000000000000000000000000000000000008152600401610c5490611db4565b60405180910390fd5b600073ffffffffffffffffffffffffffffffffffffffff168273ffffffffffffffffffffffffffffffffffffffff1603610ccc576040517f08c379a0000000000000000000000000000000000000000000000000000000008152600401610cc390611e46565b60405180910390fd5b80600160008573ffffffffffffffffffffffffffffffffffffffff1673ffffffffffffffffffffffffffffffffffffffff16815260200190815260200160002060008473ffffffffffffffffffffffffffffffffffffffff1673ffffffffffffffffffffffffffffffffffffffff168152602001908152602001600020819055508173ffffffffffffffffffffffffffffffffffffffff168373ffffffffffffffffffffffffffffffffffffffff167f8c5be1e5ebec7d5bd14f71427d1e84f3dd0314c0f7b2291e5b200ac8c7c3b92583604051610daa9190611551565b60405180910390a3505050565b6000610dc38484610adc565b90507fffffffffffffffffffffffffffffffffffffffffffffffffffffffffffffffff8114610e3d5781811015610e2f576040517f08c379a0000000000000000000000000000000000000000000000000000000008152600401610e2690611eb2565b60405180910390fd5b610e3c8484848403610bee565b5b50505050565b600073ffffffffffffffffffffffffffffffffffffffff168373ffffffffffffffffffffffffffffffffffffffff1603610eb2576040517f08c379a0000000000000000000000000000000000000000000000000000000008152600401610ea990611f44565b60405180910390fd5b600073ffffffffffffffffffffffffffffffffffffffff168273ffffffffffffffffffffffffffffffffffffffff1603610f21576040517f08c379a0000000000000000000000000000000000000000000000000000000008152600401610f1890611fd6565b60405180910390fd5b610f2c838383611377565b60008060008573ffffffffffffffffffffffffffffffffffffffff1673ffffffffffffffffffffffffffffffffffffffff16815260200190815260200160002054905081811015610fb2576040517f08c379a0000000000000000000000000000000000000000000000000000000008152600401610fa990612068565b60405180910390fd5b8181036000808673ffffffffffffffffffffffffffffffffffffffff1673ffffffffffffffffffffffffffffffffffffffff16815260200190815260200160002081905550816000808573ffffffffffffffffffffffffffffffffffffffff1673ffffffffffffffffffffffffffffffffffffffff168152602001908152602001600020600082825401925050819055508273ffffffffffffffffffffffffffffffffffffffff168473ffffffffffffffffffffffffffffffffffffffff167fddf252ad1be2c89b69c2b068fc378daa952ba7f163c4a11628f55a4df523b3ef846040516110a09190611551565b60405180910390a36110b384848461137c565b50505050565b6110c1610be6565b73ffffffffffffffffffffffffffffffffffffffff166110df6105e2565b73ffffffffffffffffffffffffffffffffffffffff1614611135576040517f08c379a000000000000000000000000000000000000000000000000000000000815260040161112c906120d4565b60405180910390fd5b565b6000600760009054906101000a900473ffffffffffffffffffffffffffffffffffffffff16905081600760006101000a81548173ffffffffffffffffffffffffffffffffffffffff021916908373ffffffffffffffffffffffffffffffffffffffff1602179055508173ffffffffffffffffffffffffffffffffffffffff168173ffffffffffffffffffffffffffffffffffffffff167f8be0079c531659141344cd1fd0a4f28419497f9722a3daafe3b4186f6b6457e060405160405180910390a35050565b600073ffffffffffffffffffffffffffffffffffffffff168273ffffffffffffffffffffffffffffffffffffffff160361126c576040517f08c379a000000000000000000000000000000000000000000000000000000000815260040161126390612140565b60405180910390fd5b61127860008383611377565b806002600082825461128a919061184a565b92505081905550806000808473ffffffffffffffffffffffffffffffffffffffff1673ffffffffffffffffffffffffffffffffffffffff168152602001908152602001600020600082825401925050819055508173ffffffffffffffffffffffffffffffffffffffff16600073ffffffffffffffffffffffffffffffffffffffff167fddf252ad1be2c89b69c2b068fc378daa952ba7f163c4a11628f55a4df523b3ef8360405161133b9190611551565b60405180910390a361134f6000838361137c565b5050565b600081600001549050919050565b6001816000016000828254019250508190555050565b505050565b505050565b600081519050919050565b600082825260208201905092915050565b60005b838110156113bb5780820151818401526020810190506113a0565b60008484015250505050565b6000601f19601f8301169050919050565b60006113e382611381565b6113ed818561138c565b93506113fd81856020860161139d565b611406816113c7565b840191505092915050565b6000602082019050818103600083015261142b81846113d8565b905092915050565b600080fd5b600073ffffffffffffffffffffffffffffffffffffffff82169050919050565b600061146382611438565b9050919050565b61147381611458565b811461147e57600080fd5b50565b6000813590506114908161146a565b92915050565b6000819050919050565b6114a981611496565b81146114b457600080fd5b50565b6000813590506114c6816114a0565b92915050565b600080604083850312156114e3576114e2611433565b5b60006114f185828601611481565b9250506020611502858286016114b7565b9150509250929050565b60008115159050919050565b6115218161150c565b82525050565b600060208201905061153c6000830184611518565b92915050565b61154b81611496565b82525050565b60006020820190506115666000830184611542565b92915050565b60008060006060848603121561158557611584611433565b5b600061159386828701611481565b93505060206115a486828701611481565b92505060406115b5868287016114b7565b9150509250925092565b6000819050919050565b6115d2816115bf565b82525050565b60006020820190506115ed60008301846115c9565b92915050565b600060ff82169050919050565b611609816115f3565b82525050565b60006020820190506116246000830184611600565b92915050565b6000602082840312156116405761163f611433565b5b600061164e84828501611481565b91505092915050565b61166081611458565b82525050565b600060208201905061167b6000830184611657565b92915050565b61168a816115f3565b811461169557600080fd5b50565b6000813590506116a781611681565b92915050565b6116b6816115bf565b81146116c157600080fd5b50565b6000813590506116d3816116ad565b92915050565b600080600080600080600060e0888a0312156116f8576116f7611433565b5b60006117068a828b01611481565b97505060206117178a828b01611481565b96505060406117288a828b016114b7565b95505060606117398a828b016114b7565b945050608061174a8a828b01611698565b93505060a061175b8a828b016116c4565b92505060c061176c8a828b016116c4565b91505092959891949750929550565b6000806040838503121561179257611791611433565b5b60006117a085828601611481565b92505060206117b185828601611481565b9150509250929050565b7f4e487b7100000000000000000000000000000000000000000000000000000000600052602260045260246000fd5b6000600282049050600182168061180257607f821691505b602082108103611815576118146117bb565b5b50919050565b7f4e487b7100000000000000000000000000000000000000000000000000000000600052601160045260246000fd5b600061185582611496565b915061186083611496565b92508282019050808211156118785761187761181b565b5b92915050565b7f45524332303a2064656372656173656420616c6c6f77616e63652062656c6f7760008201527f207a65726f000000000000000000000000000000000000000000000000000000602082015250565b60006118da60258361138c565b91506118e58261187e565b604082019050919050565b60006020820190508181036000830152611909816118cd565b9050919050565b7f496e76616c696420616464726573730000000000000000000000000000000000600082015250565b6000611946600f8361138c565b915061195182611910565b602082019050919050565b6000602082019050818103600083015261197581611939565b9050919050565b60006040820190506119916000830185611657565b61199e6020830184611542565b9392505050565b6119ae8161150c565b81146119b957600080fd5b50565b6000815190506119cb816119a5565b92915050565b6000602082840312156119e7576119e6611433565b5b60006119f5848285016119bc565b91505092915050565b7f5265747269657665206661696c65640000000000000000000000000000000000600082015250565b6000611a34600f8361138c565b9150611a3f826119fe565b602082019050919050565b60006020820190508181036000830152611a6381611a27565b9050919050565b7f436f76616c656e745065726d69743a206578706972656420646561646c696e65600082015250565b6000611aa060208361138c565b9150611aab82611a6a565b602082019050919050565b60006020820190508181036000830152611acf81611a93565b9050919050565b600060c082019050611aeb60008301896115c9565b611af86020830188611657565b611b056040830187611657565b611b126060830186611542565b611b1f6080830185611542565b611b2c60a0830184611542565b979650505050505050565b600061ffff82169050919050565b60008160f01b9050919050565b6000611b5d82611b45565b9050919050565b611b75611b7082611b37565b611b52565b82525050565b6000819050919050565b611b96611b91826115bf565b611b7b565b82525050565b6000611ba88286611b64565b600282019150611bb88285611b85565b602082019150611bc88284611b85565b602082019150819050949350505050565b6000608082019050611bee60008301876115c9565b611bfb6020830186611600565b611c0860408301856115c9565b611c1560608301846115c9565b95945050505050565b7f436f76616c656e745065726d69743a20496e76616c6964207369676e6174757260008201527f6500000000000000000000000000000000000000000000000000000000000000602082015250565b6000611c7a60218361138c565b9150611c8582611c1e565b604082019050919050565b60006020820190508181036000830152611ca981611c6d565b9050919050565b7f4f776e61626c653a206e6577206f776e657220697320746865207a65726f206160008201527f6464726573730000000000000000000000000000000000000000000000000000602082015250565b6000611d0c60268361138c565b9150611d1782611cb0565b604082019050919050565b60006020820190508181036000830152611d3b81611cff565b9050919050565b7f45524332303a20617070726f76652066726f6d20746865207a65726f2061646460008201527f7265737300000000000000000000000000000000000000000000000000000000602082015250565b6000611d9e60248361138c565b9150611da982611d42565b604082019050919050565b60006020820190508181036000830152611dcd81611d91565b9050919050565b7f45524332303a20617070726f766520746f20746865207a65726f20616464726560008201527f7373000000000000000000000000000000000000000000000000000000000000602082015250565b6000611e3060228361138c565b9150611e3b82611dd4565b604082019050919050565b60006020820190508181036000830152611e5f81611e23565b9050919050565b7f45524332303a20696e73756666696369656e7420616c6c6f77616e6365000000600082015250565b6000611e9c601d8361138c565b9150611ea782611e66565b602082019050919050565b60006020820190508181036000830152611ecb81611e8f565b9050919050565b7f45524332303a207472616e736665722066726f6d20746865207a65726f20616460008201527f6472657373000000000000000000000000000000000000000000000000000000602082015250565b6000611f2e60258361138c565b9150611f3982611ed2565b604082019050919050565b60006020820190508181036000830152611f5d81611f21565b9050919050565b7f45524332303a207472616e7366657220746f20746865207a65726f206164647260008201527f6573730000000000000000000000000000000000000000000000000000000000602082015250565b6000611fc060238361138c565b9150611fcb82611f64565b604082019050919050565b60006020820190508181036000830152611fef81611fb3565b9050919050565b7f45524332303a207472616e7366657220616d6f756e742065786365656473206260008201527f616c616e63650000000000000000000000000000000000000000000000000000602082015250565b600061205260268361138c565b915061205d82611ff6565b604082019050919050565b6000602082019050818103600083015261208181612045565b9050919050565b7f4f776e61626c653a2063616c6c6572206973206e6f7420746865206f776e6572600082015250565b60006120be60208361138c565b91506120c982612088565b602082019050919050565b600060208201905081810360008301526120ed816120b1565b9050919050565b7f45524332303a206d696e7420746f20746865207a65726f206164647265737300600082015250565b600061212a601f8361138c565b9150612135826120f4565b602082019050919050565b600060208201905081810360008301526121598161211d565b905091905056fea2646970667358221220f4972695e908275cbc125689113a9ad93182a31dbc94ce514bcdeccf37dd4ac464736f6c634300081c0033",
  "linkReferences": {},
  "deployedLinkReferences": {}
}