{
  "_format": "hh-sol-artifact-1",
  "contractName": "MockNonERC721Receiver",
  "sourceName": "contracts/MockNonERC721Receiver.sol",
  "abi": [
    {
      "inputs": [
        {
          "internalType": "address",
          "name": "spender",
          "type": "address"
        },
        {
          "internalType": "uint256",
          "name": "amount",
          "type": "uint256"
        }
      ],
      "name": "approve",
      "outputs": [],
      "stateMutability": "nonpayable",
      "type": "function"
    },
    {
      "inputs": [
        {
          "internalType": "address",
          "name": "_token",
          "type": "address"
        }
      ],
      "name": "setToken",
      "outputs": [],
      "stateMutability": "nonpayable",
      "type": "function"
    },
    {
      "inputs": [],
      "name": "token",
      "outputs": [
        {
          "internalType": "contract IERC20",
          "name": "",
          "type": "address"
        }
      ],
      "stateMutability": "view",
      "type": "function"
    },
    {
      "inputs": [
        {
          "internalType": "address",
          "name": "allowanceContract",
          "type": "address"
        },
        {
          "internalType": "uint256",
          "name": "nftQuantity",
          "type": "uint256"
        },
        {
          "internalType": "bytes32[]",
          "name": "merkleProof",
          "type": "bytes32[]"
        }
      ],
      "name": "tryWhitelistedAllocation",
      "outputs": [],
      "stateMutability": "nonpayable",
      "type": "function"
    }
  ],
  "bytecode": "0x6080604052348015600f57600080fd5b506109a98061001f6000396000f3fe608060405234801561001057600080fd5b506004361061004c5760003560e01c8063095ea7b314610051578063144fa6d71461006d578063ef96166c14610089578063fc0c546a146100a5575b600080fd5b61006b6004803603810190610066919061047d565b6100c3565b005b610087600480360381019061008291906104bd565b610233565b005b6100a3600480360381019061009e919061054f565b610276565b005b6100ad6103bb565b6040516100ba9190610622565b60405180910390f35b600073ffffffffffffffffffffffffffffffffffffffff1660008054906101000a900473ffffffffffffffffffffffffffffffffffffffff1673ffffffffffffffffffffffffffffffffffffffff1603610152576040517f08c379a00000000000000000000000000000000000000000000000000000000081526004016101499061069a565b60405180910390fd5b60008054906101000a900473ffffffffffffffffffffffffffffffffffffffff1673ffffffffffffffffffffffffffffffffffffffff1663095ea7b383836040518363ffffffff1660e01b81526004016101ad9291906106d8565b6020604051808303816000875af11580156101cc573d6000803e3d6000fd5b505050506040513d601f19601f820116820180604052508101906101f09190610739565b61022f576040517f08c379a0000000000000000000000000000000000000000000000000000000008152600401610226906107b2565b60405180910390fd5b5050565b806000806101000a81548173ffffffffffffffffffffffffffffffffffffffff021916908373ffffffffffffffffffffffffffffffffffffffff16021790555050565b60008473ffffffffffffffffffffffffffffffffffffffff168484846040516024016102a49392919061084d565b6040516020818303038152906040527f3b27d313000000000000000000000000000000000000000000000000000000007bffffffffffffffffffffffffffffffffffffffffffffffffffffffff19166020820180517bffffffffffffffffffffffffffffffffffffffffffffffffffffffff838183161783525050505060405161032e91906108f0565b6000604051808303816000865af19150503d806000811461036b576040519150601f19603f3d011682016040523d82523d6000602084013e610370565b606091505b50509050806103b4576040517f08c379a00000000000000000000000000000000000000000000000000000000081526004016103ab90610953565b60405180910390fd5b5050505050565b60008054906101000a900473ffffffffffffffffffffffffffffffffffffffff1681565b600080fd5b600080fd5b600073ffffffffffffffffffffffffffffffffffffffff82169050919050565b6000610414826103e9565b9050919050565b61042481610409565b811461042f57600080fd5b50565b6000813590506104418161041b565b92915050565b6000819050919050565b61045a81610447565b811461046557600080fd5b50565b60008135905061047781610451565b92915050565b60008060408385031215610494576104936103df565b5b60006104a285828601610432565b92505060206104b385828601610468565b9150509250929050565b6000602082840312156104d3576104d26103df565b5b60006104e184828501610432565b91505092915050565b600080fd5b600080fd5b600080fd5b60008083601f84011261050f5761050e6104ea565b5b8235905067ffffffffffffffff81111561052c5761052b6104ef565b5b602083019150836020820283011115610548576105476104f4565b5b9250929050565b60008060008060608587031215610569576105686103df565b5b600061057787828801610432565b945050602061058887828801610468565b935050604085013567ffffffffffffffff8111156105a9576105a86103e4565b5b6105b5878288016104f9565b925092505092959194509250565b6000819050919050565b60006105e86105e36105de846103e9565b6105c3565b6103e9565b9050919050565b60006105fa826105cd565b9050919050565b600061060c826105ef565b9050919050565b61061c81610601565b82525050565b60006020820190506106376000830184610613565b92915050565b600082825260208201905092915050565b7f546f6b656e206e6f742073657400000000000000000000000000000000000000600082015250565b6000610684600d8361063d565b915061068f8261064e565b602082019050919050565b600060208201905081810360008301526106b381610677565b9050919050565b6106c381610409565b82525050565b6106d281610447565b82525050565b60006040820190506106ed60008301856106ba565b6106fa60208301846106c9565b9392505050565b60008115159050919050565b61071681610701565b811461072157600080fd5b50565b6000815190506107338161070d565b92915050565b60006020828403121561074f5761074e6103df565b5b600061075d84828501610724565b91505092915050565b7f417070726f76616c206661696c65640000000000000000000000000000000000600082015250565b600061079c600f8361063d565b91506107a782610766565b602082019050919050565b600060208201905081810360008301526107cb8161078f565b9050919050565b600082825260208201905092915050565b600080fd5b82818337505050565b60006107fd83856107d2565b93507f07ffffffffffffffffffffffffffffffffffffffffffffffffffffffffffffff8311156108305761082f6107e3565b5b6020830292506108418385846107e8565b82840190509392505050565b600060408201905061086260008301866106c9565b81810360208301526108758184866107f1565b9050949350505050565b600081519050919050565b600081905092915050565b60005b838110156108b3578082015181840152602081019050610898565b60008484015250505050565b60006108ca8261087f565b6108d4818561088a565b93506108e4818560208601610895565b80840191505092915050565b60006108fc82846108bf565b915081905092915050565b7f43616c6c206661696c6564000000000000000000000000000000000000000000600082015250565b600061093d600b8361063d565b915061094882610907565b602082019050919050565b6000602082019050818103600083015261096c81610930565b905091905056fea26469706673582212201df7d514a621853aecf41704750afc0a020893b9c48cdfaa3f08c83b664e86a064736f6c634300081c0033",
  "linkReferences": {},
  "deployedLinkReferences": {}
}