{
  "_format": "hh-sol-artifact-1",
  "contractName": "EwmNftController",
  "sourceName": "contracts/EwmNftController.sol",
  "abi": [
    {
      "inputs": [],
      "stateMutability": "nonpayable",
      "type": "constructor"
    },
    {
      "anonymous": false,
      "inputs": [
        {
          "indexed": true,
          "internalType": "address",
          "name": "owner",
          "type": "address"
        },
        {
          "indexed": true,
          "internalType": "address",
          "name": "approved",
          "type": "address"
        },
        {
          "indexed": true,
          "internalType": "uint256",
          "name": "tokenId",
          "type": "uint256"
        }
      ],
      "name": "Approval",
      "type": "event"
    },
    {
      "anonymous": false,
      "inputs": [
        {
          "indexed": true,
          "internalType": "address",
          "name": "owner",
          "type": "address"
        },
        {
          "indexed": true,
          "internalType": "address",
          "name": "operator",
          "type": "address"
        },
        {
          "indexed": false,
          "internalType": "bool",
          "name": "approved",
          "type": "bool"
        }
      ],
      "name": "ApprovalForAll",
      "type": "event"
    },
    {
      "anonymous": false,
      "inputs": [
        {
          "indexed": false,
          "internalType": "address",
          "name": "newBanAdmin",
          "type": "address"
        }
      ],
      "name": "EventBanAdminUpdated",
      "type": "event"
    },
    {
      "anonymous": false,
      "inputs": [
        {
          "indexed": false,
          "internalType": "address",
          "name": "tokenOwner",
          "type": "address"
        },
        {
          "indexed": false,
          "internalType": "uint256",
          "name": "tokenId",
          "type": "uint256"
        },
        {
          "indexed": false,
          "internalType": "uint64",
          "name": "banEndTime",
          "type": "uint64"
        }
      ],
      "name": "EventBanUpdated",
      "type": "event"
    },
    {
      "anonymous": false,
      "inputs": [
        {
          "indexed": false,
          "internalType": "string",
          "name": "url_",
          "type": "string"
        }
      ],
      "name": "EventBaseUrlSet",
      "type": "event"
    },
    {
      "anonymous": false,
      "inputs": [
        {
          "indexed": false,
          "internalType": "address",
          "name": "account",
          "type": "address"
        }
      ],
      "name": "EventContractPaused",
      "type": "event"
    },
    {
      "anonymous": false,
      "inputs": [
        {
          "indexed": false,
          "internalType": "address",
          "name": "account",
          "type": "address"
        }
      ],
      "name": "EventContractUnpaused",
      "type": "event"
    },
    {
      "anonymous": false,
      "inputs": [
        {
          "indexed": false,
          "internalType": "uint256",
          "name": "startTokenId",
          "type": "uint256"
        },
        {
          "indexed": false,
          "internalType": "uint256",
          "name": "endTokenId",
          "type": "uint256"
        },
        {
          "indexed": false,
          "internalType": "uint64",
          "name": "expiryTime",
          "type": "uint64"
        }
      ],
      "name": "EventExpiryRangeSet",
      "type": "event"
    },
    {
      "anonymous": false,
      "inputs": [
        {
          "indexed": false,
          "internalType": "uint256",
          "name": "index",
          "type": "uint256"
        },
        {
          "indexed": false,
          "internalType": "uint256",
          "name": "startTokenId",
          "type": "uint256"
        },
        {
          "indexed": false,
          "internalType": "uint256",
          "name": "endTokenId",
          "type": "uint256"
        },
        {
          "indexed": false,
          "internalType": "uint64",
          "name": "expiryTime",
          "type": "uint64"
        }
      ],
      "name": "EventExpiryRangeUpdated",
      "type": "event"
    },
    {
      "anonymous": false,
      "inputs": [
        {
          "indexed": true,
          "internalType": "address",
          "name": "cxt",
          "type": "address"
        },
        {
          "indexed": false,
          "internalType": "address",
          "name": "minterAdminAddress",
          "type": "address"
        },
        {
          "indexed": false,
          "internalType": "address",
          "name": "banAdminAddress",
          "type": "address"
        },
        {
          "indexed": false,
          "internalType": "address",
          "name": "whitelistAdminAddress",
          "type": "address"
        },
        {
          "indexed": false,
          "internalType": "address",
          "name": "rewardManager",
          "type": "address"
        },
        {
          "indexed": false,
          "internalType": "bool",
          "name": "nftTransferable",
          "type": "bool"
        },
        {
          "indexed": false,
          "internalType": "uint256",
          "name": "nextTokenId",
          "type": "uint256"
        },
        {
          "indexed": false,
          "internalType": "bool",
          "name": "unpaused",
          "type": "bool"
        }
      ],
      "name": "EventInitialized",
      "type": "event"
    },
    {
      "anonymous": false,
      "inputs": [
        {
          "indexed": false,
          "internalType": "address",
          "name": "newMinterAdmin",
          "type": "address"
        }
      ],
      "name": "EventMinterAdminUpdated",
      "type": "event"
    },
    {
      "anonymous": false,
      "inputs": [
        {
          "indexed": false,
          "internalType": "bool",
          "name": "transferable",
          "type": "bool"
        }
      ],
      "name": "EventNftTransferableUpdated",
      "type": "event"
    },
    {
      "anonymous": false,
      "inputs": [
        {
          "indexed": true,
          "internalType": "address",
          "name": "operationalManager",
          "type": "address"
        }
      ],
      "name": "EventRewardManagerAddressChanged",
      "type": "event"
    },
    {
      "anonymous": false,
      "inputs": [
        {
          "indexed": false,
          "internalType": "uint256",
          "name": "amount",
          "type": "uint256"
        }
      ],
      "name": "EventRewardTokensDeposited",
      "type": "event"
    },
    {
      "anonymous": false,
      "inputs": [
        {
          "indexed": false,
          "internalType": "uint256",
          "name": "amount",
          "type": "uint256"
        }
      ],
      "name": "EventRewardTokensWithdrawn",
      "type": "event"
    },
    {
      "anonymous": false,
      "inputs": [
        {
          "indexed": true,
          "internalType": "uint256",
          "name": "rewardId",
          "type": "uint256"
        }
      ],
      "name": "EventRewardsDisbursed",
      "type": "event"
    },
    {
      "anonymous": false,
      "inputs": [
        {
          "indexed": true,
          "internalType": "uint256",
          "name": "tokenId",
          "type": "uint256"
        },
        {
          "indexed": false,
          "internalType": "uint256",
          "name": "amount",
          "type": "uint256"
        }
      ],
      "name": "EventRewardsFailedDueNFTExpired",
      "type": "event"
    },
    {
      "anonymous": false,
      "inputs": [
        {
          "indexed": true,
          "internalType": "address",
          "name": "beneficiary",
          "type": "address"
        },
        {
          "indexed": true,
          "internalType": "uint256",
          "name": "amount",
          "type": "uint256"
        }
      ],
      "name": "EventRewardsRedeemed",
      "type": "event"
    },
    {
      "anonymous": false,
      "inputs": [
        {
          "indexed": false,
          "internalType": "address[]",
          "name": "addresses",
          "type": "address[]"
        },
        {
          "indexed": false,
          "internalType": "bool",
          "name": "status",
          "type": "bool"
        }
      ],
      "name": "EventTransferWhiteListUpdated",
      "type": "event"
    },
    {
      "anonymous": false,
      "inputs": [
        {
          "indexed": false,
          "internalType": "address",
          "name": "newWhiteListAdmin",
          "type": "address"
        }
      ],
      "name": "EventWhiteListAdminUpdated",
      "type": "event"
    },
    {
      "anonymous": false,
      "inputs": [
        {
          "indexed": false,
          "internalType": "uint256",
          "name": "startTime",
          "type": "uint256"
        },
        {
          "indexed": false,
          "internalType": "uint256",
          "name": "endTime",
          "type": "uint256"
        }
      ],
      "name": "EventWhitelistTransferTimeUpdated",
      "type": "event"
    },
    {
      "anonymous": false,
      "inputs": [
        {
          "indexed": false,
          "internalType": "uint8",
          "name": "version",
          "type": "uint8"
        }
      ],
      "name": "Initialized",
      "type": "event"
    },
    {
      "anonymous": false,
      "inputs": [
        {
          "indexed": true,
          "internalType": "address",
          "name": "previousOwner",
          "type": "address"
        },
        {
          "indexed": true,
          "internalType": "address",
          "name": "newOwner",
          "type": "address"
        }
      ],
      "name": "OwnershipTransferStarted",
      "type": "event"
    },
    {
      "anonymous": false,
      "inputs": [
        {
          "indexed": true,
          "internalType": "address",
          "name": "previousOwner",
          "type": "address"
        },
        {
          "indexed": true,
          "internalType": "address",
          "name": "newOwner",
          "type": "address"
        }
      ],
      "name": "OwnershipTransferred",
      "type": "event"
    },
    {
      "anonymous": false,
      "inputs": [
        {
          "indexed": true,
          "internalType": "address",
          "name": "from",
          "type": "address"
        },
        {
          "indexed": true,
          "internalType": "address",
          "name": "to",
          "type": "address"
        },
        {
          "indexed": true,
          "internalType": "uint256",
          "name": "tokenId",
          "type": "uint256"
        }
      ],
      "name": "Transfer",
      "type": "event"
    },
    {
      "anonymous": false,
      "inputs": [
        {
          "indexed": true,
          "internalType": "uint256",
          "name": "tokenId",
          "type": "uint256"
        },
        {
          "indexed": true,
          "internalType": "address",
          "name": "user",
          "type": "address"
        },
        {
          "indexed": false,
          "internalType": "uint64",
          "name": "expires",
          "type": "uint64"
        }
      ],
      "name": "UpdateUser",
      "type": "event"
    },
    {
      "inputs": [],
      "name": "REWARD_REDEEM_THRESHOLD",
      "outputs": [
        {
          "internalType": "uint256",
          "name": "",
          "type": "uint256"
        }
      ],
      "stateMutability": "view",
      "type": "function"
    },
    {
      "inputs": [],
      "name": "acceptOwnership",
      "outputs": [],
      "stateMutability": "nonpayable",
      "type": "function"
    },
    {
      "inputs": [
        {
          "internalType": "address",
          "name": "to",
          "type": "address"
        },
        {
          "internalType": "uint256",
          "name": "tokenId",
          "type": "uint256"
        }
      ],
      "name": "approve",
      "outputs": [],
      "stateMutability": "nonpayable",
      "type": "function"
    },
    {
      "inputs": [
        {
          "internalType": "address",
          "name": "owner",
          "type": "address"
        }
      ],
      "name": "balanceOf",
      "outputs": [
        {
          "internalType": "uint256",
          "name": "",
          "type": "uint256"
        }
      ],
      "stateMutability": "view",
      "type": "function"
    },
    {
      "inputs": [
        {
          "internalType": "uint256",
          "name": "tokenId",
          "type": "uint256"
        },
        {
          "internalType": "uint64",
          "name": "endTime",
          "type": "uint64"
        }
      ],
      "name": "ban",
      "outputs": [],
      "stateMutability": "nonpayable",
      "type": "function"
    },
    {
      "inputs": [],
      "name": "banAdminAddress",
      "outputs": [
        {
          "internalType": "address",
          "name": "",
          "type": "address"
        }
      ],
      "stateMutability": "view",
      "type": "function"
    },
    {
      "inputs": [],
      "name": "baseUrl",
      "outputs": [
        {
          "internalType": "string",
          "name": "",
          "type": "string"
        }
      ],
      "stateMutability": "view",
      "type": "function"
    },
    {
      "inputs": [
        {
          "internalType": "uint256[]",
          "name": "tokenIds",
          "type": "uint256[]"
        },
        {
          "internalType": "address[]",
          "name": "users",
          "type": "address[]"
        }
      ],
      "name": "batchSetUser",
      "outputs": [],
      "stateMutability": "nonpayable",
      "type": "function"
    },
    {
      "inputs": [
        {
          "internalType": "address[]",
          "name": "toArray",
          "type": "address[]"
        },
        {
          "internalType": "uint256[]",
          "name": "tokenIdArray",
          "type": "uint256[]"
        }
      ],
      "name": "batchTransfer",
      "outputs": [],
      "stateMutability": "nonpayable",
      "type": "function"
    },
    {
      "inputs": [],
      "name": "cxt",
      "outputs": [
        {
          "internalType": "contract IERC20Upgradeable",
          "name": "",
          "type": "address"
        }
      ],
      "stateMutability": "view",
      "type": "function"
    },
    {
      "inputs": [
        {
          "internalType": "uint256",
          "name": "amount",
          "type": "uint256"
        }
      ],
      "name": "depositRewardTokens",
      "outputs": [],
      "stateMutability": "nonpayable",
      "type": "function"
    },
    {
      "inputs": [
        {
          "internalType": "uint256",
          "name": "",
          "type": "uint256"
        }
      ],
      "name": "expiryRanges",
      "outputs": [
        {
          "internalType": "uint256",
          "name": "startTokenId",
          "type": "uint256"
        },
        {
          "internalType": "uint256",
          "name": "endTokenId",
          "type": "uint256"
        },
        {
          "internalType": "uint64",
          "name": "expiryTime",
          "type": "uint64"
        }
      ],
      "stateMutability": "view",
      "type": "function"
    },
    {
      "inputs": [
        {
          "internalType": "uint256",
          "name": "tokenId",
          "type": "uint256"
        }
      ],
      "name": "getApproved",
      "outputs": [
        {
          "internalType": "address",
          "name": "",
          "type": "address"
        }
      ],
      "stateMutability": "view",
      "type": "function"
    },
    {
      "inputs": [
        {
          "internalType": "uint256",
          "name": "tokenId",
          "type": "uint256"
        }
      ],
      "name": "getBanEndTime",
      "outputs": [
        {
          "internalType": "uint64",
          "name": "",
          "type": "uint64"
        }
      ],
      "stateMutability": "view",
      "type": "function"
    },
    {
      "inputs": [
        {
          "internalType": "uint256",
          "name": "tokenId",
          "type": "uint256"
        }
      ],
      "name": "getBanRecord",
      "outputs": [
        {
          "internalType": "uint64",
          "name": "",
          "type": "uint64"
        }
      ],
      "stateMutability": "view",
      "type": "function"
    },
    {
      "inputs": [],
      "name": "getMetadata",
      "outputs": [
        {
          "internalType": "address",
          "name": "_nftController",
          "type": "address"
        },
        {
          "internalType": "address",
          "name": "_cxt",
          "type": "address"
        },
        {
          "internalType": "address",
          "name": "_minterAdmin",
          "type": "address"
        },
        {
          "internalType": "address",
          "name": "_banAdmin",
          "type": "address"
        },
        {
          "internalType": "address",
          "name": "_whitelistAdmin",
          "type": "address"
        },
        {
          "internalType": "address",
          "name": "_rewardManager",
          "type": "address"
        },
        {
          "internalType": "uint256",
          "name": "_nextTokenId",
          "type": "uint256"
        },
        {
          "internalType": "uint256",
          "name": "_rewardPool",
          "type": "uint256"
        },
        {
          "internalType": "bool",
          "name": "_nftTransferable",
          "type": "bool"
        },
        {
          "internalType": "string",
          "name": "_baseUrl",
          "type": "string"
        },
        {
          "components": [
            {
              "internalType": "uint256",
              "name": "startTokenId",
              "type": "uint256"
            },
            {
              "internalType": "uint256",
              "name": "endTokenId",
              "type": "uint256"
            },
            {
              "internalType": "uint64",
              "name": "expiryTime",
              "type": "uint64"
            }
          ],
          "internalType": "struct EwmNftController.ExpiryRange[]",
          "name": "_expiryRanges",
          "type": "tuple[]"
        }
      ],
      "stateMutability": "view",
      "type": "function"
    },
    {
      "inputs": [
        {
          "internalType": "uint256",
          "name": "tokenId",
          "type": "uint256"
        }
      ],
      "name": "getUserInfo",
      "outputs": [
        {
          "components": [
            {
              "internalType": "address",
              "name": "user",
              "type": "address"
            },
            {
              "internalType": "uint64",
              "name": "expires",
              "type": "uint64"
            },
            {
              "internalType": "uint256",
              "name": "redeemable",
              "type": "uint256"
            }
          ],
          "internalType": "struct EwmNftController.UserInfo",
          "name": "",
          "type": "tuple"
        }
      ],
      "stateMutability": "view",
      "type": "function"
    },
    {
      "inputs": [],
      "name": "getWhitelistTransferTime",
      "outputs": [
        {
          "internalType": "uint256",
          "name": "startTime",
          "type": "uint256"
        },
        {
          "internalType": "uint256",
          "name": "endTime",
          "type": "uint256"
        }
      ],
      "stateMutability": "view",
      "type": "function"
    },
    {
      "inputs": [
        {
          "internalType": "address",
          "name": "addr",
          "type": "address"
        }
      ],
      "name": "inTransferWhitelist",
      "outputs": [
        {
          "internalType": "bool",
          "name": "",
          "type": "bool"
        }
      ],
      "stateMutability": "view",
      "type": "function"
    },
    {
      "inputs": [
        {
          "internalType": "address",
          "name": "_cxt",
          "type": "address"
        },
        {
          "internalType": "address",
          "name": "minterAdmin",
          "type": "address"
        },
        {
          "internalType": "address",
          "name": "banAdmin",
          "type": "address"
        },
        {
          "internalType": "address",
          "name": "whitelistAdmin",
          "type": "address"
        },
        {
          "internalType": "address",
          "name": "rewardAdmin",
          "type": "address"
        }
      ],
      "name": "initialize",
      "outputs": [],
      "stateMutability": "nonpayable",
      "type": "function"
    },
    {
      "inputs": [
        {
          "internalType": "address",
          "name": "owner",
          "type": "address"
        },
        {
          "internalType": "address",
          "name": "operator",
          "type": "address"
        }
      ],
      "name": "isApprovedForAll",
      "outputs": [
        {
          "internalType": "bool",
          "name": "",
          "type": "bool"
        }
      ],
      "stateMutability": "view",
      "type": "function"
    },
    {
      "inputs": [
        {
          "internalType": "uint256",
          "name": "tokenId",
          "type": "uint256"
        }
      ],
      "name": "isBanned",
      "outputs": [
        {
          "internalType": "bool",
          "name": "",
          "type": "bool"
        }
      ],
      "stateMutability": "view",
      "type": "function"
    },
    {
      "inputs": [
        {
          "internalType": "address",
          "name": "to",
          "type": "address"
        },
        {
          "internalType": "uint256",
          "name": "amount",
          "type": "uint256"
        }
      ],
      "name": "mint",
      "outputs": [],
      "stateMutability": "nonpayable",
      "type": "function"
    },
    {
      "inputs": [],
      "name": "minterAdminAddress",
      "outputs": [
        {
          "internalType": "address",
          "name": "",
          "type": "address"
        }
      ],
      "stateMutability": "view",
      "type": "function"
    },
    {
      "inputs": [],
      "name": "name",
      "outputs": [
        {
          "internalType": "string",
          "name": "",
          "type": "string"
        }
      ],
      "stateMutability": "view",
      "type": "function"
    },
    {
      "inputs": [],
      "name": "nextTokenId",
      "outputs": [
        {
          "internalType": "uint256",
          "name": "",
          "type": "uint256"
        }
      ],
      "stateMutability": "view",
      "type": "function"
    },
    {
      "inputs": [],
      "name": "nftTransferable",
      "outputs": [
        {
          "internalType": "bool",
          "name": "",
          "type": "bool"
        }
      ],
      "stateMutability": "view",
      "type": "function"
    },
    {
      "inputs": [],
      "name": "owner",
      "outputs": [
        {
          "internalType": "address",
          "name": "",
          "type": "address"
        }
      ],
      "stateMutability": "view",
      "type": "function"
    },
    {
      "inputs": [
        {
          "internalType": "uint256",
          "name": "tokenId",
          "type": "uint256"
        }
      ],
      "name": "ownerOf",
      "outputs": [
        {
          "internalType": "address",
          "name": "",
          "type": "address"
        }
      ],
      "stateMutability": "view",
      "type": "function"
    },
    {
      "inputs": [],
      "name": "pause",
      "outputs": [],
      "stateMutability": "nonpayable",
      "type": "function"
    },
    {
      "inputs": [],
      "name": "paused",
      "outputs": [
        {
          "internalType": "bool",
          "name": "",
          "type": "bool"
        }
      ],
      "stateMutability": "view",
      "type": "function"
    },
    {
      "inputs": [],
      "name": "pendingOwner",
      "outputs": [
        {
          "internalType": "address",
          "name": "",
          "type": "address"
        }
      ],
      "stateMutability": "view",
      "type": "function"
    },
    {
      "inputs": [],
      "name": "redeemRewards",
      "outputs": [],
      "stateMutability": "nonpayable",
      "type": "function"
    },
    {
      "inputs": [],
      "name": "renounceOwnership",
      "outputs": [],
      "stateMutability": "nonpayable",
      "type": "function"
    },
    {
      "inputs": [],
      "name": "rewardManager",
      "outputs": [
        {
          "internalType": "address",
          "name": "",
          "type": "address"
        }
      ],
      "stateMutability": "view",
      "type": "function"
    },
    {
      "inputs": [],
      "name": "rewardPool",
      "outputs": [
        {
          "internalType": "uint256",
          "name": "",
          "type": "uint256"
        }
      ],
      "stateMutability": "view",
      "type": "function"
    },
    {
      "inputs": [
        {
          "internalType": "uint256[]",
          "name": "ids",
          "type": "uint256[]"
        },
        {
          "internalType": "uint256[]",
          "name": "amounts",
          "type": "uint256[]"
        }
      ],
      "name": "rewardTokenIds",
      "outputs": [],
      "stateMutability": "nonpayable",
      "type": "function"
    },
    {
      "inputs": [
        {
          "internalType": "address",
          "name": "from",
          "type": "address"
        },
        {
          "internalType": "address",
          "name": "to",
          "type": "address"
        },
        {
          "internalType": "uint256",
          "name": "tokenId",
          "type": "uint256"
        }
      ],
      "name": "safeTransferFrom",
      "outputs": [],
      "stateMutability": "nonpayable",
      "type": "function"
    },
    {
      "inputs": [
        {
          "internalType": "address",
          "name": "from",
          "type": "address"
        },
        {
          "internalType": "address",
          "name": "to",
          "type": "address"
        },
        {
          "internalType": "uint256",
          "name": "tokenId",
          "type": "uint256"
        },
        {
          "internalType": "bytes",
          "name": "data",
          "type": "bytes"
        }
      ],
      "name": "safeTransferFrom",
      "outputs": [],
      "stateMutability": "nonpayable",
      "type": "function"
    },
    {
      "inputs": [
        {
          "internalType": "address",
          "name": "operator",
          "type": "address"
        },
        {
          "internalType": "bool",
          "name": "approved",
          "type": "bool"
        }
      ],
      "name": "setApprovalForAll",
      "outputs": [],
      "stateMutability": "nonpayable",
      "type": "function"
    },
    {
      "inputs": [
        {
          "internalType": "string",
          "name": "url_",
          "type": "string"
        }
      ],
      "name": "setBaseUrl",
      "outputs": [],
      "stateMutability": "nonpayable",
      "type": "function"
    },
    {
      "inputs": [
        {
          "internalType": "uint256",
          "name": "startId",
          "type": "uint256"
        },
        {
          "internalType": "uint256",
          "name": "endId",
          "type": "uint256"
        },
        {
          "internalType": "uint64",
          "name": "expiryTime",
          "type": "uint64"
        }
      ],
      "name": "setExpiryRange",
      "outputs": [],
      "stateMutability": "nonpayable",
      "type": "function"
    },
    {
      "inputs": [
        {
          "internalType": "uint256",
          "name": "tokenId",
          "type": "uint256"
        },
        {
          "internalType": "address",
          "name": "user",
          "type": "address"
        }
      ],
      "name": "setUser",
      "outputs": [],
      "stateMutability": "nonpayable",
      "type": "function"
    },
    {
      "inputs": [
        {
          "internalType": "bytes4",
          "name": "interfaceId",
          "type": "bytes4"
        }
      ],
      "name": "supportsInterface",
      "outputs": [
        {
          "internalType": "bool",
          "name": "",
          "type": "bool"
        }
      ],
      "stateMutability": "view",
      "type": "function"
    },
    {
      "inputs": [],
      "name": "symbol",
      "outputs": [
        {
          "internalType": "string",
          "name": "",
          "type": "string"
        }
      ],
      "stateMutability": "view",
      "type": "function"
    },
    {
      "inputs": [
        {
          "internalType": "uint256",
          "name": "amount",
          "type": "uint256"
        }
      ],
      "name": "takeOutRewardTokens",
      "outputs": [],
      "stateMutability": "nonpayable",
      "type": "function"
    },
    {
      "inputs": [
        {
          "internalType": "uint256",
          "name": "index",
          "type": "uint256"
        }
      ],
      "name": "tokenByIndex",
      "outputs": [
        {
          "internalType": "uint256",
          "name": "",
          "type": "uint256"
        }
      ],
      "stateMutability": "view",
      "type": "function"
    },
    {
      "inputs": [
        {
          "internalType": "address",
          "name": "user",
          "type": "address"
        },
        {
          "internalType": "uint256",
          "name": "amount",
          "type": "uint256"
        }
      ],
      "name": "tokenIdsOfOwnerByAmount",
      "outputs": [
        {
          "internalType": "uint256[]",
          "name": "tokenIds",
          "type": "uint256[]"
        }
      ],
      "stateMutability": "view",
      "type": "function"
    },
    {
      "inputs": [
        {
          "internalType": "address",
          "name": "owner",
          "type": "address"
        },
        {
          "internalType": "uint256",
          "name": "index",
          "type": "uint256"
        }
      ],
      "name": "tokenOfOwnerByIndex",
      "outputs": [
        {
          "internalType": "uint256",
          "name": "",
          "type": "uint256"
        }
      ],
      "stateMutability": "view",
      "type": "function"
    },
    {
      "inputs": [
        {
          "internalType": "uint256",
          "name": "tokenId",
          "type": "uint256"
        }
      ],
      "name": "tokenURI",
      "outputs": [
        {
          "internalType": "string",
          "name": "",
          "type": "string"
        }
      ],
      "stateMutability": "view",
      "type": "function"
    },
    {
      "inputs": [],
      "name": "totalSupply",
      "outputs": [
        {
          "internalType": "uint256",
          "name": "",
          "type": "uint256"
        }
      ],
      "stateMutability": "view",
      "type": "function"
    },
    {
      "inputs": [
        {
          "internalType": "address",
          "name": "from",
          "type": "address"
        },
        {
          "internalType": "address",
          "name": "to",
          "type": "address"
        },
        {
          "internalType": "uint256",
          "name": "tokenId",
          "type": "uint256"
        }
      ],
      "name": "transferFrom",
      "outputs": [],
      "stateMutability": "nonpayable",
      "type": "function"
    },
    {
      "inputs": [
        {
          "internalType": "address",
          "name": "newOwner",
          "type": "address"
        }
      ],
      "name": "transferOwnership",
      "outputs": [],
      "stateMutability": "nonpayable",
      "type": "function"
    },
    {
      "inputs": [
        {
          "internalType": "uint256",
          "name": "tokenId",
          "type": "uint256"
        }
      ],
      "name": "unBan",
      "outputs": [],
      "stateMutability": "nonpayable",
      "type": "function"
    },
    {
      "inputs": [],
      "name": "unpause",
      "outputs": [],
      "stateMutability": "nonpayable",
      "type": "function"
    },
    {
      "inputs": [
        {
          "internalType": "address",
          "name": "banAdmin",
          "type": "address"
        }
      ],
      "name": "updateBanAdmin",
      "outputs": [],
      "stateMutability": "nonpayable",
      "type": "function"
    },
    {
      "inputs": [
        {
          "internalType": "uint256",
          "name": "index",
          "type": "uint256"
        },
        {
          "internalType": "uint256",
          "name": "startId",
          "type": "uint256"
        },
        {
          "internalType": "uint256",
          "name": "endId",
          "type": "uint256"
        },
        {
          "internalType": "uint64",
          "name": "expiryTime",
          "type": "uint64"
        }
      ],
      "name": "updateExpiryRange",
      "outputs": [],
      "stateMutability": "nonpayable",
      "type": "function"
    },
    {
      "inputs": [
        {
          "internalType": "address",
          "name": "minter",
          "type": "address"
        }
      ],
      "name": "updateMinterAdmin",
      "outputs": [],
      "stateMutability": "nonpayable",
      "type": "function"
    },
    {
      "inputs": [
        {
          "internalType": "bool",
          "name": "transferable",
          "type": "bool"
        }
      ],
      "name": "updateNftTransferable",
      "outputs": [],
      "stateMutability": "nonpayable",
      "type": "function"
    },
    {
      "inputs": [
        {
          "internalType": "address",
          "name": "rewardAdmin",
          "type": "address"
        }
      ],
      "name": "updateRewardAdmin",
      "outputs": [],
      "stateMutability": "nonpayable",
      "type": "function"
    },
    {
      "inputs": [
        {
          "internalType": "address[]",
          "name": "addressList",
          "type": "address[]"
        },
        {
          "internalType": "bool",
          "name": "inWhitelist",
          "type": "bool"
        }
      ],
      "name": "updateTransferWhiteList",
      "outputs": [],
      "stateMutability": "nonpayable",
      "type": "function"
    },
    {
      "inputs": [
        {
          "internalType": "address",
          "name": "whitelistAdmin",
          "type": "address"
        }
      ],
      "name": "updateWhitelistAdmin",
      "outputs": [],
      "stateMutability": "nonpayable",
      "type": "function"
    },
    {
      "inputs": [
        {
          "internalType": "uint256",
          "name": "startTime",
          "type": "uint256"
        },
        {
          "internalType": "uint256",
          "name": "endTime",
          "type": "uint256"
        }
      ],
      "name": "updateWhitelistTransferTime",
      "outputs": [],
      "stateMutability": "nonpayable",
      "type": "function"
    },
    {
      "inputs": [
        {
          "internalType": "uint256",
          "name": "tokenId",
          "type": "uint256"
        }
      ],
      "name": "userExpires",
      "outputs": [
        {
          "internalType": "uint64",
          "name": "",
          "type": "uint64"
        }
      ],
      "stateMutability": "view",
      "type": "function"
    },
    {
      "inputs": [
        {
          "internalType": "uint256",
          "name": "tokenId",
          "type": "uint256"
        }
      ],
      "name": "userOf",
      "outputs": [
        {
          "internalType": "address",
          "name": "",
          "type": "address"
        }
      ],
      "stateMutability": "view",
      "type": "function"
    },
    {
      "inputs": [
        {
          "internalType": "uint256",
          "name": "tokenId",
          "type": "uint256"
        }
      ],
      "name": "userReedemable",
      "outputs": [
        {
          "internalType": "uint256",
          "name": "",
          "type": "uint256"
        }
      ],
      "stateMutability": "view",
      "type": "function"
    },
    {
      "inputs": [],
      "name": "whitelistAdminAddress",
      "outputs": [
        {
          "internalType": "address",
          "name": "",
          "type": "address"
        }
      ],
      "stateMutability": "view",
      "type": "function"
    }
  ],
  "bytecode": "0x608060405234801561001057600080fd5b5061002b6717e63755f488ed4e60c01b61007260201b60201c565b61004567fc183624788da24760c01b61007260201b60201c565b61005f67a7db46dca242f98560c01b61007260201b60201c565b61006d61007560201b60201c565b61020f565b50565b600060019054906101000a900460ff16156100c5576040517f08c379a00000000000000000000000000000000000000000000000000000000081526004016100bc906101b8565b60405180910390fd5b60ff801660008054906101000a900460ff1660ff16146101335760ff6000806101000a81548160ff021916908360ff1602179055507f7f26b83ff96e1f2b6a682f133852f6798a09c465da95921460cefb384740249860ff60405161012a91906101f4565b60405180910390a15b565b600082825260208201905092915050565b7f496e697469616c697a61626c653a20636f6e747261637420697320696e69746960008201527f616c697a696e6700000000000000000000000000000000000000000000000000602082015250565b60006101a2602783610135565b91506101ad82610146565b604082019050919050565b600060208201905081810360008301526101d181610195565b9050919050565b600060ff82169050919050565b6101ee816101d8565b82525050565b600060208201905061020960008301846101e5565b92915050565b61beea8061021e6000396000f3fe608060405234801561001057600080fd5b50600436106103015760003560e01c806301ffc9a71461030657806306fdde0314610336578063081812fc14610354578063095ea7b31461038457806309991223146103a05780630f4ef8a6146103be5780631459457a146103dc57806316c621e0146103f857806318160ddd1461041457806323b872dd146104325780632964bf8f1461044e5780632f745c591461046a578063370a94a11461049a5780633b569c50146104ca5780633f4ba83a146104e657806340c10f19146104f057806342842e0e1461050c578063439531fd146105285780634bc2e86e146105445780634f6ccce71461056357806350389342146105935780635bcabf04146105af5780635c975abb146105cd5780635f30bb86146105eb57806362380ddd146106075780636352211e14610625578063661183371461065557806366666aa91461067357806370a0823114610691578063715018a6146106c157806374e0d95b146106cb57806375794a3c146106fd57806379ba50971461071b5780637a5b4f59146107255780638456cb591461074d57806388d695b21461075757806388e13e1914610773578063890d37411461078f5780638ba4975a146107ab5780638da5cb5b146107c75780638fc88c48146107e557806395d89b4114610815578063a22cb46514610833578063a5d923af1461084f578063b2f681bb1461087f578063b88d4fde1461089b578063c2f1f14a146108b7578063c57a9c56146108e7578063c7c3268b14610917578063c87b56dd14610933578063d379dadf14610963578063d5e5627914610993578063d83e9dac146109af578063db4d295b146109cd578063db853f68146109e9578063e30c397814610a05578063e71a9db914610a23578063e97ae88414610a3f578063e985e9c514610a5b578063ea5a46f714610a8b578063ef24f8ff14610abb578063f0fc4ec114610ad9578063f17d679714610ae3578063f238d1b314610b01578063f2fde38b14610b31578063f7a969be14610b4d578063fb8dd96714610b7d575b600080fd5b610320600480360381019061031b9190618966565b610b99565b60405161032d91906189ae565b60405180910390f35b61033e610c87565b60405161034b9190618a59565b60405180910390f35b61036e60048036038101906103699190618ab1565b610d19565b60405161037b9190618b1f565b60405180910390f35b61039e60048036038101906103999190618b66565b610d5f565b005b6103a8610e76565b6040516103b59190618bb5565b60405180910390f35b6103c6610e7e565b6040516103d39190618b1f565b60405180910390f35b6103f660048036038101906103f19190618bd0565b610ea5565b005b610412600480360381019061040d9190618ab1565b611805565b005b61041c61199e565b6040516104299190618bb5565b60405180910390f35b61044c60048036038101906104479190618c4b565b6119ab565b005b61046860048036038101906104639190618d2f565b611a0b565b005b610484600480360381019061047f9190618b66565b611c8f565b6040516104919190618bb5565b60405180910390f35b6104b460048036038101906104af9190618ab1565b611d34565b6040516104c19190618db2565b60405180910390f35b6104e460048036038101906104df9190618dcd565b611da2565b005b6104ee611ec1565b005b61050a60048036038101906105059190618b66565b61203e565b005b61052660048036038101906105219190618c4b565b6123cd565b005b610542600480360381019061053d9190618dcd565b6123ed565b005b61054c61250c565b60405161055a929190618dfa565b60405180910390f35b61057d60048036038101906105789190618ab1565b61255b565b60405161058a9190618bb5565b60405180910390f35b6105ad60048036038101906105a89190618ab1565b6125cc565b005b6105b7612806565b6040516105c49190618a59565b60405180910390f35b6105d5612895565b6040516105e291906189ae565b60405180910390f35b61060560048036038101906106009190618e4f565b6128ea565b005b61060f612c44565b60405161061c9190618b1f565b60405180910390f35b61063f600480360381019061063a9190618ab1565b612c6b565b60405161064c9190618b1f565b60405180910390f35b61065d612cf1565b60405161066a9190618f01565b60405180910390f35b61067b612d18565b6040516106889190618bb5565b60405180910390f35b6106ab60048036038101906106a69190618dcd565b612d1f565b6040516106b89190618bb5565b60405180910390f35b6106c9612dd6565b005b6106e560048036038101906106e09190618ab1565b612dea565b6040516106f493929190618f1c565b60405180910390f35b610705612e39565b6040516107129190618bb5565b60405180910390f35b610723612e40565b005b61072d612ecd565b6040516107449b9a99989796959493929190619062565b60405180910390f35b61075561313c565b005b610771600480360381019061076c9190619171565b613307565b005b61078d60048036038101906107889190618ab1565b613560565b005b6107a960048036038101906107a491906191f2565b613763565b005b6107c560048036038101906107c09190619232565b613a99565b005b6107cf613c01565b6040516107dc9190618b1f565b60405180910390f35b6107ff60048036038101906107fa9190618ab1565b613c2b565b60405161080c9190618db2565b60405180910390f35b61081d613dd6565b60405161082a9190618a59565b60405180910390f35b61084d600480360381019061084891906192b3565b613e68565b005b61086960048036038101906108649190618ab1565b613e7e565b6040516108769190618db2565b60405180910390f35b61089960048036038101906108949190618dcd565b613eec565b005b6108b560048036038101906108b09190619423565b6140b3565b005b6108d160048036038101906108cc9190618ab1565b614115565b6040516108de9190618b1f565b60405180910390f35b61090160048036038101906108fc9190618ab1565b61424f565b60405161090e91906189ae565b60405180910390f35b610931600480360381019061092c91906194fc565b6142c9565b005b61094d60048036038101906109489190618ab1565b614398565b60405161095a9190618a59565b60405180910390f35b61097d60048036038101906109789190618ab1565b614400565b60405161098a919061959a565b60405180910390f35b6109ad60048036038101906109a891906195b5565b6144fc565b005b6109b7614cc7565b6040516109c491906189ae565b60405180910390f35b6109e760048036038101906109e29190619636565b614cdb565b005b610a0360048036038101906109fe9190618dcd565b615020565b005b610a0d61513f565b604051610a1a9190618b1f565b60405180910390f35b610a3d6004803603810190610a389190619676565b615169565b005b610a596004803603810190610a5491906196b6565b615463565b005b610a756004803603810190610a70919061971d565b615936565b604051610a8291906189ae565b60405180910390f35b610aa56004803603810190610aa09190618ab1565b6159ca565b604051610ab29190618bb5565b60405180910390f35b610ac3615a27565b604051610ad09190618b1f565b60405180910390f35b610ae1615a4e565b005b610aeb615ed7565b604051610af89190618b1f565b60405180910390f35b610b1b6004803603810190610b169190618dcd565b615efe565b604051610b2891906189ae565b60405180910390f35b610b4b6004803603810190610b469190618dcd565b615f91565b005b610b676004803603810190610b629190618b66565b61603e565b604051610b74919061980c565b60405180910390f35b610b976004803603810190610b92919061982e565b6162c0565b005b6000610baf679137c7d366abf35f60c01b616394565b610bc367591ca9562bc4ed7360c01b616394565b610bd767ffc1a273d40d75ef60c01b616394565b7f96745459000000000000000000000000000000000000000000000000000000007bffffffffffffffffffffffffffffffffffffffffffffffffffffffff1916827bffffffffffffffffffffffffffffffffffffffffffffffffffffffff1916148015610c545750610c5367e874292756675e8560c01b616397565b5b80610c805750610c63826163a2565b8015610c7f5750610c7e6775bd19bbf245e5f260c01b616397565b5b5b9050919050565b606060c98054610c969061988a565b80601f0160208091040260200160405190810160405280929190818152602001828054610cc29061988a565b8015610d0f5780601f10610ce457610100808354040283529160200191610d0f565b820191906000526020600020905b815481529060010190602001808311610cf257829003601f168201915b5050505050905090565b6000610d248261641c565b60cd600083815260200190815260200160002060009054906101000a900473ffffffffffffffffffffffffffffffffffffffff169050919050565b6000610d6a82612c6b565b90508073ffffffffffffffffffffffffffffffffffffffff168373ffffffffffffffffffffffffffffffffffffffff1603610dda576040517f08c379a0000000000000000000000000000000000000000000000000000000008152600401610dd19061992d565b60405180910390fd5b8073ffffffffffffffffffffffffffffffffffffffff16610df9616467565b73ffffffffffffffffffffffffffffffffffffffff161480610e285750610e2781610e22616467565b615936565b5b610e67576040517f08c379a0000000000000000000000000000000000000000000000000000000008152600401610e5e906199bf565b60405180910390fd5b610e71838361646f565b505050565b6305f5e10081565b61013960009054906101000a900473ffffffffffffffffffffffffffffffffffffffff1681565b610eb9678492519770af7f5b60c01b616394565b60008060019054906101000a900460ff16159050808015610eea5750600160008054906101000a900460ff1660ff16105b80610f175750610ef930616528565b158015610f165750600160008054906101000a900460ff1660ff16145b5b610f56576040517f08c379a0000000000000000000000000000000000000000000000000000000008152600401610f4d90619a51565b60405180910390fd5b60016000806101000a81548160ff021916908360ff1602179055508015610f93576001600060016101000a81548160ff0219169083151502179055505b610fa767022bd32b609be2fb60c01b616394565b610fbb67d03886f54253e9be60c01b616394565b610fcf676ffbf0955118e69860c01b616394565b610fe36775fe47cb512ea4d560c01b616394565b610ff7670c6f87e749291b0760c01b616394565b600073ffffffffffffffffffffffffffffffffffffffff168673ffffffffffffffffffffffffffffffffffffffff1603611066576040517f08c379a000000000000000000000000000000000000000000000000000000000815260040161105d90619ae3565b60405180910390fd5b61107a67e9d9c77f8742c58260c01b616394565b61108e67f7011c108551228060c01b616394565b6110a267327d86f4c694f3d660c01b616394565b6110b667f5670e0af5100d7260c01b616394565b600073ffffffffffffffffffffffffffffffffffffffff168573ffffffffffffffffffffffffffffffffffffffff1603611125576040517f08c379a000000000000000000000000000000000000000000000000000000000815260040161111c90619b75565b60405180910390fd5b61113967ff88ffb9c1b72a3260c01b616394565b61114d677726d7c2f9698fb260c01b616394565b61116167cdac93782a12315560c01b616394565b61117567c96b88dc01c36a0060c01b616394565b600073ffffffffffffffffffffffffffffffffffffffff168473ffffffffffffffffffffffffffffffffffffffff16036111e4576040517f08c379a00000000000000000000000000000000000000000000000000000000081526004016111db90619c07565b60405180910390fd5b6111f867d8ea559b8b89a0af60c01b616394565b61120c67f333dd9d6358fb4160c01b616394565b61122067c66c8e346d90189c60c01b616394565b61123467939ad12dc6ad128b60c01b616394565b600073ffffffffffffffffffffffffffffffffffffffff168373ffffffffffffffffffffffffffffffffffffffff16036112a3576040517f08c379a000000000000000000000000000000000000000000000000000000000815260040161129a90619c99565b60405180910390fd5b6112b767b205b6afacd4d5d660c01b616394565b6112cb67cfb2e23b3472cda860c01b616394565b6112df6775c00c0ab915819360c01b616394565b6112f3677f05f3528b25b22a60c01b616394565b600073ffffffffffffffffffffffffffffffffffffffff168273ffffffffffffffffffffffffffffffffffffffff1603611362576040517f08c379a000000000000000000000000000000000000000000000000000000000815260040161135990619d2b565b60405180910390fd5b61137667943784b822b7d30560c01b616394565b61138a678758d414776c75cf60c01b616394565b61139e67345a18de93b8714d60c01b616394565b6113f560405180606001604052806021815260200161be94602191396040518060400160405280600681526020017f45574d4c4343000000000000000000000000000000000000000000000000000081525061654b565b6114096778934153a59c246060c01b616394565b61141d673ed7ed69092d554960c01b616394565b6114256165a8565b61143967c8bbb02e2a081ab160c01b616394565b8561013260016101000a81548173ffffffffffffffffffffffffffffffffffffffff021916908373ffffffffffffffffffffffffffffffffffffffff16021790555061148f6785967f05fdf04e7860c01b616394565b8461013460006101000a81548173ffffffffffffffffffffffffffffffffffffffff021916908373ffffffffffffffffffffffffffffffffffffffff1602179055506114e56783852cd6e0883a3060c01b616394565b8361013560006101000a81548173ffffffffffffffffffffffffffffffffffffffff021916908373ffffffffffffffffffffffffffffffffffffffff16021790555061153b674b66b1a9c1e64cd660c01b616394565b8261013660006101000a81548173ffffffffffffffffffffffffffffffffffffffff021916908373ffffffffffffffffffffffffffffffffffffffff160217905550611591670d9e16c977a83d0060c01b616394565b8161013960006101000a81548173ffffffffffffffffffffffffffffffffffffffff021916908373ffffffffffffffffffffffffffffffffffffffff1602179055506115e76725547f8edecf23ea60c01b616394565b600061013b60006101000a81548160ff021916908315150217905550611617677a18a62f507149b460c01b616394565b60016101378190555061163467543c94250f7eaa2160c01b616394565b600161013260006101000a81548160ff0219169083151502179055506116646716294cfde16a38a360c01b616394565b6116786782edef3e639532e960c01b616394565b61013260019054906101000a900473ffffffffffffffffffffffffffffffffffffffff1673ffffffffffffffffffffffffffffffffffffffff167f4df71465b56cffa9dbb08484830fe2e021870534999bf7487b48040c3b72347861013460009054906101000a900473ffffffffffffffffffffffffffffffffffffffff1661013560009054906101000a900473ffffffffffffffffffffffffffffffffffffffff1661013660009054906101000a900473ffffffffffffffffffffffffffffffffffffffff1661013960009054906101000a900473ffffffffffffffffffffffffffffffffffffffff1661013b60009054906101000a900460ff166101375461013260009054906101000a900460ff1660405161179c9796959493929190619d4b565b60405180910390a280156117fd5760008060016101000a81548160ff0219169083151502179055507f7f26b83ff96e1f2b6a682f133852f6798a09c465da95921460cefb384740249860016040516117f49190619e02565b60405180910390a15b505050505050565b611819675d58dfa4cb994b6060c01b616394565b611821616601565b6118356773d8efd6940b4c6d60c01b616394565b6118496783fd16cf1741898b60c01b616394565b61185d67ccccad26625657c860c01b616394565b61187167d83a9b1bb4d5b90360c01b616394565b61188567dafecba33d15517060c01b616394565b600081116118c8576040517f08c379a00000000000000000000000000000000000000000000000000000000081526004016118bf90619e69565b60405180910390fd5b6118dc67380cc33e94c85be360c01b616394565b6118f0675e45e78a9127493060c01b616394565b8061013860008282546119039190619eb8565b9250508190555061191e678fe8e3ecde59b36660c01b616394565b611932670203385f70571d9a60c01b616394565b61193c338261667f565b61195067ccdf09d8d93777fb60c01b616394565b611964675b5056310e040b1360c01b616394565b7f91a57a4636b67d30f72cb4f8b3c8a61ff9d009a10d2a6e05758b112d9faf6902816040516119939190618bb5565b60405180910390a150565b600060fd80549050905090565b6119bc6119b6616467565b8261670f565b6119fb576040517f08c379a00000000000000000000000000000000000000000000000000000000081526004016119f290619f5e565b60405180910390fd5b611a068383836167a4565b505050565b611a1f674282566cf5c32cb560c01b616394565b611a336711f9fbb069d691d060c01b616394565b611a4767572171d73ece638b60c01b616394565b611a5b67b42d74d5e2d5a6a960c01b616394565b611a6f67a9b7551ca6a94ed260c01b616394565b61013660009054906101000a900473ffffffffffffffffffffffffffffffffffffffff1673ffffffffffffffffffffffffffffffffffffffff163373ffffffffffffffffffffffffffffffffffffffff1614611b00576040517f08c379a0000000000000000000000000000000000000000000000000000000008152600401611af790619fca565b60405180910390fd5b611b146759a292137fde492c60c01b616394565b611b28673369fd72773fefdb60c01b616394565b611b3c67209e360a743e883e60c01b616394565b611b5067cd464fd5c6d976d160c01b616394565b611b6467d9babb3cdd60e4cd60c01b616394565b611b78674a16cfc021671adc60c01b616394565b60005b83839050811015611c2657611b9a67f2bfce51e70e9d7c60c01b616394565b8161012f6000868685818110611bb357611bb2619fea565b5b9050602002016020810190611bc89190618dcd565b73ffffffffffffffffffffffffffffffffffffffff1673ffffffffffffffffffffffffffffffffffffffff16815260200190815260200160002060006101000a81548160ff0219169083151502179055508080600101915050611b7b565b50611c3b67fbf01227fe3bb6d360c01b616394565b611c4f6774d59b24e4e61e8060c01b616394565b7f7c2e06347b474567b9ff2e11576fd1dd1b011b3de3b828b0cc332c34b344a0ea838383604051611c829392919061a0cd565b60405180910390a1505050565b6000611c9a83612d1f565b8210611cdb576040517f08c379a0000000000000000000000000000000000000000000000000000000008152600401611cd29061a171565b60405180910390fd5b60fb60008473ffffffffffffffffffffffffffffffffffffffff1673ffffffffffffffffffffffffffffffffffffffff168152602001908152602001600020600083815260200190815260200160002054905092915050565b6000611d4a67873168c6b983f60060c01b616394565b611d5e67fc9e1166b620acc460c01b616394565b611d7267b140fe32f3ee652760c01b616394565b61012e600083815260200190815260200160002060009054906101000a900467ffffffffffffffff169050919050565b611db667ab4923bc67f7944060c01b616394565b611dbe616601565b611dd26754cffdf1a238861160c01b616394565b611de667bc9456da29a99f9c60c01b616394565b611dfa671be026bb0dc8afa960c01b616394565b8061013560006101000a81548173ffffffffffffffffffffffffffffffffffffffff021916908373ffffffffffffffffffffffffffffffffffffffff160217905550611e5067ec1278499162a54860c01b616394565b611e64670e566e4c40202a6a60c01b616394565b7f374a82144f5ee2389289f2b9201f2124ed2f16b28841728fa8728e085f90a7ec61013560009054906101000a900473ffffffffffffffffffffffffffffffffffffffff16604051611eb69190618b1f565b60405180910390a150565b611ed56735eaf787ea80f2e660c01b616394565b611edd616601565b611ef167d45d0ebb726f714160c01b616394565b611f05673dae74c435a59eb660c01b616394565b611f1967f283ecbecb79161260c01b616394565b611f2d67d376724b5161c5a560c01b616394565b611f416764db01c7df188d3960c01b616394565b61013260009054906101000a900460ff1615611f92576040517f08c379a0000000000000000000000000000000000000000000000000000000008152600401611f899061a1dd565b60405180910390fd5b611fa6672f3b7069927903a560c01b616394565b611fba6716381b8899f29aa760c01b616394565b600161013260006101000a81548160ff021916908315150217905550611fea67bde3ae0afc481b6c60c01b616394565b611ffe67a44c5ba551a7b6bf60c01b616394565b7f3feb970ae2e55ea1e655dde1aeed94d7072aad967d08e33178345d3dce8a0f23612027616467565b6040516120349190618b1f565b60405180910390a1565b6120526791fa0dab7c8ff4fb60c01b616394565b61206667e6afa7ef1e8784f060c01b616394565b61207a67c90bfdd4a16466ac60c01b616394565b61208e6769370c5e4f8bbc1160c01b616394565b6120a267e8bd33fb241c93e360c01b616394565b61013260009054906101000a900460ff166120f2576040517f08c379a00000000000000000000000000000000000000000000000000000000081526004016120e99061a249565b60405180910390fd5b61210667bc991f4f7131474a60c01b616394565b61211a672961cf7cf50d786a60c01b616394565b61212e67d5024b9d6356721060c01b616394565b612142676d2836d3bd830b2360c01b616394565b6121566703ce705c44993b2860c01b616394565b61216a6766b91cd4a03633cc60c01b616394565b61217e67f03e2ca27e75245d60c01b616394565b600073ffffffffffffffffffffffffffffffffffffffff168273ffffffffffffffffffffffffffffffffffffffff16036121ed576040517f08c379a00000000000000000000000000000000000000000000000000000000081526004016121e49061a2db565b60405180910390fd5b61220167980179a36d8f730260c01b616394565b612215675a24eabff29d4a7360c01b616394565b61222967e01b00c5c22f8a9b60c01b616394565b61223d6737923c97e639b31260c01b616394565b61013460009054906101000a900473ffffffffffffffffffffffffffffffffffffffff1673ffffffffffffffffffffffffffffffffffffffff163373ffffffffffffffffffffffffffffffffffffffff161480156122ab57506122aa673a41514e6246605e60c01b616397565b5b8061230457506122b9613c01565b73ffffffffffffffffffffffffffffffffffffffff163373ffffffffffffffffffffffffffffffffffffffff16148015612303575061230267f6a04fe52ec4e71f60c01b616397565b5b5b612343576040517f08c379a000000000000000000000000000000000000000000000000000000000815260040161233a9061a347565b60405180910390fd5b61235767df748a2ffcc9f71660c01b616394565b61236b67cf41dcfa15415e4360c01b616394565b61237f6773515c7ae589f17d60c01b616394565b60005b818110156123c85761239e6738da599cfaf580b760c01b616394565b6123b267e8af95c5b0baf97860c01b616394565b6123bb83616a9d565b8080600101915050612382565b505050565b6123e8838383604051806020016040528060008152506140b3565b505050565b6124016731c7835054d1a3a360c01b616394565b612409616601565b61241d67122a60c65815b35b60c01b616394565b612431675bbcbb4bec9e2aac60c01b616394565b61244567c2cbaa36dd8814fe60c01b616394565b8061013460006101000a81548173ffffffffffffffffffffffffffffffffffffffff021916908373ffffffffffffffffffffffffffffffffffffffff16021790555061249b67cdcb4725e2fb4bcc60c01b616394565b6124af6715f8875d00001b5360c01b616394565b7f42cb744805b899bbb1d2af67fd0b034898bfce4b7bf8c1572cff806a8dd3cb0861013460009054906101000a900473ffffffffffffffffffffffffffffffffffffffff166040516125019190618b1f565b60405180910390a150565b60008061252367f9e37910a2c5e16360c01b616394565b61253767ee135d757b4e0c7960c01b616394565b6101305491506125516751da1887edc237fc60c01b616394565b6101315490509091565b600061256561199e565b82106125a6576040517f08c379a000000000000000000000000000000000000000000000000000000000815260040161259d9061a3d9565b60405180910390fd5b60fd82815481106125ba576125b9619fea565b5b90600052602060002001549050919050565b6125e067834c534aaff5210260c01b616394565b6125e8616601565b6125fc6745130c893b13503860c01b616394565b612610670326c0f24b058c6e60c01b616394565b6126246751a3c76da754b44560c01b616394565b61263867c4af340e271067be60c01b616394565b61264c67138d694e156ee84a60c01b616394565b6000811161268f576040517f08c379a000000000000000000000000000000000000000000000000000000000815260040161268690619e69565b60405180910390fd5b6126a36701bb8cdb5733902860c01b616394565b6126b76765d55afd420b6af260c01b616394565b6126cb67094ee54f557e33ea60c01b616394565b6126df674ac73ec8a13b61d560c01b616394565b61013854811115612725576040517f08c379a000000000000000000000000000000000000000000000000000000000815260040161271c9061a445565b60405180910390fd5b61273967f752c333af95eb5260c01b616394565b61274d67baaf7f44323a1a7560c01b616394565b612761672217fceb81b29f0160c01b616394565b8061013860008282540392505081905550612786676af2980222358fa160c01b616394565b61279a67a98048d5d972ef0360c01b616394565b6127a43382616b16565b6127b8679ea7af48740bccda60c01b616394565b6127cc6761eadd2fd4ca211360c01b616394565b7fcab11fc71b2f0ad883389e8eae8ffe2d60758673b58b0d3a746c332c4d6f9bbc816040516127fb9190618bb5565b60405180910390a150565b61013a80546128149061988a565b80601f01602080910402602001604051908101604052809291908181526020018280546128409061988a565b801561288d5780601f106128625761010080835404028352916020019161288d565b820191906000526020600020905b81548152906001019060200180831161287057829003601f168201915b505050505081565b60006128ab672c98c929d093d58360c01b616394565b6128bf676dfc98b0afe5c47160c01b616394565b6128d36753d0f9069580eb3660c01b616394565b61013260009054906101000a900460ff1615905090565b6128fe673fa43ba9e627148760c01b616394565b612906616601565b61291a67642e953d5d20d22c60c01b616394565b61292e679af2b3e7bf9e675d60c01b616394565b61294267ac55421ee5a1fc7960c01b616394565b61295667718e1503a864bb7d60c01b616394565b61296a6756d55de286ced1e760c01b616394565b818311156129ad576040517f08c379a00000000000000000000000000000000000000000000000000000000081526004016129a49061a4b1565b60405180910390fd5b6129c16728dca73ca3a52b0f60c01b616394565b6129d567bf568622800e9cc460c01b616394565b6129e9676f2fa7859ee65a6460c01b616394565b6000610133805490501115612b0957612a0c679a1589d5b9438a3260c01b616394565b612a2067e809805f2b1fb03f60c01b616394565b612a346719c2cb1670606f8f60c01b616394565b6000610133600161013380549050612a4c919061a4d1565b81548110612a5d57612a5c619fea565b5b90600052602060002090600302019050612a816718492902a335c28c60c01b616394565b612a9567e3af553cdb6422e860c01b616394565b612aa967cc29b62b78120c1360c01b616394565b80600101548411612aef576040517f08c379a0000000000000000000000000000000000000000000000000000000008152600401612ae69061a577565b60405180910390fd5b612b0367e931beb4c040e0cd60c01b616394565b50612b1e565b612b1d67cb6420ddfe9e9c7f60c01b616394565b5b612b3267f491177eed28c15060c01b616394565b612b4667c28d2826c15c0cea60c01b616394565b61013360405180606001604052808581526020018481526020018367ffffffffffffffff168152509080600181540180825580915050600190039060005260206000209060030201600090919091909150600082015181600001556020820151816001015560408201518160020160006101000a81548167ffffffffffffffff021916908367ffffffffffffffff1602179055505050612bf0674dcdc962261dd9ed60c01b616394565b612c04673e88c1a8fa48d6d460c01b616394565b7f313c9ccd9247f64bb45076ba3ad6a5a9c1ba4f4b4530042b92f1225c86c54b13838383604051612c3793929190618f1c565b60405180910390a1505050565b61013660009054906101000a900473ffffffffffffffffffffffffffffffffffffffff1681565b600080612c7783616ba4565b9050600073ffffffffffffffffffffffffffffffffffffffff168173ffffffffffffffffffffffffffffffffffffffff1603612ce8576040517f08c379a0000000000000000000000000000000000000000000000000000000008152600401612cdf9061a5e3565b60405180910390fd5b80915050919050565b61013260019054906101000a900473ffffffffffffffffffffffffffffffffffffffff1681565b6101385481565b60008073ffffffffffffffffffffffffffffffffffffffff168273ffffffffffffffffffffffffffffffffffffffff1603612d8f576040517f08c379a0000000000000000000000000000000000000000000000000000000008152600401612d869061a675565b60405180910390fd5b60cc60008373ffffffffffffffffffffffffffffffffffffffff1673ffffffffffffffffffffffffffffffffffffffff168152602001908152602001600020549050919050565b612dde616601565b612de86000616be1565b565b6101338181548110612dfb57600080fd5b90600052602060002090600302016000915090508060000154908060010154908060020160009054906101000a900467ffffffffffffffff16905083565b6101375481565b6000612e4a616467565b90508073ffffffffffffffffffffffffffffffffffffffff16612e6b61513f565b73ffffffffffffffffffffffffffffffffffffffff1614612ec1576040517f08c379a0000000000000000000000000000000000000000000000000000000008152600401612eb89061a707565b60405180910390fd5b612eca81616be1565b50565b6000806000806000806000806000606080612ef26772fd784b5444c50260c01b616394565b612f06677f2cedb3d0c62b1d60c01b616394565b612f1a67a29adafc018de01960c01b616394565b3061013260019054906101000a900473ffffffffffffffffffffffffffffffffffffffff1661013460009054906101000a900473ffffffffffffffffffffffffffffffffffffffff1661013560009054906101000a900473ffffffffffffffffffffffffffffffffffffffff1661013660009054906101000a900473ffffffffffffffffffffffffffffffffffffffff1661013960009054906101000a900473ffffffffffffffffffffffffffffffffffffffff16610137546101385461013b60009054906101000a900460ff1661013a610133818054612ffa9061988a565b80601f01602080910402602001604051908101604052809291908181526020018280546130269061988a565b80156130735780601f1061304857610100808354040283529160200191613073565b820191906000526020600020905b81548152906001019060200180831161305657829003601f168201915b5050505050915080805480602002602001604051908101604052809291908181526020016000905b82821015613113578382906000526020600020906003020160405180606001604052908160008201548152602001600182015481526020016002820160009054906101000a900467ffffffffffffffff1667ffffffffffffffff1667ffffffffffffffff16815250508152602001906001019061309b565b5050505090509a509a509a509a509a509a509a509a509a509a509a50909192939495969798999a565b613150678b7e6cf22c96e1a060c01b616394565b613158616601565b61316c676307877b1a5c7b4a60c01b616394565b61318067bb5c9924e027511460c01b616394565b61319467e6afa7ef1e8784f060c01b616394565b6131a867c90bfdd4a16466ac60c01b616394565b6131bc6769370c5e4f8bbc1160c01b616394565b6131d067e8bd33fb241c93e360c01b616394565b61013260009054906101000a900460ff16613220576040517f08c379a00000000000000000000000000000000000000000000000000000000081526004016132179061a249565b60405180910390fd5b61323467bc991f4f7131474a60c01b616394565b613248672961cf7cf50d786a60c01b616394565b61325b669574d606f57a6560c01b616394565b61326f67d07bc8ed8c4d66eb60c01b616394565b613283674e568a18df4798c360c01b616394565b600061013260006101000a81548160ff0219169083151502179055506132b3678904b4461f79825660c01b616394565b6132c7677939e3331dfd434260c01b616394565b7f200228750e4edadaa076ae363c25fb3bd59b7fa4c5fa5ddce4543c98ca5aeb0d6132f0616467565b6040516132fd9190618b1f565b60405180910390a1565b61331b67b77bcfd07d6fdec860c01b616394565b61332f67e6afa7ef1e8784f060c01b616394565b61334367c90bfdd4a16466ac60c01b616394565b6133576769370c5e4f8bbc1160c01b616394565b61336b67e8bd33fb241c93e360c01b616394565b61013260009054906101000a900460ff166133bb576040517f08c379a00000000000000000000000000000000000000000000000000000000081526004016133b29061a249565b60405180910390fd5b6133cf67bc991f4f7131474a60c01b616394565b6133e3672961cf7cf50d786a60c01b616394565b6133f76708a46900b5d16c1960c01b616394565b61340b67ad3184a75a2eb86560c01b616394565b61341f674e1372e4c018bd5760c01b616394565b6134336716df5b454267c93460c01b616394565b61344767fa945e0f9cf567d260c01b616394565b81819050848490501461348f576040517f08c379a00000000000000000000000000000000000000000000000000000000081526004016134869061a773565b60405180910390fd5b6134a367f210560e1ea9d20b60c01b616394565b6134b767028e31cb6296f51160c01b616394565b6134cb67fbb072b51ce78e2860c01b616394565b60005b84849050811015613559576134ed67a01edbcfc30d934f60c01b616394565b613501671ff79e5bb478f6f660c01b616394565b61354c3386868481811061351857613517619fea565b5b905060200201602081019061352d9190618dcd565b8585858181106135405761353f619fea565b5b905060200201356119ab565b80806001019150506134ce565b5050505050565b61357467fd06a7d28b2afdb960c01b616394565b6135886739cb5b63fb4cc35d60c01b616394565b61359c675043dea72d725df360c01b616394565b6135b067950f6aa643378f3560c01b616394565b6135c4671e574fdb1cf5d4fb60c01b616394565b61013560009054906101000a900473ffffffffffffffffffffffffffffffffffffffff1673ffffffffffffffffffffffffffffffffffffffff163373ffffffffffffffffffffffffffffffffffffffff1614613655576040517f08c379a000000000000000000000000000000000000000000000000000000000815260040161364c9061a7df565b60405180910390fd5b613669672c752b278f98868d60c01b616394565b61367d67a726af48d01e771d60c01b616394565b613691670375d47ca872851160c01b616394565b6136a466ab3a6e39f156d060c01b616394565b6136b867a228cf9efc8784d260c01b616394565b600061012e600083815260200190815260200160002060006101000a81548167ffffffffffffffff021916908367ffffffffffffffff1602179055506137086793b2e7a1a34152f860c01b616394565b61371c678689fd5751eff55860c01b616394565b7faa4c365b59848ff3fa44acd423e8f38ae99da70a57dc09a50f1f71236b5fc00561374682612c6b565b8260006040516137589392919061a83a565b60405180910390a150565b613777676e3f0e4be70429eb60c01b616394565b61378b6739cb5b63fb4cc35d60c01b616394565b61379f675043dea72d725df360c01b616394565b6137b367950f6aa643378f3560c01b616394565b6137c7671e574fdb1cf5d4fb60c01b616394565b61013560009054906101000a900473ffffffffffffffffffffffffffffffffffffffff1673ffffffffffffffffffffffffffffffffffffffff163373ffffffffffffffffffffffffffffffffffffffff1614613858576040517f08c379a000000000000000000000000000000000000000000000000000000000815260040161384f9061a7df565b60405180910390fd5b61386c672c752b278f98868d60c01b616394565b61388067a726af48d01e771d60c01b616394565b61389467ed1423ca5661799060c01b616394565b6138a867df8c6ec05c8feac860c01b616394565b6138bb66915286f6537be360c01b616394565b6138cf67d02b60114a3dccc560c01b616394565b6138e367e9994be8d8d2515360c01b616394565b428167ffffffffffffffff161161392f576040517f08c379a00000000000000000000000000000000000000000000000000000000081526004016139269061a8bd565b60405180910390fd5b6139436723395fe13ea6751a60c01b616394565b613957676d3b61c3b397c37f60c01b616394565b61396b676ba4cb2a1202336a60c01b616394565b61397f6705302281dcf5cb5960c01b616394565b61398882616c12565b6139c7576040517f08c379a00000000000000000000000000000000000000000000000000000000081526004016139be9061a929565b60405180910390fd5b6139db6772b257b80576248a60c01b616394565b6139ef67e8e6103d2e0305eb60c01b616394565b8061012e600084815260200190815260200160002060006101000a81548167ffffffffffffffff021916908367ffffffffffffffff160217905550613a3e67863cd580096e2a1d60c01b616394565b613a526766c496116082953b60c01b616394565b7faa4c365b59848ff3fa44acd423e8f38ae99da70a57dc09a50f1f71236b5fc005613a7c83612c6b565b8383604051613a8d9392919061a949565b60405180910390a15050565b613aad6745271ea0f6923bb160c01b616394565b613ac1672b7414bf852be8d860c01b616394565b613ad56771ac55b6f52a821860c01b616394565b613ae96713b3c3bc8c58ca9460c01b616394565b818190508484905014613b31576040517f08c379a0000000000000000000000000000000000000000000000000000000008152600401613b289061a773565b60405180910390fd5b613b4567a574aec6bad2bc3860c01b616394565b613b596717773ac0a28129cd60c01b616394565b613b6d675dc4d65112b0cc2a60c01b616394565b60005b84849050811015613bfa57613b8f67e309110797d0b51160c01b616394565b613ba3671d0ed0c2b2bb647560c01b616394565b613bed858583818110613bb957613bb8619fea565b5b90506020020135848484818110613bd357613bd2619fea565b5b9050602002016020810190613be89190618dcd565b614cdb565b8080600101915050613b70565b5050505050565b6000603360009054906101000a900473ffffffffffffffffffffffffffffffffffffffff16905090565b6000613c41671911629ffff2108360c01b616394565b613c5567f1f78a8d01b3864b60c01b616394565b613c6967c5ea24fbb126ff2560c01b616394565b60005b61013380549050811015613da357613c8e674501b5e5eb570b6360c01b616394565b613ca2675c46fba02371bd0460c01b616394565b6101338181548110613cb757613cb6619fea565b5b9060005260206000209060030201600001548310158015613cfe57506101338181548110613ce857613ce7619fea565b5b9060005260206000209060030201600101548311155b15613d8257613d17675bcca4ed450ad62b60c01b616394565b613d2b67934e8c2933c0a8df60c01b616394565b613d3f67271badc24f9b691e60c01b616394565b6101338181548110613d5457613d53619fea565b5b906000526020600020906003020160020160009054906101000a900467ffffffffffffffff16915050613dd1565b613d9667fb049f937c64a5aa60c01b616394565b8080600101915050613c6c565b50613db8679d168ea19594491260c01b616394565b613dcc6736197285d9b32cc660c01b616394565b600090505b919050565b606060ca8054613de59061988a565b80601f0160208091040260200160405190810160405280929190818152602001828054613e119061988a565b8015613e5e5780601f10613e3357610100808354040283529160200191613e5e565b820191906000526020600020905b815481529060010190602001808311613e4157829003601f168201915b5050505050905090565b613e7a613e73616467565b8383616c53565b5050565b6000613e9467452e828451abea0660c01b616394565b613ea86724567231d808be7360c01b616394565b613ebc6708580423c07b93db60c01b616394565b61012e600083815260200190815260200160002060009054906101000a900467ffffffffffffffff169050919050565b613f0067b2b851b05d84591f60c01b616394565b613f08616601565b613f1c6791da301f4feb240d60c01b616394565b613f3067dff82c9cafe7287e60c01b616394565b613f4467a3c91b0915ec5e6660c01b616394565b613f5867e10751080db6d09160c01b616394565b613f6c672b422aa1d0d21e9f60c01b616394565b600073ffffffffffffffffffffffffffffffffffffffff168173ffffffffffffffffffffffffffffffffffffffff1603613fdb576040517f08c379a0000000000000000000000000000000000000000000000000000000008152600401613fd29061a9cc565b60405180910390fd5b613fef6751ed4c4df5a01aba60c01b616394565b614003678b3ab5c361f6a74360c01b616394565b8061013960006101000a81548173ffffffffffffffffffffffffffffffffffffffff021916908373ffffffffffffffffffffffffffffffffffffffff16021790555061405967750b214cd297a45e60c01b616394565b61406d6786e8aa6faa8f1dd960c01b616394565b8073ffffffffffffffffffffffffffffffffffffffff167f0e1f276006783bd984d0b8d3702b1df022b89bfc8e86d187bb0d1d24396ab36860405160405180910390a250565b6140c46140be616467565b8361670f565b614103576040517f08c379a00000000000000000000000000000000000000000000000000000000081526004016140fa90619f5e565b60405180910390fd5b61410f84848484616dbf565b50505050565b600061412b67be8acdb0f9b1607760c01b616394565b61413f67f6d354e7c43a460460c01b616394565b614153672af3f85316cd1ed560c01b616394565b4261012d600084815260200190815260200160002060000160149054906101000a900467ffffffffffffffff1667ffffffffffffffff1610614209576141a367379261f11c7c147a60c01b616394565b6141b66695387e47d258b560c01b616394565b6141ca6763a414b0a663a3aa60c01b616394565b61012d600083815260200190815260200160002060000160009054906101000a900473ffffffffffffffffffffffffffffffffffffffff16905061424a565b61421d67966fe280573e8fd060c01b616394565b614231674ae6582b8b52b43160c01b616394565b61424567458b59f36cade54060c01b616394565b600090505b919050565b60006142656724b95966c79f310260c01b616394565b61427967f2fdc9b98df2c34860c01b616394565b61428d67f50c3ea793ab637c60c01b616394565b4261012e600084815260200190815260200160002060009054906101000a900467ffffffffffffffff1667ffffffffffffffff16119050919050565b6142dd67aebf5fc09054a42560c01b616394565b6142e5616601565b6142f967303e70da3405ab0c60c01b616394565b61430d676b86b4b24dc4e8d560c01b616394565b61432167b3a4409ee094466160c01b616394565b818161013a918261433392919061ab99565b5061434867083832149badb31860c01b616394565b61435c67b8dd0f1f1e50da7760c01b616394565b7e7b463ebd902053ef32c599feb7839a36cdfd0571d44c586b64a16715da4c74828260405161438c92919061ac96565b60405180910390a15050565b60606143a38261641c565b60006143ad616e1b565b905060008151116143cd57604051806020016040528060008152506143f8565b806143d784616eea565b6040516020016143e892919061acf6565b6040516020818303038152906040525b915050919050565b6144086188b9565b61441c67dede4df84c11162b60c01b616394565b614430672782f22e97681eb760c01b616394565b61444467705474ed1526475f60c01b616394565b61012d60008381526020019081526020016000206040518060600160405290816000820160009054906101000a900473ffffffffffffffffffffffffffffffffffffffff1673ffffffffffffffffffffffffffffffffffffffff1673ffffffffffffffffffffffffffffffffffffffff1681526020016000820160149054906101000a900467ffffffffffffffff1667ffffffffffffffff1667ffffffffffffffff1681526020016001820154815250509050919050565b61451067419c421b1d57337e60c01b616394565b61452467278db8d7c2ae838f60c01b616394565b614538675d27aa98f68d1a5760c01b616394565b61454c672f3298e6f940e82460c01b616394565b6145606774ebdd9f3805e8b160c01b616394565b3373ffffffffffffffffffffffffffffffffffffffff1661013960009054906101000a900473ffffffffffffffffffffffffffffffffffffffff1673ffffffffffffffffffffffffffffffffffffffff16146145f1576040517f08c379a00000000000000000000000000000000000000000000000000000000081526004016145e89061ad66565b60405180910390fd5b614605673e1cc3550be4aff760c01b616394565b61461967c3fdcbd3c2f8896c60c01b616394565b61462d6725c24736ba0114df60c01b616394565b6146416717be74a1b56672f060c01b616394565b61465567e6afa7ef1e8784f060c01b616394565b61466967c90bfdd4a16466ac60c01b616394565b61467d6769370c5e4f8bbc1160c01b616394565b61469167e8bd33fb241c93e360c01b616394565b61013260009054906101000a900460ff166146e1576040517f08c379a00000000000000000000000000000000000000000000000000000000081526004016146d89061a249565b60405180910390fd5b6146f567bc991f4f7131474a60c01b616394565b614709672961cf7cf50d786a60c01b616394565b61471d67e5265116250651da60c01b616394565b61473167d1f5e43f2301810a60c01b616394565b614745673684e7447736ec1a60c01b616394565b61475967fb87c59b17f8548360c01b616394565b61476d67dd0028df8bde06b360c01b616394565b8181905084849050146147b5576040517f08c379a00000000000000000000000000000000000000000000000000000000081526004016147ac9061adf8565b60405180910390fd5b6147c967fb0bbaba5b1e6a1760c01b616394565b6147dd671807589bd327436e60c01b616394565b6147f1678d4a0afcc7b3556960c01b616394565b60006148076759c010816758f17260c01b616394565b61481b67577def0ad1274fef60c01b616394565b60005b838390508110156148715761483d6736e1593b1525f8ca60c01b616394565b8383828181106148505761484f619fea565b5b90506020020135826148629190619eb8565b9150808060010191505061481e565b5061488667bc954bfa5181e37360c01b616394565b61489a6791b17bd72afc856960c01b616394565b6148ae67473028334d7f451660c01b616394565b806101385410156148f4576040517f08c379a00000000000000000000000000000000000000000000000000000000081526004016148eb9061ae8a565b60405180910390fd5b61490867c947e084adb64d0460c01b616394565b61491c675f4603713434e17e60c01b616394565b614930672fc5fc76f9505a4760c01b616394565b600061013854905061494c676a0297b021b127d460c01b616394565b614960674f5eba8a8c48ef7960c01b616394565b6000614976674b5554b9adc11ccb60c01b616394565b61498a67dd98b03943f9662160c01b616394565b60006149a0676eb146cb5cad719960c01b616394565b6149b4678f373daf428935ec60c01b616394565b60006149ca672d563841f6f5f3e260c01b616394565b6149de67026282be8c587d6260c01b616394565b60006149f467ee75fabddfa6574960c01b616394565b614a086710418dad1fa08a2b60c01b616394565b60005b8a8a9050811015614c4657614a2a67402e53a2b1c379ac60c01b616394565b888882818110614a3d57614a3c619fea565b5b905060200201359450614a5a6726009f622f49d77e60c01b616394565b8a8a82818110614a6d57614a6c619fea565b5b905060200201359350614a89665361ca62dcc41560c01b616394565b614a9d67c243f7ff8e42467f60c01b616394565b600061012d60008681526020019081526020016000209050614ac967abeada3afacbabe560c01b616394565b80600101549350614ae467a9b963d6016b4b2860c01b616394565b614aed85614115565b9250614b036705f7951dd2ccfc4360c01b616394565b614b17677ddd2d4e1686840560c01b616394565b600073ffffffffffffffffffffffffffffffffffffffff168373ffffffffffffffffffffffffffffffffffffffff1603614bd957614b5f67de71ccdf735a2b6460c01b616394565b614b736711ce15f8743f8cff60c01b616394565b614b8767199c5accff6efc9d60c01b616394565b847fd7fdff8890045bd253254e8d458c4bd8005b96e38b1573131a28b9f171034a3e87604051614bb79190618bb5565b60405180910390a2614bd36738797bf65f96929560c01b616394565b50614c39565b614bed6717d28496ffb202de60c01b616394565b614c01671c75079f01b1685760c01b616394565b8587614c0d919061a4d1565b9650614c2367f4c9bdd5117904d960c01b616394565b8584614c2f9190619eb8565b8160010181905550505b8080600101915050614a0b565b50614c5b67a05ae68ad676a76b60c01b616394565b8461013881905550614c77670c6438362c39421b60c01b616394565b614c8b67f6f5de03cc31544460c01b616394565b898990507f1b043d25eee41bd561ca53141f6f0872cb7006c3591ee745b57e3978d4427a9660405160405180910390a250505050505050505050565b61013b60009054906101000a900460ff1681565b614cef676439745bc029d5fe60c01b616394565b614d0367e6afa7ef1e8784f060c01b616394565b614d1767c90bfdd4a16466ac60c01b616394565b614d2b6769370c5e4f8bbc1160c01b616394565b614d3f67e8bd33fb241c93e360c01b616394565b61013260009054906101000a900460ff16614d8f576040517f08c379a0000000000000000000000000000000000000000000000000000000008152600401614d869061a249565b60405180910390fd5b614da367bc991f4f7131474a60c01b616394565b614db7672961cf7cf50d786a60c01b616394565b614dcb6739cd66768c59522960c01b616394565b614ddf670762c6f0611b9b9460c01b616394565b614df367aabb46e2d0c5015d60c01b616394565b614e07677549bfdb349fd86c60c01b616394565b614e1b67f2adea80f94b083a60c01b616394565b614e25338361670f565b614e64576040517f08c379a0000000000000000000000000000000000000000000000000000000008152600401614e5b9061af1c565b60405180910390fd5b614e7867398aef3e142d19cf60c01b616394565b614e8c67e3f3fd46af5be20d60c01b616394565b614ea0672a89593e5bb19f2860c01b616394565b614eb4671c82e4f71f62b72260c01b616394565b60001515614ec18361424f565b151514614f03576040517f08c379a0000000000000000000000000000000000000000000000000000000008152600401614efa9061af88565b60405180910390fd5b614f1767db5c58fbecc2d8a860c01b616394565b614f2b6716031f07db573d2960c01b616394565b614f3f67ddf7ac9e720f653a60c01b616394565b6000614f4a83613c2b565b9050614f60672d55be94243c973560c01b616394565b614f7467a52c45769188941f60c01b616394565b614f886799ad4527e1b2cf3060c01b616394565b428167ffffffffffffffff1611614fd4576040517f08c379a0000000000000000000000000000000000000000000000000000000008152600401614fcb9061aff4565b60405180910390fd5b614fe867a7d6e764c764c5cc60c01b616394565b614ffc67b3de8dd69570a9d760c01b616394565b6150106790c5ed77f5968a4c60c01b616394565b61501b838383616fb8565b505050565b61503467c09a975baf46b6d560c01b616394565b61503c616601565b615050676165ef84ffb02ee160c01b616394565b61506467556c0199f65f651b60c01b616394565b61507867d00bf050696588ff60c01b616394565b8061013660006101000a81548173ffffffffffffffffffffffffffffffffffffffff021916908373ffffffffffffffffffffffffffffffffffffffff1602179055506150ce67c8c2892ad521ab6f60c01b616394565b6150e2671408b53476071d7e60c01b616394565b7facb06213fcf4f307fd4b85da28676fc9dba917ecf2db9c3b68e92159577209f361013660009054906101000a900473ffffffffffffffffffffffffffffffffffffffff166040516151349190618b1f565b60405180910390a150565b6000606560009054906101000a900473ffffffffffffffffffffffffffffffffffffffff16905090565b61517d673ee72270ec84b2b960c01b616394565b6151916711f9fbb069d691d060c01b616394565b6151a567572171d73ece638b60c01b616394565b6151b967b42d74d5e2d5a6a960c01b616394565b6151cd67a9b7551ca6a94ed260c01b616394565b61013660009054906101000a900473ffffffffffffffffffffffffffffffffffffffff1673ffffffffffffffffffffffffffffffffffffffff163373ffffffffffffffffffffffffffffffffffffffff161461525e576040517f08c379a000000000000000000000000000000000000000000000000000000000815260040161525590619fca565b60405180910390fd5b6152726759a292137fde492c60c01b616394565b615286673369fd72773fefdb60c01b616394565b61529a671e1178b92765210760c01b616394565b6152ae6756fd21c1b006588060c01b616394565b6152c267adb4ec887e01fdd060c01b616394565b6152d6678afb01190702077b60c01b616394565b6152ea6749f85b848cdea29c60c01b616394565b60008214801561530a5750615309678e1aed485b90452f60c01b616397565b5b8061534d5750600081148015615330575061532f673595e618cf0f36df60c01b616397565b5b801561534c575061534b6792159c4b681348b260c01b616397565b5b5b80615373575081811180156153725750615371674e1d71ed0e9e651560c01b616397565b5b5b6153b2576040517f08c379a00000000000000000000000000000000000000000000000000000000081526004016153a99061b086565b60405180910390fd5b6153c66766a24292295a076360c01b616394565b6153da672a75d5382698335d60c01b616394565b81610130819055506153f667624d4b8dae0d288360c01b616394565b80610131819055506154126725287a358182179360c01b616394565b61542667d1399797c79d5f2360c01b616394565b7f25833bb5032b47d3224449ad6fd59b0b185355c1066b7ded2d6d0b451b0bb15d8282604051615457929190618dfa565b60405180910390a15050565b61547767bb87de5467608d4c60c01b616394565b61547f616601565b61549367e6c61f3446f915b460c01b616394565b6154a767300230e63d6e4a1c60c01b616394565b6154bb6735bfbc437131bdd560c01b616394565b6154cf67051239ea6df5921160c01b616394565b6154e367aa7ac479c47f833e60c01b616394565b61013380549050841061552b576040517f08c379a00000000000000000000000000000000000000000000000000000000081526004016155229061b0f2565b60405180910390fd5b61553f67f09e6170ca505a1d60c01b616394565b6155536716810498c0eea14360c01b616394565b615567677765817d3f724ef060c01b616394565b61557b67aeea032acde71faf60c01b616394565b818311156155be576040517f08c379a00000000000000000000000000000000000000000000000000000000081526004016155b59061a4b1565b60405180910390fd5b6155d2676ea093a44733404460c01b616394565b6155e667829f57e4780848d360c01b616394565b6155fa67a36050f24effb7d560c01b616394565b60008411156156e05761561767e6eac60e04f2789f60c01b616394565b61562b67df3b844ca25b23d560c01b616394565b61563f676fc4faccb52aa6e160c01b616394565b61565367b263c22bbd8c8a3e60c01b616394565b610133600185615663919061a4d1565b8154811061567457615673619fea565b5b90600052602060002090600302016001015483116156c7576040517f08c379a00000000000000000000000000000000000000000000000000000000081526004016156be9061b184565b60405180910390fd5b6156db673dee208d61f8d2d860c01b616394565b6156f5565b6156f4675b74c46ed6a7552260c01b616394565b5b615709677ef3cad7af1841e260c01b616394565b61571d674bec8551c68a9ed360c01b616394565b600161013380549050615730919061a4d1565b8410156158145761574b67d050dbb0eff3f0d160c01b616394565b61575f6779044c263272749160c01b616394565b615773676c653737d0f6741760c01b616394565b6157876766db21dcbd8b4b9f60c01b616394565b6101336001856157979190619eb8565b815481106157a8576157a7619fea565b5b90600052602060002090600302016000015482106157fb576040517f08c379a00000000000000000000000000000000000000000000000000000000081526004016157f29061b1f0565b60405180910390fd5b61580f67062d1b1a8d6f66d660c01b616394565b615829565b6158286735f9e4e6d3cbe55160c01b616394565b5b61583d67dc93d3d41c86156260c01b616394565b60405180606001604052808481526020018381526020018267ffffffffffffffff16815250610133858154811061587757615876619fea565b5b9060005260206000209060030201600082015181600001556020820151816001015560408201518160020160006101000a81548167ffffffffffffffff021916908367ffffffffffffffff1602179055509050506158df6745e2c20750bdf14860c01b616394565b6158f3677090549d4b4b2afd60c01b616394565b7fa4c06b2748e8627a495b620bb5783a295583993792694fcb350311d3b5d868e084848484604051615928949392919061b210565b60405180910390a150505050565b600060ce60008473ffffffffffffffffffffffffffffffffffffffff1673ffffffffffffffffffffffffffffffffffffffff16815260200190815260200160002060008373ffffffffffffffffffffffffffffffffffffffff1673ffffffffffffffffffffffffffffffffffffffff16815260200190815260200160002060009054906101000a900460ff16905092915050565b60006159e067b01471d32e4e2aa860c01b616394565b6159f467593309e5436ab15160c01b616394565b615a0867edd273e5c21e16ca60c01b616394565b61012d6000838152602001908152602001600020600101549050919050565b61013560009054906101000a900473ffffffffffffffffffffffffffffffffffffffff1681565b615a6267b86646814e9fe4bc60c01b616394565b615a7667e6afa7ef1e8784f060c01b616394565b615a8a67c90bfdd4a16466ac60c01b616394565b615a9e6769370c5e4f8bbc1160c01b616394565b615ab267e8bd33fb241c93e360c01b616394565b61013260009054906101000a900460ff16615b02576040517f08c379a0000000000000000000000000000000000000000000000000000000008152600401615af99061a249565b60405180910390fd5b615b1667bc991f4f7131474a60c01b616394565b615b2a672961cf7cf50d786a60c01b616394565b615b3e67b86ae782dceb1e6a60c01b616394565b615b5267a96f3cdf22775d9960c01b616394565b615b6667411f0bb5d365e49f60c01b616394565b615b7a67219beaf315ec667760c01b616394565b6000615b8533612d1f565b9050615b9b678af688db1baf625e60c01b616394565b615baf67d12aabc59826db9860c01b616394565b615bc367a9c6bd34df66823a60c01b616394565b60008111615c06576040517f08c379a0000000000000000000000000000000000000000000000000000000008152600401615bfd9061b2a1565b60405180910390fd5b615c1a670e52e3e5b1ac1c4e60c01b616394565b615c2e67beebbe9a628b6dee60c01b616394565b615c4267bd96c83fd44ab2dd60c01b616394565b6000615c4e338361603e565b9050615c64671a1f919e3d5c3d5f60c01b616394565b615c7867c201cb1d999c1af460c01b616394565b6000615c8e67d0de755b84fbe29f60c01b616394565b615ca2674febbbcb570ec5c760c01b616394565b6000615cb8679eb581da3876744060c01b616394565b615ccc67d20b72135fe71a2360c01b616394565b60005b8351811015615e0657615cec676d86a152307896b560c01b616394565b615d006784dd70bac2c8fc4260c01b616394565b6000848281518110615d1557615d14619fea565b5b60200260200101519050615d336730c30079b892417b60c01b616394565b615d47679bc255a76d178f1060c01b616394565b6000615d52826159ca565b9050615d686765719164e1bc1bcf60c01b616394565b615d7c672d89c09a57b2f9d060c01b616394565b6000811115615de257615d9967d2d74f849c57948960c01b616394565b615dad6778d5188ca56c101a60c01b616394565b8085615db99190619eb8565b9450615dcf6781785d75b018c49d60c01b616394565b8380615dda9061b2c1565b945050615df7565b615df6672c70c9641cddf11b60c01b616394565b5b50508080600101915050615ccf565b50615e1b67c135a7d2209b26cb60c01b616394565b615e2f67e9df58e6fcb717d260c01b616394565b615e4367cf090b0b7af2778260c01b616394565b6305f5e100821015615e8a576040517f08c379a0000000000000000000000000000000000000000000000000000000008152600401615e819061b37b565b60405180910390fd5b615e9e67d6d2edd6e5a6c1e460c01b616394565b615eb2674d7f7eb782ad725060c01b616394565b615ec667022f43f66d086e5260c01b616394565b615ed133838561711f565b50505050565b61013460009054906101000a900473ffffffffffffffffffffffffffffffffffffffff1681565b6000615f14675fed6324d07c4d9460c01b616394565b615f2867a7e1c15849992d9960c01b616394565b615f3c67c1dff2f2e7e6128760c01b616394565b61012f60008373ffffffffffffffffffffffffffffffffffffffff1673ffffffffffffffffffffffffffffffffffffffff16815260200190815260200160002060009054906101000a900460ff169050919050565b615f99616601565b80606560006101000a81548173ffffffffffffffffffffffffffffffffffffffff021916908373ffffffffffffffffffffffffffffffffffffffff1602179055508073ffffffffffffffffffffffffffffffffffffffff16615ff9613c01565b73ffffffffffffffffffffffffffffffffffffffff167f38d16b8cac22d99fc7c124b9cd0de2d3fa1faef420bfe791d8c362d765e2270060405160405180910390a350565b6060616054670c5686d962c05bdf60c01b616394565b616068675c780b20f458f50d60c01b616394565b61607c6716002b25cc5e998060c01b616394565b600061608784612d1f565b905061609d674d58464dc42b2c0a60c01b616394565b6160b16711a0049b9dffeef160c01b616394565b6160c567e47f7bd656a0b19c60c01b616394565b60008311616108576040517f08c379a00000000000000000000000000000000000000000000000000000000081526004016160ff9061b3e7565b60405180910390fd5b61611c67cc223a0b349fca6d60c01b616394565b61613067f2400c76428b57bf60c01b616394565b61614467dbfd95a5edbf1d6e60c01b616394565b616158677f8ea5deaf29fd1560c01b616394565b8083111561619b576040517f08c379a00000000000000000000000000000000000000000000000000000000081526004016161929061b3e7565b60405180910390fd5b6161af67ea5fc00dc522bea160c01b616394565b6161c36798c6da749aa02fb660c01b616394565b8267ffffffffffffffff8111156161dd576161dc6192f8565b5b60405190808252806020026020018201604052801561620b5781602001602082028036833780820191505090505b50915061622267cdc46bc66d4795a760c01b616394565b61623667d655e2350abde88560c01b616394565b60005b838110156162b85761625567d4280ff6f62b31d760c01b616394565b6162696750c731a95c1d6f8d60c01b616394565b60006162758683611c8f565b905061628a669315176739bed860c01b616394565b8084838151811061629e5761629d619fea565b5b602002602001018181525050508080600101915050616239565b505092915050565b6162d4670f8ec4cbb71f429660c01b616394565b6162dc616601565b6162ef66ca3a947047f92f60c01b616394565b6163036793ee7c486c99a81760c01b616394565b616317677a2f06ad0a40b7d860c01b616394565b8061013b60006101000a81548160ff02191690831515021790555061634667c818430af27f61c760c01b616394565b61635a676bbc8ed614cdfefd60c01b616394565b7fbb63059bdc53c55f55c3853fa3261d62beb112269c5d1aa448ca27dca56a09058160405161638991906189ae565b60405180910390a150565b50565b600060019050919050565b60007f780e9d63000000000000000000000000000000000000000000000000000000007bffffffffffffffffffffffffffffffffffffffffffffffffffffffff1916827bffffffffffffffffffffffffffffffffffffffffffffffffffffffff1916148061641557506164148261736b565b5b9050919050565b61642581616c12565b616464576040517f08c379a000000000000000000000000000000000000000000000000000000000815260040161645b9061a5e3565b60405180910390fd5b50565b600033905090565b8160cd600083815260200190815260200160002060006101000a81548173ffffffffffffffffffffffffffffffffffffffff021916908373ffffffffffffffffffffffffffffffffffffffff160217905550808273ffffffffffffffffffffffffffffffffffffffff166164e283612c6b565b73ffffffffffffffffffffffffffffffffffffffff167f8c5be1e5ebec7d5bd14f71427d1e84f3dd0314c0f7b2291e5b200ac8c7c3b92560405160405180910390a45050565b6000808273ffffffffffffffffffffffffffffffffffffffff163b119050919050565b600060019054906101000a900460ff1661659a576040517f08c379a00000000000000000000000000000000000000000000000000000000081526004016165919061b479565b60405180910390fd5b6165a4828261744d565b5050565b600060019054906101000a900460ff166165f7576040517f08c379a00000000000000000000000000000000000000000000000000000000081526004016165ee9061b479565b60405180910390fd5b6165ff6174c0565b565b616609616467565b73ffffffffffffffffffffffffffffffffffffffff16616627613c01565b73ffffffffffffffffffffffffffffffffffffffff161461667d576040517f08c379a00000000000000000000000000000000000000000000000000000000081526004016166749061b4e5565b60405180910390fd5b565b61669367918a673cbf19abb360c01b616394565b6166a7677a7fa1b8aa39e70a60c01b616394565b6166bb67d78e34dc562b765060c01b616394565b61670b82308361013260019054906101000a900473ffffffffffffffffffffffffffffffffffffffff1673ffffffffffffffffffffffffffffffffffffffff16617521909392919063ffffffff16565b5050565b60008061671b83612c6b565b90508073ffffffffffffffffffffffffffffffffffffffff168473ffffffffffffffffffffffffffffffffffffffff16148061675d575061675c8185615936565b5b8061679b57508373ffffffffffffffffffffffffffffffffffffffff1661678384610d19565b73ffffffffffffffffffffffffffffffffffffffff16145b91505092915050565b8273ffffffffffffffffffffffffffffffffffffffff166167c482612c6b565b73ffffffffffffffffffffffffffffffffffffffff161461681a576040517f08c379a00000000000000000000000000000000000000000000000000000000081526004016168119061b577565b60405180910390fd5b600073ffffffffffffffffffffffffffffffffffffffff168273ffffffffffffffffffffffffffffffffffffffff1603616889576040517f08c379a00000000000000000000000000000000000000000000000000000000081526004016168809061b609565b60405180910390fd5b61689683838360016175aa565b8273ffffffffffffffffffffffffffffffffffffffff166168b682612c6b565b73ffffffffffffffffffffffffffffffffffffffff161461690c576040517f08c379a00000000000000000000000000000000000000000000000000000000081526004016169039061b577565b60405180910390fd5b60cd600082815260200190815260200160002060006101000a81549073ffffffffffffffffffffffffffffffffffffffff0219169055600160cc60008573ffffffffffffffffffffffffffffffffffffffff1673ffffffffffffffffffffffffffffffffffffffff16815260200190815260200160002060008282540392505081905550600160cc60008473ffffffffffffffffffffffffffffffffffffffff1673ffffffffffffffffffffffffffffffffffffffff168152602001908152602001600020600082825401925050819055508160cb600083815260200190815260200160002060006101000a81548173ffffffffffffffffffffffffffffffffffffffff021916908373ffffffffffffffffffffffffffffffffffffffff160217905550808273ffffffffffffffffffffffffffffffffffffffff168473ffffffffffffffffffffffffffffffffffffffff167fddf252ad1be2c89b69c2b068fc378daa952ba7f163c4a11628f55a4df523b3ef60405160405180910390a4616a9883838360016178d3565b505050565b616ab16734c73d2e46a758d660c01b616394565b616ac567d6beaac46082871f60c01b616394565b616ad967a03736a89764228a60c01b616394565b616ae681610137546178d9565b616afa67a804f7b89c12202f60c01b616394565b6101376000815480929190616b0e9061b2c1565b919050555050565b616b2a674844f7933f28294460c01b616394565b616b3e678e2fef5f7e6f0bbb60c01b616394565b616b526795796b44245a8b7c60c01b616394565b616ba0828261013260019054906101000a900473ffffffffffffffffffffffffffffffffffffffff1673ffffffffffffffffffffffffffffffffffffffff16617af69092919063ffffffff16565b5050565b600060cb600083815260200190815260200160002060009054906101000a900473ffffffffffffffffffffffffffffffffffffffff169050919050565b606560006101000a81549073ffffffffffffffffffffffffffffffffffffffff0219169055616c0f81617b7c565b50565b60008073ffffffffffffffffffffffffffffffffffffffff16616c3483616ba4565b73ffffffffffffffffffffffffffffffffffffffff1614159050919050565b8173ffffffffffffffffffffffffffffffffffffffff168373ffffffffffffffffffffffffffffffffffffffff1603616cc1576040517f08c379a0000000000000000000000000000000000000000000000000000000008152600401616cb89061b675565b60405180910390fd5b8060ce60008573ffffffffffffffffffffffffffffffffffffffff1673ffffffffffffffffffffffffffffffffffffffff16815260200190815260200160002060008473ffffffffffffffffffffffffffffffffffffffff1673ffffffffffffffffffffffffffffffffffffffff16815260200190815260200160002060006101000a81548160ff0219169083151502179055508173ffffffffffffffffffffffffffffffffffffffff168373ffffffffffffffffffffffffffffffffffffffff167f17307eab39ab6107e8899845ad3d59bd9653f200f220920489ca2b5937696c3183604051616db291906189ae565b60405180910390a3505050565b616dca8484846167a4565b616dd684848484617c42565b616e15576040517f08c379a0000000000000000000000000000000000000000000000000000000008152600401616e0c9061b707565b60405180910390fd5b50505050565b6060616e3167c6c761e727c1fd7d60c01b616394565b616e4567f4808fecb408b1c660c01b616394565b616e59675cb6f1fc7f789b2260c01b616394565b61013a8054616e679061988a565b80601f0160208091040260200160405190810160405280929190818152602001828054616e939061988a565b8015616ee05780601f10616eb557610100808354040283529160200191616ee0565b820191906000526020600020905b815481529060010190602001808311616ec357829003601f168201915b5050505050905090565b606060006001616ef984617dc9565b01905060008167ffffffffffffffff811115616f1857616f176192f8565b5b6040519080825280601f01601f191660200182016040528015616f4a5781602001600182028036833780820191505090505b509050600082602001820190505b600115616fad578080600190039150507f3031323334353637383961626364656600000000000000000000000000000000600a86061a8153600a8581616fa157616fa061b727565b5b04945060008503616f58575b819350505050919050565b616fcc6723c03b304ffdcbcf60c01b616394565b616fe0670e27272a2db72f8560c01b616394565b616ff4677ce9c4cb84749e2460c01b616394565b600061012d6000858152602001908152602001600020905061702067e7b3d20c19a1ca4360c01b616394565b828160000160006101000a81548173ffffffffffffffffffffffffffffffffffffffff021916908373ffffffffffffffffffffffffffffffffffffffff16021790555061707767c68b2aaa0e087f2660c01b616394565b818160000160146101000a81548167ffffffffffffffff021916908367ffffffffffffffff1602179055506170b66728c08bf43ce2714860c01b616394565b6170ca67fae1e3beb2ecaab360c01b616394565b8273ffffffffffffffffffffffffffffffffffffffff16847f4e06b4e7000e659094299b3533b47b6aa8ad048e95e872d23d1f4ee55af89cfe846040516171119190618db2565b60405180910390a350505050565b61713367d0c2cc7e1b6d426f60c01b616394565b617147673e1474987036084960c01b616394565b61715b679388569a8af6c5dd60c01b616394565b60005b81518110156172c75761717b67fdd3bed8f2cc807260c01b616394565b61718f6765532d53b284e25a60c01b616394565b600061012d60008484815181106171a9576171a8619fea565b5b6020026020010151815260200190815260200160002090506171d567c57e4ab50e642f2a60c01b616394565b6171e967ca69f15595fc5c1a60c01b616394565b600061720e84848151811061720157617200619fea565b5b6020026020010151614115565b905061722467dcd1d91e59780b8860c01b616394565b61723867f57f6a0bb1587a7b60c01b616394565b600073ffffffffffffffffffffffffffffffffffffffff168173ffffffffffffffffffffffffffffffffffffffff16146172a357617280671b11ee8313905da160c01b616394565b61729467f905971a7126b87e60c01b616394565b600082600101819055506172b8565b6172b767f2b0ce9bd6a4e1c560c01b616394565b5b5050808060010191505061715e565b506172dc674e6c7f00ee5bb27660c01b616394565b6172f067f168ffea09fe7bf960c01b616394565b6172fa8383616b16565b61730e67774138cd3c58574c60c01b616394565b61732267f055a1f9724a540860c01b616394565b818373ffffffffffffffffffffffffffffffffffffffff167f8f515e5f63e91181ea26538181b146eb8557c096692e1dc4d0597a18d4e4491360405160405180910390a3505050565b60007f80ac58cd000000000000000000000000000000000000000000000000000000007bffffffffffffffffffffffffffffffffffffffffffffffffffffffff1916827bffffffffffffffffffffffffffffffffffffffffffffffffffffffff1916148061743657507f5b5e139f000000000000000000000000000000000000000000000000000000007bffffffffffffffffffffffffffffffffffffffffffffffffffffffff1916827bffffffffffffffffffffffffffffffffffffffffffffffffffffffff1916145b80617446575061744582617f1c565b5b9050919050565b600060019054906101000a900460ff1661749c576040517f08c379a00000000000000000000000000000000000000000000000000000000081526004016174939061b479565b60405180910390fd5b8160c990816174ab919061b756565b508060ca90816174bb919061b756565b505050565b600060019054906101000a900460ff1661750f576040517f08c379a00000000000000000000000000000000000000000000000000000000081526004016175069061b479565b60405180910390fd5b61751f61751a616467565b616be1565b565b6175a4846323b872dd60e01b8585856040516024016175429392919061b828565b604051602081830303815290604052907bffffffffffffffffffffffffffffffffffffffffffffffffffffffff19166020820180517bffffffffffffffffffffffffffffffffffffffffffffffffffffffff8381831617835250505050617f86565b50505050565b6175be67b9a355af3443116260c01b616394565b6175d267cf42340437c9bebb60c01b616394565b6175e667e6def532f0dc3f2860c01b616394565b6175f28484848461804e565b61760667c9ba481cfb83a14860c01b616394565b61761a67d94a158bebe21be860c01b616394565b61762e670dc7bea90b8d8b6160c01b616394565b6000151561763b8361424f565b15151461767d576040517f08c379a00000000000000000000000000000000000000000000000000000000081526004016176749061af88565b60405180910390fd5b617691678a77ee2a0529d40b60c01b616394565b6176a5679e269ecf2cc81f2160c01b616394565b6176b967671ff849a9eb50c360c01b616394565b600073ffffffffffffffffffffffffffffffffffffffff168473ffffffffffffffffffffffffffffffffffffffff1614158015617704575061013b60009054906101000a900460ff16155b156177535761771d67487062840949b0a160c01b616394565b6177316787139a95b6e0dbc160c01b616394565b61774567422009886038dc6d60c01b616394565b61774e846181ac565b617768565b61776767c9ddfd6fbca5567b60c01b616394565b5b61777c673eab6f7d7b605a9760c01b616394565b61779067e43c9fe37f20d8a960c01b616394565b8273ffffffffffffffffffffffffffffffffffffffff168473ffffffffffffffffffffffffffffffffffffffff16141580156178305750600073ffffffffffffffffffffffffffffffffffffffff1661012d600084815260200190815260200160002060000160009054906101000a900473ffffffffffffffffffffffffffffffffffffffff1673ffffffffffffffffffffffffffffffffffffffff1614155b156178b85761784967c0f4881d6020900860c01b616394565b61785d67401631a4e33c043e60c01b616394565b61787167272dc8601076635260c01b616394565b600061787c83613c2b565b90506178926754ec737b710a28d360c01b616394565b6178a6678804196a90b7bfa860c01b616394565b6178b283600083616fb8565b506178cd565b6178cc6787694d1f644e9f8560c01b616394565b5b50505050565b50505050565b600073ffffffffffffffffffffffffffffffffffffffff168273ffffffffffffffffffffffffffffffffffffffff1603617948576040517f08c379a000000000000000000000000000000000000000000000000000000000815260040161793f9061b8ab565b60405180910390fd5b61795181616c12565b15617991576040517f08c379a00000000000000000000000000000000000000000000000000000000081526004016179889061b917565b60405180910390fd5b61799f6000838360016175aa565b6179a881616c12565b156179e8576040517f08c379a00000000000000000000000000000000000000000000000000000000081526004016179df9061b917565b60405180910390fd5b600160cc60008473ffffffffffffffffffffffffffffffffffffffff1673ffffffffffffffffffffffffffffffffffffffff168152602001908152602001600020600082825401925050819055508160cb600083815260200190815260200160002060006101000a81548173ffffffffffffffffffffffffffffffffffffffff021916908373ffffffffffffffffffffffffffffffffffffffff160217905550808273ffffffffffffffffffffffffffffffffffffffff16600073ffffffffffffffffffffffffffffffffffffffff167fddf252ad1be2c89b69c2b068fc378daa952ba7f163c4a11628f55a4df523b3ef60405160405180910390a4617af26000838360016178d3565b5050565b617b778363a9059cbb60e01b8484604051602401617b1592919061b937565b604051602081830303815290604052907bffffffffffffffffffffffffffffffffffffffffffffffffffffffff19166020820180517bffffffffffffffffffffffffffffffffffffffffffffffffffffffff8381831617835250505050617f86565b505050565b6000603360009054906101000a900473ffffffffffffffffffffffffffffffffffffffff16905081603360006101000a81548173ffffffffffffffffffffffffffffffffffffffff021916908373ffffffffffffffffffffffffffffffffffffffff1602179055508173ffffffffffffffffffffffffffffffffffffffff168173ffffffffffffffffffffffffffffffffffffffff167f8be0079c531659141344cd1fd0a4f28419497f9722a3daafe3b4186f6b6457e060405160405180910390a35050565b6000617c638473ffffffffffffffffffffffffffffffffffffffff16616528565b15617dbc578373ffffffffffffffffffffffffffffffffffffffff1663150b7a02617c8c616467565b8786866040518563ffffffff1660e01b8152600401617cae949392919061b9b5565b6020604051808303816000875af1925050508015617cea57506040513d601f19601f82011682018060405250810190617ce7919061ba16565b60015b617d6c573d8060008114617d1a576040519150601f19603f3d011682016040523d82523d6000602084013e617d1f565b606091505b506000815103617d64576040517f08c379a0000000000000000000000000000000000000000000000000000000008152600401617d5b9061b707565b60405180910390fd5b805181602001fd5b63150b7a0260e01b7bffffffffffffffffffffffffffffffffffffffffffffffffffffffff1916817bffffffffffffffffffffffffffffffffffffffffffffffffffffffff191614915050617dc1565b600190505b949350505050565b600080600090507a184f03e93ff9f4daa797ed6e38ed64bf6a1f0100000000000000008310617e27577a184f03e93ff9f4daa797ed6e38ed64bf6a1f0100000000000000008381617e1d57617e1c61b727565b5b0492506040810190505b6d04ee2d6d415b85acef81000000008310617e64576d04ee2d6d415b85acef81000000008381617e5a57617e5961b727565b5b0492506020810190505b662386f26fc100008310617e9357662386f26fc100008381617e8957617e8861b727565b5b0492506010810190505b6305f5e1008310617ebc576305f5e1008381617eb257617eb161b727565b5b0492506008810190505b6127108310617ee1576127108381617ed757617ed661b727565b5b0492506004810190505b60648310617f045760648381617efa57617ef961b727565b5b0492506002810190505b600a8310617f13576001810190505b80915050919050565b60007f01ffc9a7000000000000000000000000000000000000000000000000000000007bffffffffffffffffffffffffffffffffffffffffffffffffffffffff1916827bffffffffffffffffffffffffffffffffffffffffffffffffffffffff1916149050919050565b6000617fe8826040518060400160405280602081526020017f5361666545524332303a206c6f772d6c6576656c2063616c6c206661696c65648152508573ffffffffffffffffffffffffffffffffffffffff166184039092919063ffffffff16565b905060008151148061800a575080806020019051810190618009919061ba58565b5b618049576040517f08c379a00000000000000000000000000000000000000000000000000000000081526004016180409061baf7565b60405180910390fd5b505050565b61805a8484848461841b565b600181111561809e576040517f08c379a00000000000000000000000000000000000000000000000000000000081526004016180959061bb89565b60405180910390fd5b6000829050600073ffffffffffffffffffffffffffffffffffffffff168573ffffffffffffffffffffffffffffffffffffffff16036180e5576180e081618421565b618124565b8373ffffffffffffffffffffffffffffffffffffffff168573ffffffffffffffffffffffffffffffffffffffff161461812357618122858261846a565b5b5b600073ffffffffffffffffffffffffffffffffffffffff168473ffffffffffffffffffffffffffffffffffffffff160361816657618161816185d7565b6181a5565b8473ffffffffffffffffffffffffffffffffffffffff168473ffffffffffffffffffffffffffffffffffffffff16146181a4576181a384826186a8565b5b5b5050505050565b6181c067c573f5a5edf4a88460c01b616394565b6181d4676eed851bfaa9abb060c01b616394565b6181e86709a4fbb924d1f0a060c01b616394565b6181fc67a54f7cba8cda011960c01b616394565b8073ffffffffffffffffffffffffffffffffffffffff163373ffffffffffffffffffffffffffffffffffffffff161461826a576040517f08c379a00000000000000000000000000000000000000000000000000000000081526004016182619061bbf5565b60405180910390fd5b61827e6717a74a0c4d193dee60c01b616394565b6182926740c1e9fbb3af282760c01b616394565b6182a667d2a18acbbd14775f60c01b616394565b6182ba67d10ad20fe82af44160c01b616394565b61012f60008273ffffffffffffffffffffffffffffffffffffffff1673ffffffffffffffffffffffffffffffffffffffff16815260200190815260200160002060009054906101000a900460ff16618347576040517f08c379a000000000000000000000000000000000000000000000000000000000815260040161833e9061bc61565b60405180910390fd5b61835b67cd374b5b1f02f3bf60c01b616394565b61836f674103066ddb86301b60c01b616394565b6183836751095afb2494968c60c01b616394565b61839767dd23e4e6c6e2a99560c01b616394565b4261013054111580156183ad5750610131544211155b6183ec576040517f08c379a00000000000000000000000000000000000000000000000000000000081526004016183e39061bcf3565b60405180910390fd5b61840067eaa4e34375bb651460c01b616394565b50565b60606184128484600085618727565b90509392505050565b50505050565b60fd8054905060fe60008381526020019081526020016000208190555060fd81908060018154018082558091505060019003906000526020600020016000909190919091505550565b6000600161847784612d1f565b618481919061a4d1565b9050600060fc600084815260200190815260200160002054905081811461856657600060fb60008673ffffffffffffffffffffffffffffffffffffffff1673ffffffffffffffffffffffffffffffffffffffff16815260200190815260200160002060008481526020019081526020016000205490508060fb60008773ffffffffffffffffffffffffffffffffffffffff1673ffffffffffffffffffffffffffffffffffffffff1681526020019081526020016000206000848152602001908152602001600020819055508160fc600083815260200190815260200160002081905550505b60fc60008481526020019081526020016000206000905560fb60008573ffffffffffffffffffffffffffffffffffffffff1673ffffffffffffffffffffffffffffffffffffffff16815260200190815260200160002060008381526020019081526020016000206000905550505050565b6000600160fd805490506185eb919061a4d1565b9050600060fe6000848152602001908152602001600020549050600060fd838154811061861b5761861a619fea565b5b906000526020600020015490508060fd838154811061863d5761863c619fea565b5b90600052602060002001819055508160fe60008381526020019081526020016000208190555060fe60008581526020019081526020016000206000905560fd80548061868c5761868b61bd13565b5b6001900381819060005260206000200160009055905550505050565b60006186b383612d1f565b90508160fb60008573ffffffffffffffffffffffffffffffffffffffff1673ffffffffffffffffffffffffffffffffffffffff1681526020019081526020016000206000838152602001908152602001600020819055508060fc600084815260200190815260200160002081905550505050565b60608247101561876c576040517f08c379a00000000000000000000000000000000000000000000000000000000081526004016187639061bdb4565b60405180910390fd5b6000808673ffffffffffffffffffffffffffffffffffffffff168587604051618795919061be10565b60006040518083038185875af1925050503d80600081146187d2576040519150601f19603f3d011682016040523d82523d6000602084013e6187d7565b606091505b50915091506187e8878383876187f4565b92505050949350505050565b6060831561885657600083510361884e5761880e85616528565b61884d576040517f08c379a00000000000000000000000000000000000000000000000000000000081526004016188449061be73565b60405180910390fd5b5b829050618861565b6188608383618869565b5b949350505050565b60008251111561887c5781518083602001fd5b806040517f08c379a00000000000000000000000000000000000000000000000000000000081526004016188b09190618a59565b60405180910390fd5b6040518060600160405280600073ffffffffffffffffffffffffffffffffffffffff168152602001600067ffffffffffffffff168152602001600081525090565b6000604051905090565b600080fd5b600080fd5b60007fffffffff0000000000000000000000000000000000000000000000000000000082169050919050565b6189438161890e565b811461894e57600080fd5b50565b6000813590506189608161893a565b92915050565b60006020828403121561897c5761897b618904565b5b600061898a84828501618951565b91505092915050565b60008115159050919050565b6189a881618993565b82525050565b60006020820190506189c3600083018461899f565b92915050565b600081519050919050565b600082825260208201905092915050565b60005b83811015618a035780820151818401526020810190506189e8565b60008484015250505050565b6000601f19601f8301169050919050565b6000618a2b826189c9565b618a3581856189d4565b9350618a458185602086016189e5565b618a4e81618a0f565b840191505092915050565b60006020820190508181036000830152618a738184618a20565b905092915050565b6000819050919050565b618a8e81618a7b565b8114618a9957600080fd5b50565b600081359050618aab81618a85565b92915050565b600060208284031215618ac757618ac6618904565b5b6000618ad584828501618a9c565b91505092915050565b600073ffffffffffffffffffffffffffffffffffffffff82169050919050565b6000618b0982618ade565b9050919050565b618b1981618afe565b82525050565b6000602082019050618b346000830184618b10565b92915050565b618b4381618afe565b8114618b4e57600080fd5b50565b600081359050618b6081618b3a565b92915050565b60008060408385031215618b7d57618b7c618904565b5b6000618b8b85828601618b51565b9250506020618b9c85828601618a9c565b9150509250929050565b618baf81618a7b565b82525050565b6000602082019050618bca6000830184618ba6565b92915050565b600080600080600060a08688031215618bec57618beb618904565b5b6000618bfa88828901618b51565b9550506020618c0b88828901618b51565b9450506040618c1c88828901618b51565b9350506060618c2d88828901618b51565b9250506080618c3e88828901618b51565b9150509295509295909350565b600080600060608486031215618c6457618c63618904565b5b6000618c7286828701618b51565b9350506020618c8386828701618b51565b9250506040618c9486828701618a9c565b9150509250925092565b600080fd5b600080fd5b600080fd5b60008083601f840112618cc357618cc2618c9e565b5b8235905067ffffffffffffffff811115618ce057618cdf618ca3565b5b602083019150836020820283011115618cfc57618cfb618ca8565b5b9250929050565b618d0c81618993565b8114618d1757600080fd5b50565b600081359050618d2981618d03565b92915050565b600080600060408486031215618d4857618d47618904565b5b600084013567ffffffffffffffff811115618d6657618d65618909565b5b618d7286828701618cad565b93509350506020618d8586828701618d1a565b9150509250925092565b600067ffffffffffffffff82169050919050565b618dac81618d8f565b82525050565b6000602082019050618dc76000830184618da3565b92915050565b600060208284031215618de357618de2618904565b5b6000618df184828501618b51565b91505092915050565b6000604082019050618e0f6000830185618ba6565b618e1c6020830184618ba6565b9392505050565b618e2c81618d8f565b8114618e3757600080fd5b50565b600081359050618e4981618e23565b92915050565b600080600060608486031215618e6857618e67618904565b5b6000618e7686828701618a9c565b9350506020618e8786828701618a9c565b9250506040618e9886828701618e3a565b9150509250925092565b6000819050919050565b6000618ec7618ec2618ebd84618ade565b618ea2565b618ade565b9050919050565b6000618ed982618eac565b9050919050565b6000618eeb82618ece565b9050919050565b618efb81618ee0565b82525050565b6000602082019050618f166000830184618ef2565b92915050565b6000606082019050618f316000830186618ba6565b618f3e6020830185618ba6565b618f4b6040830184618da3565b949350505050565b600081519050919050565b600082825260208201905092915050565b6000819050602082019050919050565b618f8881618a7b565b82525050565b618f9781618d8f565b82525050565b606082016000820151618fb36000850182618f7f565b506020820151618fc66020850182618f7f565b506040820151618fd96040850182618f8e565b50505050565b6000618feb8383618f9d565b60608301905092915050565b6000602082019050919050565b600061900f82618f53565b6190198185618f5e565b935061902483618f6f565b8060005b8381101561905557815161903c8882618fdf565b975061904783618ff7565b925050600181019050619028565b5085935050505092915050565b600061016082019050619078600083018e618b10565b619085602083018d618b10565b619092604083018c618b10565b61909f606083018b618b10565b6190ac608083018a618b10565b6190b960a0830189618b10565b6190c660c0830188618ba6565b6190d360e0830187618ba6565b6190e161010083018661899f565b8181036101208301526190f48185618a20565b90508181036101408301526191098184619004565b90509c9b505050505050505050505050565b60008083601f84011261913157619130618c9e565b5b8235905067ffffffffffffffff81111561914e5761914d618ca3565b5b60208301915083602082028301111561916a57619169618ca8565b5b9250929050565b6000806000806040858703121561918b5761918a618904565b5b600085013567ffffffffffffffff8111156191a9576191a8618909565b5b6191b587828801618cad565b9450945050602085013567ffffffffffffffff8111156191d8576191d7618909565b5b6191e48782880161911b565b925092505092959194509250565b6000806040838503121561920957619208618904565b5b600061921785828601618a9c565b925050602061922885828601618e3a565b9150509250929050565b6000806000806040858703121561924c5761924b618904565b5b600085013567ffffffffffffffff81111561926a57619269618909565b5b6192768782880161911b565b9450945050602085013567ffffffffffffffff81111561929957619298618909565b5b6192a587828801618cad565b925092505092959194509250565b600080604083850312156192ca576192c9618904565b5b60006192d885828601618b51565b92505060206192e985828601618d1a565b9150509250929050565b600080fd5b7f4e487b7100000000000000000000000000000000000000000000000000000000600052604160045260246000fd5b61933082618a0f565b810181811067ffffffffffffffff8211171561934f5761934e6192f8565b5b80604052505050565b60006193626188fa565b905061936e8282619327565b919050565b600067ffffffffffffffff82111561938e5761938d6192f8565b5b61939782618a0f565b9050602081019050919050565b82818337600083830152505050565b60006193c66193c184619373565b619358565b9050828152602081018484840111156193e2576193e16192f3565b5b6193ed8482856193a4565b509392505050565b600082601f83011261940a57619409618c9e565b5b813561941a8482602086016193b3565b91505092915050565b6000806000806080858703121561943d5761943c618904565b5b600061944b87828801618b51565b945050602061945c87828801618b51565b935050604061946d87828801618a9c565b925050606085013567ffffffffffffffff81111561948e5761948d618909565b5b61949a878288016193f5565b91505092959194509250565b60008083601f8401126194bc576194bb618c9e565b5b8235905067ffffffffffffffff8111156194d9576194d8618ca3565b5b6020830191508360018202830111156194f5576194f4618ca8565b5b9250929050565b6000806020838503121561951357619512618904565b5b600083013567ffffffffffffffff81111561953157619530618909565b5b61953d858286016194a6565b92509250509250929050565b61955281618afe565b82525050565b60608201600082015161956e6000850182619549565b5060208201516195816020850182618f8e565b5060408201516195946040850182618f7f565b50505050565b60006060820190506195af6000830184619558565b92915050565b600080600080604085870312156195cf576195ce618904565b5b600085013567ffffffffffffffff8111156195ed576195ec618909565b5b6195f98782880161911b565b9450945050602085013567ffffffffffffffff81111561961c5761961b618909565b5b6196288782880161911b565b925092505092959194509250565b6000806040838503121561964d5761964c618904565b5b600061965b85828601618a9c565b925050602061966c85828601618b51565b9150509250929050565b6000806040838503121561968d5761968c618904565b5b600061969b85828601618a9c565b92505060206196ac85828601618a9c565b9150509250929050565b600080600080608085870312156196d0576196cf618904565b5b60006196de87828801618a9c565b94505060206196ef87828801618a9c565b935050604061970087828801618a9c565b925050606061971187828801618e3a565b91505092959194509250565b6000806040838503121561973457619733618904565b5b600061974285828601618b51565b925050602061975385828601618b51565b9150509250929050565b600081519050919050565b600082825260208201905092915050565b6000819050602082019050919050565b60006197958383618f7f565b60208301905092915050565b6000602082019050919050565b60006197b98261975d565b6197c38185619768565b93506197ce83619779565b8060005b838110156197ff5781516197e68882619789565b97506197f1836197a1565b9250506001810190506197d2565b5085935050505092915050565b6000602082019050818103600083015261982681846197ae565b905092915050565b60006020828403121561984457619843618904565b5b600061985284828501618d1a565b91505092915050565b7f4e487b7100000000000000000000000000000000000000000000000000000000600052602260045260246000fd5b600060028204905060018216806198a257607f821691505b6020821081036198b5576198b461985b565b5b50919050565b7f4552433732313a20617070726f76616c20746f2063757272656e74206f776e6560008201527f7200000000000000000000000000000000000000000000000000000000000000602082015250565b60006199176021836189d4565b9150619922826198bb565b604082019050919050565b600060208201905081810360008301526199468161990a565b9050919050565b7f4552433732313a20617070726f76652063616c6c6572206973206e6f7420746f60008201527f6b656e206f776e6572206f7220617070726f76656420666f7220616c6c000000602082015250565b60006199a9603d836189d4565b91506199b48261994d565b604082019050919050565b600060208201905081810360008301526199d88161999c565b9050919050565b7f496e697469616c697a61626c653a20636f6e747261637420697320616c72656160008201527f647920696e697469616c697a6564000000000000000000000000000000000000602082015250565b6000619a3b602e836189d4565b9150619a46826199df565b604082019050919050565b60006020820190508181036000830152619a6a81619a2e565b9050919050565b7f5a65726f2061646472657373206e6f7420616c6c6f77656420666f722043585460008201527f20746f6b656e0000000000000000000000000000000000000000000000000000602082015250565b6000619acd6026836189d4565b9150619ad882619a71565b604082019050919050565b60006020820190508181036000830152619afc81619ac0565b9050919050565b7f5a65726f2061646472657373206e6f7420616c6c6f77656420666f72206d696e60008201527f7465722061646d696e0000000000000000000000000000000000000000000000602082015250565b6000619b5f6029836189d4565b9150619b6a82619b03565b604082019050919050565b60006020820190508181036000830152619b8e81619b52565b9050919050565b7f5a65726f2061646472657373206e6f7420616c6c6f77656420666f722062616e60008201527f2061646d696e0000000000000000000000000000000000000000000000000000602082015250565b6000619bf16026836189d4565b9150619bfc82619b95565b604082019050919050565b60006020820190508181036000830152619c2081619be4565b9050919050565b7f5a65726f2061646472657373206e6f7420616c6c6f77656420666f722077686960008201527f74656c6973742061646d696e0000000000000000000000000000000000000000602082015250565b6000619c83602c836189d4565b9150619c8e82619c27565b604082019050919050565b60006020820190508181036000830152619cb281619c76565b9050919050565b7f5a65726f2061646472657373206e6f7420616c6c6f77656420666f722072657760008201527f6172642061646d696e0000000000000000000000000000000000000000000000602082015250565b6000619d156029836189d4565b9150619d2082619cb9565b604082019050919050565b60006020820190508181036000830152619d4481619d08565b9050919050565b600060e082019050619d60600083018a618b10565b619d6d6020830189618b10565b619d7a6040830188618b10565b619d876060830187618b10565b619d94608083018661899f565b619da160a0830185618ba6565b619dae60c083018461899f565b98975050505050505050565b6000819050919050565b600060ff82169050919050565b6000619dec619de7619de284619dba565b618ea2565b619dc4565b9050919050565b619dfc81619dd1565b82525050565b6000602082019050619e176000830184619df3565b92915050565b7f416d6f756e742069732030000000000000000000000000000000000000000000600082015250565b6000619e53600b836189d4565b9150619e5e82619e1d565b602082019050919050565b60006020820190508181036000830152619e8281619e46565b9050919050565b7f4e487b7100000000000000000000000000000000000000000000000000000000600052601160045260246000fd5b6000619ec382618a7b565b9150619ece83618a7b565b9250828201905080821115619ee657619ee5619e89565b5b92915050565b7f4552433732313a2063616c6c6572206973206e6f7420746f6b656e206f776e6560008201527f72206f7220617070726f76656400000000000000000000000000000000000000602082015250565b6000619f48602d836189d4565b9150619f5382619eec565b604082019050919050565b60006020820190508181036000830152619f7781619f3b565b9050919050565b7f6f6e6c792077686974656c6973742061646d696e000000000000000000000000600082015250565b6000619fb46014836189d4565b9150619fbf82619f7e565b602082019050919050565b60006020820190508181036000830152619fe381619fa7565b9050919050565b7f4e487b7100000000000000000000000000000000000000000000000000000000600052603260045260246000fd5b600082825260208201905092915050565b6000819050919050565b600061a0408383619549565b60208301905092915050565b600061a05b6020840184618b51565b905092915050565b6000602082019050919050565b600061a07c838561a019565b935061a0878261a02a565b8060005b8581101561a0c05761a09d828461a04c565b61a0a7888261a034565b975061a0b28361a063565b92505060018101905061a08b565b5085925050509392505050565b6000604082019050818103600083015261a0e881858761a070565b905061a0f7602083018461899f565b949350505050565b7f455243373231456e756d657261626c653a206f776e657220696e646578206f7560008201527f74206f6620626f756e6473000000000000000000000000000000000000000000602082015250565b600061a15b602b836189d4565b915061a1668261a0ff565b604082019050919050565b6000602082019050818103600083015261a18a8161a14e565b9050919050565b7f6d75737420626520706175736564000000000000000000000000000000000000600082015250565b600061a1c7600e836189d4565b915061a1d28261a191565b602082019050919050565b6000602082019050818103600083015261a1f68161a1ba565b9050919050565b7f7061757365640000000000000000000000000000000000000000000000000000600082015250565b600061a2336006836189d4565b915061a23e8261a1fd565b602082019050919050565b6000602082019050818103600083015261a2628161a226565b9050919050565b7f5a65726f2061646472657373206e6f7420616c6c6f77656420666f72206d696e60008201527f7420726563697069656e74000000000000000000000000000000000000000000602082015250565b600061a2c5602b836189d4565b915061a2d08261a269565b604082019050919050565b6000602082019050818103600083015261a2f48161a2b8565b9050919050565b7f63616c6c6572206973206e6f7420746865206d696e7465720000000000000000600082015250565b600061a3316018836189d4565b915061a33c8261a2fb565b602082019050919050565b6000602082019050818103600083015261a3608161a324565b9050919050565b7f455243373231456e756d657261626c653a20676c6f62616c20696e646578206f60008201527f7574206f6620626f756e64730000000000000000000000000000000000000000602082015250565b600061a3c3602c836189d4565b915061a3ce8261a367565b604082019050919050565b6000602082019050818103600083015261a3f28161a3b6565b9050919050565b7f52657761726420706f6f6c20697320746f6f20736d616c6c0000000000000000600082015250565b600061a42f6018836189d4565b915061a43a8261a3f9565b602082019050919050565b6000602082019050818103600083015261a45e8161a422565b9050919050565b7f496e76616c69642072616e676500000000000000000000000000000000000000600082015250565b600061a49b600d836189d4565b915061a4a68261a465565b602082019050919050565b6000602082019050818103600083015261a4ca8161a48e565b9050919050565b600061a4dc82618a7b565b915061a4e783618a7b565b925082820390508181111561a4ff5761a4fe619e89565b5b92915050565b7f4e65772072616e6765206f7665726c6170732077697468206578697374696e6760008201527f2072616e67650000000000000000000000000000000000000000000000000000602082015250565b600061a5616026836189d4565b915061a56c8261a505565b604082019050919050565b6000602082019050818103600083015261a5908161a554565b9050919050565b7f4552433732313a20696e76616c696420746f6b656e2049440000000000000000600082015250565b600061a5cd6018836189d4565b915061a5d88261a597565b602082019050919050565b6000602082019050818103600083015261a5fc8161a5c0565b9050919050565b7f4552433732313a2061646472657373207a65726f206973206e6f74206120766160008201527f6c6964206f776e65720000000000000000000000000000000000000000000000602082015250565b600061a65f6029836189d4565b915061a66a8261a603565b604082019050919050565b6000602082019050818103600083015261a68e8161a652565b9050919050565b7f4f776e61626c6532537465703a2063616c6c6572206973206e6f74207468652060008201527f6e6577206f776e65720000000000000000000000000000000000000000000000602082015250565b600061a6f16029836189d4565b915061a6fc8261a695565b604082019050919050565b6000602082019050818103600083015261a7208161a6e4565b9050919050565b7f6172726179206c656e6774682073686f756c642062652073616d650000000000600082015250565b600061a75d601b836189d4565b915061a7688261a727565b602082019050919050565b6000602082019050818103600083015261a78c8161a750565b9050919050565b7f6f6e6c792062616e2061646d696e000000000000000000000000000000000000600082015250565b600061a7c9600e836189d4565b915061a7d48261a793565b602082019050919050565b6000602082019050818103600083015261a7f88161a7bc565b9050919050565b6000819050919050565b600061a82461a81f61a81a8461a7ff565b618ea2565b618d8f565b9050919050565b61a8348161a809565b82525050565b600060608201905061a84f6000830186618b10565b61a85c6020830185618ba6565b61a869604083018461a82b565b949350505050565b7f696e76616c696420656e642074696d6500000000000000000000000000000000600082015250565b600061a8a76010836189d4565b915061a8b28261a871565b602082019050919050565b6000602082019050818103600083015261a8d68161a89a565b9050919050565b7f696e76616c696420746f6b656e20696400000000000000000000000000000000600082015250565b600061a9136010836189d4565b915061a91e8261a8dd565b602082019050919050565b6000602082019050818103600083015261a9428161a906565b9050919050565b600060608201905061a95e6000830186618b10565b61a96b6020830185618ba6565b61a9786040830184618da3565b949350505050565b7f496e76616c696420616464726573730000000000000000000000000000000000600082015250565b600061a9b6600f836189d4565b915061a9c18261a980565b602082019050919050565b6000602082019050818103600083015261a9e58161a9a9565b9050919050565b600082905092915050565b60008190508160005260206000209050919050565b60006020601f8301049050919050565b600082821b905092915050565b60006008830261aa597fffffffffffffffffffffffffffffffffffffffffffffffffffffffffffffffff8261aa1c565b61aa63868361aa1c565b95508019841693508086168417925050509392505050565b600061aa9661aa9161aa8c84618a7b565b618ea2565b618a7b565b9050919050565b6000819050919050565b61aab08361aa7b565b61aac461aabc8261aa9d565b84845461aa29565b825550505050565b600090565b61aad961aacc565b61aae481848461aaa7565b505050565b5b8181101561ab085761aafd60008261aad1565b60018101905061aaea565b5050565b601f82111561ab4d5761ab1e8161a9f7565b61ab278461aa0c565b8101602085101561ab36578190505b61ab4a61ab428561aa0c565b83018261aae9565b50505b505050565b600082821c905092915050565b600061ab706000198460080261ab52565b1980831691505092915050565b600061ab89838361ab5f565b9150826002028217905092915050565b61aba3838361a9ec565b67ffffffffffffffff81111561abbc5761abbb6192f8565b5b61abc6825461988a565b61abd182828561ab0c565b6000601f83116001811461ac00576000841561abee578287013590505b61abf8858261ab7d565b86555061ac60565b601f19841661ac0e8661a9f7565b60005b8281101561ac365784890135825560018201915060208501945060208101905061ac11565b8683101561ac53578489013561ac4f601f89168261ab5f565b8355505b6001600288020188555050505b50505050505050565b600061ac7583856189d4565b935061ac828385846193a4565b61ac8b83618a0f565b840190509392505050565b6000602082019050818103600083015261acb181848661ac69565b90509392505050565b600081905092915050565b600061acd0826189c9565b61acda818561acba565b935061acea8185602086016189e5565b80840191505092915050565b600061ad02828561acc5565b915061ad0e828461acc5565b91508190509392505050565b7f43616c6c6572206973206e6f74207265776172644d616e6167657220726f6c65600082015250565b600061ad506020836189d4565b915061ad5b8261ad1a565b602082019050919050565b6000602082019050818103600083015261ad7f8161ad43565b9050919050565b7f476976656e2069647320616e6420616d6f756e747320617272617973206d757360008201527f74206265206f66207468652073616d65206c656e677468000000000000000000602082015250565b600061ade26037836189d4565b915061aded8261ad86565b604082019050919050565b6000602082019050818103600083015261ae118161add5565b9050919050565b7f496e73756666696369656e742066756e647320696e2072657761726420706f6f60008201527f6c20666f7220726577617264546f6b656e496473000000000000000000000000602082015250565b600061ae746034836189d4565b915061ae7f8261ae18565b604082019050919050565b6000602082019050818103600083015261aea38161ae67565b9050919050565b7f455243343930373a2063616c6c6572206973206e6f74206f776e6572206e6f7260008201527f20617070726f7665640000000000000000000000000000000000000000000000602082015250565b600061af066029836189d4565b915061af118261aeaa565b604082019050919050565b6000602082019050818103600083015261af358161aef9565b9050919050565b7f746f6b656e2069732062616e6e65640000000000000000000000000000000000600082015250565b600061af72600f836189d4565b915061af7d8261af3c565b602082019050919050565b6000602082019050818103600083015261afa18161af65565b9050919050565b7f746f6b656e206861732065787069726564000000000000000000000000000000600082015250565b600061afde6011836189d4565b915061afe98261afa8565b602082019050919050565b6000602082019050818103600083015261b00d8161afd1565b9050919050565b7f656e642074696d65206d7573742062652067726561746572207468616e20737460008201527f6172742074696d65000000000000000000000000000000000000000000000000602082015250565b600061b0706028836189d4565b915061b07b8261b014565b604082019050919050565b6000602082019050818103600083015261b09f8161b063565b9050919050565b7f496e76616c696420696e64657800000000000000000000000000000000000000600082015250565b600061b0dc600d836189d4565b915061b0e78261b0a6565b602082019050919050565b6000602082019050818103600083015261b10b8161b0cf565b9050919050565b7f52616e6765206f7665726c61707320776974682070726576696f75732072616e60008201527f6765000000000000000000000000000000000000000000000000000000000000602082015250565b600061b16e6022836189d4565b915061b1798261b112565b604082019050919050565b6000602082019050818103600083015261b19d8161b161565b9050919050565b7f52616e6765206f7665726c6170732077697468206e6578742072616e67650000600082015250565b600061b1da601e836189d4565b915061b1e58261b1a4565b602082019050919050565b6000602082019050818103600083015261b2098161b1cd565b9050919050565b600060808201905061b2256000830187618ba6565b61b2326020830186618ba6565b61b23f6040830185618ba6565b61b24c6060830184618da3565b95945050505050565b7f4e6f20746f6b656e73206f776e65640000000000000000000000000000000000600082015250565b600061b28b600f836189d4565b915061b2968261b255565b602082019050919050565b6000602082019050818103600083015261b2ba8161b27e565b9050919050565b600061b2cc82618a7b565b91507fffffffffffffffffffffffffffffffffffffffffffffffffffffffffffffffff820361b2fe5761b2fd619e89565b5b600182019050919050565b7f546f74616c2072656465656d61626c6520616d6f756e74206d7573742062652060008201527f686967686572207468616e2072656465656d207468726573686f6c6400000000602082015250565b600061b365603c836189d4565b915061b3708261b309565b604082019050919050565b6000602082019050818103600083015261b3948161b358565b9050919050565b7f696e76616c696420636f756e7400000000000000000000000000000000000000600082015250565b600061b3d1600d836189d4565b915061b3dc8261b39b565b602082019050919050565b6000602082019050818103600083015261b4008161b3c4565b9050919050565b7f496e697469616c697a61626c653a20636f6e7472616374206973206e6f74206960008201527f6e697469616c697a696e67000000000000000000000000000000000000000000602082015250565b600061b463602b836189d4565b915061b46e8261b407565b604082019050919050565b6000602082019050818103600083015261b4928161b456565b9050919050565b7f4f776e61626c653a2063616c6c6572206973206e6f7420746865206f776e6572600082015250565b600061b4cf6020836189d4565b915061b4da8261b499565b602082019050919050565b6000602082019050818103600083015261b4fe8161b4c2565b9050919050565b7f4552433732313a207472616e736665722066726f6d20696e636f72726563742060008201527f6f776e6572000000000000000000000000000000000000000000000000000000602082015250565b600061b5616025836189d4565b915061b56c8261b505565b604082019050919050565b6000602082019050818103600083015261b5908161b554565b9050919050565b7f4552433732313a207472616e7366657220746f20746865207a65726f2061646460008201527f7265737300000000000000000000000000000000000000000000000000000000602082015250565b600061b5f36024836189d4565b915061b5fe8261b597565b604082019050919050565b6000602082019050818103600083015261b6228161b5e6565b9050919050565b7f4552433732313a20617070726f766520746f2063616c6c657200000000000000600082015250565b600061b65f6019836189d4565b915061b66a8261b629565b602082019050919050565b6000602082019050818103600083015261b68e8161b652565b9050919050565b7f4552433732313a207472616e7366657220746f206e6f6e20455243373231526560008201527f63656976657220696d706c656d656e7465720000000000000000000000000000602082015250565b600061b6f16032836189d4565b915061b6fc8261b695565b604082019050919050565b6000602082019050818103600083015261b7208161b6e4565b9050919050565b7f4e487b7100000000000000000000000000000000000000000000000000000000600052601260045260246000fd5b61b75f826189c9565b67ffffffffffffffff81111561b7785761b7776192f8565b5b61b782825461988a565b61b78d82828561ab0c565b600060209050601f83116001811461b7c0576000841561b7ae578287015190505b61b7b8858261ab7d565b86555061b820565b601f19841661b7ce8661a9f7565b60005b8281101561b7f65784890151825560018201915060208501945060208101905061b7d1565b8683101561b813578489015161b80f601f89168261ab5f565b8355505b6001600288020188555050505b505050505050565b600060608201905061b83d6000830186618b10565b61b84a6020830185618b10565b61b8576040830184618ba6565b949350505050565b7f4552433732313a206d696e7420746f20746865207a65726f2061646472657373600082015250565b600061b8956020836189d4565b915061b8a08261b85f565b602082019050919050565b6000602082019050818103600083015261b8c48161b888565b9050919050565b7f4552433732313a20746f6b656e20616c7265616479206d696e74656400000000600082015250565b600061b901601c836189d4565b915061b90c8261b8cb565b602082019050919050565b6000602082019050818103600083015261b9308161b8f4565b9050919050565b600060408201905061b94c6000830185618b10565b61b9596020830184618ba6565b9392505050565b600081519050919050565b600082825260208201905092915050565b600061b9878261b960565b61b991818561b96b565b935061b9a18185602086016189e5565b61b9aa81618a0f565b840191505092915050565b600060808201905061b9ca6000830187618b10565b61b9d76020830186618b10565b61b9e46040830185618ba6565b818103606083015261b9f6818461b97c565b905095945050505050565b60008151905061ba108161893a565b92915050565b60006020828403121561ba2c5761ba2b618904565b5b600061ba3a8482850161ba01565b91505092915050565b60008151905061ba5281618d03565b92915050565b60006020828403121561ba6e5761ba6d618904565b5b600061ba7c8482850161ba43565b91505092915050565b7f5361666545524332303a204552433230206f7065726174696f6e20646964206e60008201527f6f74207375636365656400000000000000000000000000000000000000000000602082015250565b600061bae1602a836189d4565b915061baec8261ba85565b604082019050919050565b6000602082019050818103600083015261bb108161bad4565b9050919050565b7f455243373231456e756d657261626c653a20636f6e736563757469766520747260008201527f616e7366657273206e6f7420737570706f727465640000000000000000000000602082015250565b600061bb736035836189d4565b915061bb7e8261bb17565b604082019050919050565b6000602082019050818103600083015261bba28161bb66565b9050919050565b7f6d73672e73656e64657220213d2066726f6d4164647265737300000000000000600082015250565b600061bbdf6019836189d4565b915061bbea8261bba9565b602082019050919050565b6000602082019050818103600083015261bc0e8161bbd2565b9050919050565b7f6e6f7420696e207472616e736665722077686974656c69737400000000000000600082015250565b600061bc4b6019836189d4565b915061bc568261bc15565b602082019050919050565b6000602082019050818103600083015261bc7a8161bc3e565b9050919050565b7f6e6f7420696e2077686974656c697374207472616e736665722074696d65207260008201527f616e676500000000000000000000000000000000000000000000000000000000602082015250565b600061bcdd6024836189d4565b915061bce88261bc81565b604082019050919050565b6000602082019050818103600083015261bd0c8161bcd0565b9050919050565b7f4e487b7100000000000000000000000000000000000000000000000000000000600052603160045260246000fd5b7f416464726573733a20696e73756666696369656e742062616c616e636520666f60008201527f722063616c6c0000000000000000000000000000000000000000000000000000602082015250565b600061bd9e6026836189d4565b915061bda98261bd42565b604082019050919050565b6000602082019050818103600083015261bdcd8161bd91565b9050919050565b600081905092915050565b600061bdea8261b960565b61bdf4818561bdd4565b935061be048185602086016189e5565b80840191505092915050565b600061be1c828461bddf565b915081905092915050565b7f416464726573733a2063616c6c20746f206e6f6e2d636f6e7472616374000000600082015250565b600061be5d601d836189d4565b915061be688261be27565b602082019050919050565b6000602082019050818103600083015261be8c8161be50565b905091905056fe45574d204c696768742d436c69656e7420284358542920436f6e74726f6c6c6572a26469706673582212207384b3de42085ca3cbbd25eee73f24c2332a0e454e0c945b4bfb578792ecb68b64736f6c634300081c0033",
  "linkReferences": {},
  "deployedLinkReferences": {}
}