{
  "_format": "hh-sol-artifact-1",
  "contractName": "EwmNftController",
  "sourceName": "contracts/EwmNftController.sol",
  "abi": [
    {
      "inputs": [],
      "stateMutability": "nonpayable",
      "type": "constructor"
    },
    {
      "anonymous": false,
      "inputs": [
        {
          "indexed": true,
          "internalType": "address",
          "name": "owner",
          "type": "address"
        },
        {
          "indexed": true,
          "internalType": "address",
          "name": "approved",
          "type": "address"
        },
        {
          "indexed": true,
          "internalType": "uint256",
          "name": "tokenId",
          "type": "uint256"
        }
      ],
      "name": "Approval",
      "type": "event"
    },
    {
      "anonymous": false,
      "inputs": [
        {
          "indexed": true,
          "internalType": "address",
          "name": "owner",
          "type": "address"
        },
        {
          "indexed": true,
          "internalType": "address",
          "name": "operator",
          "type": "address"
        },
        {
          "indexed": false,
          "internalType": "bool",
          "name": "approved",
          "type": "bool"
        }
      ],
      "name": "ApprovalForAll",
      "type": "event"
    },
    {
      "anonymous": false,
      "inputs": [
        {
          "indexed": false,
          "internalType": "address",
          "name": "newBanAdmin",
          "type": "address"
        }
      ],
      "name": "EventBanAdminUpdated",
      "type": "event"
    },
    {
      "anonymous": false,
      "inputs": [
        {
          "indexed": false,
          "internalType": "address",
          "name": "tokenOwner",
          "type": "address"
        },
        {
          "indexed": false,
          "internalType": "uint256",
          "name": "tokenId",
          "type": "uint256"
        },
        {
          "indexed": false,
          "internalType": "uint64",
          "name": "banEndTime",
          "type": "uint64"
        }
      ],
      "name": "EventBanUpdated",
      "type": "event"
    },
    {
      "anonymous": false,
      "inputs": [
        {
          "indexed": false,
          "internalType": "string",
          "name": "url_",
          "type": "string"
        }
      ],
      "name": "EventBaseUrlSet",
      "type": "event"
    },
    {
      "anonymous": false,
      "inputs": [
        {
          "indexed": false,
          "internalType": "address",
          "name": "account",
          "type": "address"
        }
      ],
      "name": "EventContractPaused",
      "type": "event"
    },
    {
      "anonymous": false,
      "inputs": [
        {
          "indexed": false,
          "internalType": "address",
          "name": "account",
          "type": "address"
        }
      ],
      "name": "EventContractUnpaused",
      "type": "event"
    },
    {
      "anonymous": false,
      "inputs": [
        {
          "indexed": false,
          "internalType": "uint256",
          "name": "startTokenId",
          "type": "uint256"
        },
        {
          "indexed": false,
          "internalType": "uint256",
          "name": "endTokenId",
          "type": "uint256"
        },
        {
          "indexed": false,
          "internalType": "uint64",
          "name": "expiryTime",
          "type": "uint64"
        }
      ],
      "name": "EventExpiryRangeSet",
      "type": "event"
    },
    {
      "anonymous": false,
      "inputs": [
        {
          "indexed": false,
          "internalType": "uint256",
          "name": "index",
          "type": "uint256"
        },
        {
          "indexed": false,
          "internalType": "uint256",
          "name": "startTokenId",
          "type": "uint256"
        },
        {
          "indexed": false,
          "internalType": "uint256",
          "name": "endTokenId",
          "type": "uint256"
        },
        {
          "indexed": false,
          "internalType": "uint64",
          "name": "expiryTime",
          "type": "uint64"
        }
      ],
      "name": "EventExpiryRangeUpdated",
      "type": "event"
    },
    {
      "anonymous": false,
      "inputs": [
        {
          "indexed": true,
          "internalType": "address",
          "name": "cxt",
          "type": "address"
        },
        {
          "indexed": false,
          "internalType": "address",
          "name": "minterAdminAddress",
          "type": "address"
        },
        {
          "indexed": false,
          "internalType": "address",
          "name": "banAdminAddress",
          "type": "address"
        },
        {
          "indexed": false,
          "internalType": "address",
          "name": "whitelistAdminAddress",
          "type": "address"
        },
        {
          "indexed": false,
          "internalType": "address",
          "name": "rewardManager",
          "type": "address"
        },
        {
          "indexed": false,
          "internalType": "bool",
          "name": "nftTransferable",
          "type": "bool"
        },
        {
          "indexed": false,
          "internalType": "uint256",
          "name": "nextTokenId",
          "type": "uint256"
        },
        {
          "indexed": false,
          "internalType": "bool",
          "name": "unpaused",
          "type": "bool"
        }
      ],
      "name": "EventInitialized",
      "type": "event"
    },
    {
      "anonymous": false,
      "inputs": [
        {
          "indexed": false,
          "internalType": "address",
          "name": "newMinterAdmin",
          "type": "address"
        }
      ],
      "name": "EventMinterAdminUpdated",
      "type": "event"
    },
    {
      "anonymous": false,
      "inputs": [
        {
          "indexed": false,
          "internalType": "bool",
          "name": "transferable",
          "type": "bool"
        }
      ],
      "name": "EventNftTransferableUpdated",
      "type": "event"
    },
    {
      "anonymous": false,
      "inputs": [
        {
          "indexed": true,
          "internalType": "address",
          "name": "operationalManager",
          "type": "address"
        }
      ],
      "name": "EventRewardManagerAddressChanged",
      "type": "event"
    },
    {
      "anonymous": false,
      "inputs": [
        {
          "indexed": false,
          "internalType": "uint256",
          "name": "amount",
          "type": "uint256"
        }
      ],
      "name": "EventRewardTokensDeposited",
      "type": "event"
    },
    {
      "anonymous": false,
      "inputs": [
        {
          "indexed": false,
          "internalType": "uint256",
          "name": "amount",
          "type": "uint256"
        }
      ],
      "name": "EventRewardTokensWithdrawn",
      "type": "event"
    },
    {
      "anonymous": false,
      "inputs": [
        {
          "indexed": true,
          "internalType": "uint256",
          "name": "rewardId",
          "type": "uint256"
        }
      ],
      "name": "EventRewardsDisbursed",
      "type": "event"
    },
    {
      "anonymous": false,
      "inputs": [
        {
          "indexed": true,
          "internalType": "uint256",
          "name": "tokenId",
          "type": "uint256"
        },
        {
          "indexed": false,
          "internalType": "uint256",
          "name": "amount",
          "type": "uint256"
        }
      ],
      "name": "EventRewardsFailedDueNFTExpired",
      "type": "event"
    },
    {
      "anonymous": false,
      "inputs": [
        {
          "indexed": true,
          "internalType": "address",
          "name": "beneficiary",
          "type": "address"
        },
        {
          "indexed": true,
          "internalType": "uint256",
          "name": "amount",
          "type": "uint256"
        }
      ],
      "name": "EventRewardsRedeemed",
      "type": "event"
    },
    {
      "anonymous": false,
      "inputs": [
        {
          "indexed": false,
          "internalType": "address[]",
          "name": "addresses",
          "type": "address[]"
        },
        {
          "indexed": false,
          "internalType": "bool",
          "name": "status",
          "type": "bool"
        }
      ],
      "name": "EventTransferWhiteListUpdated",
      "type": "event"
    },
    {
      "anonymous": false,
      "inputs": [
        {
          "indexed": false,
          "internalType": "address",
          "name": "newWhiteListAdmin",
          "type": "address"
        }
      ],
      "name": "EventWhiteListAdminUpdated",
      "type": "event"
    },
    {
      "anonymous": false,
      "inputs": [
        {
          "indexed": false,
          "internalType": "uint256",
          "name": "startTime",
          "type": "uint256"
        },
        {
          "indexed": false,
          "internalType": "uint256",
          "name": "endTime",
          "type": "uint256"
        }
      ],
      "name": "EventWhitelistTransferTimeUpdated",
      "type": "event"
    },
    {
      "anonymous": false,
      "inputs": [
        {
          "indexed": false,
          "internalType": "uint8",
          "name": "version",
          "type": "uint8"
        }
      ],
      "name": "Initialized",
      "type": "event"
    },
    {
      "anonymous": false,
      "inputs": [
        {
          "indexed": true,
          "internalType": "address",
          "name": "previousOwner",
          "type": "address"
        },
        {
          "indexed": true,
          "internalType": "address",
          "name": "newOwner",
          "type": "address"
        }
      ],
      "name": "OwnershipTransferStarted",
      "type": "event"
    },
    {
      "anonymous": false,
      "inputs": [
        {
          "indexed": true,
          "internalType": "address",
          "name": "previousOwner",
          "type": "address"
        },
        {
          "indexed": true,
          "internalType": "address",
          "name": "newOwner",
          "type": "address"
        }
      ],
      "name": "OwnershipTransferred",
      "type": "event"
    },
    {
      "anonymous": false,
      "inputs": [
        {
          "indexed": true,
          "internalType": "address",
          "name": "from",
          "type": "address"
        },
        {
          "indexed": true,
          "internalType": "address",
          "name": "to",
          "type": "address"
        },
        {
          "indexed": true,
          "internalType": "uint256",
          "name": "tokenId",
          "type": "uint256"
        }
      ],
      "name": "Transfer",
      "type": "event"
    },
    {
      "anonymous": false,
      "inputs": [
        {
          "indexed": true,
          "internalType": "uint256",
          "name": "tokenId",
          "type": "uint256"
        },
        {
          "indexed": true,
          "internalType": "address",
          "name": "user",
          "type": "address"
        },
        {
          "indexed": false,
          "internalType": "uint64",
          "name": "expires",
          "type": "uint64"
        }
      ],
      "name": "UpdateUser",
      "type": "event"
    },
    {
      "inputs": [],
      "name": "REWARD_REDEEM_THRESHOLD",
      "outputs": [
        {
          "internalType": "uint256",
          "name": "",
          "type": "uint256"
        }
      ],
      "stateMutability": "view",
      "type": "function"
    },
    {
      "inputs": [],
      "name": "acceptOwnership",
      "outputs": [],
      "stateMutability": "nonpayable",
      "type": "function"
    },
    {
      "inputs": [
        {
          "internalType": "address",
          "name": "to",
          "type": "address"
        },
        {
          "internalType": "uint256",
          "name": "tokenId",
          "type": "uint256"
        }
      ],
      "name": "approve",
      "outputs": [],
      "stateMutability": "nonpayable",
      "type": "function"
    },
    {
      "inputs": [
        {
          "internalType": "address",
          "name": "owner",
          "type": "address"
        }
      ],
      "name": "balanceOf",
      "outputs": [
        {
          "internalType": "uint256",
          "name": "",
          "type": "uint256"
        }
      ],
      "stateMutability": "view",
      "type": "function"
    },
    {
      "inputs": [
        {
          "internalType": "uint256",
          "name": "tokenId",
          "type": "uint256"
        },
        {
          "internalType": "uint64",
          "name": "endTime",
          "type": "uint64"
        }
      ],
      "name": "ban",
      "outputs": [],
      "stateMutability": "nonpayable",
      "type": "function"
    },
    {
      "inputs": [],
      "name": "banAdminAddress",
      "outputs": [
        {
          "internalType": "address",
          "name": "",
          "type": "address"
        }
      ],
      "stateMutability": "view",
      "type": "function"
    },
    {
      "inputs": [],
      "name": "baseUrl",
      "outputs": [
        {
          "internalType": "string",
          "name": "",
          "type": "string"
        }
      ],
      "stateMutability": "view",
      "type": "function"
    },
    {
      "inputs": [
        {
          "internalType": "uint256[]",
          "name": "tokenIds",
          "type": "uint256[]"
        },
        {
          "internalType": "address[]",
          "name": "users",
          "type": "address[]"
        }
      ],
      "name": "batchSetUser",
      "outputs": [],
      "stateMutability": "nonpayable",
      "type": "function"
    },
    {
      "inputs": [
        {
          "internalType": "address[]",
          "name": "toArray",
          "type": "address[]"
        },
        {
          "internalType": "uint256[]",
          "name": "tokenIdArray",
          "type": "uint256[]"
        }
      ],
      "name": "batchTransfer",
      "outputs": [],
      "stateMutability": "nonpayable",
      "type": "function"
    },
    {
      "inputs": [],
      "name": "cxt",
      "outputs": [
        {
          "internalType": "contract IERC20Upgradeable",
          "name": "",
          "type": "address"
        }
      ],
      "stateMutability": "view",
      "type": "function"
    },
    {
      "inputs": [
        {
          "internalType": "uint256",
          "name": "amount",
          "type": "uint256"
        }
      ],
      "name": "depositRewardTokens",
      "outputs": [],
      "stateMutability": "nonpayable",
      "type": "function"
    },
    {
      "inputs": [
        {
          "internalType": "uint256",
          "name": "",
          "type": "uint256"
        }
      ],
      "name": "expiryRanges",
      "outputs": [
        {
          "internalType": "uint256",
          "name": "startTokenId",
          "type": "uint256"
        },
        {
          "internalType": "uint256",
          "name": "endTokenId",
          "type": "uint256"
        },
        {
          "internalType": "uint64",
          "name": "expiryTime",
          "type": "uint64"
        }
      ],
      "stateMutability": "view",
      "type": "function"
    },
    {
      "inputs": [
        {
          "internalType": "uint256",
          "name": "tokenId",
          "type": "uint256"
        }
      ],
      "name": "getApproved",
      "outputs": [
        {
          "internalType": "address",
          "name": "",
          "type": "address"
        }
      ],
      "stateMutability": "view",
      "type": "function"
    },
    {
      "inputs": [
        {
          "internalType": "uint256",
          "name": "tokenId",
          "type": "uint256"
        }
      ],
      "name": "getBanEndTime",
      "outputs": [
        {
          "internalType": "uint64",
          "name": "",
          "type": "uint64"
        }
      ],
      "stateMutability": "view",
      "type": "function"
    },
    {
      "inputs": [
        {
          "internalType": "uint256",
          "name": "tokenId",
          "type": "uint256"
        }
      ],
      "name": "getBanRecord",
      "outputs": [
        {
          "internalType": "uint64",
          "name": "",
          "type": "uint64"
        }
      ],
      "stateMutability": "view",
      "type": "function"
    },
    {
      "inputs": [],
      "name": "getMetadata",
      "outputs": [
        {
          "internalType": "address",
          "name": "_nftController",
          "type": "address"
        },
        {
          "internalType": "address",
          "name": "_cxt",
          "type": "address"
        },
        {
          "internalType": "address",
          "name": "_minterAdmin",
          "type": "address"
        },
        {
          "internalType": "address",
          "name": "_banAdmin",
          "type": "address"
        },
        {
          "internalType": "address",
          "name": "_whitelistAdmin",
          "type": "address"
        },
        {
          "internalType": "address",
          "name": "_rewardManager",
          "type": "address"
        },
        {
          "internalType": "uint256",
          "name": "_nextTokenId",
          "type": "uint256"
        },
        {
          "internalType": "uint256",
          "name": "_rewardPool",
          "type": "uint256"
        },
        {
          "internalType": "bool",
          "name": "_nftTransferable",
          "type": "bool"
        },
        {
          "internalType": "string",
          "name": "_baseUrl",
          "type": "string"
        },
        {
          "components": [
            {
              "internalType": "uint256",
              "name": "startTokenId",
              "type": "uint256"
            },
            {
              "internalType": "uint256",
              "name": "endTokenId",
              "type": "uint256"
            },
            {
              "internalType": "uint64",
              "name": "expiryTime",
              "type": "uint64"
            }
          ],
          "internalType": "struct EwmNftController.ExpiryRange[]",
          "name": "_expiryRanges",
          "type": "tuple[]"
        }
      ],
      "stateMutability": "view",
      "type": "function"
    },
    {
      "inputs": [
        {
          "internalType": "uint256",
          "name": "tokenId",
          "type": "uint256"
        }
      ],
      "name": "getUserInfo",
      "outputs": [
        {
          "components": [
            {
              "internalType": "address",
              "name": "user",
              "type": "address"
            },
            {
              "internalType": "uint64",
              "name": "expires",
              "type": "uint64"
            },
            {
              "internalType": "uint256",
              "name": "redeemable",
              "type": "uint256"
            }
          ],
          "internalType": "struct EwmNftController.UserInfo",
          "name": "",
          "type": "tuple"
        }
      ],
      "stateMutability": "view",
      "type": "function"
    },
    {
      "inputs": [],
      "name": "getWhitelistTransferTime",
      "outputs": [
        {
          "internalType": "uint256",
          "name": "startTime",
          "type": "uint256"
        },
        {
          "internalType": "uint256",
          "name": "endTime",
          "type": "uint256"
        }
      ],
      "stateMutability": "view",
      "type": "function"
    },
    {
      "inputs": [
        {
          "internalType": "address",
          "name": "addr",
          "type": "address"
        }
      ],
      "name": "inTransferWhitelist",
      "outputs": [
        {
          "internalType": "bool",
          "name": "",
          "type": "bool"
        }
      ],
      "stateMutability": "view",
      "type": "function"
    },
    {
      "inputs": [
        {
          "internalType": "address",
          "name": "_cxt",
          "type": "address"
        },
        {
          "internalType": "address",
          "name": "minterAdmin",
          "type": "address"
        },
        {
          "internalType": "address",
          "name": "banAdmin",
          "type": "address"
        },
        {
          "internalType": "address",
          "name": "whitelistAdmin",
          "type": "address"
        },
        {
          "internalType": "address",
          "name": "rewardAdmin",
          "type": "address"
        }
      ],
      "name": "initialize",
      "outputs": [],
      "stateMutability": "nonpayable",
      "type": "function"
    },
    {
      "inputs": [
        {
          "internalType": "address",
          "name": "owner",
          "type": "address"
        },
        {
          "internalType": "address",
          "name": "operator",
          "type": "address"
        }
      ],
      "name": "isApprovedForAll",
      "outputs": [
        {
          "internalType": "bool",
          "name": "",
          "type": "bool"
        }
      ],
      "stateMutability": "view",
      "type": "function"
    },
    {
      "inputs": [
        {
          "internalType": "uint256",
          "name": "tokenId",
          "type": "uint256"
        }
      ],
      "name": "isBanned",
      "outputs": [
        {
          "internalType": "bool",
          "name": "",
          "type": "bool"
        }
      ],
      "stateMutability": "view",
      "type": "function"
    },
    {
      "inputs": [
        {
          "internalType": "address",
          "name": "to",
          "type": "address"
        },
        {
          "internalType": "uint256",
          "name": "amount",
          "type": "uint256"
        }
      ],
      "name": "mint",
      "outputs": [],
      "stateMutability": "nonpayable",
      "type": "function"
    },
    {
      "inputs": [],
      "name": "minterAdminAddress",
      "outputs": [
        {
          "internalType": "address",
          "name": "",
          "type": "address"
        }
      ],
      "stateMutability": "view",
      "type": "function"
    },
    {
      "inputs": [],
      "name": "name",
      "outputs": [
        {
          "internalType": "string",
          "name": "",
          "type": "string"
        }
      ],
      "stateMutability": "view",
      "type": "function"
    },
    {
      "inputs": [],
      "name": "nextTokenId",
      "outputs": [
        {
          "internalType": "uint256",
          "name": "",
          "type": "uint256"
        }
      ],
      "stateMutability": "view",
      "type": "function"
    },
    {
      "inputs": [],
      "name": "nftTransferable",
      "outputs": [
        {
          "internalType": "bool",
          "name": "",
          "type": "bool"
        }
      ],
      "stateMutability": "view",
      "type": "function"
    },
    {
      "inputs": [],
      "name": "owner",
      "outputs": [
        {
          "internalType": "address",
          "name": "",
          "type": "address"
        }
      ],
      "stateMutability": "view",
      "type": "function"
    },
    {
      "inputs": [
        {
          "internalType": "uint256",
          "name": "tokenId",
          "type": "uint256"
        }
      ],
      "name": "ownerOf",
      "outputs": [
        {
          "internalType": "address",
          "name": "",
          "type": "address"
        }
      ],
      "stateMutability": "view",
      "type": "function"
    },
    {
      "inputs": [],
      "name": "pause",
      "outputs": [],
      "stateMutability": "nonpayable",
      "type": "function"
    },
    {
      "inputs": [],
      "name": "paused",
      "outputs": [
        {
          "internalType": "bool",
          "name": "",
          "type": "bool"
        }
      ],
      "stateMutability": "view",
      "type": "function"
    },
    {
      "inputs": [],
      "name": "pendingOwner",
      "outputs": [
        {
          "internalType": "address",
          "name": "",
          "type": "address"
        }
      ],
      "stateMutability": "view",
      "type": "function"
    },
    {
      "inputs": [],
      "name": "redeemRewards",
      "outputs": [],
      "stateMutability": "nonpayable",
      "type": "function"
    },
    {
      "inputs": [],
      "name": "renounceOwnership",
      "outputs": [],
      "stateMutability": "nonpayable",
      "type": "function"
    },
    {
      "inputs": [],
      "name": "rewardManager",
      "outputs": [
        {
          "internalType": "address",
          "name": "",
          "type": "address"
        }
      ],
      "stateMutability": "view",
      "type": "function"
    },
    {
      "inputs": [],
      "name": "rewardPool",
      "outputs": [
        {
          "internalType": "uint256",
          "name": "",
          "type": "uint256"
        }
      ],
      "stateMutability": "view",
      "type": "function"
    },
    {
      "inputs": [
        {
          "internalType": "uint256[]",
          "name": "ids",
          "type": "uint256[]"
        },
        {
          "internalType": "uint256[]",
          "name": "amounts",
          "type": "uint256[]"
        }
      ],
      "name": "rewardTokenIds",
      "outputs": [],
      "stateMutability": "nonpayable",
      "type": "function"
    },
    {
      "inputs": [
        {
          "internalType": "address",
          "name": "from",
          "type": "address"
        },
        {
          "internalType": "address",
          "name": "to",
          "type": "address"
        },
        {
          "internalType": "uint256",
          "name": "tokenId",
          "type": "uint256"
        }
      ],
      "name": "safeTransferFrom",
      "outputs": [],
      "stateMutability": "nonpayable",
      "type": "function"
    },
    {
      "inputs": [
        {
          "internalType": "address",
          "name": "from",
          "type": "address"
        },
        {
          "internalType": "address",
          "name": "to",
          "type": "address"
        },
        {
          "internalType": "uint256",
          "name": "tokenId",
          "type": "uint256"
        },
        {
          "internalType": "bytes",
          "name": "data",
          "type": "bytes"
        }
      ],
      "name": "safeTransferFrom",
      "outputs": [],
      "stateMutability": "nonpayable",
      "type": "function"
    },
    {
      "inputs": [
        {
          "internalType": "address",
          "name": "operator",
          "type": "address"
        },
        {
          "internalType": "bool",
          "name": "approved",
          "type": "bool"
        }
      ],
      "name": "setApprovalForAll",
      "outputs": [],
      "stateMutability": "nonpayable",
      "type": "function"
    },
    {
      "inputs": [
        {
          "internalType": "string",
          "name": "url_",
          "type": "string"
        }
      ],
      "name": "setBaseUrl",
      "outputs": [],
      "stateMutability": "nonpayable",
      "type": "function"
    },
    {
      "inputs": [
        {
          "internalType": "uint256",
          "name": "startId",
          "type": "uint256"
        },
        {
          "internalType": "uint256",
          "name": "endId",
          "type": "uint256"
        },
        {
          "internalType": "uint64",
          "name": "expiryTime",
          "type": "uint64"
        }
      ],
      "name": "setExpiryRange",
      "outputs": [],
      "stateMutability": "nonpayable",
      "type": "function"
    },
    {
      "inputs": [
        {
          "internalType": "uint256",
          "name": "tokenId",
          "type": "uint256"
        },
        {
          "internalType": "address",
          "name": "user",
          "type": "address"
        }
      ],
      "name": "setUser",
      "outputs": [],
      "stateMutability": "nonpayable",
      "type": "function"
    },
    {
      "inputs": [
        {
          "internalType": "bytes4",
          "name": "interfaceId",
          "type": "bytes4"
        }
      ],
      "name": "supportsInterface",
      "outputs": [
        {
          "internalType": "bool",
          "name": "",
          "type": "bool"
        }
      ],
      "stateMutability": "view",
      "type": "function"
    },
    {
      "inputs": [],
      "name": "symbol",
      "outputs": [
        {
          "internalType": "string",
          "name": "",
          "type": "string"
        }
      ],
      "stateMutability": "view",
      "type": "function"
    },
    {
      "inputs": [
        {
          "internalType": "uint256",
          "name": "amount",
          "type": "uint256"
        }
      ],
      "name": "takeOutRewardTokens",
      "outputs": [],
      "stateMutability": "nonpayable",
      "type": "function"
    },
    {
      "inputs": [
        {
          "internalType": "uint256",
          "name": "index",
          "type": "uint256"
        }
      ],
      "name": "tokenByIndex",
      "outputs": [
        {
          "internalType": "uint256",
          "name": "",
          "type": "uint256"
        }
      ],
      "stateMutability": "view",
      "type": "function"
    },
    {
      "inputs": [
        {
          "internalType": "address",
          "name": "user",
          "type": "address"
        },
        {
          "internalType": "uint256",
          "name": "amount",
          "type": "uint256"
        }
      ],
      "name": "tokenIdsOfOwnerByAmount",
      "outputs": [
        {
          "internalType": "uint256[]",
          "name": "tokenIds",
          "type": "uint256[]"
        }
      ],
      "stateMutability": "view",
      "type": "function"
    },
    {
      "inputs": [
        {
          "internalType": "address",
          "name": "owner",
          "type": "address"
        },
        {
          "internalType": "uint256",
          "name": "index",
          "type": "uint256"
        }
      ],
      "name": "tokenOfOwnerByIndex",
      "outputs": [
        {
          "internalType": "uint256",
          "name": "",
          "type": "uint256"
        }
      ],
      "stateMutability": "view",
      "type": "function"
    },
    {
      "inputs": [
        {
          "internalType": "uint256",
          "name": "tokenId",
          "type": "uint256"
        }
      ],
      "name": "tokenURI",
      "outputs": [
        {
          "internalType": "string",
          "name": "",
          "type": "string"
        }
      ],
      "stateMutability": "view",
      "type": "function"
    },
    {
      "inputs": [],
      "name": "totalSupply",
      "outputs": [
        {
          "internalType": "uint256",
          "name": "",
          "type": "uint256"
        }
      ],
      "stateMutability": "view",
      "type": "function"
    },
    {
      "inputs": [
        {
          "internalType": "address",
          "name": "from",
          "type": "address"
        },
        {
          "internalType": "address",
          "name": "to",
          "type": "address"
        },
        {
          "internalType": "uint256",
          "name": "tokenId",
          "type": "uint256"
        }
      ],
      "name": "transferFrom",
      "outputs": [],
      "stateMutability": "nonpayable",
      "type": "function"
    },
    {
      "inputs": [
        {
          "internalType": "address",
          "name": "newOwner",
          "type": "address"
        }
      ],
      "name": "transferOwnership",
      "outputs": [],
      "stateMutability": "nonpayable",
      "type": "function"
    },
    {
      "inputs": [
        {
          "internalType": "uint256",
          "name": "tokenId",
          "type": "uint256"
        }
      ],
      "name": "unBan",
      "outputs": [],
      "stateMutability": "nonpayable",
      "type": "function"
    },
    {
      "inputs": [],
      "name": "unpause",
      "outputs": [],
      "stateMutability": "nonpayable",
      "type": "function"
    },
    {
      "inputs": [
        {
          "internalType": "address",
          "name": "banAdmin",
          "type": "address"
        }
      ],
      "name": "updateBanAdmin",
      "outputs": [],
      "stateMutability": "nonpayable",
      "type": "function"
    },
    {
      "inputs": [
        {
          "internalType": "uint256",
          "name": "index",
          "type": "uint256"
        },
        {
          "internalType": "uint256",
          "name": "startId",
          "type": "uint256"
        },
        {
          "internalType": "uint256",
          "name": "endId",
          "type": "uint256"
        },
        {
          "internalType": "uint64",
          "name": "expiryTime",
          "type": "uint64"
        }
      ],
      "name": "updateExpiryRange",
      "outputs": [],
      "stateMutability": "nonpayable",
      "type": "function"
    },
    {
      "inputs": [
        {
          "internalType": "address",
          "name": "minter",
          "type": "address"
        }
      ],
      "name": "updateMinterAdmin",
      "outputs": [],
      "stateMutability": "nonpayable",
      "type": "function"
    },
    {
      "inputs": [
        {
          "internalType": "bool",
          "name": "transferable",
          "type": "bool"
        }
      ],
      "name": "updateNftTransferable",
      "outputs": [],
      "stateMutability": "nonpayable",
      "type": "function"
    },
    {
      "inputs": [
        {
          "internalType": "address",
          "name": "rewardAdmin",
          "type": "address"
        }
      ],
      "name": "updateRewardAdmin",
      "outputs": [],
      "stateMutability": "nonpayable",
      "type": "function"
    },
    {
      "inputs": [
        {
          "internalType": "address[]",
          "name": "addressList",
          "type": "address[]"
        },
        {
          "internalType": "bool",
          "name": "inWhitelist",
          "type": "bool"
        }
      ],
      "name": "updateTransferWhiteList",
      "outputs": [],
      "stateMutability": "nonpayable",
      "type": "function"
    },
    {
      "inputs": [
        {
          "internalType": "address",
          "name": "whitelistAdmin",
          "type": "address"
        }
      ],
      "name": "updateWhitelistAdmin",
      "outputs": [],
      "stateMutability": "nonpayable",
      "type": "function"
    },
    {
      "inputs": [
        {
          "internalType": "uint256",
          "name": "startTime",
          "type": "uint256"
        },
        {
          "internalType": "uint256",
          "name": "endTime",
          "type": "uint256"
        }
      ],
      "name": "updateWhitelistTransferTime",
      "outputs": [],
      "stateMutability": "nonpayable",
      "type": "function"
    },
    {
      "inputs": [
        {
          "internalType": "uint256",
          "name": "tokenId",
          "type": "uint256"
        }
      ],
      "name": "userExpires",
      "outputs": [
        {
          "internalType": "uint64",
          "name": "",
          "type": "uint64"
        }
      ],
      "stateMutability": "view",
      "type": "function"
    },
    {
      "inputs": [
        {
          "internalType": "uint256",
          "name": "tokenId",
          "type": "uint256"
        }
      ],
      "name": "userOf",
      "outputs": [
        {
          "internalType": "address",
          "name": "",
          "type": "address"
        }
      ],
      "stateMutability": "view",
      "type": "function"
    },
    {
      "inputs": [
        {
          "internalType": "uint256",
          "name": "tokenId",
          "type": "uint256"
        }
      ],
      "name": "userReedemable",
      "outputs": [
        {
          "internalType": "uint256",
          "name": "",
          "type": "uint256"
        }
      ],
      "stateMutability": "view",
      "type": "function"
    },
    {
      "inputs": [],
      "name": "whitelistAdminAddress",
      "outputs": [
        {
          "internalType": "address",
          "name": "",
          "type": "address"
        }
      ],
      "stateMutability": "view",
      "type": "function"
    }
  ],
  "bytecode": "0x608060405234801561001057600080fd5b5061002b67d8ea559b8b89a0af60c01b61007260201b60201c565b61004567f333dd9d6358fb4160c01b61007260201b60201c565b61005f67c66c8e346d90189c60c01b61007260201b60201c565b61006d61007560201b60201c565b61020f565b50565b600060019054906101000a900460ff16156100c5576040517f08c379a00000000000000000000000000000000000000000000000000000000081526004016100bc906101b8565b60405180910390fd5b60ff801660008054906101000a900460ff1660ff16146101335760ff6000806101000a81548160ff021916908360ff1602179055507f7f26b83ff96e1f2b6a682f133852f6798a09c465da95921460cefb384740249860ff60405161012a91906101f4565b60405180910390a15b565b600082825260208201905092915050565b7f496e697469616c697a61626c653a20636f6e747261637420697320696e69746960008201527f616c697a696e6700000000000000000000000000000000000000000000000000602082015250565b60006101a2602783610135565b91506101ad82610146565b604082019050919050565b600060208201905081810360008301526101d181610195565b9050919050565b600060ff82169050919050565b6101ee816101d8565b82525050565b600060208201905061020960008301846101e5565b92915050565b61bcd48061021e6000396000f3fe608060405234801561001057600080fd5b50600436106103015760003560e01c806301ffc9a71461030657806306fdde0314610336578063081812fc14610354578063095ea7b31461038457806309991223146103a05780630f4ef8a6146103be5780631459457a146103dc57806316c621e0146103f857806318160ddd1461041457806323b872dd146104325780632964bf8f1461044e5780632f745c591461046a578063370a94a11461049a5780633b569c50146104ca5780633f4ba83a146104e657806340c10f19146104f057806342842e0e1461050c578063439531fd146105285780634bc2e86e146105445780634f6ccce71461056357806350389342146105935780635bcabf04146105af5780635c975abb146105cd5780635f30bb86146105eb57806362380ddd146106075780636352211e14610625578063661183371461065557806366666aa91461067357806370a0823114610691578063715018a6146106c157806374e0d95b146106cb57806375794a3c146106fd57806379ba50971461071b5780637a5b4f59146107255780638456cb591461074d57806388d695b21461075757806388e13e1914610773578063890d37411461078f5780638ba4975a146107ab5780638da5cb5b146107c75780638fc88c48146107e557806395d89b4114610815578063a22cb46514610833578063a5d923af1461084f578063b2f681bb1461087f578063b88d4fde1461089b578063c2f1f14a146108b7578063c57a9c56146108e7578063c7c3268b14610917578063c87b56dd14610933578063d379dadf14610963578063d5e5627914610993578063d83e9dac146109af578063db4d295b146109cd578063db853f68146109e9578063e30c397814610a05578063e71a9db914610a23578063e97ae88414610a3f578063e985e9c514610a5b578063ea5a46f714610a8b578063ef24f8ff14610abb578063f0fc4ec114610ad9578063f17d679714610ae3578063f238d1b314610b01578063f2fde38b14610b31578063f7a969be14610b4d578063fb8dd96714610b7d575b600080fd5b610320600480360381019061031b9190618750565b610b99565b60405161032d9190618798565b60405180910390f35b61033e610c86565b60405161034b9190618843565b60405180910390f35b61036e6004803603810190610369919061889b565b610d18565b60405161037b9190618909565b60405180910390f35b61039e60048036038101906103999190618950565b610d5e565b005b6103a8610e75565b6040516103b5919061899f565b60405180910390f35b6103c6610e7d565b6040516103d39190618909565b60405180910390f35b6103f660048036038101906103f191906189ba565b610ea4565b005b610412600480360381019061040d919061889b565b611804565b005b61041c61199d565b604051610429919061899f565b60405180910390f35b61044c60048036038101906104479190618a35565b6119aa565b005b61046860048036038101906104639190618b19565b611a0a565b005b610484600480360381019061047f9190618950565b611c8e565b604051610491919061899f565b60405180910390f35b6104b460048036038101906104af919061889b565b611d33565b6040516104c19190618b9c565b60405180910390f35b6104e460048036038101906104df9190618bb7565b611da1565b005b6104ee611ec0565b005b61050a60048036038101906105059190618950565b61203d565b005b61052660048036038101906105219190618a35565b6123cc565b005b610542600480360381019061053d9190618bb7565b6123ec565b005b61054c61250b565b60405161055a929190618be4565b60405180910390f35b61057d6004803603810190610578919061889b565b61255a565b60405161058a919061899f565b60405180910390f35b6105ad60048036038101906105a8919061889b565b6125cb565b005b6105b7612805565b6040516105c49190618843565b60405180910390f35b6105d5612894565b6040516105e29190618798565b60405180910390f35b61060560048036038101906106009190618c39565b6128e9565b005b61060f612c43565b60405161061c9190618909565b60405180910390f35b61063f600480360381019061063a919061889b565b612c6a565b60405161064c9190618909565b60405180910390f35b61065d612cf0565b60405161066a9190618ceb565b60405180910390f35b61067b612d17565b604051610688919061899f565b60405180910390f35b6106ab60048036038101906106a69190618bb7565b612d1e565b6040516106b8919061899f565b60405180910390f35b6106c9612dd5565b005b6106e560048036038101906106e0919061889b565b612de9565b6040516106f493929190618d06565b60405180910390f35b610705612e38565b604051610712919061899f565b60405180910390f35b610723612e3f565b005b61072d612ecc565b6040516107449b9a99989796959493929190618e4c565b60405180910390f35b61075561313b565b005b610771600480360381019061076c9190618f5b565b613306565b005b61078d6004803603810190610788919061889b565b61355f565b005b6107a960048036038101906107a49190618fdc565b613763565b005b6107c560048036038101906107c0919061901c565b613a9a565b005b6107cf613c02565b6040516107dc9190618909565b60405180910390f35b6107ff60048036038101906107fa919061889b565b613c2c565b60405161080c9190618b9c565b60405180910390f35b61081d613dd6565b60405161082a9190618843565b60405180910390f35b61084d6004803603810190610848919061909d565b613e68565b005b6108696004803603810190610864919061889b565b613e7e565b6040516108769190618b9c565b60405180910390f35b61089960048036038101906108949190618bb7565b613eec565b005b6108b560048036038101906108b0919061920d565b6140b3565b005b6108d160048036038101906108cc919061889b565b614115565b6040516108de9190618909565b60405180910390f35b61090160048036038101906108fc919061889b565b614250565b60405161090e9190618798565b60405180910390f35b610931600480360381019061092c91906192e6565b6142ca565b005b61094d6004803603810190610948919061889b565b614399565b60405161095a9190618843565b60405180910390f35b61097d6004803603810190610978919061889b565b614401565b60405161098a9190619384565b60405180910390f35b6109ad60048036038101906109a8919061939f565b6144fd565b005b6109b7614cc8565b6040516109c49190618798565b60405180910390f35b6109e760048036038101906109e29190619420565b614cdc565b005b610a0360048036038101906109fe9190618bb7565b615021565b005b610a0d615140565b604051610a1a9190618909565b60405180910390f35b610a3d6004803603810190610a389190619460565b61516a565b005b610a596004803603810190610a5491906194a0565b615464565b005b610a756004803603810190610a709190619507565b615937565b604051610a829190618798565b60405180910390f35b610aa56004803603810190610aa0919061889b565b6159cb565b604051610ab2919061899f565b60405180910390f35b610ac3615a28565b604051610ad09190618909565b60405180910390f35b610ae1615a4f565b005b610aeb615f0d565b604051610af89190618909565b60405180910390f35b610b1b6004803603810190610b169190618bb7565b615f34565b604051610b289190618798565b60405180910390f35b610b4b6004803603810190610b469190618bb7565b615fc7565b005b610b676004803603810190610b629190618950565b616074565b604051610b7491906195f6565b60405180910390f35b610b976004803603810190610b929190619618565b6162f6565b005b6000610baf67863cd580096e2a1d60c01b6163cb565b610bc36766c496116082953b60c01b6163cb565b610bd76704c0b7945038cb3760c01b6163cb565b7f96745459000000000000000000000000000000000000000000000000000000007bffffffffffffffffffffffffffffffffffffffffffffffffffffffff1916827bffffffffffffffffffffffffffffffffffffffffffffffffffffffff1916148015610c545750610c5367afec6c5ca772548060c01b6163ce565b5b80610c7f5750610c63826163d9565b8015610c7e5750610c7d66ab3a6e39f156d060c01b6163ce565b5b5b9050919050565b606060c98054610c9590619674565b80601f0160208091040260200160405190810160405280929190818152602001828054610cc190619674565b8015610d0e5780601f10610ce357610100808354040283529160200191610d0e565b820191906000526020600020905b815481529060010190602001808311610cf157829003601f168201915b5050505050905090565b6000610d2382616453565b60cd600083815260200190815260200160002060009054906101000a900473ffffffffffffffffffffffffffffffffffffffff169050919050565b6000610d6982612c6a565b90508073ffffffffffffffffffffffffffffffffffffffff168373ffffffffffffffffffffffffffffffffffffffff1603610dd9576040517f08c379a0000000000000000000000000000000000000000000000000000000008152600401610dd090619717565b60405180910390fd5b8073ffffffffffffffffffffffffffffffffffffffff16610df861649e565b73ffffffffffffffffffffffffffffffffffffffff161480610e275750610e2681610e2161649e565b615937565b5b610e66576040517f08c379a0000000000000000000000000000000000000000000000000000000008152600401610e5d906197a9565b60405180910390fd5b610e7083836164a6565b505050565b6305f5e10081565b61013960009054906101000a900473ffffffffffffffffffffffffffffffffffffffff1681565b610eb867c2748754538676a460c01b6163cb565b60008060019054906101000a900460ff16159050808015610ee95750600160008054906101000a900460ff1660ff16105b80610f165750610ef83061655f565b158015610f155750600160008054906101000a900460ff1660ff16145b5b610f55576040517f08c379a0000000000000000000000000000000000000000000000000000000008152600401610f4c9061983b565b60405180910390fd5b60016000806101000a81548160ff021916908360ff1602179055508015610f92576001600060016101000a81548160ff0219169083151502179055505b610fa667df3b4e8fdea13eee60c01b6163cb565b610fba67cfb2e23b3472cda860c01b6163cb565b610fce6775c00c0ab915819360c01b6163cb565b610fe2677f05f3528b25b22a60c01b6163cb565b610ff667943784b822b7d30560c01b6163cb565b600073ffffffffffffffffffffffffffffffffffffffff168673ffffffffffffffffffffffffffffffffffffffff1603611065576040517f08c379a000000000000000000000000000000000000000000000000000000000815260040161105c906198cd565b60405180910390fd5b611079678758d414776c75cf60c01b6163cb565b61108d67345a18de93b8714d60c01b6163cb565b6110a16778934153a59c246060c01b6163cb565b6110b5673ed7ed69092d554960c01b6163cb565b600073ffffffffffffffffffffffffffffffffffffffff168573ffffffffffffffffffffffffffffffffffffffff1603611124576040517f08c379a000000000000000000000000000000000000000000000000000000000815260040161111b9061995f565b60405180910390fd5b61113867c8bbb02e2a081ab160c01b6163cb565b61114c6785967f05fdf04e7860c01b6163cb565b6111606783852cd6e0883a3060c01b6163cb565b611174674b66b1a9c1e64cd660c01b6163cb565b600073ffffffffffffffffffffffffffffffffffffffff168473ffffffffffffffffffffffffffffffffffffffff16036111e3576040517f08c379a00000000000000000000000000000000000000000000000000000000081526004016111da906199f1565b60405180910390fd5b6111f7670d9e16c977a83d0060c01b6163cb565b61120b6725547f8edecf23ea60c01b6163cb565b61121f677a18a62f507149b460c01b6163cb565b61123367543c94250f7eaa2160c01b6163cb565b600073ffffffffffffffffffffffffffffffffffffffff168373ffffffffffffffffffffffffffffffffffffffff16036112a2576040517f08c379a000000000000000000000000000000000000000000000000000000000815260040161129990619a83565b60405180910390fd5b6112b66716294cfde16a38a360c01b6163cb565b6112ca6782edef3e639532e960c01b6163cb565b6112de675b5ddbf33538c23460c01b6163cb565b6112f26769ec4f296932ad2660c01b6163cb565b600073ffffffffffffffffffffffffffffffffffffffff168273ffffffffffffffffffffffffffffffffffffffff1603611361576040517f08c379a000000000000000000000000000000000000000000000000000000000815260040161135890619b15565b60405180910390fd5b611375676d2836d3bd830b2360c01b6163cb565b6113896703ce705c44993b2860c01b6163cb565b61139d6766b91cd4a03633cc60c01b6163cb565b6113f460405180606001604052806021815260200161bc7e602191396040518060400160405280600681526020017f45574d4c43430000000000000000000000000000000000000000000000000000815250616582565b61140867f03e2ca27e75245d60c01b6163cb565b61141c67980179a36d8f730260c01b6163cb565b6114246165df565b611438675a24eabff29d4a7360c01b6163cb565b8561013260016101000a81548173ffffffffffffffffffffffffffffffffffffffff021916908373ffffffffffffffffffffffffffffffffffffffff16021790555061148e67e01b00c5c22f8a9b60c01b6163cb565b8461013460006101000a81548173ffffffffffffffffffffffffffffffffffffffff021916908373ffffffffffffffffffffffffffffffffffffffff1602179055506114e46737923c97e639b31260c01b6163cb565b8361013560006101000a81548173ffffffffffffffffffffffffffffffffffffffff021916908373ffffffffffffffffffffffffffffffffffffffff16021790555061153a673a41514e6246605e60c01b6163cb565b8261013660006101000a81548173ffffffffffffffffffffffffffffffffffffffff021916908373ffffffffffffffffffffffffffffffffffffffff16021790555061159067f6a04fe52ec4e71f60c01b6163cb565b8161013960006101000a81548173ffffffffffffffffffffffffffffffffffffffff021916908373ffffffffffffffffffffffffffffffffffffffff1602179055506115e667df748a2ffcc9f71660c01b6163cb565b600061013b60006101000a81548160ff02191690831515021790555061161667cf41dcfa15415e4360c01b6163cb565b6001610137819055506116336773515c7ae589f17d60c01b6163cb565b600161013260006101000a81548160ff0219169083151502179055506116636738da599cfaf580b760c01b6163cb565b61167767e8af95c5b0baf97860c01b6163cb565b61013260019054906101000a900473ffffffffffffffffffffffffffffffffffffffff1673ffffffffffffffffffffffffffffffffffffffff167f4df71465b56cffa9dbb08484830fe2e021870534999bf7487b48040c3b72347861013460009054906101000a900473ffffffffffffffffffffffffffffffffffffffff1661013560009054906101000a900473ffffffffffffffffffffffffffffffffffffffff1661013660009054906101000a900473ffffffffffffffffffffffffffffffffffffffff1661013960009054906101000a900473ffffffffffffffffffffffffffffffffffffffff1661013b60009054906101000a900460ff166101375461013260009054906101000a900460ff1660405161179b9796959493929190619b35565b60405180910390a280156117fc5760008060016101000a81548160ff0219169083151502179055507f7f26b83ff96e1f2b6a682f133852f6798a09c465da95921460cefb384740249860016040516117f39190619bec565b60405180910390a15b505050505050565b611818672e55c6b3fea4531b60c01b6163cb565b611820616638565b61183467b4d4e9469120ae8960c01b6163cb565b6118486765d55afd420b6af260c01b6163cb565b61185c67094ee54f557e33ea60c01b6163cb565b611870674ac73ec8a13b61d560c01b6163cb565b61188467f752c333af95eb5260c01b6163cb565b600081116118c7576040517f08c379a00000000000000000000000000000000000000000000000000000000081526004016118be90619c53565b60405180910390fd5b6118db67baaf7f44323a1a7560c01b6163cb565b6118ef672217fceb81b29f0160c01b6163cb565b8061013860008282546119029190619ca2565b9250508190555061191d676af2980222358fa160c01b6163cb565b61193167a98048d5d972ef0360c01b6163cb565b61193b33826166b6565b61194f679ea7af48740bccda60c01b6163cb565b6119636761eadd2fd4ca211360c01b6163cb565b7f91a57a4636b67d30f72cb4f8b3c8a61ff9d009a10d2a6e05758b112d9faf690281604051611992919061899f565b60405180910390a150565b600060fd80549050905090565b6119bb6119b561649e565b82616746565b6119fa576040517f08c379a00000000000000000000000000000000000000000000000000000000081526004016119f190619d48565b60405180910390fd5b611a058383836167db565b505050565b611a1e67a5d82cb1fdeef08c60c01b6163cb565b611a3267d03886f54253e9be60c01b6163cb565b611a46676ffbf0955118e69860c01b6163cb565b611a5a6775fe47cb512ea4d560c01b6163cb565b611a6e670c6f87e749291b0760c01b6163cb565b61013660009054906101000a900473ffffffffffffffffffffffffffffffffffffffff1673ffffffffffffffffffffffffffffffffffffffff163373ffffffffffffffffffffffffffffffffffffffff1614611aff576040517f08c379a0000000000000000000000000000000000000000000000000000000008152600401611af690619db4565b60405180910390fd5b611b1367e9d9c77f8742c58260c01b6163cb565b611b2767f7011c108551228060c01b6163cb565b611b3b67b29db0add20a136560c01b6163cb565b611b4f672a75d5382698335d60c01b6163cb565b611b6367624d4b8dae0d288360c01b6163cb565b611b776725287a358182179360c01b6163cb565b60005b83839050811015611c2557611b9967d1399797c79d5f2360c01b6163cb565b8161012f6000868685818110611bb257611bb1619dd4565b5b9050602002016020810190611bc79190618bb7565b73ffffffffffffffffffffffffffffffffffffffff1673ffffffffffffffffffffffffffffffffffffffff16815260200190815260200160002060006101000a81548160ff0219169083151502179055508080600101915050611b7a565b50611c3a67e952ef8ef7b770dc60c01b6163cb565b611c4e679ac28aec05922ada60c01b6163cb565b7f7c2e06347b474567b9ff2e11576fd1dd1b011b3de3b828b0cc332c34b344a0ea838383604051611c8193929190619eb7565b60405180910390a1505050565b6000611c9983612d1e565b8210611cda576040517f08c379a0000000000000000000000000000000000000000000000000000000008152600401611cd190619f5b565b60405180910390fd5b60fb60008473ffffffffffffffffffffffffffffffffffffffff1673ffffffffffffffffffffffffffffffffffffffff168152602001908152602001600020600083815260200190815260200160002054905092915050565b6000611d4967873168c6b983f60060c01b6163cb565b611d5d67fc9e1166b620acc460c01b6163cb565b611d7167b140fe32f3ee652760c01b6163cb565b61012e600083815260200190815260200160002060009054906101000a900467ffffffffffffffff169050919050565b611db567f323d0b4d6ff723d60c01b6163cb565b611dbd616638565b611dd1676c1626f1e389ac0860c01b6163cb565b611de567ccccad26625657c860c01b6163cb565b611df967d83a9b1bb4d5b90360c01b6163cb565b8061013560006101000a81548173ffffffffffffffffffffffffffffffffffffffff021916908373ffffffffffffffffffffffffffffffffffffffff160217905550611e4f67dafecba33d15517060c01b6163cb565b611e6367380cc33e94c85be360c01b6163cb565b7f374a82144f5ee2389289f2b9201f2124ed2f16b28841728fa8728e085f90a7ec61013560009054906101000a900473ffffffffffffffffffffffffffffffffffffffff16604051611eb59190618909565b60405180910390a150565b611ed46750f35182a9893cb360c01b6163cb565b611edc616638565b611ef067979143253a84ebee60c01b6163cb565b611f0467fb87c59b17f8548360c01b6163cb565b611f1867dd0028df8bde06b360c01b6163cb565b611f2c67fb0bbaba5b1e6a1760c01b6163cb565b611f40671807589bd327436e60c01b6163cb565b61013260009054906101000a900460ff1615611f91576040517f08c379a0000000000000000000000000000000000000000000000000000000008152600401611f8890619fc7565b60405180910390fd5b611fa5678d4a0afcc7b3556960c01b6163cb565b611fb96759c010816758f17260c01b6163cb565b600161013260006101000a81548160ff021916908315150217905550611fe967577def0ad1274fef60c01b6163cb565b611ffd6736e1593b1525f8ca60c01b6163cb565b7f3feb970ae2e55ea1e655dde1aeed94d7072aad967d08e33178345d3dce8a0f2361202661649e565b6040516120339190618909565b60405180910390a1565b61205167fa3ef96807b745d560c01b6163cb565b61206567f283ecbecb79161260c01b6163cb565b61207967d376724b5161c5a560c01b6163cb565b61208d6764db01c7df188d3960c01b6163cb565b6120a1672f3b7069927903a560c01b6163cb565b61013260009054906101000a900460ff166120f1576040517f08c379a00000000000000000000000000000000000000000000000000000000081526004016120e89061a033565b60405180910390fd5b6121056716381b8899f29aa760c01b6163cb565b61211967bde3ae0afc481b6c60c01b6163cb565b61212d6712a81ac157b79d2560c01b6163cb565b61214167a03736a89764228a60c01b6163cb565b61215567a804f7b89c12202f60c01b6163cb565b61216967c6c761e727c1fd7d60c01b6163cb565b61217d67f4808fecb408b1c660c01b6163cb565b600073ffffffffffffffffffffffffffffffffffffffff168273ffffffffffffffffffffffffffffffffffffffff16036121ec576040517f08c379a00000000000000000000000000000000000000000000000000000000081526004016121e39061a0c5565b60405180910390fd5b612200675cb6f1fc7f789b2260c01b6163cb565b61221467f625357a2c39f09660c01b6163cb565b61222867ebb88d742205990960c01b6163cb565b61223c676b86b4b24dc4e8d560c01b6163cb565b61013460009054906101000a900473ffffffffffffffffffffffffffffffffffffffff1673ffffffffffffffffffffffffffffffffffffffff163373ffffffffffffffffffffffffffffffffffffffff161480156122aa57506122a967b3a4409ee094466160c01b6163ce565b5b8061230357506122b8613c02565b73ffffffffffffffffffffffffffffffffffffffff163373ffffffffffffffffffffffffffffffffffffffff16148015612302575061230167083832149badb31860c01b6163ce565b5b5b612342576040517f08c379a00000000000000000000000000000000000000000000000000000000081526004016123399061a131565b60405180910390fd5b61235667b8dd0f1f1e50da7760c01b6163cb565b61236a6708cfe806b151dee660c01b6163cb565b61237e676cf315cac735094760c01b6163cb565b60005b818110156123c75761239d679af2b3e7bf9e675d60c01b6163cb565b6123b167ac55421ee5a1fc7960c01b6163cb565b6123ba83616ad4565b8080600101915050612381565b505050565b6123e7838383604051806020016040528060008152506140b3565b505050565b612400671866c2eb03ae5e7a60c01b6163cb565b612408616638565b61241c671bb04261252732b660c01b6163cb565b612430677bd5800d1acbd24760c01b6163cb565b61244467dff82c9cafe7287e60c01b6163cb565b8061013460006101000a81548173ffffffffffffffffffffffffffffffffffffffff021916908373ffffffffffffffffffffffffffffffffffffffff16021790555061249a67a3c91b0915ec5e6660c01b6163cb565b6124ae67e10751080db6d09160c01b6163cb565b7f42cb744805b899bbb1d2af67fd0b034898bfce4b7bf8c1572cff806a8dd3cb0861013460009054906101000a900473ffffffffffffffffffffffffffffffffffffffff166040516125009190618909565b60405180910390a150565b60008061252267f9e37910a2c5e16360c01b6163cb565b61253667ee135d757b4e0c7960c01b6163cb565b6101305491506125506751da1887edc237fc60c01b6163cb565b6101315490509091565b600061256461199d565b82106125a5576040517f08c379a000000000000000000000000000000000000000000000000000000000815260040161259c9061a1c3565b60405180910390fd5b60fd82815481106125b9576125b8619dd4565b5b90600052602060002001549050919050565b6125df671a39917ca55ea02660c01b6163cb565b6125e7616638565b6125fb6768bcd9ca191b0ff760c01b6163cb565b61260f67d78e34dc562b765060c01b6163cb565b612623674844f7933f28294460c01b6163cb565b612637678e2fef5f7e6f0bbb60c01b6163cb565b61264b6795796b44245a8b7c60c01b6163cb565b6000811161268e576040517f08c379a000000000000000000000000000000000000000000000000000000000815260040161268590619c53565b60405180910390fd5b6126a267e6afa7ef1e8784f060c01b6163cb565b6126b667c90bfdd4a16466ac60c01b6163cb565b6126ca6769370c5e4f8bbc1160c01b6163cb565b6126de67e8bd33fb241c93e360c01b6163cb565b61013854811115612724576040517f08c379a000000000000000000000000000000000000000000000000000000000815260040161271b9061a22f565b60405180910390fd5b61273867bc991f4f7131474a60c01b6163cb565b61274c672961cf7cf50d786a60c01b6163cb565b6127606753ae47215447e34d60c01b6163cb565b806101386000828254039250508190555061278567765b4318522a9f6e60c01b6163cb565b61279967cb05aeba4609d26a60c01b6163cb565b6127a33382616b4d565b6127b767988c92636a7f147760c01b6163cb565b6127cb67d07bc8ed8c4d66eb60c01b6163cb565b7fcab11fc71b2f0ad883389e8eae8ffe2d60758673b58b0d3a746c332c4d6f9bbc816040516127fa919061899f565b60405180910390a150565b61013a805461281390619674565b80601f016020809104026020016040519081016040528092919081815260200182805461283f90619674565b801561288c5780601f106128615761010080835404028352916020019161288c565b820191906000526020600020905b81548152906001019060200180831161286f57829003601f168201915b505050505081565b60006128aa67bc954bfa5181e37360c01b6163cb565b6128be6791b17bd72afc856960c01b6163cb565b6128d267473028334d7f451660c01b6163cb565b61013260009054906101000a900460ff1615905090565b6128fd670ac02fafa7623e5660c01b6163cb565b612905616638565b61291967abbac2d4cdd0559e60c01b6163cb565b61292d674dcdc962261dd9ed60c01b6163cb565b612941673e88c1a8fa48d6d460c01b6163cb565b6129556756bcf889286189bd60c01b6163cb565b612969672275c6f53940dcf660c01b6163cb565b818311156129ac576040517f08c379a00000000000000000000000000000000000000000000000000000000081526004016129a39061a29b565b60405180910390fd5b6129c067300230e63d6e4a1c60c01b6163cb565b6129d46735bfbc437131bdd560c01b6163cb565b6129e867051239ea6df5921160c01b6163cb565b6000610133805490501115612b0857612a0b67aa7ac479c47f833e60c01b6163cb565b612a1f67f09e6170ca505a1d60c01b6163cb565b612a336716810498c0eea14360c01b6163cb565b6000610133600161013380549050612a4b919061a2bb565b81548110612a5c57612a5b619dd4565b5b90600052602060002090600302019050612a80677765817d3f724ef060c01b6163cb565b612a9467aeea032acde71faf60c01b6163cb565b612aa8676ea093a44733404460c01b6163cb565b80600101548411612aee576040517f08c379a0000000000000000000000000000000000000000000000000000000008152600401612ae59061a361565b60405180910390fd5b612b0267829f57e4780848d360c01b6163cb565b50612b1d565b612b1c67a36050f24effb7d560c01b6163cb565b5b612b3167e6eac60e04f2789f60c01b6163cb565b612b4567df3b844ca25b23d560c01b6163cb565b61013360405180606001604052808581526020018481526020018367ffffffffffffffff168152509080600181540180825580915050600190039060005260206000209060030201600090919091909150600082015181600001556020820151816001015560408201518160020160006101000a81548167ffffffffffffffff021916908367ffffffffffffffff1602179055505050612bef676fc4faccb52aa6e160c01b6163cb565b612c0367b263c22bbd8c8a3e60c01b6163cb565b7f313c9ccd9247f64bb45076ba3ad6a5a9c1ba4f4b4530042b92f1225c86c54b13838383604051612c3693929190618d06565b60405180910390a1505050565b61013660009054906101000a900473ffffffffffffffffffffffffffffffffffffffff1681565b600080612c7683616bdb565b9050600073ffffffffffffffffffffffffffffffffffffffff168173ffffffffffffffffffffffffffffffffffffffff1603612ce7576040517f08c379a0000000000000000000000000000000000000000000000000000000008152600401612cde9061a3cd565b60405180910390fd5b80915050919050565b61013260019054906101000a900473ffffffffffffffffffffffffffffffffffffffff1681565b6101385481565b60008073ffffffffffffffffffffffffffffffffffffffff168273ffffffffffffffffffffffffffffffffffffffff1603612d8e576040517f08c379a0000000000000000000000000000000000000000000000000000000008152600401612d859061a45f565b60405180910390fd5b60cc60008373ffffffffffffffffffffffffffffffffffffffff1673ffffffffffffffffffffffffffffffffffffffff168152602001908152602001600020549050919050565b612ddd616638565b612de76000616c18565b565b6101338181548110612dfa57600080fd5b90600052602060002090600302016000915090508060000154908060010154908060020160009054906101000a900467ffffffffffffffff16905083565b6101375481565b6000612e4961649e565b90508073ffffffffffffffffffffffffffffffffffffffff16612e6a615140565b73ffffffffffffffffffffffffffffffffffffffff1614612ec0576040517f08c379a0000000000000000000000000000000000000000000000000000000008152600401612eb79061a4f1565b60405180910390fd5b612ec981616c18565b50565b6000806000806000806000806000606080612ef16772fd784b5444c50260c01b6163cb565b612f05677f2cedb3d0c62b1d60c01b6163cb565b612f1967a29adafc018de01960c01b6163cb565b3061013260019054906101000a900473ffffffffffffffffffffffffffffffffffffffff1661013460009054906101000a900473ffffffffffffffffffffffffffffffffffffffff1661013560009054906101000a900473ffffffffffffffffffffffffffffffffffffffff1661013660009054906101000a900473ffffffffffffffffffffffffffffffffffffffff1661013960009054906101000a900473ffffffffffffffffffffffffffffffffffffffff16610137546101385461013b60009054906101000a900460ff1661013a610133818054612ff990619674565b80601f016020809104026020016040519081016040528092919081815260200182805461302590619674565b80156130725780601f1061304757610100808354040283529160200191613072565b820191906000526020600020905b81548152906001019060200180831161305557829003601f168201915b5050505050915080805480602002602001604051908101604052809291908181526020016000905b82821015613112578382906000526020600020906003020160405180606001604052908160008201548152602001600182015481526020016002820160009054906101000a900467ffffffffffffffff1667ffffffffffffffff1667ffffffffffffffff16815250508152602001906001019061309a565b5050505090509a509a509a509a509a509a509a509a509a509a509a50909192939495969798999a565b61314f67c075911a6ee9ba3b60c01b6163cb565b613157616638565b61316b67666489fe7e4358ef60c01b6163cb565b61317f6792256d21aa77446a60c01b6163cb565b61319367f283ecbecb79161260c01b6163cb565b6131a767d376724b5161c5a560c01b6163cb565b6131bb6764db01c7df188d3960c01b6163cb565b6131cf672f3b7069927903a560c01b6163cb565b61013260009054906101000a900460ff1661321f576040517f08c379a00000000000000000000000000000000000000000000000000000000081526004016132169061a033565b60405180910390fd5b6132336716381b8899f29aa760c01b6163cb565b61324767bde3ae0afc481b6c60c01b6163cb565b61325b6754ff981d3d7b717c60c01b6163cb565b61326f675e6dc62d4ff2e4e260c01b6163cb565b613283671d33bf0b8261eded60c01b6163cb565b600061013260006101000a81548160ff0219169083151502179055506132b3671f9b5b93ae139f7460c01b6163cb565b6132c666b7d93dcdeeb5e360c01b6163cb565b7f200228750e4edadaa076ae363c25fb3bd59b7fa4c5fa5ddce4543c98ca5aeb0d6132ef61649e565b6040516132fc9190618909565b60405180910390a1565b61331a674ab63388b2668fc660c01b6163cb565b61332e67f283ecbecb79161260c01b6163cb565b61334267d376724b5161c5a560c01b6163cb565b6133566764db01c7df188d3960c01b6163cb565b61336a672f3b7069927903a560c01b6163cb565b61013260009054906101000a900460ff166133ba576040517f08c379a00000000000000000000000000000000000000000000000000000000081526004016133b19061a033565b60405180910390fd5b6133ce6716381b8899f29aa760c01b6163cb565b6133e267bde3ae0afc481b6c60c01b6163cb565b6133f66711573608abdf60f960c01b6163cb565b61340a674413070a3e4b914760c01b6163cb565b61341e67f37cae2113fcc09460c01b6163cb565b6134326756fd21c1b006588060c01b6163cb565b61344667adb4ec887e01fdd060c01b6163cb565b81819050848490501461348e576040517f08c379a00000000000000000000000000000000000000000000000000000000081526004016134859061a55d565b60405180910390fd5b6134a2678afb01190702077b60c01b6163cb565b6134b66749f85b848cdea29c60c01b6163cb565b6134ca678e1aed485b90452f60c01b6163cb565b60005b84849050811015613558576134ec673595e618cf0f36df60c01b6163cb565b6135006792159c4b681348b260c01b6163cb565b61354b3386868481811061351757613516619dd4565b5b905060200201602081019061352c9190618bb7565b85858581811061353f5761353e619dd4565b5b905060200201356119aa565b80806001019150506134cd565b5050505050565b613573676a4036ea24dcbb3360c01b6163cb565b61358767327d86f4c694f3d660c01b6163cb565b61359b67f5670e0af5100d7260c01b6163cb565b6135af67ff88ffb9c1b72a3260c01b6163cb565b6135c3677726d7c2f9698fb260c01b6163cb565b61013560009054906101000a900473ffffffffffffffffffffffffffffffffffffffff1673ffffffffffffffffffffffffffffffffffffffff163373ffffffffffffffffffffffffffffffffffffffff1614613654576040517f08c379a000000000000000000000000000000000000000000000000000000000815260040161364b9061a5c9565b60405180910390fd5b61366867cdac93782a12315560c01b6163cb565b61367c67c96b88dc01c36a0060c01b6163cb565b61369067bf5b30ed4ee53b7e60c01b6163cb565b6136a4673eab6f7d7b605a9760c01b6163cb565b6136b867e43c9fe37f20d8a960c01b6163cb565b600061012e600083815260200190815260200160002060006101000a81548167ffffffffffffffff021916908367ffffffffffffffff16021790555061370867c0f4881d6020900860c01b6163cb565b61371c67401631a4e33c043e60c01b6163cb565b7faa4c365b59848ff3fa44acd423e8f38ae99da70a57dc09a50f1f71236b5fc00561374682612c6a565b8260006040516137589392919061a624565b60405180910390a150565b6137776732a4c0f5014e1fbd60c01b6163cb565b61378b67327d86f4c694f3d660c01b6163cb565b61379f67f5670e0af5100d7260c01b6163cb565b6137b367ff88ffb9c1b72a3260c01b6163cb565b6137c7677726d7c2f9698fb260c01b6163cb565b61013560009054906101000a900473ffffffffffffffffffffffffffffffffffffffff1673ffffffffffffffffffffffffffffffffffffffff163373ffffffffffffffffffffffffffffffffffffffff1614613858576040517f08c379a000000000000000000000000000000000000000000000000000000000815260040161384f9061a5c9565b60405180910390fd5b61386c67cdac93782a12315560c01b6163cb565b61388067c96b88dc01c36a0060c01b6163cb565b61389467a7e1a3939cb82e2c60c01b6163cb565b6138a8678689fd5751eff55860c01b6163cb565b6138bc67b9a355af3443116260c01b6163cb565b6138d067cf42340437c9bebb60c01b6163cb565b6138e467e6def532f0dc3f2860c01b6163cb565b428167ffffffffffffffff1611613930576040517f08c379a00000000000000000000000000000000000000000000000000000000081526004016139279061a6a7565b60405180910390fd5b61394467c9ba481cfb83a14860c01b6163cb565b61395867d94a158bebe21be860c01b6163cb565b61396c670dc7bea90b8d8b6160c01b6163cb565b613980678a77ee2a0529d40b60c01b6163cb565b61398982616c49565b6139c8576040517f08c379a00000000000000000000000000000000000000000000000000000000081526004016139bf9061a713565b60405180910390fd5b6139dc679e269ecf2cc81f2160c01b6163cb565b6139f067671ff849a9eb50c360c01b6163cb565b8061012e600084815260200190815260200160002060006101000a81548167ffffffffffffffff021916908367ffffffffffffffff160217905550613a3f67487062840949b0a160c01b6163cb565b613a536787139a95b6e0dbc160c01b6163cb565b7faa4c365b59848ff3fa44acd423e8f38ae99da70a57dc09a50f1f71236b5fc005613a7d83612c6a565b8383604051613a8e9392919061a733565b60405180910390a15050565b613aae67458b59f36cade54060c01b6163cb565b613ac2671911629ffff2108360c01b6163cb565b613ad667f1f78a8d01b3864b60c01b6163cb565b613aea67c5ea24fbb126ff2560c01b6163cb565b818190508484905014613b32576040517f08c379a0000000000000000000000000000000000000000000000000000000008152600401613b299061a55d565b60405180910390fd5b613b46674501b5e5eb570b6360c01b6163cb565b613b5a675c46fba02371bd0460c01b6163cb565b613b6e675bcca4ed450ad62b60c01b6163cb565b60005b84849050811015613bfb57613b9067934e8c2933c0a8df60c01b6163cb565b613ba467271badc24f9b691e60c01b6163cb565b613bee858583818110613bba57613bb9619dd4565b5b90506020020135848484818110613bd457613bd3619dd4565b5b9050602002016020810190613be99190618bb7565b614cdc565b8080600101915050613b71565b5050505050565b6000603360009054906101000a900473ffffffffffffffffffffffffffffffffffffffff16905090565b6000613c4267e874292756675e8560c01b6163cb565b613c566775bd19bbf245e5f260c01b6163cb565b613c6a679a253df7c936293560c01b6163cb565b60005b61013380549050811015613da357613c8f6718b55510af92d10660c01b6163cb565b613ca367df8c6ec05c8feac860c01b6163cb565b6101338181548110613cb857613cb7619dd4565b5b9060005260206000209060030201600001548310158015613cff57506101338181548110613ce957613ce8619dd4565b5b9060005260206000209060030201600101548311155b15613d8257613d1766915286f6537be360c01b6163cb565b613d2b67d02b60114a3dccc560c01b6163cb565b613d3f67e9994be8d8d2515360c01b6163cb565b6101338181548110613d5457613d53619dd4565b5b906000526020600020906003020160020160009054906101000a900467ffffffffffffffff16915050613dd1565b613d966723395fe13ea6751a60c01b6163cb565b8080600101915050613c6d565b50613db8676d3b61c3b397c37f60c01b6163cb565b613dcc676ba4cb2a1202336a60c01b6163cb565b600090505b919050565b606060ca8054613de590619674565b80601f0160208091040260200160405190810160405280929190818152602001828054613e1190619674565b8015613e5e5780601f10613e3357610100808354040283529160200191613e5e565b820191906000526020600020905b815481529060010190602001808311613e4157829003601f168201915b5050505050905090565b613e7a613e7361649e565b8383616c8a565b5050565b6000613e9467452e828451abea0660c01b6163cb565b613ea86724567231d808be7360c01b6163cb565b613ebc6708580423c07b93db60c01b6163cb565b61012e600083815260200190815260200160002060009054906101000a900467ffffffffffffffff169050919050565b613f0067292cbc09ffacc35360c01b6163cb565b613f08616638565b613f1c67240d0484b2f44e0b60c01b6163cb565b613f30670203385f70571d9a60c01b6163cb565b613f4467ccdf09d8d93777fb60c01b6163cb565b613f58675b5056310e040b1360c01b6163cb565b613f6c6766ba47725d6fa6cf60c01b6163cb565b600073ffffffffffffffffffffffffffffffffffffffff168173ffffffffffffffffffffffffffffffffffffffff1603613fdb576040517f08c379a0000000000000000000000000000000000000000000000000000000008152600401613fd29061a7b6565b60405180910390fd5b613fef6791ecf89cb78bce5f60c01b6163cb565b614003670326c0f24b058c6e60c01b6163cb565b8061013960006101000a81548173ffffffffffffffffffffffffffffffffffffffff021916908373ffffffffffffffffffffffffffffffffffffffff1602179055506140596751a3c76da754b44560c01b6163cb565b61406d67c4af340e271067be60c01b6163cb565b8073ffffffffffffffffffffffffffffffffffffffff167f0e1f276006783bd984d0b8d3702b1df022b89bfc8e86d187bb0d1d24396ab36860405160405180910390a250565b6140c46140be61649e565b83616746565b614103576040517f08c379a00000000000000000000000000000000000000000000000000000000081526004016140fa90619d48565b60405180910390fd5b61410f84848484616df6565b50505050565b600061412b67fb049f937c64a5aa60c01b6163cb565b61413f679d168ea19594491260c01b6163cb565b6141536736197285d9b32cc660c01b6163cb565b4261012d600084815260200190815260200160002060000160149054906101000a900467ffffffffffffffff1667ffffffffffffffff161061420a576141a367b01471d32e4e2aa860c01b6163cb565b6141b767593309e5436ab15160c01b6163cb565b6141cb67edd273e5c21e16ca60c01b6163cb565b61012d600083815260200190815260200160002060000160009054906101000a900473ffffffffffffffffffffffffffffffffffffffff16905061424b565b61421e679137c7d366abf35f60c01b6163cb565b61423267591ca9562bc4ed7360c01b6163cb565b61424667ffc1a273d40d75ef60c01b6163cb565b600090505b919050565b60006142666724b95966c79f310260c01b6163cb565b61427a67f2fdc9b98df2c34860c01b6163cb565b61428e67f50c3ea793ab637c60c01b6163cb565b4261012e600084815260200190815260200160002060009054906101000a900467ffffffffffffffff1667ffffffffffffffff16119050919050565b6142de671e03be41323aa61560c01b6163cb565b6142e6616638565b6142fa679f4db922212b1c2560c01b6163cb565b61430e67e3af553cdb6422e860c01b6163cb565b61432267cc29b62b78120c1360c01b6163cb565b818161013a918261433492919061a983565b5061434967e931beb4c040e0cd60c01b6163cb565b61435d67cb6420ddfe9e9c7f60c01b6163cb565b7e7b463ebd902053ef32c599feb7839a36cdfd0571d44c586b64a16715da4c74828260405161438d92919061aa80565b60405180910390a15050565b60606143a482616453565b60006143ae616e52565b905060008151116143ce57604051806020016040528060008152506143f9565b806143d884616f21565b6040516020016143e992919061aae0565b6040516020818303038152906040525b915050919050565b6144096186a3565b61441d67dede4df84c11162b60c01b6163cb565b614431672782f22e97681eb760c01b6163cb565b61444567705474ed1526475f60c01b6163cb565b61012d60008381526020019081526020016000206040518060600160405290816000820160009054906101000a900473ffffffffffffffffffffffffffffffffffffffff1673ffffffffffffffffffffffffffffffffffffffff1673ffffffffffffffffffffffffffffffffffffffff1681526020016000820160149054906101000a900467ffffffffffffffff1667ffffffffffffffff1667ffffffffffffffff1681526020016001820154815250509050919050565b614511677444546761d0486260c01b6163cb565b61452567a726af48d01e771d60c01b6163cb565b6145396717e63755f488ed4e60c01b6163cb565b61454d67fc183624788da24760c01b6163cb565b61456167a7db46dca242f98560c01b6163cb565b3373ffffffffffffffffffffffffffffffffffffffff1661013960009054906101000a900473ffffffffffffffffffffffffffffffffffffffff1673ffffffffffffffffffffffffffffffffffffffff16146145f2576040517f08c379a00000000000000000000000000000000000000000000000000000000081526004016145e99061ab50565b60405180910390fd5b614606679b50340e9834888260c01b6163cb565b61461a67adc9fa8fdffa1ffa60c01b6163cb565b61462e6703fdbc3164971b0660c01b6163cb565b614642677adcd81b79fe6dba60c01b6163cb565b61465667f283ecbecb79161260c01b6163cb565b61466a67d376724b5161c5a560c01b6163cb565b61467e6764db01c7df188d3960c01b6163cb565b614692672f3b7069927903a560c01b6163cb565b61013260009054906101000a900460ff166146e2576040517f08c379a00000000000000000000000000000000000000000000000000000000081526004016146d99061a033565b60405180910390fd5b6146f66716381b8899f29aa760c01b6163cb565b61470a67bde3ae0afc481b6c60c01b6163cb565b61471e67ec7987e8eb5c786760c01b6163cb565b614732674f5eba8a8c48ef7960c01b6163cb565b614746674b5554b9adc11ccb60c01b6163cb565b61475a67dd98b03943f9662160c01b6163cb565b61476e676eb146cb5cad719960c01b6163cb565b8181905084849050146147b6576040517f08c379a00000000000000000000000000000000000000000000000000000000081526004016147ad9061abe2565b60405180910390fd5b6147ca678f373daf428935ec60c01b6163cb565b6147de672d563841f6f5f3e260c01b6163cb565b6147f267026282be8c587d6260c01b6163cb565b600061480867ee75fabddfa6574960c01b6163cb565b61481c6710418dad1fa08a2b60c01b6163cb565b60005b838390508110156148725761483e67402e53a2b1c379ac60c01b6163cb565b83838281811061485157614850619dd4565b5b90506020020135826148639190619ca2565b9150808060010191505061481f565b506148876726009f622f49d77e60c01b6163cb565b61489a665361ca62dcc41560c01b6163cb565b6148ae67c243f7ff8e42467f60c01b6163cb565b806101385410156148f4576040517f08c379a00000000000000000000000000000000000000000000000000000000081526004016148eb9061ac74565b60405180910390fd5b61490867abeada3afacbabe560c01b6163cb565b61491c67a9b963d6016b4b2860c01b6163cb565b6149306705f7951dd2ccfc4360c01b6163cb565b600061013854905061494c677ddd2d4e1686840560c01b6163cb565b61496067de71ccdf735a2b6460c01b6163cb565b60006149766711ce15f8743f8cff60c01b6163cb565b61498a67199c5accff6efc9d60c01b6163cb565b60006149a06738797bf65f96929560c01b6163cb565b6149b46717d28496ffb202de60c01b6163cb565b60006149ca671c75079f01b1685760c01b6163cb565b6149de67f4c9bdd5117904d960c01b6163cb565b60006149f467a05ae68ad676a76b60c01b6163cb565b614a08670c6438362c39421b60c01b6163cb565b60005b8a8a9050811015614c4757614a2a67f6f5de03cc31544460c01b6163cb565b888882818110614a3d57614a3c619dd4565b5b905060200201359450614a5a6722179b6561a348a560c01b6163cb565b8a8a82818110614a6d57614a6c619dd4565b5b905060200201359350614a8a67da1eb8cc238e636f60c01b6163cb565b614a9e67a96f3cdf22775d9960c01b6163cb565b600061012d60008681526020019081526020016000209050614aca67411f0bb5d365e49f60c01b6163cb565b80600101549350614ae567219beaf315ec667760c01b6163cb565b614aee85614115565b9250614b04678af688db1baf625e60c01b6163cb565b614b1867d12aabc59826db9860c01b6163cb565b600073ffffffffffffffffffffffffffffffffffffffff168373ffffffffffffffffffffffffffffffffffffffff1603614bda57614b6067a9c6bd34df66823a60c01b6163cb565b614b74670e52e3e5b1ac1c4e60c01b6163cb565b614b8867beebbe9a628b6dee60c01b6163cb565b847fd7fdff8890045bd253254e8d458c4bd8005b96e38b1573131a28b9f171034a3e87604051614bb8919061899f565b60405180910390a2614bd467bd96c83fd44ab2dd60c01b6163cb565b50614c3a565b614bee671a1f919e3d5c3d5f60c01b6163cb565b614c0267c201cb1d999c1af460c01b6163cb565b8587614c0e919061a2bb565b9650614c2467d0de755b84fbe29f60c01b6163cb565b8584614c309190619ca2565b8160010181905550505b8080600101915050614a0b565b50614c5c674febbbcb570ec5c760c01b6163cb565b8461013881905550614c78679eb581da3876744060c01b6163cb565b614c8c67d20b72135fe71a2360c01b6163cb565b898990507f1b043d25eee41bd561ca53141f6f0872cb7006c3591ee745b57e3978d4427a9660405160405180910390a250505050505050505050565b61013b60009054906101000a900460ff1681565b614cf067227285221ee4a82160c01b6163cb565b614d0467f283ecbecb79161260c01b6163cb565b614d1867d376724b5161c5a560c01b6163cb565b614d2c6764db01c7df188d3960c01b6163cb565b614d40672f3b7069927903a560c01b6163cb565b61013260009054906101000a900460ff16614d90576040517f08c379a0000000000000000000000000000000000000000000000000000000008152600401614d879061a033565b60405180910390fd5b614da46716381b8899f29aa760c01b6163cb565b614db867bde3ae0afc481b6c60c01b6163cb565b614dcc675bfbcb4238d65f4e60c01b6163cb565b614de06723c03b304ffdcbcf60c01b6163cb565b614df4670e27272a2db72f8560c01b6163cb565b614e08677ce9c4cb84749e2460c01b6163cb565b614e1c67e7b3d20c19a1ca4360c01b6163cb565b614e263383616746565b614e65576040517f08c379a0000000000000000000000000000000000000000000000000000000008152600401614e5c9061ad06565b60405180910390fd5b614e7967c68b2aaa0e087f2660c01b6163cb565b614e8d6728c08bf43ce2714860c01b6163cb565b614ea167fae1e3beb2ecaab360c01b6163cb565b614eb56745271ea0f6923bb160c01b6163cb565b60001515614ec283614250565b151514614f04576040517f08c379a0000000000000000000000000000000000000000000000000000000008152600401614efb9061ad72565b60405180910390fd5b614f18672b7414bf852be8d860c01b6163cb565b614f2c6771ac55b6f52a821860c01b6163cb565b614f406713b3c3bc8c58ca9460c01b6163cb565b6000614f4b83613c2c565b9050614f6167a574aec6bad2bc3860c01b6163cb565b614f756717773ac0a28129cd60c01b6163cb565b614f89675dc4d65112b0cc2a60c01b6163cb565b428167ffffffffffffffff1611614fd5576040517f08c379a0000000000000000000000000000000000000000000000000000000008152600401614fcc9061adde565b60405180910390fd5b614fe967e309110797d0b51160c01b6163cb565b614ffd671d0ed0c2b2bb647560c01b6163cb565b61501167be8acdb0f9b1607760c01b6163cb565b61501c838383616fef565b505050565b61503567ab103118bdd591d460c01b6163cb565b61503d616638565b61505167aa2508fea068c08560c01b6163cb565b615065678b3ab5c361f6a74360c01b6163cb565b61507967750b214cd297a45e60c01b6163cb565b8061013660006101000a81548173ffffffffffffffffffffffffffffffffffffffff021916908373ffffffffffffffffffffffffffffffffffffffff1602179055506150cf6786e8aa6faa8f1dd960c01b6163cb565b6150e367ec0389174e18214c60c01b6163cb565b7facb06213fcf4f307fd4b85da28676fc9dba917ecf2db9c3b68e92159577209f361013660009054906101000a900473ffffffffffffffffffffffffffffffffffffffff166040516151359190618909565b60405180910390a150565b6000606560009054906101000a900473ffffffffffffffffffffffffffffffffffffffff16905090565b61517e67d9f462aa7c0cccd660c01b6163cb565b61519267d03886f54253e9be60c01b6163cb565b6151a6676ffbf0955118e69860c01b6163cb565b6151ba6775fe47cb512ea4d560c01b6163cb565b6151ce670c6f87e749291b0760c01b6163cb565b61013660009054906101000a900473ffffffffffffffffffffffffffffffffffffffff1673ffffffffffffffffffffffffffffffffffffffff163373ffffffffffffffffffffffffffffffffffffffff161461525f576040517f08c379a000000000000000000000000000000000000000000000000000000000815260040161525690619db4565b60405180910390fd5b61527367e9d9c77f8742c58260c01b6163cb565b61528767f7011c108551228060c01b6163cb565b61529b676829f508c3c7d85c60c01b6163cb565b6152af67c818430af27f61c760c01b6163cb565b6152c3676bbc8ed614cdfefd60c01b6163cb565b6152d76772c54ea5ec55861b60c01b6163cb565b6152eb67a1a7d16ebf281b3560c01b6163cb565b60008214801561530b575061530a675bbcbb4bec9e2aac60c01b6163ce565b5b8061534e5750600081148015615331575061533067c2cbaa36dd8814fe60c01b6163ce565b5b801561534d575061534c67cdcb4725e2fb4bcc60c01b6163ce565b5b5b806153745750818111801561537357506153726715f8875d00001b5360c01b6163ce565b5b5b6153b3576040517f08c379a00000000000000000000000000000000000000000000000000000000081526004016153aa9061ae70565b60405180910390fd5b6153c7677ff96e68cf2c2f6760c01b6163cb565b6153db673ec4b434c125a0bc60c01b6163cb565b81610130819055506153f767556c0199f65f651b60c01b6163cb565b806101318190555061541367d00bf050696588ff60c01b6163cb565b61542767c8c2892ad521ab6f60c01b6163cb565b7f25833bb5032b47d3224449ad6fd59b0b185355c1066b7ded2d6d0b451b0bb15d8282604051615458929190618be4565b60405180910390a15050565b61547867fc5e971713ee173460c01b6163cb565b615480616638565b6154946778ffad07812d026360c01b6163cb565b6154a8677ef3cad7af1841e260c01b6163cb565b6154bc674bec8551c68a9ed360c01b6163cb565b6154d067d050dbb0eff3f0d160c01b6163cb565b6154e46779044c263272749160c01b6163cb565b61013380549050841061552c576040517f08c379a00000000000000000000000000000000000000000000000000000000081526004016155239061aedc565b60405180910390fd5b615540676c653737d0f6741760c01b6163cb565b6155546766db21dcbd8b4b9f60c01b6163cb565b61556867062d1b1a8d6f66d660c01b6163cb565b61557c6735f9e4e6d3cbe55160c01b6163cb565b818311156155bf576040517f08c379a00000000000000000000000000000000000000000000000000000000081526004016155b69061a29b565b60405180910390fd5b6155d367dc93d3d41c86156260c01b6163cb565b6155e76745e2c20750bdf14860c01b6163cb565b6155fb677090549d4b4b2afd60c01b6163cb565b60008411156156e15761561867229ef3fc73777a1560c01b6163cb565b61562c67d1ae17e51f733a3c60c01b6163cb565b615640670762c6f0611b9b9460c01b6163cb565b61565467aabb46e2d0c5015d60c01b6163cb565b610133600185615664919061a2bb565b8154811061567557615674619dd4565b5b90600052602060002090600302016001015483116156c8576040517f08c379a00000000000000000000000000000000000000000000000000000000081526004016156bf9061af6e565b60405180910390fd5b6156dc677549bfdb349fd86c60c01b6163cb565b6156f6565b6156f567f2adea80f94b083a60c01b6163cb565b5b61570a67398aef3e142d19cf60c01b6163cb565b61571e67e3f3fd46af5be20d60c01b6163cb565b600161013380549050615731919061a2bb565b8410156158155761574c672a89593e5bb19f2860c01b6163cb565b615760671c82e4f71f62b72260c01b6163cb565b61577467db5c58fbecc2d8a860c01b6163cb565b6157886716031f07db573d2960c01b6163cb565b6101336001856157989190619ca2565b815481106157a9576157a8619dd4565b5b90600052602060002090600302016000015482106157fc576040517f08c379a00000000000000000000000000000000000000000000000000000000081526004016157f39061afda565b60405180910390fd5b61581067ddf7ac9e720f653a60c01b6163cb565b61582a565b615829672d55be94243c973560c01b6163cb565b5b61583e67a52c45769188941f60c01b6163cb565b60405180606001604052808481526020018381526020018267ffffffffffffffff16815250610133858154811061587857615877619dd4565b5b9060005260206000209060030201600082015181600001556020820151816001015560408201518160020160006101000a81548167ffffffffffffffff021916908367ffffffffffffffff1602179055509050506158e06799ad4527e1b2cf3060c01b6163cb565b6158f467a7d6e764c764c5cc60c01b6163cb565b7fa4c06b2748e8627a495b620bb5783a295583993792694fcb350311d3b5d868e084848484604051615929949392919061affa565b60405180910390a150505050565b600060ce60008473ffffffffffffffffffffffffffffffffffffffff1673ffffffffffffffffffffffffffffffffffffffff16815260200190815260200160002060008373ffffffffffffffffffffffffffffffffffffffff1673ffffffffffffffffffffffffffffffffffffffff16815260200190815260200160002060009054906101000a900460ff16905092915050565b60006159e16705302281dcf5cb5960c01b6163cb565b6159f56772b257b80576248a60c01b6163cb565b615a0967e8e6103d2e0305eb60c01b6163cb565b61012d6000838152602001908152602001600020600101549050919050565b61013560009054906101000a900473ffffffffffffffffffffffffffffffffffffffff1681565b615a636743ddda23fd69df9460c01b6163cb565b615a7767f283ecbecb79161260c01b6163cb565b615a8b67d376724b5161c5a560c01b6163cb565b615a9f6764db01c7df188d3960c01b6163cb565b615ab3672f3b7069927903a560c01b6163cb565b61013260009054906101000a900460ff16615b03576040517f08c379a0000000000000000000000000000000000000000000000000000000008152600401615afa9061a033565b60405180910390fd5b615b176716381b8899f29aa760c01b6163cb565b615b2b67bde3ae0afc481b6c60c01b6163cb565b615b3f67a8da7a5d1db9973a60c01b6163cb565b615b536730c30079b892417b60c01b6163cb565b615b67679bc255a76d178f1060c01b6163cb565b615b7b6765719164e1bc1bcf60c01b6163cb565b6000615b8633612d1e565b9050615b9c672d89c09a57b2f9d060c01b6163cb565b615bb067d2d74f849c57948960c01b6163cb565b615bc46778d5188ca56c101a60c01b6163cb565b60008111615c07576040517f08c379a0000000000000000000000000000000000000000000000000000000008152600401615bfe9061b08b565b60405180910390fd5b615c1b6781785d75b018c49d60c01b6163cb565b615c2f672c70c9641cddf11b60c01b6163cb565b615c4367c135a7d2209b26cb60c01b6163cb565b6000615c4f3383616074565b9050615c6567e9df58e6fcb717d260c01b6163cb565b615c7967cf090b0b7af2778260c01b6163cb565b6000615c8f67d6d2edd6e5a6c1e460c01b6163cb565b615ca3674d7f7eb782ad725060c01b6163cb565b6000615cb967022f43f66d086e5260c01b6163cb565b615ccd67d0c2cc7e1b6d426f60c01b6163cb565b60005b8351811015615dd157615ced673e1474987036084960c01b6163cb565b61012d6000858381518110615d0557615d04619dd4565b5b602002602001015181526020019081526020016000209150615d31679388569a8af6c5dd60c01b6163cb565b615d4567fdd3bed8f2cc807260c01b6163cb565b600082600101541115615daf57615d666765532d53b284e25a60c01b6163cb565b615d7a67c57e4ab50e642f2a60c01b6163cb565b816001015483615d8a9190619ca2565b9250615da067ca69f15595fc5c1a60c01b6163cb565b60008260010181905550615dc4565b615dc367dcd1d91e59780b8860c01b6163cb565b5b8080600101915050615cd0565b50615de667f57f6a0bb1587a7b60c01b6163cb565b615dfa671b11ee8313905da160c01b6163cb565b615e0e67f905971a7126b87e60c01b6163cb565b6305f5e100821015615e55576040517f08c379a0000000000000000000000000000000000000000000000000000000008152600401615e4c9061b11d565b60405180910390fd5b615e6967f2b0ce9bd6a4e1c560c01b6163cb565b615e7d674e6c7f00ee5bb27660c01b6163cb565b615e9167f168ffea09fe7bf960c01b6163cb565b615e9b3383616b4d565b615eaf67774138cd3c58574c60c01b6163cb565b615ec367f055a1f9724a540860c01b6163cb565b813373ffffffffffffffffffffffffffffffffffffffff167f8f515e5f63e91181ea26538181b146eb8557c096692e1dc4d0597a18d4e4491360405160405180910390a350505050565b61013460009054906101000a900473ffffffffffffffffffffffffffffffffffffffff1681565b6000615f4a675fed6324d07c4d9460c01b6163cb565b615f5e67a7e1c15849992d9960c01b6163cb565b615f7267c1dff2f2e7e6128760c01b6163cb565b61012f60008373ffffffffffffffffffffffffffffffffffffffff1673ffffffffffffffffffffffffffffffffffffffff16815260200190815260200160002060009054906101000a900460ff169050919050565b615fcf616638565b80606560006101000a81548173ffffffffffffffffffffffffffffffffffffffff021916908373ffffffffffffffffffffffffffffffffffffffff1602179055508073ffffffffffffffffffffffffffffffffffffffff1661602f613c02565b73ffffffffffffffffffffffffffffffffffffffff167f38d16b8cac22d99fc7c124b9cd0de2d3fa1faef420bfe791d8c362d765e2270060405160405180910390a350565b606061608a670c5686d962c05bdf60c01b6163cb565b61609e675c780b20f458f50d60c01b6163cb565b6160b26716002b25cc5e998060c01b6163cb565b60006160bd84612d1e565b90506160d3674d58464dc42b2c0a60c01b6163cb565b6160e76711a0049b9dffeef160c01b6163cb565b6160fb67e47f7bd656a0b19c60c01b6163cb565b6000831161613e576040517f08c379a00000000000000000000000000000000000000000000000000000000081526004016161359061b189565b60405180910390fd5b61615267cc223a0b349fca6d60c01b6163cb565b61616667f2400c76428b57bf60c01b6163cb565b61617a67dbfd95a5edbf1d6e60c01b6163cb565b61618e677f8ea5deaf29fd1560c01b6163cb565b808311156161d1576040517f08c379a00000000000000000000000000000000000000000000000000000000081526004016161c89061b189565b60405180910390fd5b6161e567ea5fc00dc522bea160c01b6163cb565b6161f96798c6da749aa02fb660c01b6163cb565b8267ffffffffffffffff811115616213576162126190e2565b5b6040519080825280602002602001820160405280156162415781602001602082028036833780820191505090505b50915061625867cdc46bc66d4795a760c01b6163cb565b61626c67d655e2350abde88560c01b6163cb565b60005b838110156162ee5761628b67d4280ff6f62b31d760c01b6163cb565b61629f6750c731a95c1d6f8d60c01b6163cb565b60006162ab8683611c8e565b90506162c0669315176739bed860c01b6163cb565b808483815181106162d4576162d3619dd4565b5b60200260200101818152505050808060010191505061626f565b505092915050565b61630a67fb924a4c90e65d0060c01b6163cb565b616312616638565b61632667c625c3592342fd6960c01b6163cb565b61633a67ded9796843ca45f860c01b6163cb565b61634e67bc9456da29a99f9c60c01b6163cb565b8061013b60006101000a81548160ff02191690831515021790555061637d671be026bb0dc8afa960c01b6163cb565b61639167ec1278499162a54860c01b6163cb565b7fbb63059bdc53c55f55c3853fa3261d62beb112269c5d1aa448ca27dca56a0905816040516163c09190618798565b60405180910390a150565b50565b600060019050919050565b60007f780e9d63000000000000000000000000000000000000000000000000000000007bffffffffffffffffffffffffffffffffffffffffffffffffffffffff1916827bffffffffffffffffffffffffffffffffffffffffffffffffffffffff1916148061644c575061644b82617155565b5b9050919050565b61645c81616c49565b61649b576040517f08c379a00000000000000000000000000000000000000000000000000000000081526004016164929061a3cd565b60405180910390fd5b50565b600033905090565b8160cd600083815260200190815260200160002060006101000a81548173ffffffffffffffffffffffffffffffffffffffff021916908373ffffffffffffffffffffffffffffffffffffffff160217905550808273ffffffffffffffffffffffffffffffffffffffff1661651983612c6a565b73ffffffffffffffffffffffffffffffffffffffff167f8c5be1e5ebec7d5bd14f71427d1e84f3dd0314c0f7b2291e5b200ac8c7c3b92560405160405180910390a45050565b6000808273ffffffffffffffffffffffffffffffffffffffff163b119050919050565b600060019054906101000a900460ff166165d1576040517f08c379a00000000000000000000000000000000000000000000000000000000081526004016165c89061b21b565b60405180910390fd5b6165db8282617237565b5050565b600060019054906101000a900460ff1661662e576040517f08c379a00000000000000000000000000000000000000000000000000000000081526004016166259061b21b565b60405180910390fd5b6166366172aa565b565b61664061649e565b73ffffffffffffffffffffffffffffffffffffffff1661665e613c02565b73ffffffffffffffffffffffffffffffffffffffff16146166b4576040517f08c379a00000000000000000000000000000000000000000000000000000000081526004016166ab9061b287565b60405180910390fd5b565b6166ca674e568a18df4798c360c01b6163cb565b6166de678904b4461f79825660c01b6163cb565b6166f2677939e3331dfd434260c01b6163cb565b61674282308361013260019054906101000a900473ffffffffffffffffffffffffffffffffffffffff1673ffffffffffffffffffffffffffffffffffffffff1661730b909392919063ffffffff16565b5050565b60008061675283612c6a565b90508073ffffffffffffffffffffffffffffffffffffffff168473ffffffffffffffffffffffffffffffffffffffff16148061679457506167938185615937565b5b806167d257508373ffffffffffffffffffffffffffffffffffffffff166167ba84610d18565b73ffffffffffffffffffffffffffffffffffffffff16145b91505092915050565b8273ffffffffffffffffffffffffffffffffffffffff166167fb82612c6a565b73ffffffffffffffffffffffffffffffffffffffff1614616851576040517f08c379a00000000000000000000000000000000000000000000000000000000081526004016168489061b319565b60405180910390fd5b600073ffffffffffffffffffffffffffffffffffffffff168273ffffffffffffffffffffffffffffffffffffffff16036168c0576040517f08c379a00000000000000000000000000000000000000000000000000000000081526004016168b79061b3ab565b60405180910390fd5b6168cd8383836001617394565b8273ffffffffffffffffffffffffffffffffffffffff166168ed82612c6a565b73ffffffffffffffffffffffffffffffffffffffff1614616943576040517f08c379a000000000000000000000000000000000000000000000000000000000815260040161693a9061b319565b60405180910390fd5b60cd600082815260200190815260200160002060006101000a81549073ffffffffffffffffffffffffffffffffffffffff0219169055600160cc60008573ffffffffffffffffffffffffffffffffffffffff1673ffffffffffffffffffffffffffffffffffffffff16815260200190815260200160002060008282540392505081905550600160cc60008473ffffffffffffffffffffffffffffffffffffffff1673ffffffffffffffffffffffffffffffffffffffff168152602001908152602001600020600082825401925050819055508160cb600083815260200190815260200160002060006101000a81548173ffffffffffffffffffffffffffffffffffffffff021916908373ffffffffffffffffffffffffffffffffffffffff160217905550808273ffffffffffffffffffffffffffffffffffffffff168473ffffffffffffffffffffffffffffffffffffffff167fddf252ad1be2c89b69c2b068fc378daa952ba7f163c4a11628f55a4df523b3ef60405160405180910390a4616acf83838360016176bd565b505050565b616ae867718e1503a864bb7d60c01b6163cb565b616afc6756d55de286ced1e760c01b6163cb565b616b106728dca73ca3a52b0f60c01b6163cb565b616b1d81610137546176c3565b616b3167bf568622800e9cc460c01b6163cb565b6101376000815480929190616b459061b3cb565b919050555050565b616b6167b7625a67fdedb54a60c01b6163cb565b616b75673363158d565157cc60c01b6163cb565b616b89673dae74c435a59eb660c01b6163cb565b616bd7828261013260019054906101000a900473ffffffffffffffffffffffffffffffffffffffff1673ffffffffffffffffffffffffffffffffffffffff166178e09092919063ffffffff16565b5050565b600060cb600083815260200190815260200160002060009054906101000a900473ffffffffffffffffffffffffffffffffffffffff169050919050565b606560006101000a81549073ffffffffffffffffffffffffffffffffffffffff0219169055616c4681617966565b50565b60008073ffffffffffffffffffffffffffffffffffffffff16616c6b83616bdb565b73ffffffffffffffffffffffffffffffffffffffff1614159050919050565b8173ffffffffffffffffffffffffffffffffffffffff168373ffffffffffffffffffffffffffffffffffffffff1603616cf8576040517f08c379a0000000000000000000000000000000000000000000000000000000008152600401616cef9061b45f565b60405180910390fd5b8060ce60008573ffffffffffffffffffffffffffffffffffffffff1673ffffffffffffffffffffffffffffffffffffffff16815260200190815260200160002060008473ffffffffffffffffffffffffffffffffffffffff1673ffffffffffffffffffffffffffffffffffffffff16815260200190815260200160002060006101000a81548160ff0219169083151502179055508173ffffffffffffffffffffffffffffffffffffffff168373ffffffffffffffffffffffffffffffffffffffff167f17307eab39ab6107e8899845ad3d59bd9653f200f220920489ca2b5937696c3183604051616de99190618798565b60405180910390a3505050565b616e018484846167db565b616e0d84848484617a2c565b616e4c576040517f08c379a0000000000000000000000000000000000000000000000000000000008152600401616e439061b4f1565b60405180910390fd5b50505050565b6060616e68676f2fa7859ee65a6460c01b6163cb565b616e7c679a1589d5b9438a3260c01b6163cb565b616e9067e809805f2b1fb03f60c01b6163cb565b61013a8054616e9e90619674565b80601f0160208091040260200160405190810160405280929190818152602001828054616eca90619674565b8015616f175780601f10616eec57610100808354040283529160200191616f17565b820191906000526020600020905b815481529060010190602001808311616efa57829003601f168201915b5050505050905090565b606060006001616f3084617bb3565b01905060008167ffffffffffffffff811115616f4f57616f4e6190e2565b5b6040519080825280601f01601f191660200182016040528015616f815781602001600182028036833780820191505090505b509050600082602001820190505b600115616fe4578080600190039150507f3031323334353637383961626364656600000000000000000000000000000000600a86061a8153600a8581616fd857616fd761b511565b5b04945060008503616f8f575b819350505050919050565b61700367f6d354e7c43a460460c01b6163cb565b617017672af3f85316cd1ed560c01b6163cb565b61702b67379261f11c7c147a60c01b6163cb565b600061012d600085815260200190815260200160002090506170566695387e47d258b560c01b6163cb565b828160000160006101000a81548173ffffffffffffffffffffffffffffffffffffffff021916908373ffffffffffffffffffffffffffffffffffffffff1602179055506170ad6763a414b0a663a3aa60c01b6163cb565b818160000160146101000a81548167ffffffffffffffff021916908367ffffffffffffffff1602179055506170ec67966fe280573e8fd060c01b6163cb565b617100674ae6582b8b52b43160c01b6163cb565b8273ffffffffffffffffffffffffffffffffffffffff16847f4e06b4e7000e659094299b3533b47b6aa8ad048e95e872d23d1f4ee55af89cfe846040516171479190618b9c565b60405180910390a350505050565b60007f80ac58cd000000000000000000000000000000000000000000000000000000007bffffffffffffffffffffffffffffffffffffffffffffffffffffffff1916827bffffffffffffffffffffffffffffffffffffffffffffffffffffffff1916148061722057507f5b5e139f000000000000000000000000000000000000000000000000000000007bffffffffffffffffffffffffffffffffffffffffffffffffffffffff1916827bffffffffffffffffffffffffffffffffffffffffffffffffffffffff1916145b80617230575061722f82617d06565b5b9050919050565b600060019054906101000a900460ff16617286576040517f08c379a000000000000000000000000000000000000000000000000000000000815260040161727d9061b21b565b60405180910390fd5b8160c99081617295919061b540565b508060ca90816172a5919061b540565b505050565b600060019054906101000a900460ff166172f9576040517f08c379a00000000000000000000000000000000000000000000000000000000081526004016172f09061b21b565b60405180910390fd5b61730961730461649e565b616c18565b565b61738e846323b872dd60e01b85858560405160240161732c9392919061b612565b604051602081830303815290604052907bffffffffffffffffffffffffffffffffffffffffffffffffffffffff19166020820180517bffffffffffffffffffffffffffffffffffffffffffffffffffffffff8381831617835250505050617d70565b50505050565b6173a867272dc8601076635260c01b6163cb565b6173bc6754ec737b710a28d360c01b6163cb565b6173d0678804196a90b7bfa860c01b6163cb565b6173dc84848484617e38565b6173f06787694d1f644e9f8560c01b6163cb565b61740467c573f5a5edf4a88460c01b6163cb565b617418676eed851bfaa9abb060c01b6163cb565b6000151561742583614250565b151514617467576040517f08c379a000000000000000000000000000000000000000000000000000000000815260040161745e9061ad72565b60405180910390fd5b61747b6709a4fbb924d1f0a060c01b6163cb565b61748f67a54f7cba8cda011960c01b6163cb565b6174a36717a74a0c4d193dee60c01b6163cb565b600073ffffffffffffffffffffffffffffffffffffffff168473ffffffffffffffffffffffffffffffffffffffff16141580156174ee575061013b60009054906101000a900460ff16155b1561753d576175076740c1e9fbb3af282760c01b6163cb565b61751b67d2a18acbbd14775f60c01b6163cb565b61752f67d10ad20fe82af44160c01b6163cb565b61753884617f96565b617552565b61755167cd374b5b1f02f3bf60c01b6163cb565b5b617566674103066ddb86301b60c01b6163cb565b61757a6751095afb2494968c60c01b6163cb565b8273ffffffffffffffffffffffffffffffffffffffff168473ffffffffffffffffffffffffffffffffffffffff161415801561761a5750600073ffffffffffffffffffffffffffffffffffffffff1661012d600084815260200190815260200160002060000160009054906101000a900473ffffffffffffffffffffffffffffffffffffffff1673ffffffffffffffffffffffffffffffffffffffff1614155b156176a25761763367dd23e4e6c6e2a99560c01b6163cb565b61764767eaa4e34375bb651460c01b6163cb565b61765b679b8396979b14d22d60c01b6163cb565b600061766683613c2c565b905061767c67f5d00776ee67c88f60c01b6163cb565b61769067ad3184a75a2eb86560c01b6163cb565b61769c83600083616fef565b506176b7565b6176b6674e1372e4c018bd5760c01b6163cb565b5b50505050565b50505050565b600073ffffffffffffffffffffffffffffffffffffffff168273ffffffffffffffffffffffffffffffffffffffff1603617732576040517f08c379a00000000000000000000000000000000000000000000000000000000081526004016177299061b695565b60405180910390fd5b61773b81616c49565b1561777b576040517f08c379a00000000000000000000000000000000000000000000000000000000081526004016177729061b701565b60405180910390fd5b617789600083836001617394565b61779281616c49565b156177d2576040517f08c379a00000000000000000000000000000000000000000000000000000000081526004016177c99061b701565b60405180910390fd5b600160cc60008473ffffffffffffffffffffffffffffffffffffffff1673ffffffffffffffffffffffffffffffffffffffff168152602001908152602001600020600082825401925050819055508160cb600083815260200190815260200160002060006101000a81548173ffffffffffffffffffffffffffffffffffffffff021916908373ffffffffffffffffffffffffffffffffffffffff160217905550808273ffffffffffffffffffffffffffffffffffffffff16600073ffffffffffffffffffffffffffffffffffffffff167fddf252ad1be2c89b69c2b068fc378daa952ba7f163c4a11628f55a4df523b3ef60405160405180910390a46178dc6000838360016176bd565b5050565b6179618363a9059cbb60e01b84846040516024016178ff92919061b721565b604051602081830303815290604052907bffffffffffffffffffffffffffffffffffffffffffffffffffffffff19166020820180517bffffffffffffffffffffffffffffffffffffffffffffffffffffffff8381831617835250505050617d70565b505050565b6000603360009054906101000a900473ffffffffffffffffffffffffffffffffffffffff16905081603360006101000a81548173ffffffffffffffffffffffffffffffffffffffff021916908373ffffffffffffffffffffffffffffffffffffffff1602179055508173ffffffffffffffffffffffffffffffffffffffff168173ffffffffffffffffffffffffffffffffffffffff167f8be0079c531659141344cd1fd0a4f28419497f9722a3daafe3b4186f6b6457e060405160405180910390a35050565b6000617a4d8473ffffffffffffffffffffffffffffffffffffffff1661655f565b15617ba6578373ffffffffffffffffffffffffffffffffffffffff1663150b7a02617a7661649e565b8786866040518563ffffffff1660e01b8152600401617a98949392919061b79f565b6020604051808303816000875af1925050508015617ad457506040513d601f19601f82011682018060405250810190617ad1919061b800565b60015b617b56573d8060008114617b04576040519150601f19603f3d011682016040523d82523d6000602084013e617b09565b606091505b506000815103617b4e576040517f08c379a0000000000000000000000000000000000000000000000000000000008152600401617b459061b4f1565b60405180910390fd5b805181602001fd5b63150b7a0260e01b7bffffffffffffffffffffffffffffffffffffffffffffffffffffffff1916817bffffffffffffffffffffffffffffffffffffffffffffffffffffffff191614915050617bab565b600190505b949350505050565b600080600090507a184f03e93ff9f4daa797ed6e38ed64bf6a1f0100000000000000008310617c11577a184f03e93ff9f4daa797ed6e38ed64bf6a1f0100000000000000008381617c0757617c0661b511565b5b0492506040810190505b6d04ee2d6d415b85acef81000000008310617c4e576d04ee2d6d415b85acef81000000008381617c4457617c4361b511565b5b0492506020810190505b662386f26fc100008310617c7d57662386f26fc100008381617c7357617c7261b511565b5b0492506010810190505b6305f5e1008310617ca6576305f5e1008381617c9c57617c9b61b511565b5b0492506008810190505b6127108310617ccb576127108381617cc157617cc061b511565b5b0492506004810190505b60648310617cee5760648381617ce457617ce361b511565b5b0492506002810190505b600a8310617cfd576001810190505b80915050919050565b60007f01ffc9a7000000000000000000000000000000000000000000000000000000007bffffffffffffffffffffffffffffffffffffffffffffffffffffffff1916827bffffffffffffffffffffffffffffffffffffffffffffffffffffffff1916149050919050565b6000617dd2826040518060400160405280602081526020017f5361666545524332303a206c6f772d6c6576656c2063616c6c206661696c65648152508573ffffffffffffffffffffffffffffffffffffffff166181ed9092919063ffffffff16565b9050600081511480617df4575080806020019051810190617df3919061b842565b5b617e33576040517f08c379a0000000000000000000000000000000000000000000000000000000008152600401617e2a9061b8e1565b60405180910390fd5b505050565b617e4484848484618205565b6001811115617e88576040517f08c379a0000000000000000000000000000000000000000000000000000000008152600401617e7f9061b973565b60405180910390fd5b6000829050600073ffffffffffffffffffffffffffffffffffffffff168573ffffffffffffffffffffffffffffffffffffffff1603617ecf57617eca8161820b565b617f0e565b8373ffffffffffffffffffffffffffffffffffffffff168573ffffffffffffffffffffffffffffffffffffffff1614617f0d57617f0c8582618254565b5b5b600073ffffffffffffffffffffffffffffffffffffffff168473ffffffffffffffffffffffffffffffffffffffff1603617f5057617f4b816183c1565b617f8f565b8473ffffffffffffffffffffffffffffffffffffffff168473ffffffffffffffffffffffffffffffffffffffff1614617f8e57617f8d8482618492565b5b5b5050505050565b617faa6716df5b454267c93460c01b6163cb565b617fbe67fa945e0f9cf567d260c01b6163cb565b617fd267f210560e1ea9d20b60c01b6163cb565b617fe667028e31cb6296f51160c01b6163cb565b8073ffffffffffffffffffffffffffffffffffffffff163373ffffffffffffffffffffffffffffffffffffffff1614618054576040517f08c379a000000000000000000000000000000000000000000000000000000000815260040161804b9061b9df565b60405180910390fd5b61806867fbb072b51ce78e2860c01b6163cb565b61807c67a01edbcfc30d934f60c01b6163cb565b618090671ff79e5bb478f6f660c01b6163cb565b6180a4672224e5f56212a75b60c01b6163cb565b61012f60008273ffffffffffffffffffffffffffffffffffffffff1673ffffffffffffffffffffffffffffffffffffffff16815260200190815260200160002060009054906101000a900460ff16618131576040517f08c379a00000000000000000000000000000000000000000000000000000000081526004016181289061ba4b565b60405180910390fd5b618145672dec805f2fce06e960c01b6163cb565b61815967cd464fd5c6d976d160c01b6163cb565b61816d67d9babb3cdd60e4cd60c01b6163cb565b618181674a16cfc021671adc60c01b6163cb565b4261013054111580156181975750610131544211155b6181d6576040517f08c379a00000000000000000000000000000000000000000000000000000000081526004016181cd9061badd565b60405180910390fd5b6181ea67f2bfce51e70e9d7c60c01b6163cb565b50565b60606181fc8484600085618511565b90509392505050565b50505050565b60fd8054905060fe60008381526020019081526020016000208190555060fd81908060018154018082558091505060019003906000526020600020016000909190919091505550565b6000600161826184612d1e565b61826b919061a2bb565b9050600060fc600084815260200190815260200160002054905081811461835057600060fb60008673ffffffffffffffffffffffffffffffffffffffff1673ffffffffffffffffffffffffffffffffffffffff16815260200190815260200160002060008481526020019081526020016000205490508060fb60008773ffffffffffffffffffffffffffffffffffffffff1673ffffffffffffffffffffffffffffffffffffffff1681526020019081526020016000206000848152602001908152602001600020819055508160fc600083815260200190815260200160002081905550505b60fc60008481526020019081526020016000206000905560fb60008573ffffffffffffffffffffffffffffffffffffffff1673ffffffffffffffffffffffffffffffffffffffff16815260200190815260200160002060008381526020019081526020016000206000905550505050565b6000600160fd805490506183d5919061a2bb565b9050600060fe6000848152602001908152602001600020549050600060fd838154811061840557618404619dd4565b5b906000526020600020015490508060fd838154811061842757618426619dd4565b5b90600052602060002001819055508160fe60008381526020019081526020016000208190555060fe60008581526020019081526020016000206000905560fd8054806184765761847561bafd565b5b6001900381819060005260206000200160009055905550505050565b600061849d83612d1e565b90508160fb60008573ffffffffffffffffffffffffffffffffffffffff1673ffffffffffffffffffffffffffffffffffffffff1681526020019081526020016000206000838152602001908152602001600020819055508060fc600084815260200190815260200160002081905550505050565b606082471015618556576040517f08c379a000000000000000000000000000000000000000000000000000000000815260040161854d9061bb9e565b60405180910390fd5b6000808673ffffffffffffffffffffffffffffffffffffffff16858760405161857f919061bbfa565b60006040518083038185875af1925050503d80600081146185bc576040519150601f19603f3d011682016040523d82523d6000602084013e6185c1565b606091505b50915091506185d2878383876185de565b92505050949350505050565b60608315618640576000835103618638576185f88561655f565b618637576040517f08c379a000000000000000000000000000000000000000000000000000000000815260040161862e9061bc5d565b60405180910390fd5b5b82905061864b565b61864a8383618653565b5b949350505050565b6000825111156186665781518083602001fd5b806040517f08c379a000000000000000000000000000000000000000000000000000000000815260040161869a9190618843565b60405180910390fd5b6040518060600160405280600073ffffffffffffffffffffffffffffffffffffffff168152602001600067ffffffffffffffff168152602001600081525090565b6000604051905090565b600080fd5b600080fd5b60007fffffffff0000000000000000000000000000000000000000000000000000000082169050919050565b61872d816186f8565b811461873857600080fd5b50565b60008135905061874a81618724565b92915050565b600060208284031215618766576187656186ee565b5b60006187748482850161873b565b91505092915050565b60008115159050919050565b6187928161877d565b82525050565b60006020820190506187ad6000830184618789565b92915050565b600081519050919050565b600082825260208201905092915050565b60005b838110156187ed5780820151818401526020810190506187d2565b60008484015250505050565b6000601f19601f8301169050919050565b6000618815826187b3565b61881f81856187be565b935061882f8185602086016187cf565b618838816187f9565b840191505092915050565b6000602082019050818103600083015261885d818461880a565b905092915050565b6000819050919050565b61887881618865565b811461888357600080fd5b50565b6000813590506188958161886f565b92915050565b6000602082840312156188b1576188b06186ee565b5b60006188bf84828501618886565b91505092915050565b600073ffffffffffffffffffffffffffffffffffffffff82169050919050565b60006188f3826188c8565b9050919050565b618903816188e8565b82525050565b600060208201905061891e60008301846188fa565b92915050565b61892d816188e8565b811461893857600080fd5b50565b60008135905061894a81618924565b92915050565b60008060408385031215618967576189666186ee565b5b60006189758582860161893b565b925050602061898685828601618886565b9150509250929050565b61899981618865565b82525050565b60006020820190506189b46000830184618990565b92915050565b600080600080600060a086880312156189d6576189d56186ee565b5b60006189e48882890161893b565b95505060206189f58882890161893b565b9450506040618a068882890161893b565b9350506060618a178882890161893b565b9250506080618a288882890161893b565b9150509295509295909350565b600080600060608486031215618a4e57618a4d6186ee565b5b6000618a5c8682870161893b565b9350506020618a6d8682870161893b565b9250506040618a7e86828701618886565b9150509250925092565b600080fd5b600080fd5b600080fd5b60008083601f840112618aad57618aac618a88565b5b8235905067ffffffffffffffff811115618aca57618ac9618a8d565b5b602083019150836020820283011115618ae657618ae5618a92565b5b9250929050565b618af68161877d565b8114618b0157600080fd5b50565b600081359050618b1381618aed565b92915050565b600080600060408486031215618b3257618b316186ee565b5b600084013567ffffffffffffffff811115618b5057618b4f6186f3565b5b618b5c86828701618a97565b93509350506020618b6f86828701618b04565b9150509250925092565b600067ffffffffffffffff82169050919050565b618b9681618b79565b82525050565b6000602082019050618bb16000830184618b8d565b92915050565b600060208284031215618bcd57618bcc6186ee565b5b6000618bdb8482850161893b565b91505092915050565b6000604082019050618bf96000830185618990565b618c066020830184618990565b9392505050565b618c1681618b79565b8114618c2157600080fd5b50565b600081359050618c3381618c0d565b92915050565b600080600060608486031215618c5257618c516186ee565b5b6000618c6086828701618886565b9350506020618c7186828701618886565b9250506040618c8286828701618c24565b9150509250925092565b6000819050919050565b6000618cb1618cac618ca7846188c8565b618c8c565b6188c8565b9050919050565b6000618cc382618c96565b9050919050565b6000618cd582618cb8565b9050919050565b618ce581618cca565b82525050565b6000602082019050618d006000830184618cdc565b92915050565b6000606082019050618d1b6000830186618990565b618d286020830185618990565b618d356040830184618b8d565b949350505050565b600081519050919050565b600082825260208201905092915050565b6000819050602082019050919050565b618d7281618865565b82525050565b618d8181618b79565b82525050565b606082016000820151618d9d6000850182618d69565b506020820151618db06020850182618d69565b506040820151618dc36040850182618d78565b50505050565b6000618dd58383618d87565b60608301905092915050565b6000602082019050919050565b6000618df982618d3d565b618e038185618d48565b9350618e0e83618d59565b8060005b83811015618e3f578151618e268882618dc9565b9750618e3183618de1565b925050600181019050618e12565b5085935050505092915050565b600061016082019050618e62600083018e6188fa565b618e6f602083018d6188fa565b618e7c604083018c6188fa565b618e89606083018b6188fa565b618e96608083018a6188fa565b618ea360a08301896188fa565b618eb060c0830188618990565b618ebd60e0830187618990565b618ecb610100830186618789565b818103610120830152618ede818561880a565b9050818103610140830152618ef38184618dee565b90509c9b505050505050505050505050565b60008083601f840112618f1b57618f1a618a88565b5b8235905067ffffffffffffffff811115618f3857618f37618a8d565b5b602083019150836020820283011115618f5457618f53618a92565b5b9250929050565b60008060008060408587031215618f7557618f746186ee565b5b600085013567ffffffffffffffff811115618f9357618f926186f3565b5b618f9f87828801618a97565b9450945050602085013567ffffffffffffffff811115618fc257618fc16186f3565b5b618fce87828801618f05565b925092505092959194509250565b60008060408385031215618ff357618ff26186ee565b5b600061900185828601618886565b925050602061901285828601618c24565b9150509250929050565b60008060008060408587031215619036576190356186ee565b5b600085013567ffffffffffffffff811115619054576190536186f3565b5b61906087828801618f05565b9450945050602085013567ffffffffffffffff811115619083576190826186f3565b5b61908f87828801618a97565b925092505092959194509250565b600080604083850312156190b4576190b36186ee565b5b60006190c28582860161893b565b92505060206190d385828601618b04565b9150509250929050565b600080fd5b7f4e487b7100000000000000000000000000000000000000000000000000000000600052604160045260246000fd5b61911a826187f9565b810181811067ffffffffffffffff82111715619139576191386190e2565b5b80604052505050565b600061914c6186e4565b90506191588282619111565b919050565b600067ffffffffffffffff821115619178576191776190e2565b5b619181826187f9565b9050602081019050919050565b82818337600083830152505050565b60006191b06191ab8461915d565b619142565b9050828152602081018484840111156191cc576191cb6190dd565b5b6191d784828561918e565b509392505050565b600082601f8301126191f4576191f3618a88565b5b813561920484826020860161919d565b91505092915050565b60008060008060808587031215619227576192266186ee565b5b60006192358782880161893b565b94505060206192468782880161893b565b935050604061925787828801618886565b925050606085013567ffffffffffffffff811115619278576192776186f3565b5b619284878288016191df565b91505092959194509250565b60008083601f8401126192a6576192a5618a88565b5b8235905067ffffffffffffffff8111156192c3576192c2618a8d565b5b6020830191508360018202830111156192df576192de618a92565b5b9250929050565b600080602083850312156192fd576192fc6186ee565b5b600083013567ffffffffffffffff81111561931b5761931a6186f3565b5b61932785828601619290565b92509250509250929050565b61933c816188e8565b82525050565b6060820160008201516193586000850182619333565b50602082015161936b6020850182618d78565b50604082015161937e6040850182618d69565b50505050565b60006060820190506193996000830184619342565b92915050565b600080600080604085870312156193b9576193b86186ee565b5b600085013567ffffffffffffffff8111156193d7576193d66186f3565b5b6193e387828801618f05565b9450945050602085013567ffffffffffffffff811115619406576194056186f3565b5b61941287828801618f05565b925092505092959194509250565b60008060408385031215619437576194366186ee565b5b600061944585828601618886565b92505060206194568582860161893b565b9150509250929050565b60008060408385031215619477576194766186ee565b5b600061948585828601618886565b925050602061949685828601618886565b9150509250929050565b600080600080608085870312156194ba576194b96186ee565b5b60006194c887828801618886565b94505060206194d987828801618886565b93505060406194ea87828801618886565b92505060606194fb87828801618c24565b91505092959194509250565b6000806040838503121561951e5761951d6186ee565b5b600061952c8582860161893b565b925050602061953d8582860161893b565b9150509250929050565b600081519050919050565b600082825260208201905092915050565b6000819050602082019050919050565b600061957f8383618d69565b60208301905092915050565b6000602082019050919050565b60006195a382619547565b6195ad8185619552565b93506195b883619563565b8060005b838110156195e95781516195d08882619573565b97506195db8361958b565b9250506001810190506195bc565b5085935050505092915050565b600060208201905081810360008301526196108184619598565b905092915050565b60006020828403121561962e5761962d6186ee565b5b600061963c84828501618b04565b91505092915050565b7f4e487b7100000000000000000000000000000000000000000000000000000000600052602260045260246000fd5b6000600282049050600182168061968c57607f821691505b60208210810361969f5761969e619645565b5b50919050565b7f4552433732313a20617070726f76616c20746f2063757272656e74206f776e6560008201527f7200000000000000000000000000000000000000000000000000000000000000602082015250565b60006197016021836187be565b915061970c826196a5565b604082019050919050565b60006020820190508181036000830152619730816196f4565b9050919050565b7f4552433732313a20617070726f76652063616c6c6572206973206e6f7420746f60008201527f6b656e206f776e6572206f7220617070726f76656420666f7220616c6c000000602082015250565b6000619793603d836187be565b915061979e82619737565b604082019050919050565b600060208201905081810360008301526197c281619786565b9050919050565b7f496e697469616c697a61626c653a20636f6e747261637420697320616c72656160008201527f647920696e697469616c697a6564000000000000000000000000000000000000602082015250565b6000619825602e836187be565b9150619830826197c9565b604082019050919050565b6000602082019050818103600083015261985481619818565b9050919050565b7f5a65726f2061646472657373206e6f7420616c6c6f77656420666f722043585460008201527f20746f6b656e0000000000000000000000000000000000000000000000000000602082015250565b60006198b76026836187be565b91506198c28261985b565b604082019050919050565b600060208201905081810360008301526198e6816198aa565b9050919050565b7f5a65726f2061646472657373206e6f7420616c6c6f77656420666f72206d696e60008201527f7465722061646d696e0000000000000000000000000000000000000000000000602082015250565b60006199496029836187be565b9150619954826198ed565b604082019050919050565b600060208201905081810360008301526199788161993c565b9050919050565b7f5a65726f2061646472657373206e6f7420616c6c6f77656420666f722062616e60008201527f2061646d696e0000000000000000000000000000000000000000000000000000602082015250565b60006199db6026836187be565b91506199e68261997f565b604082019050919050565b60006020820190508181036000830152619a0a816199ce565b9050919050565b7f5a65726f2061646472657373206e6f7420616c6c6f77656420666f722077686960008201527f74656c6973742061646d696e0000000000000000000000000000000000000000602082015250565b6000619a6d602c836187be565b9150619a7882619a11565b604082019050919050565b60006020820190508181036000830152619a9c81619a60565b9050919050565b7f5a65726f2061646472657373206e6f7420616c6c6f77656420666f722072657760008201527f6172642061646d696e0000000000000000000000000000000000000000000000602082015250565b6000619aff6029836187be565b9150619b0a82619aa3565b604082019050919050565b60006020820190508181036000830152619b2e81619af2565b9050919050565b600060e082019050619b4a600083018a6188fa565b619b5760208301896188fa565b619b6460408301886188fa565b619b7160608301876188fa565b619b7e6080830186618789565b619b8b60a0830185618990565b619b9860c0830184618789565b98975050505050505050565b6000819050919050565b600060ff82169050919050565b6000619bd6619bd1619bcc84619ba4565b618c8c565b619bae565b9050919050565b619be681619bbb565b82525050565b6000602082019050619c016000830184619bdd565b92915050565b7f416d6f756e742069732030000000000000000000000000000000000000000000600082015250565b6000619c3d600b836187be565b9150619c4882619c07565b602082019050919050565b60006020820190508181036000830152619c6c81619c30565b9050919050565b7f4e487b7100000000000000000000000000000000000000000000000000000000600052601160045260246000fd5b6000619cad82618865565b9150619cb883618865565b9250828201905080821115619cd057619ccf619c73565b5b92915050565b7f4552433732313a2063616c6c6572206973206e6f7420746f6b656e206f776e6560008201527f72206f7220617070726f76656400000000000000000000000000000000000000602082015250565b6000619d32602d836187be565b9150619d3d82619cd6565b604082019050919050565b60006020820190508181036000830152619d6181619d25565b9050919050565b7f6f6e6c792077686974656c6973742061646d696e000000000000000000000000600082015250565b6000619d9e6014836187be565b9150619da982619d68565b602082019050919050565b60006020820190508181036000830152619dcd81619d91565b9050919050565b7f4e487b7100000000000000000000000000000000000000000000000000000000600052603260045260246000fd5b600082825260208201905092915050565b6000819050919050565b6000619e2a8383619333565b60208301905092915050565b6000619e45602084018461893b565b905092915050565b6000602082019050919050565b6000619e668385619e03565b9350619e7182619e14565b8060005b85811015619eaa57619e878284619e36565b619e918882619e1e565b9750619e9c83619e4d565b925050600181019050619e75565b5085925050509392505050565b60006040820190508181036000830152619ed2818587619e5a565b9050619ee16020830184618789565b949350505050565b7f455243373231456e756d657261626c653a206f776e657220696e646578206f7560008201527f74206f6620626f756e6473000000000000000000000000000000000000000000602082015250565b6000619f45602b836187be565b9150619f5082619ee9565b604082019050919050565b60006020820190508181036000830152619f7481619f38565b9050919050565b7f6d75737420626520706175736564000000000000000000000000000000000000600082015250565b6000619fb1600e836187be565b9150619fbc82619f7b565b602082019050919050565b60006020820190508181036000830152619fe081619fa4565b9050919050565b7f7061757365640000000000000000000000000000000000000000000000000000600082015250565b600061a01d6006836187be565b915061a02882619fe7565b602082019050919050565b6000602082019050818103600083015261a04c8161a010565b9050919050565b7f5a65726f2061646472657373206e6f7420616c6c6f77656420666f72206d696e60008201527f7420726563697069656e74000000000000000000000000000000000000000000602082015250565b600061a0af602b836187be565b915061a0ba8261a053565b604082019050919050565b6000602082019050818103600083015261a0de8161a0a2565b9050919050565b7f63616c6c6572206973206e6f7420746865206d696e7465720000000000000000600082015250565b600061a11b6018836187be565b915061a1268261a0e5565b602082019050919050565b6000602082019050818103600083015261a14a8161a10e565b9050919050565b7f455243373231456e756d657261626c653a20676c6f62616c20696e646578206f60008201527f7574206f6620626f756e64730000000000000000000000000000000000000000602082015250565b600061a1ad602c836187be565b915061a1b88261a151565b604082019050919050565b6000602082019050818103600083015261a1dc8161a1a0565b9050919050565b7f52657761726420706f6f6c20697320746f6f20736d616c6c0000000000000000600082015250565b600061a2196018836187be565b915061a2248261a1e3565b602082019050919050565b6000602082019050818103600083015261a2488161a20c565b9050919050565b7f496e76616c69642072616e676500000000000000000000000000000000000000600082015250565b600061a285600d836187be565b915061a2908261a24f565b602082019050919050565b6000602082019050818103600083015261a2b48161a278565b9050919050565b600061a2c682618865565b915061a2d183618865565b925082820390508181111561a2e95761a2e8619c73565b5b92915050565b7f4e65772072616e6765206f7665726c6170732077697468206578697374696e6760008201527f2072616e67650000000000000000000000000000000000000000000000000000602082015250565b600061a34b6026836187be565b915061a3568261a2ef565b604082019050919050565b6000602082019050818103600083015261a37a8161a33e565b9050919050565b7f4552433732313a20696e76616c696420746f6b656e2049440000000000000000600082015250565b600061a3b76018836187be565b915061a3c28261a381565b602082019050919050565b6000602082019050818103600083015261a3e68161a3aa565b9050919050565b7f4552433732313a2061646472657373207a65726f206973206e6f74206120766160008201527f6c6964206f776e65720000000000000000000000000000000000000000000000602082015250565b600061a4496029836187be565b915061a4548261a3ed565b604082019050919050565b6000602082019050818103600083015261a4788161a43c565b9050919050565b7f4f776e61626c6532537465703a2063616c6c6572206973206e6f74207468652060008201527f6e6577206f776e65720000000000000000000000000000000000000000000000602082015250565b600061a4db6029836187be565b915061a4e68261a47f565b604082019050919050565b6000602082019050818103600083015261a50a8161a4ce565b9050919050565b7f6172726179206c656e6774682073686f756c642062652073616d650000000000600082015250565b600061a547601b836187be565b915061a5528261a511565b602082019050919050565b6000602082019050818103600083015261a5768161a53a565b9050919050565b7f6f6e6c792062616e2061646d696e000000000000000000000000000000000000600082015250565b600061a5b3600e836187be565b915061a5be8261a57d565b602082019050919050565b6000602082019050818103600083015261a5e28161a5a6565b9050919050565b6000819050919050565b600061a60e61a60961a6048461a5e9565b618c8c565b618b79565b9050919050565b61a61e8161a5f3565b82525050565b600060608201905061a63960008301866188fa565b61a6466020830185618990565b61a653604083018461a615565b949350505050565b7f696e76616c696420656e642074696d6500000000000000000000000000000000600082015250565b600061a6916010836187be565b915061a69c8261a65b565b602082019050919050565b6000602082019050818103600083015261a6c08161a684565b9050919050565b7f696e76616c696420746f6b656e20696400000000000000000000000000000000600082015250565b600061a6fd6010836187be565b915061a7088261a6c7565b602082019050919050565b6000602082019050818103600083015261a72c8161a6f0565b9050919050565b600060608201905061a74860008301866188fa565b61a7556020830185618990565b61a7626040830184618b8d565b949350505050565b7f496e76616c696420616464726573730000000000000000000000000000000000600082015250565b600061a7a0600f836187be565b915061a7ab8261a76a565b602082019050919050565b6000602082019050818103600083015261a7cf8161a793565b9050919050565b600082905092915050565b60008190508160005260206000209050919050565b60006020601f8301049050919050565b600082821b905092915050565b60006008830261a8437fffffffffffffffffffffffffffffffffffffffffffffffffffffffffffffffff8261a806565b61a84d868361a806565b95508019841693508086168417925050509392505050565b600061a88061a87b61a87684618865565b618c8c565b618865565b9050919050565b6000819050919050565b61a89a8361a865565b61a8ae61a8a68261a887565b84845461a813565b825550505050565b600090565b61a8c361a8b6565b61a8ce81848461a891565b505050565b5b8181101561a8f25761a8e760008261a8bb565b60018101905061a8d4565b5050565b601f82111561a9375761a9088161a7e1565b61a9118461a7f6565b8101602085101561a920578190505b61a93461a92c8561a7f6565b83018261a8d3565b50505b505050565b600082821c905092915050565b600061a95a6000198460080261a93c565b1980831691505092915050565b600061a973838361a949565b9150826002028217905092915050565b61a98d838361a7d6565b67ffffffffffffffff81111561a9a65761a9a56190e2565b5b61a9b08254619674565b61a9bb82828561a8f6565b6000601f83116001811461a9ea576000841561a9d8578287013590505b61a9e2858261a967565b86555061aa4a565b601f19841661a9f88661a7e1565b60005b8281101561aa205784890135825560018201915060208501945060208101905061a9fb565b8683101561aa3d578489013561aa39601f89168261a949565b8355505b6001600288020188555050505b50505050505050565b600061aa5f83856187be565b935061aa6c83858461918e565b61aa75836187f9565b840190509392505050565b6000602082019050818103600083015261aa9b81848661aa53565b90509392505050565b600081905092915050565b600061aaba826187b3565b61aac4818561aaa4565b935061aad48185602086016187cf565b80840191505092915050565b600061aaec828561aaaf565b915061aaf8828461aaaf565b91508190509392505050565b7f43616c6c6572206973206e6f74207265776172644d616e6167657220726f6c65600082015250565b600061ab3a6020836187be565b915061ab458261ab04565b602082019050919050565b6000602082019050818103600083015261ab698161ab2d565b9050919050565b7f476976656e2069647320616e6420616d6f756e747320617272617973206d757360008201527f74206265206f66207468652073616d65206c656e677468000000000000000000602082015250565b600061abcc6037836187be565b915061abd78261ab70565b604082019050919050565b6000602082019050818103600083015261abfb8161abbf565b9050919050565b7f496e73756666696369656e742066756e647320696e2072657761726420706f6f60008201527f6c20666f7220726577617264546f6b656e496473000000000000000000000000602082015250565b600061ac5e6034836187be565b915061ac698261ac02565b604082019050919050565b6000602082019050818103600083015261ac8d8161ac51565b9050919050565b7f455243343930373a2063616c6c6572206973206e6f74206f776e6572206e6f7260008201527f20617070726f7665640000000000000000000000000000000000000000000000602082015250565b600061acf06029836187be565b915061acfb8261ac94565b604082019050919050565b6000602082019050818103600083015261ad1f8161ace3565b9050919050565b7f746f6b656e2069732062616e6e65640000000000000000000000000000000000600082015250565b600061ad5c600f836187be565b915061ad678261ad26565b602082019050919050565b6000602082019050818103600083015261ad8b8161ad4f565b9050919050565b7f746f6b656e206861732065787069726564000000000000000000000000000000600082015250565b600061adc86011836187be565b915061add38261ad92565b602082019050919050565b6000602082019050818103600083015261adf78161adbb565b9050919050565b7f656e642074696d65206d7573742062652067726561746572207468616e20737460008201527f6172742074696d65000000000000000000000000000000000000000000000000602082015250565b600061ae5a6028836187be565b915061ae658261adfe565b604082019050919050565b6000602082019050818103600083015261ae898161ae4d565b9050919050565b7f496e76616c696420696e64657800000000000000000000000000000000000000600082015250565b600061aec6600d836187be565b915061aed18261ae90565b602082019050919050565b6000602082019050818103600083015261aef58161aeb9565b9050919050565b7f52616e6765206f7665726c61707320776974682070726576696f75732072616e60008201527f6765000000000000000000000000000000000000000000000000000000000000602082015250565b600061af586022836187be565b915061af638261aefc565b604082019050919050565b6000602082019050818103600083015261af878161af4b565b9050919050565b7f52616e6765206f7665726c6170732077697468206e6578742072616e67650000600082015250565b600061afc4601e836187be565b915061afcf8261af8e565b602082019050919050565b6000602082019050818103600083015261aff38161afb7565b9050919050565b600060808201905061b00f6000830187618990565b61b01c6020830186618990565b61b0296040830185618990565b61b0366060830184618b8d565b95945050505050565b7f4e6f20746f6b656e73206f776e65640000000000000000000000000000000000600082015250565b600061b075600f836187be565b915061b0808261b03f565b602082019050919050565b6000602082019050818103600083015261b0a48161b068565b9050919050565b7f546f74616c2072656465656d61626c6520616d6f756e74206d7573742062652060008201527f686967686572207468616e2072656465656d207468726573686f6c6400000000602082015250565b600061b107603c836187be565b915061b1128261b0ab565b604082019050919050565b6000602082019050818103600083015261b1368161b0fa565b9050919050565b7f696e76616c696420636f756e7400000000000000000000000000000000000000600082015250565b600061b173600d836187be565b915061b17e8261b13d565b602082019050919050565b6000602082019050818103600083015261b1a28161b166565b9050919050565b7f496e697469616c697a61626c653a20636f6e7472616374206973206e6f74206960008201527f6e697469616c697a696e67000000000000000000000000000000000000000000602082015250565b600061b205602b836187be565b915061b2108261b1a9565b604082019050919050565b6000602082019050818103600083015261b2348161b1f8565b9050919050565b7f4f776e61626c653a2063616c6c6572206973206e6f7420746865206f776e6572600082015250565b600061b2716020836187be565b915061b27c8261b23b565b602082019050919050565b6000602082019050818103600083015261b2a08161b264565b9050919050565b7f4552433732313a207472616e736665722066726f6d20696e636f72726563742060008201527f6f776e6572000000000000000000000000000000000000000000000000000000602082015250565b600061b3036025836187be565b915061b30e8261b2a7565b604082019050919050565b6000602082019050818103600083015261b3328161b2f6565b9050919050565b7f4552433732313a207472616e7366657220746f20746865207a65726f2061646460008201527f7265737300000000000000000000000000000000000000000000000000000000602082015250565b600061b3956024836187be565b915061b3a08261b339565b604082019050919050565b6000602082019050818103600083015261b3c48161b388565b9050919050565b600061b3d682618865565b91507fffffffffffffffffffffffffffffffffffffffffffffffffffffffffffffffff820361b4085761b407619c73565b5b600182019050919050565b7f4552433732313a20617070726f766520746f2063616c6c657200000000000000600082015250565b600061b4496019836187be565b915061b4548261b413565b602082019050919050565b6000602082019050818103600083015261b4788161b43c565b9050919050565b7f4552433732313a207472616e7366657220746f206e6f6e20455243373231526560008201527f63656976657220696d706c656d656e7465720000000000000000000000000000602082015250565b600061b4db6032836187be565b915061b4e68261b47f565b604082019050919050565b6000602082019050818103600083015261b50a8161b4ce565b9050919050565b7f4e487b7100000000000000000000000000000000000000000000000000000000600052601260045260246000fd5b61b549826187b3565b67ffffffffffffffff81111561b5625761b5616190e2565b5b61b56c8254619674565b61b57782828561a8f6565b600060209050601f83116001811461b5aa576000841561b598578287015190505b61b5a2858261a967565b86555061b60a565b601f19841661b5b88661a7e1565b60005b8281101561b5e05784890151825560018201915060208501945060208101905061b5bb565b8683101561b5fd578489015161b5f9601f89168261a949565b8355505b6001600288020188555050505b505050505050565b600060608201905061b62760008301866188fa565b61b63460208301856188fa565b61b6416040830184618990565b949350505050565b7f4552433732313a206d696e7420746f20746865207a65726f2061646472657373600082015250565b600061b67f6020836187be565b915061b68a8261b649565b602082019050919050565b6000602082019050818103600083015261b6ae8161b672565b9050919050565b7f4552433732313a20746f6b656e20616c7265616479206d696e74656400000000600082015250565b600061b6eb601c836187be565b915061b6f68261b6b5565b602082019050919050565b6000602082019050818103600083015261b71a8161b6de565b9050919050565b600060408201905061b73660008301856188fa565b61b7436020830184618990565b9392505050565b600081519050919050565b600082825260208201905092915050565b600061b7718261b74a565b61b77b818561b755565b935061b78b8185602086016187cf565b61b794816187f9565b840191505092915050565b600060808201905061b7b460008301876188fa565b61b7c160208301866188fa565b61b7ce6040830185618990565b818103606083015261b7e0818461b766565b905095945050505050565b60008151905061b7fa81618724565b92915050565b60006020828403121561b8165761b8156186ee565b5b600061b8248482850161b7eb565b91505092915050565b60008151905061b83c81618aed565b92915050565b60006020828403121561b8585761b8576186ee565b5b600061b8668482850161b82d565b91505092915050565b7f5361666545524332303a204552433230206f7065726174696f6e20646964206e60008201527f6f74207375636365656400000000000000000000000000000000000000000000602082015250565b600061b8cb602a836187be565b915061b8d68261b86f565b604082019050919050565b6000602082019050818103600083015261b8fa8161b8be565b9050919050565b7f455243373231456e756d657261626c653a20636f6e736563757469766520747260008201527f616e7366657273206e6f7420737570706f727465640000000000000000000000602082015250565b600061b95d6035836187be565b915061b9688261b901565b604082019050919050565b6000602082019050818103600083015261b98c8161b950565b9050919050565b7f6d73672e73656e64657220213d2066726f6d4164647265737300000000000000600082015250565b600061b9c96019836187be565b915061b9d48261b993565b602082019050919050565b6000602082019050818103600083015261b9f88161b9bc565b9050919050565b7f6e6f7420696e207472616e736665722077686974656c69737400000000000000600082015250565b600061ba356019836187be565b915061ba408261b9ff565b602082019050919050565b6000602082019050818103600083015261ba648161ba28565b9050919050565b7f6e6f7420696e2077686974656c697374207472616e736665722074696d65207260008201527f616e676500000000000000000000000000000000000000000000000000000000602082015250565b600061bac76024836187be565b915061bad28261ba6b565b604082019050919050565b6000602082019050818103600083015261baf68161baba565b9050919050565b7f4e487b7100000000000000000000000000000000000000000000000000000000600052603160045260246000fd5b7f416464726573733a20696e73756666696369656e742062616c616e636520666f60008201527f722063616c6c0000000000000000000000000000000000000000000000000000602082015250565b600061bb886026836187be565b915061bb938261bb2c565b604082019050919050565b6000602082019050818103600083015261bbb78161bb7b565b9050919050565b600081905092915050565b600061bbd48261b74a565b61bbde818561bbbe565b935061bbee8185602086016187cf565b80840191505092915050565b600061bc06828461bbc9565b915081905092915050565b7f416464726573733a2063616c6c20746f206e6f6e2d636f6e7472616374000000600082015250565b600061bc47601d836187be565b915061bc528261bc11565b602082019050919050565b6000602082019050818103600083015261bc768161bc3a565b905091905056fe45574d204c696768742d436c69656e7420284358542920436f6e74726f6c6c6572a2646970667358221220ebdc11d9fa7301ad950ba0d3714c69b9de816275350f6c0c8b9f183b7724fd5664736f6c634300081c0033",
  "linkReferences": {},
  "deployedLinkReferences": {}
}