{
  "_format": "hh-sol-artifact-1",
  "contractName": "EwmNftAllowance",
  "sourceName": "contracts/EwmNftAllowance.sol",
  "abi": [
    {
      "inputs": [
        {
          "internalType": "uint256",
          "name": "_stakePrice",
          "type": "uint256"
        },
        {
          "internalType": "contract IERC20Upgradeable",
          "name": "_cxt",
          "type": "address"
        },
        {
          "internalType": "contract IERC721",
          "name": "_nftController",
          "type": "address"
        },
        {
          "internalType": "uint256",
          "name": "_startTime",
          "type": "uint256"
        },
        {
          "internalType": "uint256",
          "name": "_endTime",
          "type": "uint256"
        },
        {
          "internalType": "uint256",
          "name": "_maxTotalStakeable",
          "type": "uint256"
        },
        {
          "internalType": "uint256",
          "name": "_nftExpiryTime",
          "type": "uint256"
        }
      ],
      "stateMutability": "nonpayable",
      "type": "constructor"
    },
    {
      "anonymous": false,
      "inputs": [
        {
          "indexed": false,
          "internalType": "address",
          "name": "staker",
          "type": "address"
        },
        {
          "indexed": false,
          "internalType": "uint256",
          "name": "nftQuantity",
          "type": "uint256"
        }
      ],
      "name": "Allocation",
      "type": "event"
    },
    {
      "anonymous": false,
      "inputs": [
        {
          "indexed": false,
          "internalType": "uint256",
          "name": "startTime",
          "type": "uint256"
        },
        {
          "indexed": false,
          "internalType": "uint256",
          "name": "endTime",
          "type": "uint256"
        }
      ],
      "name": "AllocationPeriodUpdated",
      "type": "event"
    },
    {
      "anonymous": false,
      "inputs": [
        {
          "indexed": false,
          "internalType": "bool",
          "name": "newIsIntegerAllowance",
          "type": "bool"
        }
      ],
      "name": "IntegerAllocationUpdated",
      "type": "event"
    },
    {
      "anonymous": false,
      "inputs": [
        {
          "indexed": false,
          "internalType": "uint256",
          "name": "newMaxTotalStakeable",
          "type": "uint256"
        }
      ],
      "name": "MaxTotalStakeableUpdated",
      "type": "event"
    },
    {
      "anonymous": false,
      "inputs": [
        {
          "indexed": false,
          "internalType": "contract IERC721",
          "name": "newController",
          "type": "address"
        }
      ],
      "name": "NftControllerUpdated",
      "type": "event"
    },
    {
      "anonymous": false,
      "inputs": [
        {
          "indexed": false,
          "internalType": "uint256",
          "name": "newExpiryTime",
          "type": "uint256"
        }
      ],
      "name": "NftExpiryTimeUpdated",
      "type": "event"
    },
    {
      "anonymous": false,
      "inputs": [
        {
          "indexed": true,
          "internalType": "address",
          "name": "previousOwner",
          "type": "address"
        },
        {
          "indexed": true,
          "internalType": "address",
          "name": "newOwner",
          "type": "address"
        }
      ],
      "name": "OwnershipTransferStarted",
      "type": "event"
    },
    {
      "anonymous": false,
      "inputs": [
        {
          "indexed": true,
          "internalType": "address",
          "name": "previousOwner",
          "type": "address"
        },
        {
          "indexed": true,
          "internalType": "address",
          "name": "newOwner",
          "type": "address"
        }
      ],
      "name": "OwnershipTransferred",
      "type": "event"
    },
    {
      "anonymous": false,
      "inputs": [
        {
          "indexed": false,
          "internalType": "address",
          "name": "account",
          "type": "address"
        }
      ],
      "name": "Paused",
      "type": "event"
    },
    {
      "anonymous": false,
      "inputs": [
        {
          "indexed": false,
          "internalType": "address",
          "name": "to",
          "type": "address"
        },
        {
          "indexed": false,
          "internalType": "uint256",
          "name": "amount",
          "type": "uint256"
        }
      ],
      "name": "StakeReleased",
      "type": "event"
    },
    {
      "anonymous": false,
      "inputs": [
        {
          "indexed": false,
          "internalType": "address",
          "name": "account",
          "type": "address"
        }
      ],
      "name": "Unpaused",
      "type": "event"
    },
    {
      "anonymous": false,
      "inputs": [
        {
          "indexed": false,
          "internalType": "bytes32",
          "name": "newRootHash",
          "type": "bytes32"
        }
      ],
      "name": "WhitelistRootHashUpdated",
      "type": "event"
    },
    {
      "inputs": [],
      "name": "acceptOwnership",
      "outputs": [],
      "stateMutability": "nonpayable",
      "type": "function"
    },
    {
      "inputs": [
        {
          "internalType": "address",
          "name": "user",
          "type": "address"
        },
        {
          "internalType": "bytes32[]",
          "name": "merkleProof",
          "type": "bytes32[]"
        }
      ],
      "name": "checkWhitelist",
      "outputs": [
        {
          "internalType": "bool",
          "name": "",
          "type": "bool"
        }
      ],
      "stateMutability": "view",
      "type": "function"
    },
    {
      "inputs": [],
      "name": "cxt",
      "outputs": [
        {
          "internalType": "contract IERC20Upgradeable",
          "name": "",
          "type": "address"
        }
      ],
      "stateMutability": "view",
      "type": "function"
    },
    {
      "inputs": [],
      "name": "endTime",
      "outputs": [
        {
          "internalType": "uint256",
          "name": "",
          "type": "uint256"
        }
      ],
      "stateMutability": "view",
      "type": "function"
    },
    {
      "inputs": [],
      "name": "getMetadata",
      "outputs": [
        {
          "internalType": "address",
          "name": "_nftAllowance",
          "type": "address"
        },
        {
          "internalType": "contract IERC721",
          "name": "_nftController",
          "type": "address"
        },
        {
          "internalType": "contract IERC20Upgradeable",
          "name": "_cxt",
          "type": "address"
        },
        {
          "internalType": "uint256",
          "name": "_stakePrice",
          "type": "uint256"
        },
        {
          "internalType": "uint256",
          "name": "_startTime",
          "type": "uint256"
        },
        {
          "internalType": "uint256",
          "name": "_endTime",
          "type": "uint256"
        },
        {
          "internalType": "uint256",
          "name": "_maxTotalStakeable",
          "type": "uint256"
        },
        {
          "internalType": "uint256",
          "name": "_totalStakeReceived",
          "type": "uint256"
        },
        {
          "internalType": "uint256",
          "name": "_nftExpiryTime",
          "type": "uint256"
        },
        {
          "internalType": "bytes32",
          "name": "_whitelistRootHash",
          "type": "bytes32"
        },
        {
          "internalType": "bool",
          "name": "_isIntegerAllowance",
          "type": "bool"
        }
      ],
      "stateMutability": "view",
      "type": "function"
    },
    {
      "inputs": [],
      "name": "isIntegerAllowance",
      "outputs": [
        {
          "internalType": "bool",
          "name": "",
          "type": "bool"
        }
      ],
      "stateMutability": "view",
      "type": "function"
    },
    {
      "inputs": [],
      "name": "maxTotalStakeable",
      "outputs": [
        {
          "internalType": "uint256",
          "name": "",
          "type": "uint256"
        }
      ],
      "stateMutability": "view",
      "type": "function"
    },
    {
      "inputs": [],
      "name": "nftController",
      "outputs": [
        {
          "internalType": "contract IERC721",
          "name": "",
          "type": "address"
        }
      ],
      "stateMutability": "view",
      "type": "function"
    },
    {
      "inputs": [],
      "name": "nftExpiryTime",
      "outputs": [
        {
          "internalType": "uint256",
          "name": "",
          "type": "uint256"
        }
      ],
      "stateMutability": "view",
      "type": "function"
    },
    {
      "inputs": [],
      "name": "owner",
      "outputs": [
        {
          "internalType": "address",
          "name": "",
          "type": "address"
        }
      ],
      "stateMutability": "view",
      "type": "function"
    },
    {
      "inputs": [],
      "name": "pause",
      "outputs": [],
      "stateMutability": "nonpayable",
      "type": "function"
    },
    {
      "inputs": [],
      "name": "paused",
      "outputs": [
        {
          "internalType": "bool",
          "name": "",
          "type": "bool"
        }
      ],
      "stateMutability": "view",
      "type": "function"
    },
    {
      "inputs": [],
      "name": "pendingOwner",
      "outputs": [
        {
          "internalType": "address",
          "name": "",
          "type": "address"
        }
      ],
      "stateMutability": "view",
      "type": "function"
    },
    {
      "inputs": [
        {
          "internalType": "uint256",
          "name": "nftQuantityToRelease",
          "type": "uint256"
        }
      ],
      "name": "releaseNftStake",
      "outputs": [],
      "stateMutability": "nonpayable",
      "type": "function"
    },
    {
      "inputs": [],
      "name": "renounceOwnership",
      "outputs": [],
      "stateMutability": "nonpayable",
      "type": "function"
    },
    {
      "inputs": [
        {
          "internalType": "bool",
          "name": "_isIntegerAllowance",
          "type": "bool"
        }
      ],
      "name": "setIsIntegerAllocation",
      "outputs": [],
      "stateMutability": "nonpayable",
      "type": "function"
    },
    {
      "inputs": [
        {
          "internalType": "contract IERC721",
          "name": "_nftController",
          "type": "address"
        }
      ],
      "name": "setNftControllerAddress",
      "outputs": [],
      "stateMutability": "nonpayable",
      "type": "function"
    },
    {
      "inputs": [
        {
          "internalType": "uint256",
          "name": "_nftExpiryTime",
          "type": "uint256"
        }
      ],
      "name": "setNftExpiryTime",
      "outputs": [],
      "stateMutability": "nonpayable",
      "type": "function"
    },
    {
      "inputs": [
        {
          "internalType": "bytes32",
          "name": "_rootHash",
          "type": "bytes32"
        }
      ],
      "name": "setWhitelistRootHash",
      "outputs": [],
      "stateMutability": "nonpayable",
      "type": "function"
    },
    {
      "inputs": [],
      "name": "stakePrice",
      "outputs": [
        {
          "internalType": "uint256",
          "name": "",
          "type": "uint256"
        }
      ],
      "stateMutability": "view",
      "type": "function"
    },
    {
      "inputs": [],
      "name": "startTime",
      "outputs": [
        {
          "internalType": "uint256",
          "name": "",
          "type": "uint256"
        }
      ],
      "stateMutability": "view",
      "type": "function"
    },
    {
      "inputs": [
        {
          "internalType": "address",
          "name": "",
          "type": "address"
        }
      ],
      "name": "totalNftToMint",
      "outputs": [
        {
          "internalType": "uint256",
          "name": "",
          "type": "uint256"
        }
      ],
      "stateMutability": "view",
      "type": "function"
    },
    {
      "inputs": [],
      "name": "totalStakeReceived",
      "outputs": [
        {
          "internalType": "uint256",
          "name": "",
          "type": "uint256"
        }
      ],
      "stateMutability": "view",
      "type": "function"
    },
    {
      "inputs": [
        {
          "internalType": "address",
          "name": "newOwner",
          "type": "address"
        }
      ],
      "name": "transferOwnership",
      "outputs": [],
      "stateMutability": "nonpayable",
      "type": "function"
    },
    {
      "inputs": [],
      "name": "unpause",
      "outputs": [],
      "stateMutability": "nonpayable",
      "type": "function"
    },
    {
      "inputs": [
        {
          "internalType": "uint256",
          "name": "_startTime",
          "type": "uint256"
        },
        {
          "internalType": "uint256",
          "name": "_endTime",
          "type": "uint256"
        }
      ],
      "name": "updateAllocationPeriod",
      "outputs": [],
      "stateMutability": "nonpayable",
      "type": "function"
    },
    {
      "inputs": [
        {
          "internalType": "uint256",
          "name": "_maxTotalStakeable",
          "type": "uint256"
        }
      ],
      "name": "updateMaxTotalStakeable",
      "outputs": [],
      "stateMutability": "nonpayable",
      "type": "function"
    },
    {
      "inputs": [
        {
          "internalType": "address",
          "name": "",
          "type": "address"
        }
      ],
      "name": "userStakeAmount",
      "outputs": [
        {
          "internalType": "uint256",
          "name": "",
          "type": "uint256"
        }
      ],
      "stateMutability": "view",
      "type": "function"
    },
    {
      "inputs": [],
      "name": "whitelistRootHash",
      "outputs": [
        {
          "internalType": "bytes32",
          "name": "",
          "type": "bytes32"
        }
      ],
      "stateMutability": "view",
      "type": "function"
    },
    {
      "inputs": [
        {
          "internalType": "uint256",
          "name": "nftQuantity",
          "type": "uint256"
        },
        {
          "internalType": "bytes32[]",
          "name": "merkleProof",
          "type": "bytes32[]"
        }
      ],
      "name": "whitelistedAllocation",
      "outputs": [],
      "stateMutability": "nonpayable",
      "type": "function"
    }
  ],
  "bytecode": "0x60806040526000600e60006101000a81548160ff02191690831515021790555034801561002b57600080fd5b50604051614fe9380380614fe9833981810160405281019061004d91906108fd565b61006961005e61070e60201b60201c565b61071660201b60201c565b6000600160146101000a81548160ff02191690831515021790555060016002819055506100a66785feac2c3414d5a660c01b61074d60201b60201c565b6100c06720f2c667d772a85960c01b61074d60201b60201c565b6100da6730bd62aa202c695060c01b61074d60201b60201c565b6100f467ce7f4513db3491bf60c01b61074d60201b60201c565b60008711610137576040517f08c379a000000000000000000000000000000000000000000000000000000000815260040161012e90610a22565b60405180910390fd5b6101516761e5507db2d5f93560c01b61074d60201b60201c565b61016b679e2e6d8c8a99f50460c01b61074d60201b60201c565b6101856732f2dcfbb6f31a8360c01b61074d60201b60201c565b61019f6775a6f720750c257d60c01b61074d60201b60201c565b600073ffffffffffffffffffffffffffffffffffffffff168673ffffffffffffffffffffffffffffffffffffffff160361020e576040517f08c379a000000000000000000000000000000000000000000000000000000000815260040161020590610a8e565b60405180910390fd5b6102286737a9e703b917efb060c01b61074d60201b60201c565b610242679902f0cfb0cb846f60c01b61074d60201b60201c565b61025c679615b55f260f161360c01b61074d60201b60201c565b61027667854079443268506c60c01b61074d60201b60201c565b600073ffffffffffffffffffffffffffffffffffffffff168573ffffffffffffffffffffffffffffffffffffffff16036102e5576040517f08c379a00000000000000000000000000000000000000000000000000000000081526004016102dc90610b20565b60405180910390fd5b6102ff675626f983947ba0f960c01b61074d60201b60201c565b61031967021df7817df6fc2160c01b61074d60201b60201c565b61033367d5ab6b5bee79751e60c01b61074d60201b60201c565b61034d67d699ee5b450b042260c01b61074d60201b60201c565b42841161038f576040517f08c379a000000000000000000000000000000000000000000000000000000000815260040161038690610b8c565b60405180910390fd5b6103a9677248838dcc22762c60c01b61074d60201b60201c565b6103c367064673aef45c42fd60c01b61074d60201b60201c565b6103dd67586ae9bc4db382eb60c01b61074d60201b60201c565b6103f767bd1d0bff578056ef60c01b61074d60201b60201c565b838311610439576040517f08c379a000000000000000000000000000000000000000000000000000000000815260040161043090610c1e565b60405180910390fd5b610453679d758f309e90fa4f60c01b61074d60201b60201c565b61046d6732b6777d4a7f4b4460c01b61074d60201b60201c565b61048767b4f27ff97baa539760c01b61074d60201b60201c565b6104a16767592a9341d5e9c860c01b61074d60201b60201c565b600082116104e4576040517f08c379a00000000000000000000000000000000000000000000000000000000081526004016104db90610cb0565b60405180910390fd5b6104fe67fc3a4adb304c53e860c01b61074d60201b60201c565b6105176647db4103d3071c60c01b61074d60201b60201c565b610531677e3a756ac581e7c660c01b61074d60201b60201c565b61054b67b5d1735741f80e0060c01b61074d60201b60201c565b82811161058d576040517f08c379a000000000000000000000000000000000000000000000000000000000815260040161058490610d42565b60405180910390fd5b6105a767810eedf9af3ce36160c01b61074d60201b60201c565b6105c1672f31b6e4ddf3131f60c01b61074d60201b60201c565b866005819055506105e267b44beaa95d10de4260c01b61074d60201b60201c565b85600360006101000a81548173ffffffffffffffffffffffffffffffffffffffff021916908373ffffffffffffffffffffffffffffffffffffffff16021790555061063d67560b34788d386df860c01b61074d60201b60201c565b84600460006101000a81548173ffffffffffffffffffffffffffffffffffffffff021916908373ffffffffffffffffffffffffffffffffffffffff16021790555061069867fda09bf365b6306360c01b61074d60201b60201c565b836006819055506106b9679e9410068d4eba5460c01b61074d60201b60201c565b826007819055506106da67bd5653889cd3a49e60c01b61074d60201b60201c565b816008819055506106fb6787d2681e1f797db260c01b61074d60201b60201c565b80600a8190555050505050505050610d62565b600033905090565b600160006101000a81549073ffffffffffffffffffffffffffffffffffffffff021916905561074a8161075060201b60201c565b50565b50565b60008060009054906101000a900473ffffffffffffffffffffffffffffffffffffffff169050816000806101000a81548173ffffffffffffffffffffffffffffffffffffffff021916908373ffffffffffffffffffffffffffffffffffffffff1602179055508173ffffffffffffffffffffffffffffffffffffffff168173ffffffffffffffffffffffffffffffffffffffff167f8be0079c531659141344cd1fd0a4f28419497f9722a3daafe3b4186f6b6457e060405160405180910390a35050565b600080fd5b6000819050919050565b61082c81610819565b811461083757600080fd5b50565b60008151905061084981610823565b92915050565b600073ffffffffffffffffffffffffffffffffffffffff82169050919050565b600061087a8261084f565b9050919050565b600061088c8261086f565b9050919050565b61089c81610881565b81146108a757600080fd5b50565b6000815190506108b981610893565b92915050565b60006108ca8261086f565b9050919050565b6108da816108bf565b81146108e557600080fd5b50565b6000815190506108f7816108d1565b92915050565b600080600080600080600060e0888a03121561091c5761091b610814565b5b600061092a8a828b0161083a565b975050602061093b8a828b016108aa565b965050604061094c8a828b016108e8565b955050606061095d8a828b0161083a565b945050608061096e8a828b0161083a565b93505060a061097f8a828b0161083a565b92505060c06109908a828b0161083a565b91505092959891949750929550565b600082825260208201905092915050565b7f5374616b65207072696365206d7573742062652067726561746572207468616e60008201527f2030000000000000000000000000000000000000000000000000000000000000602082015250565b6000610a0c60228361099f565b9150610a17826109b0565b604082019050919050565b60006020820190508181036000830152610a3b816109ff565b9050919050565b7f43585420746f6b656e20616464726573732063616e6e6f74206265207a65726f600082015250565b6000610a7860208361099f565b9150610a8382610a42565b602082019050919050565b60006020820190508181036000830152610aa781610a6b565b9050919050565b7f4e465420636f6e74726f6c6c657220616464726573732063616e6e6f7420626560008201527f207a65726f000000000000000000000000000000000000000000000000000000602082015250565b6000610b0a60258361099f565b9150610b1582610aae565b604082019050919050565b60006020820190508181036000830152610b3981610afd565b9050919050565b7f53746172742074696d65206d75737420626520696e2074686520667574757265600082015250565b6000610b7660208361099f565b9150610b8182610b40565b602082019050919050565b60006020820190508181036000830152610ba581610b69565b9050919050565b7f456e642074696d65206d7573742062652061667465722073746172742074696d60008201527f6500000000000000000000000000000000000000000000000000000000000000602082015250565b6000610c0860218361099f565b9150610c1382610bac565b604082019050919050565b60006020820190508181036000830152610c3781610bfb565b9050919050565b7f4d617820746f74616c207374616b6561626c65206d757374206265206772656160008201527f746572207468616e203000000000000000000000000000000000000000000000602082015250565b6000610c9a602a8361099f565b9150610ca582610c3e565b604082019050919050565b60006020820190508181036000830152610cc981610c8d565b9050919050565b7f4e4654206578706972792074696d65206d75737420626520616674657220656e60008201527f642074696d650000000000000000000000000000000000000000000000000000602082015250565b6000610d2c60268361099f565b9150610d3782610cd0565b604082019050919050565b60006020820190508181036000830152610d5b81610d1f565b9050919050565b61427880610d716000396000f3fe608060405234801561001057600080fd5b506004361061016a5760003560e01c8063064f8cce1461016f5780631649a8a91461018d57806319a95d0a146101bd5780631a2cec81146101db5780631f383e26146101f75780633197cbb614610213578063367998df146102315780633762723d1461024d5780633b27d3131461027d5780633e84681a146102995780633f4ba83a146102c957806358c9cb2d146102d35780635c975abb146102f1578063661183371461030f578063715018a61461032d57806378e979251461033757806379ba5097146103555780637a5b4f591461035f5780637eece2a01461038757806382d9aa95146103a357806383a90680146103bf5780638456cb59146103db5780638da5cb5b146103e5578063a023cf6914610403578063cfa3a8ed14610421578063d1a12d6a1461043f578063e30c39781461045d578063ed6bc13f1461047b578063ede2d03914610497578063f2fde38b146104b5575b600080fd5b6101776104d1565b6040516101849190612b79565b60405180910390f35b6101a760048036038101906101a29190612c41565b6104f7565b6040516101b49190612cbc565b60405180910390f35b6101c56105e0565b6040516101d29190612cf0565b60405180910390f35b6101f560048036038101906101f09190612d37565b6105e6565b005b610211600480360381019061020c9190612d90565b610c6d565b005b61021b610d71565b6040516102289190612cf0565b60405180910390f35b61024b60048036038101906102469190612df3565b610d77565b005b61026760048036038101906102629190612e20565b610e68565b6040516102749190612cf0565b60405180910390f35b61029760048036038101906102929190612e4d565b610e80565b005b6102b360048036038101906102ae9190612e20565b61128e565b6040516102c09190612cf0565b60405180910390f35b6102d16112a6565b005b6102db61131c565b6040516102e89190612cf0565b60405180910390f35b6102f9611322565b6040516103069190612cbc565b60405180910390f35b610317611339565b6040516103249190612ece565b60405180910390f35b61033561135f565b005b61033f611406565b60405161034c9190612cf0565b60405180910390f35b61035d61140c565b005b610367611499565b60405161037e9b9a99989796959493929190612f07565b60405180910390f35b6103a1600480360381019061039c9190612d37565b611575565b005b6103bd60048036038101906103b89190612d37565b6116ca565b005b6103d960048036038101906103d49190612ff0565b61181f565b005b6103e36119d9565b005b6103ed611a4f565b6040516103fa919061301d565b60405180910390f35b61040b611a78565b6040516104189190612cf0565b60405180910390f35b610429611a7e565b6040516104369190612cf0565b60405180910390f35b610447611a84565b6040516104549190613038565b60405180910390f35b610465611a8a565b604051610472919061301d565b60405180910390f35b61049560048036038101906104909190613053565b611ab4565b005b61049f611dde565b6040516104ac9190612cbc565b60405180910390f35b6104cf60048036038101906104ca9190612e20565b611df1565b005b600460009054906101000a900473ffffffffffffffffffffffffffffffffffffffff1681565b600061050d67668996ee896e0e4c60c01b611e9e565b61052167790f482bdaeea78560c01b611e9e565b6105356734379fb180e0d61060c01b611e9e565b60008460405160200161054891906130db565b60405160208183030381529060405280519060200120905061057467a701626d0c99dad360c01b611e9e565b61058867f2ab7e7318c202e660c01b611e9e565b6105d6848480806020026020016040519081016040528093929190818152602001838360200280828437600081840152601f19601f82011690508083019250505050505050600d5483611ea1565b9150509392505050565b60095481565b6105fa678d2cf0ddc83bd9e460c01b611e9e565b610602611eb8565b61061667c4e268122080d74b60c01b611e9e565b61062a675c88d2e8addc4bf060c01b611e9e565b610632611f02565b610646674322f74544199a3a60c01b611e9e565b61065a67d2432b97b6c04ab960c01b611e9e565b61066e67bd64503b85cc448160c01b611e9e565b61068267c548acbd61fc50a860c01b611e9e565b610696678de129b5d857b22e60c01b611e9e565b6106aa673b69f42cb1a965aa60c01b611e9e565b60075442116106ee576040517f08c379a00000000000000000000000000000000000000000000000000000000081526004016106e590613153565b60405180910390fd5b610702679380ffdbcaf2bffd60c01b611e9e565b61071667a470103720d07f1060c01b611e9e565b61072a6731afe65fc74ead1260c01b611e9e565b61073e6740bc0660a3c6f79060c01b611e9e565b610752672b65e0bf53ae759b60c01b611e9e565b610766675a06ce6ff75aa9ca60c01b611e9e565b61077a6795897fde92f48c8c60c01b611e9e565b600a5442116107be576040517f08c379a00000000000000000000000000000000000000000000000000000000081526004016107b5906131bf565b60405180910390fd5b6107d267e75b99e67d1a70a960c01b611e9e565b6107e667dc2ef704f8f8d19660c01b611e9e565b6107fa672c396281c151798560c01b611e9e565b61080e6709aa500942ab482560c01b611e9e565b60008111610851576040517f08c379a00000000000000000000000000000000000000000000000000000000081526004016108489061322b565b60405180910390fd5b61086567dbda7b708027eff960c01b611e9e565b610879679c892fcde5f557a260c01b611e9e565b61088d6794363b15274d98fe60c01b611e9e565b6000600460009054906101000a900473ffffffffffffffffffffffffffffffffffffffff1673ffffffffffffffffffffffffffffffffffffffff166370a08231336040518263ffffffff1660e01b81526004016108ea919061301d565b602060405180830381865afa158015610907573d6000803e3d6000fd5b505050506040513d601f19601f8201168201806040525081019061092b9190613260565b905061094167fd642274289e88d360c01b611e9e565b61095567324161d46f31557660c01b611e9e565b610969678f2348e5a73b808560c01b611e9e565b818110156109ac576040517f08c379a00000000000000000000000000000000000000000000000000000000081526004016109a3906132d9565b60405180910390fd5b6109c0676dc7f9f7944a6a9160c01b611e9e565b6109d467fa8ec0c0118db22c60c01b611e9e565b6109e86709282c72320aa29d60c01b611e9e565b6000600554836109f89190613328565b9050610a0e676e070bcea275584160c01b611e9e565b610a2267855597573243dad160c01b611e9e565b610a36673804e4790c44e22760c01b611e9e565b80600c60003373ffffffffffffffffffffffffffffffffffffffff1673ffffffffffffffffffffffffffffffffffffffff168152602001908152602001600020541015610ab8576040517f08c379a0000000000000000000000000000000000000000000000000000000008152600401610aaf906133b6565b60405180910390fd5b610acc67dfa85e0e8ddb925960c01b611e9e565b610ae067b5cb65befcfb810a60c01b611e9e565b80600c60003373ffffffffffffffffffffffffffffffffffffffff1673ffffffffffffffffffffffffffffffffffffffff1681526020019081526020016000206000828254610b2f91906133d6565b92505081905550610b4a67d4bdb88cfa58016c60c01b611e9e565b8060096000828254610b5c91906133d6565b92505081905550610b7767c657d1456dc117d660c01b611e9e565b82600b60003373ffffffffffffffffffffffffffffffffffffffff1673ffffffffffffffffffffffffffffffffffffffff1681526020019081526020016000206000828254610bc691906133d6565b92505081905550610be167cef231efe7ab260a60c01b611e9e565b610bf5678ef2f2e0bc1375fd60c01b611e9e565b610bff3382611f4f565b610c13679e004660dff861f560c01b611e9e565b610c276711393004d1120e5660c01b611e9e565b7fb1c90ce88682afb6fb54564abd065e17c4728f8cb472ff17ef458143f3f779713382604051610c5892919061340a565b60405180910390a15050610c6a611fdc565b50565b610c8167f40b0fd491197e2860c01b611e9e565b610c89611eb8565b610c9d67ce841e921a1c6a1960c01b611e9e565b610cb16708249e32d33298d360c01b611e9e565b610cb9611fe6565b610ccd67350b3c2d6585811760c01b611e9e565b610ce167b3f2317c0571772d60c01b611e9e565b610cf5674e2fa476df1f214f60c01b611e9e565b80600e60006101000a81548160ff021916908315150217905550610d2367acfdbf39b5d4e66b60c01b611e9e565b610d37676e4144a6e15f794060c01b611e9e565b7fdb3c6d90b64b754cc06b09a87d4e9119c9138071092b6820b18872712370e7d081604051610d669190612cbc565b60405180910390a150565b60075481565b610d8b671cfb960cd4bbf32460c01b611e9e565b610d93611eb8565b610da767437b43d5311bf32b60c01b611e9e565b610dbb67c8f9760bf4d5de7e60c01b611e9e565b610dc3611fe6565b610dd76731cfd4ffaa4ebef960c01b611e9e565b610deb67731fea1d5230253960c01b611e9e565b610dff67d2e2ed52a9bca43960c01b611e9e565b80600d81905550610e1a673705e2736b9f508460c01b611e9e565b610e2e67e987f03c0261ecdf60c01b611e9e565b7ff2aae7c39e8c839e21b9487d31149b8ee40067de97327d8df0c4df1272c76f1b81604051610e5d9190613038565b60405180910390a150565b600b6020528060005260406000206000915090505481565b610e946756b69c43ac44142360c01b611e9e565b610e9c611eb8565b610eb067ca329b4525a1f77f60c01b611e9e565b610ec4675ee050a47aea0f9c60c01b611e9e565b610ed86731d42d76596f586c60c01b611e9e565b610eec673d1fd73c64f1dc6c60c01b611e9e565b610f006719e1c360f70355b960c01b611e9e565b610f1467ca3c5dbdf0f3ca5260c01b611e9e565b6006544210158015610f2857506007544211155b610f67576040517f08c379a0000000000000000000000000000000000000000000000000000000008152600401610f5e9061347f565b60405180910390fd5b610f7a6647290540e4907360c01b611e9e565b610f8e67a598cabe79718c3f60c01b611e9e565b610fa26720b089eeecf49ec960c01b611e9e565b610fb667a1bf8c95e27d91cf60c01b611e9e565b610fbe611f02565b610fd2679991ec58b7aadf8160c01b611e9e565b610fe6673f67bc770a4dad3360c01b611e9e565b610ffa677475400ef13fa83560c01b611e9e565b61100e6714d3b3472cc7ac0e60c01b611e9e565b611022675932379302ddce5360c01b611e9e565b61103461102d612064565b83836104f7565b611073576040517f08c379a000000000000000000000000000000000000000000000000000000000815260040161106a906134eb565b60405180910390fd5b61108767b46cfab2caaff93760c01b611e9e565b61109b6727dd35d5a697e88d60c01b611e9e565b6110af675d3a792ba3cc277360c01b611e9e565b6110bf6110ba612064565b61206c565b1561123b576110d8670d1739f687dc99a460c01b611e9e565b6110ec671190f751348f7edf60c01b611e9e565b6111006795bf341792b3829f60c01b611e9e565b61111467a7b69a9ccd929b6660c01b611e9e565b63150b7a0260e01b7bffffffffffffffffffffffffffffffffffffffffffffffffffffffff1916611143612064565b73ffffffffffffffffffffffffffffffffffffffff1663150b7a02306000806040518463ffffffff1660e01b81526004016111809392919061357d565b6020604051808303816000875af115801561119f573d6000803e3d6000fd5b505050506040513d601f19601f820116820180604052508101906111c3919061361f565b7bffffffffffffffffffffffffffffffffffffffffffffffffffffffff191614611222576040517f08c379a0000000000000000000000000000000000000000000000000000000008152600401611219906136be565b60405180910390fd5b61123667aa9915ce363e21c060c01b611e9e565b611250565b61124f672ef9b8d7828aafd060c01b611e9e565b5b61126467fed19c2370b14af460c01b611e9e565b6112786712a56e7337cd363360c01b611e9e565b6112818361208f565b611289611fdc565b505050565b600c6020528060005260406000206000915090505481565b6112ba674f14519138078c0260c01b611e9e565b6112c2611fe6565b6112d667659014c5f4812b2260c01b611e9e565b6112ea67242701d8355c7ab360c01b611e9e565b6112fe67c9144023fda442ce60c01b611e9e565b611312673f1f1c46e28773e660c01b611e9e565b61131a612432565b565b60085481565b6000600160149054906101000a900460ff16905090565b600360009054906101000a900473ffffffffffffffffffffffffffffffffffffffff1681565b6113736750d39c3c4fdd249260c01b611e9e565b61137b611fe6565b61138f676d7e27a3f28ef88360c01b611e9e565b6113a367ff101e58a3e7acec60c01b611e9e565b6113b767e5b9a7641f44334460c01b611e9e565b6113cb67bfefe0ceae08bedc60c01b611e9e565b6040517f08c379a00000000000000000000000000000000000000000000000000000000081526004016113fd90613750565b60405180910390fd5b60065481565b6000611416612064565b90508073ffffffffffffffffffffffffffffffffffffffff16611437611a8a565b73ffffffffffffffffffffffffffffffffffffffff161461148d576040517f08c379a0000000000000000000000000000000000000000000000000000000008152600401611484906137e2565b60405180910390fd5b61149681612495565b50565b60008060008060008060008060008060006114be671ceadffaf9cb074460c01b611e9e565b6114d26795f13fd6f3e990b460c01b611e9e565b6114e6677c7bcef2305a9ec760c01b611e9e565b30600460009054906101000a900473ffffffffffffffffffffffffffffffffffffffff16600360009054906101000a900473ffffffffffffffffffffffffffffffffffffffff16600554600654600754600854600954600a54600d54600e60009054906101000a900460ff169a509a509a509a509a509a509a509a509a509a509a50909192939495969798999a565b611589677765c87517455cea60c01b611e9e565b611591611fe6565b6115a5677b78a887d3b87c3d60c01b611e9e565b6115b967f9ad7286fa36241460c01b611e9e565b6115cd6728e36935473800a460c01b611e9e565b6115e16783016d2907abf68960c01b611e9e565b6115f567cb3fd90a1d0a8dd460c01b611e9e565b6009548111611639576040517f08c379a000000000000000000000000000000000000000000000000000000000815260040161163090613874565b60405180910390fd5b61164d67a73f50fdfc7fbac960c01b611e9e565b61166167f00f21e5eced6daf60c01b611e9e565b8060088190555061167c67ba7d0e5b6019345660c01b611e9e565b6116906793f5cbdd76906d9360c01b611e9e565b7f0d25e5f314cfc411b3721161ede6df2763c0c1579eae0d86f2c3318945acfb61816040516116bf9190612cf0565b60405180910390a150565b6116de677a86ef60162b0c0960c01b611e9e565b6116e6611fe6565b6116fa67751169f56abe0e3460c01b611e9e565b61170e67882e6d09fe89058060c01b611e9e565b61172267ca7b05cccce4227760c01b611e9e565b6117366734433f3fb6865fe660c01b611e9e565b61174a67311ec5ceba81d6e560c01b611e9e565b600754811161178e576040517f08c379a000000000000000000000000000000000000000000000000000000000815260040161178590613906565b60405180910390fd5b6117a267171dcb5e1723c79360c01b611e9e565b6117b66763e68c4cfe30b87660c01b611e9e565b80600a819055506117d1678dcfcfd2248c910860c01b611e9e565b6117e56766881b276e54255760c01b611e9e565b7ffc539b05ede5d1a2bff34ed9e5b607fc145966f73526e3039c5379fd8918fe11816040516118149190612cf0565b60405180910390a150565b61183367dcfc00528f92669e60c01b611e9e565b61183b611fe6565b61184f67ce3143a6420af80760c01b611e9e565b61186367f97eb6db10c7855a60c01b611e9e565b611877670927bdb20be3b7c360c01b611e9e565b61188b6715f4f3fe6f3776b460c01b611e9e565b61189f6749a342873a1b18b060c01b611e9e565b600073ffffffffffffffffffffffffffffffffffffffff168173ffffffffffffffffffffffffffffffffffffffff160361190e576040517f08c379a000000000000000000000000000000000000000000000000000000000815260040161190590613998565b60405180910390fd5b611922675d11183d07ad162660c01b611e9e565b61193667841b1256bb19847060c01b611e9e565b80600460006101000a81548173ffffffffffffffffffffffffffffffffffffffff021916908373ffffffffffffffffffffffffffffffffffffffff16021790555061198b67ed949915f474c94660c01b611e9e565b61199f67aa6ede6f9c30458160c01b611e9e565b7f13db6e231e642090c800a5ac08ac4c1c9e852e517069e779d68ef58ed4d6c926816040516119ce9190612b79565b60405180910390a150565b6119ed6780b6579c2944981060c01b611e9e565b6119f5611fe6565b611a096709dd7ea7e86f275160c01b611e9e565b611a1d676d2a55606eb8d92060c01b611e9e565b611a31677e39106f21f6c5c260c01b611e9e565b611a4567ede9e526596c468460c01b611e9e565b611a4d6124c6565b565b60008060009054906101000a900473ffffffffffffffffffffffffffffffffffffffff16905090565b60055481565b600a5481565b600d5481565b6000600160009054906101000a900473ffffffffffffffffffffffffffffffffffffffff16905090565b611ac86719114893bb093e3c60c01b611e9e565b611ad0611fe6565b611ae467fde89f9ccce2006a60c01b611e9e565b611af867b80c92583743641a60c01b611e9e565b611b0c67216e4e8c74831c3c60c01b611e9e565b611b2067b3337dbd0f3e9b4460c01b611e9e565b611b34677cb87291d5ec2e2e60c01b611e9e565b818111611b76576040517f08c379a0000000000000000000000000000000000000000000000000000000008152600401611b6d90613a2a565b60405180910390fd5b611b8a67a2689033be8adca160c01b611e9e565b611b9e67098e7d3ded7144d560c01b611e9e565b611bb2679cd812ef27c1970d60c01b611e9e565b611bc667a0b6b01e37bb02d960c01b611e9e565b428111611c08576040517f08c379a0000000000000000000000000000000000000000000000000000000008152600401611bff90613a96565b60405180910390fd5b611c1c67b7c872d01e44f32a60c01b611e9e565b611c30671ecbd352881e840360c01b611e9e565b611c446726014e95652484a060c01b611e9e565b611c58676fc1f38da965bb9360c01b611e9e565b42821015611c9b576040517f08c379a0000000000000000000000000000000000000000000000000000000008152600401611c9290613b28565b60405180910390fd5b611caf673eda398ae88e4e4960c01b611e9e565b611cc36762dfc5a56f36dc5f60c01b611e9e565b611cd767ba408985b5b1156760c01b611e9e565b611ceb679fd15335474df49060c01b611e9e565b600a548110611d2f576040517f08c379a0000000000000000000000000000000000000000000000000000000008152600401611d2690613bba565b60405180910390fd5b611d43679d2fecb5deaad00360c01b611e9e565b611d576736a6971d3cceba9460c01b611e9e565b81600681905550611d72679ab28fe536c9efe560c01b611e9e565b80600781905550611d8d6774d31d84a69ef96660c01b611e9e565b611da1677e6dbb8183b08bfc60c01b611e9e565b7f4af52d4984c45541768152b3a142acfa8d1061c80f1b1fde26b9a6ad4ffa80f18282604051611dd2929190613bda565b60405180910390a15050565b600e60009054906101000a900460ff1681565b611df9611fe6565b80600160006101000a81548173ffffffffffffffffffffffffffffffffffffffff021916908373ffffffffffffffffffffffffffffffffffffffff1602179055508073ffffffffffffffffffffffffffffffffffffffff16611e59611a4f565b73ffffffffffffffffffffffffffffffffffffffff167f38d16b8cac22d99fc7c124b9cd0de2d3fa1faef420bfe791d8c362d765e2270060405160405180910390a350565b50565b600082611eae8584612528565b1490509392505050565b611ec0611322565b15611f00576040517f08c379a0000000000000000000000000000000000000000000000000000000008152600401611ef790613c4f565b60405180910390fd5b565b6002805403611f46576040517f08c379a0000000000000000000000000000000000000000000000000000000008152600401611f3d90613cbb565b60405180910390fd5b60028081905550565b611f6367e784780959fb8c9760c01b611e9e565b611f7767c43ae5159fbb7daa60c01b611e9e565b611f8b672d848b8251c860aa60c01b611e9e565b611fd88282600360009054906101000a900473ffffffffffffffffffffffffffffffffffffffff1673ffffffffffffffffffffffffffffffffffffffff166125789092919063ffffffff16565b5050565b6001600281905550565b611fee612064565b73ffffffffffffffffffffffffffffffffffffffff1661200c611a4f565b73ffffffffffffffffffffffffffffffffffffffff1614612062576040517f08c379a000000000000000000000000000000000000000000000000000000000815260040161205990613d27565b60405180910390fd5b565b600033905090565b6000808273ffffffffffffffffffffffffffffffffffffffff163b119050919050565b6120a3676fd632222b557e3760c01b611e9e565b6120b7678ec40f5f80d55eef60c01b611e9e565b6120cb67715c9233d0505c4660c01b611e9e565b6000600554826120db9190613328565b90506120f167137dd2cb5e6596ad60c01b611e9e565b612105672931f73bfafddae260c01b611e9e565b6121196732bd4991e0380db660c01b611e9e565b6008548160095461212a9190613d47565b111561216b576040517f08c379a000000000000000000000000000000000000000000000000000000000815260040161216290613ded565b60405180910390fd5b61217f678019276eb57f319b60c01b611e9e565b612193672753f59c4712da3f60c01b611e9e565b6121a76731c36f55cb9da83460c01b611e9e565b600e60009054906101000a900460ff1615612269576121d067e122b83840d915e960c01b611e9e565b6121e4679ca2e39e66fbdc5260c01b611e9e565b6121f86730b99e2f6cbaf65b60c01b611e9e565b61220c670fdde94a8f63a28660c01b611e9e565b600a821115612250576040517f08c379a000000000000000000000000000000000000000000000000000000000815260040161224790613e7f565b60405180910390fd5b6122646797e8e34ab63b483260c01b611e9e565b61227e565b61227d67bf52c52098f03d4360c01b611e9e565b5b6122926734e20a90ec4e099e60c01b611e9e565b6122a6677862e3d8026b569060c01b611e9e565b6122b76122b1612064565b826125fe565b6122cb67b6e3c6283e87b28f60c01b611e9e565b80600960008282546122dd9190613d47565b925050819055506122f867a9e1a3c03ef4f97d60c01b611e9e565b81600b6000612305612064565b73ffffffffffffffffffffffffffffffffffffffff1673ffffffffffffffffffffffffffffffffffffffff168152602001908152602001600020600082825461234e9190613d47565b9250508190555061236967c0436552ed11430160c01b611e9e565b80600c6000612376612064565b73ffffffffffffffffffffffffffffffffffffffff1673ffffffffffffffffffffffffffffffffffffffff16815260200190815260200160002060008282546123bf9190613d47565b925050819055506123da67e4d3df8ecf80747d60c01b611e9e565b6123ee67c3bd83cb73014af160c01b611e9e565b7f7a994e2e422225102fed915394da80aeeea86e2c0ca3f41d6d48421252f83b92612417612064565b8360405161242692919061340a565b60405180910390a15050565b61243a61268d565b6000600160146101000a81548160ff0219169083151502179055507f5db9ee0a495bf2e6ff9c91a7834c1ba4fdd244a5e8aa4e537bd38aeae4b073aa61247e612064565b60405161248b919061301d565b60405180910390a1565b600160006101000a81549073ffffffffffffffffffffffffffffffffffffffff02191690556124c3816126d6565b50565b6124ce611eb8565b60018060146101000a81548160ff0219169083151502179055507f62e78cea01bee320cd4e420270b5ea74000d11b0c9f74754ebdbfc544b05a258612511612064565b60405161251e919061301d565b60405180910390a1565b60008082905060005b845181101561256d5761255e8286838151811061255157612550613e9f565b5b602002602001015161279a565b91508080600101915050612531565b508091505092915050565b6125f98363a9059cbb60e01b848460405160240161259792919061340a565b604051602081830303815290604052907bffffffffffffffffffffffffffffffffffffffffffffffffffffffff19166020820180517bffffffffffffffffffffffffffffffffffffffffffffffffffffffff83818316178352505050506127c5565b505050565b61261267c2c1c0d33f35a75260c01b611e9e565b61262667af3fccba8c72e6a960c01b611e9e565b61263a679c376f88cf3e53cd60c01b611e9e565b612689823083600360009054906101000a900473ffffffffffffffffffffffffffffffffffffffff1673ffffffffffffffffffffffffffffffffffffffff1661288d909392919063ffffffff16565b5050565b612695611322565b6126d4576040517f08c379a00000000000000000000000000000000000000000000000000000000081526004016126cb90613f1a565b60405180910390fd5b565b60008060009054906101000a900473ffffffffffffffffffffffffffffffffffffffff169050816000806101000a81548173ffffffffffffffffffffffffffffffffffffffff021916908373ffffffffffffffffffffffffffffffffffffffff1602179055508173ffffffffffffffffffffffffffffffffffffffff168173ffffffffffffffffffffffffffffffffffffffff167f8be0079c531659141344cd1fd0a4f28419497f9722a3daafe3b4186f6b6457e060405160405180910390a35050565b60008183106127b2576127ad8284612916565b6127bd565b6127bc8383612916565b5b905092915050565b6000612827826040518060400160405280602081526020017f5361666545524332303a206c6f772d6c6576656c2063616c6c206661696c65648152508573ffffffffffffffffffffffffffffffffffffffff1661292d9092919063ffffffff16565b90506000815114806128495750808060200190518101906128489190613f4f565b5b612888576040517f08c379a000000000000000000000000000000000000000000000000000000000815260040161287f90613fee565b60405180910390fd5b505050565b612910846323b872dd60e01b8585856040516024016128ae9392919061400e565b604051602081830303815290604052907bffffffffffffffffffffffffffffffffffffffffffffffffffffffff19166020820180517bffffffffffffffffffffffffffffffffffffffffffffffffffffffff83818316178352505050506127c5565b50505050565b600082600052816020526040600020905092915050565b606061293c8484600085612945565b90509392505050565b60608247101561298a576040517f08c379a0000000000000000000000000000000000000000000000000000000008152600401612981906140b7565b60405180910390fd5b6000808673ffffffffffffffffffffffffffffffffffffffff1685876040516129b39190614148565b60006040518083038185875af1925050503d80600081146129f0576040519150601f19603f3d011682016040523d82523d6000602084013e6129f5565b606091505b5091509150612a0687838387612a12565b92505050949350505050565b60608315612a74576000835103612a6c57612a2c85612a87565b612a6b576040517f08c379a0000000000000000000000000000000000000000000000000000000008152600401612a62906141ab565b60405180910390fd5b5b829050612a7f565b612a7e8383612aaa565b5b949350505050565b6000808273ffffffffffffffffffffffffffffffffffffffff163b119050919050565b600082511115612abd5781518083602001fd5b806040517f08c379a0000000000000000000000000000000000000000000000000000000008152600401612af19190614220565b60405180910390fd5b600073ffffffffffffffffffffffffffffffffffffffff82169050919050565b6000819050919050565b6000612b3f612b3a612b3584612afa565b612b1a565b612afa565b9050919050565b6000612b5182612b24565b9050919050565b6000612b6382612b46565b9050919050565b612b7381612b58565b82525050565b6000602082019050612b8e6000830184612b6a565b92915050565b600080fd5b600080fd5b6000612ba982612afa565b9050919050565b612bb981612b9e565b8114612bc457600080fd5b50565b600081359050612bd681612bb0565b92915050565b600080fd5b600080fd5b600080fd5b60008083601f840112612c0157612c00612bdc565b5b8235905067ffffffffffffffff811115612c1e57612c1d612be1565b5b602083019150836020820283011115612c3a57612c39612be6565b5b9250929050565b600080600060408486031215612c5a57612c59612b94565b5b6000612c6886828701612bc7565b935050602084013567ffffffffffffffff811115612c8957612c88612b99565b5b612c9586828701612beb565b92509250509250925092565b60008115159050919050565b612cb681612ca1565b82525050565b6000602082019050612cd16000830184612cad565b92915050565b6000819050919050565b612cea81612cd7565b82525050565b6000602082019050612d056000830184612ce1565b92915050565b612d1481612cd7565b8114612d1f57600080fd5b50565b600081359050612d3181612d0b565b92915050565b600060208284031215612d4d57612d4c612b94565b5b6000612d5b84828501612d22565b91505092915050565b612d6d81612ca1565b8114612d7857600080fd5b50565b600081359050612d8a81612d64565b92915050565b600060208284031215612da657612da5612b94565b5b6000612db484828501612d7b565b91505092915050565b6000819050919050565b612dd081612dbd565b8114612ddb57600080fd5b50565b600081359050612ded81612dc7565b92915050565b600060208284031215612e0957612e08612b94565b5b6000612e1784828501612dde565b91505092915050565b600060208284031215612e3657612e35612b94565b5b6000612e4484828501612bc7565b91505092915050565b600080600060408486031215612e6657612e65612b94565b5b6000612e7486828701612d22565b935050602084013567ffffffffffffffff811115612e9557612e94612b99565b5b612ea186828701612beb565b92509250509250925092565b6000612eb882612b46565b9050919050565b612ec881612ead565b82525050565b6000602082019050612ee36000830184612ebf565b92915050565b612ef281612b9e565b82525050565b612f0181612dbd565b82525050565b600061016082019050612f1d600083018e612ee9565b612f2a602083018d612b6a565b612f37604083018c612ebf565b612f44606083018b612ce1565b612f51608083018a612ce1565b612f5e60a0830189612ce1565b612f6b60c0830188612ce1565b612f7860e0830187612ce1565b612f86610100830186612ce1565b612f94610120830185612ef8565b612fa2610140830184612cad565b9c9b505050505050505050505050565b6000612fbd82612b9e565b9050919050565b612fcd81612fb2565b8114612fd857600080fd5b50565b600081359050612fea81612fc4565b92915050565b60006020828403121561300657613005612b94565b5b600061301484828501612fdb565b91505092915050565b60006020820190506130326000830184612ee9565b92915050565b600060208201905061304d6000830184612ef8565b92915050565b6000806040838503121561306a57613069612b94565b5b600061307885828601612d22565b925050602061308985828601612d22565b9150509250929050565b60008160601b9050919050565b60006130ab82613093565b9050919050565b60006130bd826130a0565b9050919050565b6130d56130d082612b9e565b6130b2565b82525050565b60006130e782846130c4565b60148201915081905092915050565b600082825260208201905092915050565b7f416c6c6f636174696f6e20706572696f6420686173206e6f7420656e64656400600082015250565b600061313d601f836130f6565b915061314882613107565b602082019050919050565b6000602082019050818103600083015261316c81613130565b9050919050565b7f4e4654206578706972792074696d6520686173206e6f74207061737365640000600082015250565b60006131a9601e836130f6565b91506131b482613173565b602082019050919050565b600060208201905081810360008301526131d88161319c565b9050919050565b7f4d7573742072656c65617365206174206c65617374206f6e65204e4654000000600082015250565b6000613215601d836130f6565b9150613220826131df565b602082019050919050565b6000602082019050818103600083015261324481613208565b9050919050565b60008151905061325a81612d0b565b92915050565b60006020828403121561327657613275612b94565b5b60006132848482850161324b565b91505092915050565b7f496e73756666696369656e74204e465473206f776e6564000000000000000000600082015250565b60006132c36017836130f6565b91506132ce8261328d565b602082019050919050565b600060208201905081810360008301526132f2816132b6565b9050919050565b7f4e487b7100000000000000000000000000000000000000000000000000000000600052601160045260246000fd5b600061333382612cd7565b915061333e83612cd7565b925082820261334c81612cd7565b91508282048414831517613363576133626132f9565b5b5092915050565b7f496e73756666696369656e74207374616b6520616d6f756e7400000000000000600082015250565b60006133a06019836130f6565b91506133ab8261336a565b602082019050919050565b600060208201905081810360008301526133cf81613393565b9050919050565b60006133e182612cd7565b91506133ec83612cd7565b9250828203905081811115613404576134036132f9565b5b92915050565b600060408201905061341f6000830185612ee9565b61342c6020830184612ce1565b9392505050565b7f4e6f7420647572696e6720616c6c6f636174696f6e20706572696f6400000000600082015250565b6000613469601c836130f6565b915061347482613433565b602082019050919050565b600060208201905081810360008301526134988161345c565b9050919050565b7f70726f6f6620696e76616c696400000000000000000000000000000000000000600082015250565b60006134d5600d836130f6565b91506134e08261349f565b602082019050919050565b60006020820190508181036000830152613504816134c8565b9050919050565b6000819050919050565b600061353061352b6135268461350b565b612b1a565b612cd7565b9050919050565b61354081613515565b82525050565b600082825260208201905092915050565b50565b6000613567600083613546565b915061357282613557565b600082019050919050565b60006080820190506135926000830186612ee9565b61359f6020830185612ee9565b6135ac6040830184613537565b81810360608301526135bd8161355a565b9050949350505050565b60007fffffffff0000000000000000000000000000000000000000000000000000000082169050919050565b6135fc816135c7565b811461360757600080fd5b50565b600081519050613619816135f3565b92915050565b60006020828403121561363557613634612b94565b5b60006136438482850161360a565b91505092915050565b7f43616c6c65722063616e6e6f742068616e646c652045524337323120746f6b6560008201527f6e73000000000000000000000000000000000000000000000000000000000000602082015250565b60006136a86022836130f6565b91506136b38261364c565b604082019050919050565b600060208201905081810360008301526136d78161369b565b9050919050565b7f4f776e61626c6532537465703a2063616e206e6f742072656e6f756e6365206f60008201527f776e657273686970000000000000000000000000000000000000000000000000602082015250565b600061373a6028836130f6565b9150613745826136de565b604082019050919050565b600060208201905081810360008301526137698161372d565b9050919050565b7f4f776e61626c6532537465703a2063616c6c6572206973206e6f74207468652060008201527f6e6577206f776e65720000000000000000000000000000000000000000000000602082015250565b60006137cc6029836130f6565b91506137d782613770565b604082019050919050565b600060208201905081810360008301526137fb816137bf565b9050919050565b7f4e6577206d6178206d7573742062652067726561746572207468616e2063757260008201527f72656e7420746f74616c207374616b6500000000000000000000000000000000602082015250565b600061385e6030836130f6565b915061386982613802565b604082019050919050565b6000602082019050818103600083015261388d81613851565b9050919050565b7f4e4654206578706972792074696d65206d75737420626520616674657220656e60008201527f642074696d650000000000000000000000000000000000000000000000000000602082015250565b60006138f06026836130f6565b91506138fb82613894565b604082019050919050565b6000602082019050818103600083015261391f816138e3565b9050919050565b7f5a65726f2061646472657373206e6f7420616c6c6f77656420666f72204e465460008201527f20636f6e74726f6c6c6572000000000000000000000000000000000000000000602082015250565b6000613982602b836130f6565b915061398d82613926565b604082019050919050565b600060208201905081810360008301526139b181613975565b9050919050565b7f456e642074696d65206d7573742062652061667465722073746172742074696d60008201527f6500000000000000000000000000000000000000000000000000000000000000602082015250565b6000613a146021836130f6565b9150613a1f826139b8565b604082019050919050565b60006020820190508181036000830152613a4381613a07565b9050919050565b7f456e642074696d65206d75737420626520696e20746865206675747572650000600082015250565b6000613a80601e836130f6565b9150613a8b82613a4a565b602082019050919050565b60006020820190508181036000830152613aaf81613a73565b9050919050565b7f53746172742074696d65206d757374206e6f7420626520696e2074686520706160008201527f7374000000000000000000000000000000000000000000000000000000000000602082015250565b6000613b126022836130f6565b9150613b1d82613ab6565b604082019050919050565b60006020820190508181036000830152613b4181613b05565b9050919050565b7f456e642074696d65206d757374206265206265666f7265204e4654206578706960008201527f72792074696d6500000000000000000000000000000000000000000000000000602082015250565b6000613ba46027836130f6565b9150613baf82613b48565b604082019050919050565b60006020820190508181036000830152613bd381613b97565b9050919050565b6000604082019050613bef6000830185612ce1565b613bfc6020830184612ce1565b9392505050565b7f5061757361626c653a2070617573656400000000000000000000000000000000600082015250565b6000613c396010836130f6565b9150613c4482613c03565b602082019050919050565b60006020820190508181036000830152613c6881613c2c565b9050919050565b7f5265656e7472616e637947756172643a207265656e7472616e742063616c6c00600082015250565b6000613ca5601f836130f6565b9150613cb082613c6f565b602082019050919050565b60006020820190508181036000830152613cd481613c98565b9050919050565b7f4f776e61626c653a2063616c6c6572206973206e6f7420746865206f776e6572600082015250565b6000613d116020836130f6565b9150613d1c82613cdb565b602082019050919050565b60006020820190508181036000830152613d4081613d04565b9050919050565b6000613d5282612cd7565b9150613d5d83612cd7565b9250828201905080821115613d7557613d746132f9565b5b92915050565b7f45786365656473206d617820746f74616c20616c6c6f7761626c65207374616b60008201527f6500000000000000000000000000000000000000000000000000000000000000602082015250565b6000613dd76021836130f6565b9150613de282613d7b565b604082019050919050565b60006020820190508181036000830152613e0681613dca565b9050919050565b7f43616e206f6e6c79207374616b65203130204e465473206174206d617820696e60008201527f20696e746567657220616c6c6f77616e63650000000000000000000000000000602082015250565b6000613e696032836130f6565b9150613e7482613e0d565b604082019050919050565b60006020820190508181036000830152613e9881613e5c565b9050919050565b7f4e487b7100000000000000000000000000000000000000000000000000000000600052603260045260246000fd5b7f5061757361626c653a206e6f7420706175736564000000000000000000000000600082015250565b6000613f046014836130f6565b9150613f0f82613ece565b602082019050919050565b60006020820190508181036000830152613f3381613ef7565b9050919050565b600081519050613f4981612d64565b92915050565b600060208284031215613f6557613f64612b94565b5b6000613f7384828501613f3a565b91505092915050565b7f5361666545524332303a204552433230206f7065726174696f6e20646964206e60008201527f6f74207375636365656400000000000000000000000000000000000000000000602082015250565b6000613fd8602a836130f6565b9150613fe382613f7c565b604082019050919050565b6000602082019050818103600083015261400781613fcb565b9050919050565b60006060820190506140236000830186612ee9565b6140306020830185612ee9565b61403d6040830184612ce1565b949350505050565b7f416464726573733a20696e73756666696369656e742062616c616e636520666f60008201527f722063616c6c0000000000000000000000000000000000000000000000000000602082015250565b60006140a16026836130f6565b91506140ac82614045565b604082019050919050565b600060208201905081810360008301526140d081614094565b9050919050565b600081519050919050565b600081905092915050565b60005b8381101561410b5780820151818401526020810190506140f0565b60008484015250505050565b6000614122826140d7565b61412c81856140e2565b935061413c8185602086016140ed565b80840191505092915050565b60006141548284614117565b915081905092915050565b7f416464726573733a2063616c6c20746f206e6f6e2d636f6e7472616374000000600082015250565b6000614195601d836130f6565b91506141a08261415f565b602082019050919050565b600060208201905081810360008301526141c481614188565b9050919050565b600081519050919050565b6000601f19601f8301169050919050565b60006141f2826141cb565b6141fc81856130f6565b935061420c8185602086016140ed565b614215816141d6565b840191505092915050565b6000602082019050818103600083015261423a81846141e7565b90509291505056fea26469706673582212207e2b1009bf4ae0254245c908dc6691a1072268364c08300a8d5716c79ca78a3f64736f6c634300081c0033",
  "linkReferences": {},
  "deployedLinkReferences": {}
}